{
	"contracts/BlockbankSwap.sol": {
		"BlockbankSwap": {
			"abi": [
				{
					"inputs": [
						{
							"internalType": "address",
							"name": "_bbusd",
							"type": "address"
						},
						{
							"internalType": "address",
							"name": "_bbeth",
							"type": "address"
						},
						{
							"internalType": "address",
							"name": "_ethUsdPriceFeed",
							"type": "address"
						}
					],
					"stateMutability": "nonpayable",
					"type": "constructor"
				},
				{
					"inputs": [
						{
							"internalType": "address",
							"name": "owner",
							"type": "address"
						}
					],
					"name": "OwnableInvalidOwner",
					"type": "error"
				},
				{
					"inputs": [
						{
							"internalType": "address",
							"name": "account",
							"type": "address"
						}
					],
					"name": "OwnableUnauthorizedAccount",
					"type": "error"
				},
				{
					"anonymous": false,
					"inputs": [
						{
							"indexed": true,
							"internalType": "address",
							"name": "to",
							"type": "address"
						},
						{
							"indexed": false,
							"internalType": "uint256",
							"name": "bbethAmount",
							"type": "uint256"
						},
						{
							"indexed": false,
							"internalType": "uint256",
							"name": "bbusdAmount",
							"type": "uint256"
						}
					],
					"name": "EmergencyWithdraw",
					"type": "event"
				},
				{
					"anonymous": false,
					"inputs": [
						{
							"indexed": true,
							"internalType": "address",
							"name": "previousOwner",
							"type": "address"
						},
						{
							"indexed": true,
							"internalType": "address",
							"name": "newOwner",
							"type": "address"
						}
					],
					"name": "OwnershipTransferred",
					"type": "event"
				},
				{
					"anonymous": false,
					"inputs": [
						{
							"indexed": false,
							"internalType": "address",
							"name": "account",
							"type": "address"
						}
					],
					"name": "Paused",
					"type": "event"
				},
				{
					"anonymous": false,
					"inputs": [
						{
							"indexed": true,
							"internalType": "address",
							"name": "user",
							"type": "address"
						},
						{
							"indexed": false,
							"internalType": "uint256",
							"name": "bbethIn",
							"type": "uint256"
						},
						{
							"indexed": false,
							"internalType": "uint256",
							"name": "bbusdOut",
							"type": "uint256"
						}
					],
					"name": "SwappedBbethToBbusd",
					"type": "event"
				},
				{
					"anonymous": false,
					"inputs": [
						{
							"indexed": true,
							"internalType": "address",
							"name": "user",
							"type": "address"
						},
						{
							"indexed": false,
							"internalType": "uint256",
							"name": "bbusdIn",
							"type": "uint256"
						},
						{
							"indexed": false,
							"internalType": "uint256",
							"name": "bbethOut",
							"type": "uint256"
						}
					],
					"name": "SwappedBbusdToBbeth",
					"type": "event"
				},
				{
					"anonymous": false,
					"inputs": [
						{
							"indexed": false,
							"internalType": "address",
							"name": "account",
							"type": "address"
						}
					],
					"name": "Unpaused",
					"type": "event"
				},
				{
					"inputs": [],
					"name": "bbeth",
					"outputs": [
						{
							"internalType": "contract IERC20",
							"name": "",
							"type": "address"
						}
					],
					"stateMutability": "view",
					"type": "function"
				},
				{
					"inputs": [],
					"name": "bbusd",
					"outputs": [
						{
							"internalType": "contract IERC20",
							"name": "",
							"type": "address"
						}
					],
					"stateMutability": "view",
					"type": "function"
				},
				{
					"inputs": [
						{
							"internalType": "uint256",
							"name": "amount",
							"type": "uint256"
						}
					],
					"name": "depositBbeth",
					"outputs": [],
					"stateMutability": "nonpayable",
					"type": "function"
				},
				{
					"inputs": [
						{
							"internalType": "uint256",
							"name": "amount",
							"type": "uint256"
						}
					],
					"name": "depositBbusd",
					"outputs": [],
					"stateMutability": "nonpayable",
					"type": "function"
				},
				{
					"inputs": [
						{
							"internalType": "address",
							"name": "to",
							"type": "address"
						}
					],
					"name": "emergencyWithdraw",
					"outputs": [],
					"stateMutability": "nonpayable",
					"type": "function"
				},
				{
					"inputs": [],
					"name": "ethUsdPriceFeed",
					"outputs": [
						{
							"internalType": "contract AggregatorV3Interface",
							"name": "",
							"type": "address"
						}
					],
					"stateMutability": "view",
					"type": "function"
				},
				{
					"inputs": [
						{
							"internalType": "uint256",
							"name": "bbusdAmount",
							"type": "uint256"
						}
					],
					"name": "getEstimatedBbethForBbusd",
					"outputs": [
						{
							"internalType": "uint256",
							"name": "",
							"type": "uint256"
						}
					],
					"stateMutability": "view",
					"type": "function"
				},
				{
					"inputs": [
						{
							"internalType": "uint256",
							"name": "bbethAmount",
							"type": "uint256"
						}
					],
					"name": "getEstimatedBbusdForBbeth",
					"outputs": [
						{
							"internalType": "uint256",
							"name": "",
							"type": "uint256"
						}
					],
					"stateMutability": "view",
					"type": "function"
				},
				{
					"inputs": [],
					"name": "getEthUsdPrice",
					"outputs": [
						{
							"internalType": "uint256",
							"name": "price",
							"type": "uint256"
						},
						{
							"internalType": "uint8",
							"name": "decimals",
							"type": "uint8"
						}
					],
					"stateMutability": "view",
					"type": "function"
				},
				{
					"inputs": [],
					"name": "owner",
					"outputs": [
						{
							"internalType": "address",
							"name": "",
							"type": "address"
						}
					],
					"stateMutability": "view",
					"type": "function"
				},
				{
					"inputs": [],
					"name": "pause",
					"outputs": [],
					"stateMutability": "nonpayable",
					"type": "function"
				},
				{
					"inputs": [],
					"name": "paused",
					"outputs": [
						{
							"internalType": "bool",
							"name": "",
							"type": "bool"
						}
					],
					"stateMutability": "view",
					"type": "function"
				},
				{
					"inputs": [],
					"name": "renounceOwnership",
					"outputs": [],
					"stateMutability": "nonpayable",
					"type": "function"
				},
				{
					"inputs": [
						{
							"internalType": "uint256",
							"name": "bbethAmount",
							"type": "uint256"
						},
						{
							"internalType": "uint256",
							"name": "minBbusdOut",
							"type": "uint256"
						}
					],
					"name": "swapBbethToBbusd",
					"outputs": [],
					"stateMutability": "nonpayable",
					"type": "function"
				},
				{
					"inputs": [
						{
							"internalType": "uint256",
							"name": "bbusdAmount",
							"type": "uint256"
						},
						{
							"internalType": "uint256",
							"name": "minBbethOut",
							"type": "uint256"
						}
					],
					"name": "swapBbusdToBbeth",
					"outputs": [],
					"stateMutability": "nonpayable",
					"type": "function"
				},
				{
					"inputs": [
						{
							"internalType": "address",
							"name": "newOwner",
							"type": "address"
						}
					],
					"name": "transferOwnership",
					"outputs": [],
					"stateMutability": "nonpayable",
					"type": "function"
				},
				{
					"inputs": [],
					"name": "unpause",
					"outputs": [],
					"stateMutability": "nonpayable",
					"type": "function"
				}
			],
			"devdoc": {
				"errors": {
					"OwnableInvalidOwner(address)": [
						{
							"details": "The owner is not a valid owner account. (eg. `address(0)`)"
						}
					],
					"OwnableUnauthorizedAccount(address)": [
						{
							"details": "The caller account is not authorized to perform an operation."
						}
					]
				},
				"events": {
					"Paused(address)": {
						"details": "Emitted when the pause is triggered by `account`."
					},
					"Unpaused(address)": {
						"details": "Emitted when the pause is lifted by `account`."
					}
				},
				"kind": "dev",
				"methods": {
					"owner()": {
						"details": "Returns the address of the current owner."
					},
					"paused()": {
						"details": "Returns true if the contract is paused, and false otherwise."
					},
					"renounceOwnership()": {
						"details": "Leaves the contract without owner. It will not be possible to call `onlyOwner` functions. Can only be called by the current owner. NOTE: Renouncing ownership will leave the contract without an owner, thereby disabling any functionality that is only available to the owner."
					},
					"transferOwnership(address)": {
						"details": "Transfers ownership of the contract to a new account (`newOwner`). Can only be called by the current owner."
					}
				},
				"version": 1
			},
			"evm": {
				"assembly": "    /* \"contracts/BlockbankSwap.sol\":410:4712  contract BlockbankSwap is ReentrancyGuard, Pausable, Ownable {... */\n  mstore(0x40, 0xe0)\n    /* \"contracts/BlockbankSwap.sol\":885:1362  constructor(... */\n  callvalue\n  dup1\n  iszero\n  tag_1\n  jumpi\n  revert(0x00, 0x00)\ntag_1:\n  pop\n  mload(0x40)\n  sub(codesize, bytecodeSize)\n  dup1\n  bytecodeSize\n  dup4\n  codecopy\n  dup2\n  dup2\n  add\n  0x40\n  mstore\n  dup2\n  add\n  swap1\n  tag_2\n  swap2\n  swap1\n  tag_3\n  jump\t// in\ntag_2:\n    /* \"contracts/BlockbankSwap.sol\":997:1007  msg.sender */\n  caller\n    /* \"@openzeppelin/contracts/security/ReentrancyGuard.sol\":1716:1717  1 */\n  0x01\n    /* \"@openzeppelin/contracts/security/ReentrancyGuard.sol\":1821:1828  _status */\n  0x00\n    /* \"@openzeppelin/contracts/security/ReentrancyGuard.sol\":1821:1843  _status = _NOT_ENTERED */\n  dup2\n  swap1\n  sstore\n  pop\n    /* \"@openzeppelin/contracts/security/Pausable.sol\":1006:1011  false */\n  0x00\n    /* \"@openzeppelin/contracts/security/Pausable.sol\":996:1003  _paused */\n  0x01\n  0x00\n    /* \"@openzeppelin/contracts/security/Pausable.sol\":996:1011  _paused = false */\n  0x0100\n  exp\n  dup2\n  sload\n  dup2\n  0xff\n  mul\n  not\n  and\n  swap1\n  dup4\n  iszero\n  iszero\n  mul\n  or\n  swap1\n  sstore\n  pop\n    /* \"@openzeppelin/contracts/access/Ownable.sol\":1297:1298  0 */\n  0x00\n    /* \"@openzeppelin/contracts/access/Ownable.sol\":1273:1299  initialOwner == address(0) */\n  0xffffffffffffffffffffffffffffffffffffffff\n  and\n    /* \"@openzeppelin/contracts/access/Ownable.sol\":1273:1285  initialOwner */\n  dup2\n    /* \"@openzeppelin/contracts/access/Ownable.sol\":1273:1299  initialOwner == address(0) */\n  0xffffffffffffffffffffffffffffffffffffffff\n  and\n  sub\n    /* \"@openzeppelin/contracts/access/Ownable.sol\":1269:1364  if (initialOwner == address(0)) {... */\n  tag_11\n  jumpi\n    /* \"@openzeppelin/contracts/access/Ownable.sol\":1350:1351  0 */\n  0x00\n    /* \"@openzeppelin/contracts/access/Ownable.sol\":1322:1353  OwnableInvalidOwner(address(0)) */\n  mload(0x40)\n  0x1e4fbdf700000000000000000000000000000000000000000000000000000000\n  dup2\n  mstore\n  0x04\n  add\n  tag_12\n  swap2\n  swap1\n  tag_13\n  jump\t// in\ntag_12:\n  mload(0x40)\n  dup1\n  swap2\n  sub\n  swap1\n  revert\n    /* \"@openzeppelin/contracts/access/Ownable.sol\":1269:1364  if (initialOwner == address(0)) {... */\ntag_11:\n    /* \"@openzeppelin/contracts/access/Ownable.sol\":1373:1405  _transferOwnership(initialOwner) */\n  tag_14\n    /* \"@openzeppelin/contracts/access/Ownable.sol\":1392:1404  initialOwner */\n  dup2\n    /* \"@openzeppelin/contracts/access/Ownable.sol\":1373:1391  _transferOwnership */\n  shl(0x20, tag_15)\n    /* \"@openzeppelin/contracts/access/Ownable.sol\":1373:1405  _transferOwnership(initialOwner) */\n  0x20\n  shr\n  jump\t// in\ntag_14:\n    /* \"@openzeppelin/contracts/access/Ownable.sol\":1225:1412  constructor(address initialOwner) {... */\n  pop\n    /* \"contracts/BlockbankSwap.sol\":1045:1046  0 */\n  0x00\n    /* \"contracts/BlockbankSwap.sol\":1027:1047  _bbusd != address(0) */\n  0xffffffffffffffffffffffffffffffffffffffff\n  and\n    /* \"contracts/BlockbankSwap.sol\":1027:1033  _bbusd */\n  dup4\n    /* \"contracts/BlockbankSwap.sol\":1027:1047  _bbusd != address(0) */\n  0xffffffffffffffffffffffffffffffffffffffff\n  and\n  sub\n    /* \"contracts/BlockbankSwap.sol\":1019:1073  require(_bbusd != address(0), \"Invalid BBUSD address\") */\n  tag_17\n  jumpi\n  mload(0x40)\n  0x08c379a000000000000000000000000000000000000000000000000000000000\n  dup2\n  mstore\n  0x04\n  add\n  tag_18\n  swap1\n  tag_19\n  jump\t// in\ntag_18:\n  mload(0x40)\n  dup1\n  swap2\n  sub\n  swap1\n  revert\ntag_17:\n    /* \"contracts/BlockbankSwap.sol\":1110:1111  0 */\n  0x00\n    /* \"contracts/BlockbankSwap.sol\":1092:1112  _bbeth != address(0) */\n  0xffffffffffffffffffffffffffffffffffffffff\n  and\n    /* \"contracts/BlockbankSwap.sol\":1092:1098  _bbeth */\n  dup3\n    /* \"contracts/BlockbankSwap.sol\":1092:1112  _bbeth != address(0) */\n  0xffffffffffffffffffffffffffffffffffffffff\n  and\n  sub\n    /* \"contracts/BlockbankSwap.sol\":1084:1138  require(_bbeth != address(0), \"Invalid BBETH address\") */\n  tag_20\n  jumpi\n  mload(0x40)\n  0x08c379a000000000000000000000000000000000000000000000000000000000\n  dup2\n  mstore\n  0x04\n  add\n  tag_21\n  swap1\n  tag_22\n  jump\t// in\ntag_21:\n  mload(0x40)\n  dup1\n  swap2\n  sub\n  swap1\n  revert\ntag_20:\n    /* \"contracts/BlockbankSwap.sol\":1185:1186  0 */\n  0x00\n    /* \"contracts/BlockbankSwap.sol\":1157:1187  _ethUsdPriceFeed != address(0) */\n  0xffffffffffffffffffffffffffffffffffffffff\n  and\n    /* \"contracts/BlockbankSwap.sol\":1157:1173  _ethUsdPriceFeed */\n  dup2\n    /* \"contracts/BlockbankSwap.sol\":1157:1187  _ethUsdPriceFeed != address(0) */\n  0xffffffffffffffffffffffffffffffffffffffff\n  and\n  sub\n    /* \"contracts/BlockbankSwap.sol\":1149:1218  require(_ethUsdPriceFeed != address(0), \"Invalid price feed address\") */\n  tag_23\n  jumpi\n  mload(0x40)\n  0x08c379a000000000000000000000000000000000000000000000000000000000\n  dup2\n  mstore\n  0x04\n  add\n  tag_24\n  swap1\n  tag_25\n  jump\t// in\ntag_24:\n  mload(0x40)\n  dup1\n  swap2\n  sub\n  swap1\n  revert\ntag_23:\n    /* \"contracts/BlockbankSwap.sol\":1246:1252  _bbusd */\n  dup3\n    /* \"contracts/BlockbankSwap.sol\":1231:1253  bbusd = IERC20(_bbusd) */\n  0xffffffffffffffffffffffffffffffffffffffff\n  and\n  0x80\n  dup2\n  0xffffffffffffffffffffffffffffffffffffffff\n  and\n  dup2\n  mstore\n  pop\n  pop\n    /* \"contracts/BlockbankSwap.sol\":1279:1285  _bbeth */\n  dup2\n    /* \"contracts/BlockbankSwap.sol\":1264:1286  bbeth = IERC20(_bbeth) */\n  0xffffffffffffffffffffffffffffffffffffffff\n  and\n  0xa0\n  dup2\n  0xffffffffffffffffffffffffffffffffffffffff\n  and\n  dup2\n  mstore\n  pop\n  pop\n    /* \"contracts/BlockbankSwap.sol\":1337:1353  _ethUsdPriceFeed */\n  dup1\n    /* \"contracts/BlockbankSwap.sol\":1297:1354  ethUsdPriceFeed = AggregatorV3Interface(_ethUsdPriceFeed) */\n  0xffffffffffffffffffffffffffffffffffffffff\n  and\n  0xc0\n  dup2\n  0xffffffffffffffffffffffffffffffffffffffff\n  and\n  dup2\n  mstore\n  pop\n  pop\n    /* \"contracts/BlockbankSwap.sol\":885:1362  constructor(... */\n  pop\n  pop\n  pop\n    /* \"contracts/BlockbankSwap.sol\":410:4712  contract BlockbankSwap is ReentrancyGuard, Pausable, Ownable {... */\n  jump(tag_26)\n    /* \"@openzeppelin/contracts/access/Ownable.sol\":2912:3099  function _transferOwnership(address newOwner) internal virtual {... */\ntag_15:\n    /* \"@openzeppelin/contracts/access/Ownable.sol\":2985:3001  address oldOwner */\n  0x00\n    /* \"@openzeppelin/contracts/access/Ownable.sol\":3004:3010  _owner */\n  0x01\n  dup1\n  sload\n  swap1\n  0x0100\n  exp\n  swap1\n  div\n  0xffffffffffffffffffffffffffffffffffffffff\n  and\n    /* \"@openzeppelin/contracts/access/Ownable.sol\":2985:3010  address oldOwner = _owner */\n  swap1\n  pop\n    /* \"@openzeppelin/contracts/access/Ownable.sol\":3029:3037  newOwner */\n  dup2\n    /* \"@openzeppelin/contracts/access/Ownable.sol\":3020:3026  _owner */\n  0x01\n  dup1\n    /* \"@openzeppelin/contracts/access/Ownable.sol\":3020:3037  _owner = newOwner */\n  0x0100\n  exp\n  dup2\n  sload\n  dup2\n  0xffffffffffffffffffffffffffffffffffffffff\n  mul\n  not\n  and\n  swap1\n  dup4\n  0xffffffffffffffffffffffffffffffffffffffff\n  and\n  mul\n  or\n  swap1\n  sstore\n  pop\n    /* \"@openzeppelin/contracts/access/Ownable.sol\":3083:3091  newOwner */\n  dup2\n    /* \"@openzeppelin/contracts/access/Ownable.sol\":3052:3092  OwnershipTransferred(oldOwner, newOwner) */\n  0xffffffffffffffffffffffffffffffffffffffff\n  and\n    /* \"@openzeppelin/contracts/access/Ownable.sol\":3073:3081  oldOwner */\n  dup2\n    /* \"@openzeppelin/contracts/access/Ownable.sol\":3052:3092  OwnershipTransferred(oldOwner, newOwner) */\n  0xffffffffffffffffffffffffffffffffffffffff\n  and\n  0x8be0079c531659141344cd1fd0a4f28419497f9722a3daafe3b4186f6b6457e0\n  mload(0x40)\n  mload(0x40)\n  dup1\n  swap2\n  sub\n  swap1\n  log3\n    /* \"@openzeppelin/contracts/access/Ownable.sol\":2975:3099  {... */\n  pop\n    /* \"@openzeppelin/contracts/access/Ownable.sol\":2912:3099  function _transferOwnership(address newOwner) internal virtual {... */\n  pop\n  jump\t// out\n    /* \"#utility.yul\":88:205   */\ntag_29:\n    /* \"#utility.yul\":197:198   */\n  0x00\n    /* \"#utility.yul\":194:195   */\n  0x00\n    /* \"#utility.yul\":187:199   */\n  revert\n    /* \"#utility.yul\":334:460   */\ntag_31:\n    /* \"#utility.yul\":371:378   */\n  0x00\n    /* \"#utility.yul\":411:453   */\n  0xffffffffffffffffffffffffffffffffffffffff\n    /* \"#utility.yul\":404:409   */\n  dup3\n    /* \"#utility.yul\":400:454   */\n  and\n    /* \"#utility.yul\":389:454   */\n  swap1\n  pop\n    /* \"#utility.yul\":334:460   */\n  swap2\n  swap1\n  pop\n  jump\t// out\n    /* \"#utility.yul\":466:562   */\ntag_32:\n    /* \"#utility.yul\":503:510   */\n  0x00\n    /* \"#utility.yul\":532:556   */\n  tag_49\n    /* \"#utility.yul\":550:555   */\n  dup3\n    /* \"#utility.yul\":532:556   */\n  tag_31\n  jump\t// in\ntag_49:\n    /* \"#utility.yul\":521:556   */\n  swap1\n  pop\n    /* \"#utility.yul\":466:562   */\n  swap2\n  swap1\n  pop\n  jump\t// out\n    /* \"#utility.yul\":568:690   */\ntag_33:\n    /* \"#utility.yul\":641:665   */\n  tag_51\n    /* \"#utility.yul\":659:664   */\n  dup2\n    /* \"#utility.yul\":641:665   */\n  tag_32\n  jump\t// in\ntag_51:\n    /* \"#utility.yul\":634:639   */\n  dup2\n    /* \"#utility.yul\":631:666   */\n  eq\n    /* \"#utility.yul\":621:684   */\n  tag_52\n  jumpi\n    /* \"#utility.yul\":680:681   */\n  0x00\n    /* \"#utility.yul\":677:678   */\n  0x00\n    /* \"#utility.yul\":670:682   */\n  revert\n    /* \"#utility.yul\":621:684   */\ntag_52:\n    /* \"#utility.yul\":568:690   */\n  pop\n  jump\t// out\n    /* \"#utility.yul\":696:839   */\ntag_34:\n    /* \"#utility.yul\":753:758   */\n  0x00\n    /* \"#utility.yul\":784:790   */\n  dup2\n    /* \"#utility.yul\":778:791   */\n  mload\n    /* \"#utility.yul\":769:791   */\n  swap1\n  pop\n    /* \"#utility.yul\":800:833   */\n  tag_54\n    /* \"#utility.yul\":827:832   */\n  dup2\n    /* \"#utility.yul\":800:833   */\n  tag_33\n  jump\t// in\ntag_54:\n    /* \"#utility.yul\":696:839   */\n  swap3\n  swap2\n  pop\n  pop\n  jump\t// out\n    /* \"#utility.yul\":845:1508   */\ntag_3:\n    /* \"#utility.yul\":933:939   */\n  0x00\n    /* \"#utility.yul\":941:947   */\n  0x00\n    /* \"#utility.yul\":949:955   */\n  0x00\n    /* \"#utility.yul\":998:1000   */\n  0x60\n    /* \"#utility.yul\":986:995   */\n  dup5\n    /* \"#utility.yul\":977:984   */\n  dup7\n    /* \"#utility.yul\":973:996   */\n  sub\n    /* \"#utility.yul\":969:1001   */\n  slt\n    /* \"#utility.yul\":966:1085   */\n  iszero\n  tag_56\n  jumpi\n    /* \"#utility.yul\":1004:1083   */\n  tag_57\n  tag_29\n  jump\t// in\ntag_57:\n    /* \"#utility.yul\":966:1085   */\ntag_56:\n    /* \"#utility.yul\":1124:1125   */\n  0x00\n    /* \"#utility.yul\":1149:1213   */\n  tag_58\n    /* \"#utility.yul\":1205:1212   */\n  dup7\n    /* \"#utility.yul\":1196:1202   */\n  dup3\n    /* \"#utility.yul\":1185:1194   */\n  dup8\n    /* \"#utility.yul\":1181:1203   */\n  add\n    /* \"#utility.yul\":1149:1213   */\n  tag_34\n  jump\t// in\ntag_58:\n    /* \"#utility.yul\":1139:1213   */\n  swap4\n  pop\n    /* \"#utility.yul\":1095:1223   */\n  pop\n    /* \"#utility.yul\":1262:1264   */\n  0x20\n    /* \"#utility.yul\":1288:1352   */\n  tag_59\n    /* \"#utility.yul\":1344:1351   */\n  dup7\n    /* \"#utility.yul\":1335:1341   */\n  dup3\n    /* \"#utility.yul\":1324:1333   */\n  dup8\n    /* \"#utility.yul\":1320:1342   */\n  add\n    /* \"#utility.yul\":1288:1352   */\n  tag_34\n  jump\t// in\ntag_59:\n    /* \"#utility.yul\":1278:1352   */\n  swap3\n  pop\n    /* \"#utility.yul\":1233:1362   */\n  pop\n    /* \"#utility.yul\":1401:1403   */\n  0x40\n    /* \"#utility.yul\":1427:1491   */\n  tag_60\n    /* \"#utility.yul\":1483:1490   */\n  dup7\n    /* \"#utility.yul\":1474:1480   */\n  dup3\n    /* \"#utility.yul\":1463:1472   */\n  dup8\n    /* \"#utility.yul\":1459:1481   */\n  add\n    /* \"#utility.yul\":1427:1491   */\n  tag_34\n  jump\t// in\ntag_60:\n    /* \"#utility.yul\":1417:1491   */\n  swap2\n  pop\n    /* \"#utility.yul\":1372:1501   */\n  pop\n    /* \"#utility.yul\":845:1508   */\n  swap3\n  pop\n  swap3\n  pop\n  swap3\n  jump\t// out\n    /* \"#utility.yul\":1514:1632   */\ntag_35:\n    /* \"#utility.yul\":1601:1625   */\n  tag_62\n    /* \"#utility.yul\":1619:1624   */\n  dup2\n    /* \"#utility.yul\":1601:1625   */\n  tag_32\n  jump\t// in\ntag_62:\n    /* \"#utility.yul\":1596:1599   */\n  dup3\n    /* \"#utility.yul\":1589:1626   */\n  mstore\n    /* \"#utility.yul\":1514:1632   */\n  pop\n  pop\n  jump\t// out\n    /* \"#utility.yul\":1638:1860   */\ntag_13:\n    /* \"#utility.yul\":1731:1735   */\n  0x00\n    /* \"#utility.yul\":1769:1771   */\n  0x20\n    /* \"#utility.yul\":1758:1767   */\n  dup3\n    /* \"#utility.yul\":1754:1772   */\n  add\n    /* \"#utility.yul\":1746:1772   */\n  swap1\n  pop\n    /* \"#utility.yul\":1782:1853   */\n  tag_64\n    /* \"#utility.yul\":1850:1851   */\n  0x00\n    /* \"#utility.yul\":1839:1848   */\n  dup4\n    /* \"#utility.yul\":1835:1852   */\n  add\n    /* \"#utility.yul\":1826:1832   */\n  dup5\n    /* \"#utility.yul\":1782:1853   */\n  tag_35\n  jump\t// in\ntag_64:\n    /* \"#utility.yul\":1638:1860   */\n  swap3\n  swap2\n  pop\n  pop\n  jump\t// out\n    /* \"#utility.yul\":1866:2035   */\ntag_36:\n    /* \"#utility.yul\":1950:1961   */\n  0x00\n    /* \"#utility.yul\":1984:1990   */\n  dup3\n    /* \"#utility.yul\":1979:1982   */\n  dup3\n    /* \"#utility.yul\":1972:1991   */\n  mstore\n    /* \"#utility.yul\":2024:2028   */\n  0x20\n    /* \"#utility.yul\":2019:2022   */\n  dup3\n    /* \"#utility.yul\":2015:2029   */\n  add\n    /* \"#utility.yul\":2000:2029   */\n  swap1\n  pop\n    /* \"#utility.yul\":1866:2035   */\n  swap3\n  swap2\n  pop\n  pop\n  jump\t// out\n    /* \"#utility.yul\":2041:2212   */\ntag_37:\n    /* \"#utility.yul\":2181:2204   */\n  0x496e76616c696420424255534420616464726573730000000000000000000000\n    /* \"#utility.yul\":2177:2178   */\n  0x00\n    /* \"#utility.yul\":2169:2175   */\n  dup3\n    /* \"#utility.yul\":2165:2179   */\n  add\n    /* \"#utility.yul\":2158:2205   */\n  mstore\n    /* \"#utility.yul\":2041:2212   */\n  pop\n  jump\t// out\n    /* \"#utility.yul\":2218:2584   */\ntag_38:\n    /* \"#utility.yul\":2360:2363   */\n  0x00\n    /* \"#utility.yul\":2381:2448   */\n  tag_68\n    /* \"#utility.yul\":2445:2447   */\n  0x15\n    /* \"#utility.yul\":2440:2443   */\n  dup4\n    /* \"#utility.yul\":2381:2448   */\n  tag_36\n  jump\t// in\ntag_68:\n    /* \"#utility.yul\":2374:2448   */\n  swap2\n  pop\n    /* \"#utility.yul\":2457:2550   */\n  tag_69\n    /* \"#utility.yul\":2546:2549   */\n  dup3\n    /* \"#utility.yul\":2457:2550   */\n  tag_37\n  jump\t// in\ntag_69:\n    /* \"#utility.yul\":2575:2577   */\n  0x20\n    /* \"#utility.yul\":2570:2573   */\n  dup3\n    /* \"#utility.yul\":2566:2578   */\n  add\n    /* \"#utility.yul\":2559:2578   */\n  swap1\n  pop\n    /* \"#utility.yul\":2218:2584   */\n  swap2\n  swap1\n  pop\n  jump\t// out\n    /* \"#utility.yul\":2590:3009   */\ntag_19:\n    /* \"#utility.yul\":2756:2760   */\n  0x00\n    /* \"#utility.yul\":2794:2796   */\n  0x20\n    /* \"#utility.yul\":2783:2792   */\n  dup3\n    /* \"#utility.yul\":2779:2797   */\n  add\n    /* \"#utility.yul\":2771:2797   */\n  swap1\n  pop\n    /* \"#utility.yul\":2843:2852   */\n  dup2\n    /* \"#utility.yul\":2837:2841   */\n  dup2\n    /* \"#utility.yul\":2833:2853   */\n  sub\n    /* \"#utility.yul\":2829:2830   */\n  0x00\n    /* \"#utility.yul\":2818:2827   */\n  dup4\n    /* \"#utility.yul\":2814:2831   */\n  add\n    /* \"#utility.yul\":2807:2854   */\n  mstore\n    /* \"#utility.yul\":2871:3002   */\n  tag_71\n    /* \"#utility.yul\":2997:3001   */\n  dup2\n    /* \"#utility.yul\":2871:3002   */\n  tag_38\n  jump\t// in\ntag_71:\n    /* \"#utility.yul\":2863:3002   */\n  swap1\n  pop\n    /* \"#utility.yul\":2590:3009   */\n  swap2\n  swap1\n  pop\n  jump\t// out\n    /* \"#utility.yul\":3015:3186   */\ntag_39:\n    /* \"#utility.yul\":3155:3178   */\n  0x496e76616c696420424245544820616464726573730000000000000000000000\n    /* \"#utility.yul\":3151:3152   */\n  0x00\n    /* \"#utility.yul\":3143:3149   */\n  dup3\n    /* \"#utility.yul\":3139:3153   */\n  add\n    /* \"#utility.yul\":3132:3179   */\n  mstore\n    /* \"#utility.yul\":3015:3186   */\n  pop\n  jump\t// out\n    /* \"#utility.yul\":3192:3558   */\ntag_40:\n    /* \"#utility.yul\":3334:3337   */\n  0x00\n    /* \"#utility.yul\":3355:3422   */\n  tag_74\n    /* \"#utility.yul\":3419:3421   */\n  0x15\n    /* \"#utility.yul\":3414:3417   */\n  dup4\n    /* \"#utility.yul\":3355:3422   */\n  tag_36\n  jump\t// in\ntag_74:\n    /* \"#utility.yul\":3348:3422   */\n  swap2\n  pop\n    /* \"#utility.yul\":3431:3524   */\n  tag_75\n    /* \"#utility.yul\":3520:3523   */\n  dup3\n    /* \"#utility.yul\":3431:3524   */\n  tag_39\n  jump\t// in\ntag_75:\n    /* \"#utility.yul\":3549:3551   */\n  0x20\n    /* \"#utility.yul\":3544:3547   */\n  dup3\n    /* \"#utility.yul\":3540:3552   */\n  add\n    /* \"#utility.yul\":3533:3552   */\n  swap1\n  pop\n    /* \"#utility.yul\":3192:3558   */\n  swap2\n  swap1\n  pop\n  jump\t// out\n    /* \"#utility.yul\":3564:3983   */\ntag_22:\n    /* \"#utility.yul\":3730:3734   */\n  0x00\n    /* \"#utility.yul\":3768:3770   */\n  0x20\n    /* \"#utility.yul\":3757:3766   */\n  dup3\n    /* \"#utility.yul\":3753:3771   */\n  add\n    /* \"#utility.yul\":3745:3771   */\n  swap1\n  pop\n    /* \"#utility.yul\":3817:3826   */\n  dup2\n    /* \"#utility.yul\":3811:3815   */\n  dup2\n    /* \"#utility.yul\":3807:3827   */\n  sub\n    /* \"#utility.yul\":3803:3804   */\n  0x00\n    /* \"#utility.yul\":3792:3801   */\n  dup4\n    /* \"#utility.yul\":3788:3805   */\n  add\n    /* \"#utility.yul\":3781:3828   */\n  mstore\n    /* \"#utility.yul\":3845:3976   */\n  tag_77\n    /* \"#utility.yul\":3971:3975   */\n  dup2\n    /* \"#utility.yul\":3845:3976   */\n  tag_40\n  jump\t// in\ntag_77:\n    /* \"#utility.yul\":3837:3976   */\n  swap1\n  pop\n    /* \"#utility.yul\":3564:3983   */\n  swap2\n  swap1\n  pop\n  jump\t// out\n    /* \"#utility.yul\":3989:4165   */\ntag_41:\n    /* \"#utility.yul\":4129:4157   */\n  0x496e76616c696420707269636520666565642061646472657373000000000000\n    /* \"#utility.yul\":4125:4126   */\n  0x00\n    /* \"#utility.yul\":4117:4123   */\n  dup3\n    /* \"#utility.yul\":4113:4127   */\n  add\n    /* \"#utility.yul\":4106:4158   */\n  mstore\n    /* \"#utility.yul\":3989:4165   */\n  pop\n  jump\t// out\n    /* \"#utility.yul\":4171:4537   */\ntag_42:\n    /* \"#utility.yul\":4313:4316   */\n  0x00\n    /* \"#utility.yul\":4334:4401   */\n  tag_80\n    /* \"#utility.yul\":4398:4400   */\n  0x1a\n    /* \"#utility.yul\":4393:4396   */\n  dup4\n    /* \"#utility.yul\":4334:4401   */\n  tag_36\n  jump\t// in\ntag_80:\n    /* \"#utility.yul\":4327:4401   */\n  swap2\n  pop\n    /* \"#utility.yul\":4410:4503   */\n  tag_81\n    /* \"#utility.yul\":4499:4502   */\n  dup3\n    /* \"#utility.yul\":4410:4503   */\n  tag_41\n  jump\t// in\ntag_81:\n    /* \"#utility.yul\":4528:4530   */\n  0x20\n    /* \"#utility.yul\":4523:4526   */\n  dup3\n    /* \"#utility.yul\":4519:4531   */\n  add\n    /* \"#utility.yul\":4512:4531   */\n  swap1\n  pop\n    /* \"#utility.yul\":4171:4537   */\n  swap2\n  swap1\n  pop\n  jump\t// out\n    /* \"#utility.yul\":4543:4962   */\ntag_25:\n    /* \"#utility.yul\":4709:4713   */\n  0x00\n    /* \"#utility.yul\":4747:4749   */\n  0x20\n    /* \"#utility.yul\":4736:4745   */\n  dup3\n    /* \"#utility.yul\":4732:4750   */\n  add\n    /* \"#utility.yul\":4724:4750   */\n  swap1\n  pop\n    /* \"#utility.yul\":4796:4805   */\n  dup2\n    /* \"#utility.yul\":4790:4794   */\n  dup2\n    /* \"#utility.yul\":4786:4806   */\n  sub\n    /* \"#utility.yul\":4782:4783   */\n  0x00\n    /* \"#utility.yul\":4771:4780   */\n  dup4\n    /* \"#utility.yul\":4767:4784   */\n  add\n    /* \"#utility.yul\":4760:4807   */\n  mstore\n    /* \"#utility.yul\":4824:4955   */\n  tag_83\n    /* \"#utility.yul\":4950:4954   */\n  dup2\n    /* \"#utility.yul\":4824:4955   */\n  tag_42\n  jump\t// in\ntag_83:\n    /* \"#utility.yul\":4816:4955   */\n  swap1\n  pop\n    /* \"#utility.yul\":4543:4962   */\n  swap2\n  swap1\n  pop\n  jump\t// out\n    /* \"contracts/BlockbankSwap.sol\":410:4712  contract BlockbankSwap is ReentrancyGuard, Pausable, Ownable {... */\ntag_26:\n  mload(0x80)\n  mload(0xa0)\n  mload(0xc0)\n  codecopy(0x00, dataOffset(sub_0), dataSize(sub_0))\n  0x00\n  assignImmutable(\"0x29640c5389980219501217c4107f20f291a1fe6368349c66046a2466d4f1adbf\")\n  0x00\n  assignImmutable(\"0xa22c77fde226c01897a2fe21dd32df8d23478da0d66d0b2201f2b7d428b73cc4\")\n  0x00\n  assignImmutable(\"0x81e684302dba258ad18c3b31de9ac01448b470fcf6136d2ace7eb5c581a909a4\")\n  return(0x00, dataSize(sub_0))\nstop\n\nsub_0: assembly {\n        /* \"contracts/BlockbankSwap.sol\":410:4712  contract BlockbankSwap is ReentrancyGuard, Pausable, Ownable {... */\n      mstore(0x40, 0x80)\n      callvalue\n      dup1\n      iszero\n      tag_1\n      jumpi\n      revert(0x00, 0x00)\n    tag_1:\n      pop\n      jumpi(tag_2, lt(calldatasize, 0x04))\n      shr(0xe0, calldataload(0x00))\n      dup1\n      0x715018a6\n      gt\n      tag_20\n      jumpi\n      dup1\n      0x8da5cb5b\n      gt\n      tag_21\n      jumpi\n      dup1\n      0x8da5cb5b\n      eq\n      tag_15\n      jumpi\n      dup1\n      0xa0a8045e\n      eq\n      tag_16\n      jumpi\n      dup1\n      0xe89bb221\n      eq\n      tag_17\n      jumpi\n      dup1\n      0xf2fde38b\n      eq\n      tag_18\n      jumpi\n      dup1\n      0xf48f245a\n      eq\n      tag_19\n      jumpi\n      jump(tag_2)\n    tag_21:\n      dup1\n      0x715018a6\n      eq\n      tag_11\n      jumpi\n      dup1\n      0x8456cb59\n      eq\n      tag_12\n      jumpi\n      dup1\n      0x8abd6e15\n      eq\n      tag_13\n      jumpi\n      dup1\n      0x8af86473\n      eq\n      tag_14\n      jumpi\n      jump(tag_2)\n    tag_20:\n      dup1\n      0x42f6fb29\n      gt\n      tag_22\n      jumpi\n      dup1\n      0x42f6fb29\n      eq\n      tag_7\n      jumpi\n      dup1\n      0x5c975abb\n      eq\n      tag_8\n      jumpi\n      dup1\n      0x6dff716b\n      eq\n      tag_9\n      jumpi\n      dup1\n      0x6ff1c9bc\n      eq\n      tag_10\n      jumpi\n      jump(tag_2)\n    tag_22:\n      dup1\n      0x1bbbfe81\n      eq\n      tag_3\n      jumpi\n      dup1\n      0x28b39bcf\n      eq\n      tag_4\n      jumpi\n      dup1\n      0x29a87313\n      eq\n      tag_5\n      jumpi\n      dup1\n      0x3f4ba83a\n      eq\n      tag_6\n      jumpi\n    tag_2:\n      revert(0x00, 0x00)\n        /* \"contracts/BlockbankSwap.sol\":2514:3241  function swapBbethToBbusd(uint256 bbethAmount, uint256 minBbusdOut)... */\n    tag_3:\n      tag_23\n      0x04\n      dup1\n      calldatasize\n      sub\n      dup2\n      add\n      swap1\n      tag_24\n      swap2\n      swap1\n      tag_25\n      jump\t// in\n    tag_24:\n      tag_26\n      jump\t// in\n    tag_23:\n      stop\n        /* \"contracts/BlockbankSwap.sol\":478:507  IERC20 public immutable bbusd */\n    tag_4:\n      tag_27\n      tag_28\n      jump\t// in\n    tag_27:\n      mload(0x40)\n      tag_29\n      swap2\n      swap1\n      tag_30\n      jump\t// in\n    tag_29:\n      mload(0x40)\n      dup1\n      swap2\n      sub\n      swap1\n      return\n        /* \"contracts/BlockbankSwap.sol\":3475:3681  function depositBbeth(uint256 amount) external onlyOwner {... */\n    tag_5:\n      tag_31\n      0x04\n      dup1\n      calldatasize\n      sub\n      dup2\n      add\n      swap1\n      tag_32\n      swap2\n      swap1\n      tag_33\n      jump\t// in\n    tag_32:\n      tag_34\n      jump\t// in\n    tag_31:\n      stop\n        /* \"contracts/BlockbankSwap.sol\":4189:4242  function unpause() external onlyOwner { _unpause(); } */\n    tag_6:\n      tag_35\n      tag_36\n      jump\t// in\n    tag_35:\n      stop\n        /* \"contracts/BlockbankSwap.sol\":550:604  AggregatorV3Interface public immutable ethUsdPriceFeed */\n    tag_7:\n      tag_37\n      tag_38\n      jump\t// in\n    tag_37:\n      mload(0x40)\n      tag_39\n      swap2\n      swap1\n      tag_40\n      jump\t// in\n    tag_39:\n      mload(0x40)\n      dup1\n      swap2\n      sub\n      swap1\n      return\n        /* \"@openzeppelin/contracts/security/Pausable.sol\":1615:1699  function paused() public view virtual returns (bool) {... */\n    tag_8:\n      tag_41\n      tag_42\n      jump\t// in\n    tag_41:\n      mload(0x40)\n      tag_43\n      swap2\n      swap1\n      tag_44\n      jump\t// in\n    tag_43:\n      mload(0x40)\n      dup1\n      swap2\n      sub\n      swap1\n      return\n        /* \"contracts/BlockbankSwap.sol\":4249:4473  function getEstimatedBbethForBbusd(uint256 bbusdAmount) external view returns (uint256) {... */\n    tag_9:\n      tag_45\n      0x04\n      dup1\n      calldatasize\n      sub\n      dup2\n      add\n      swap1\n      tag_46\n      swap2\n      swap1\n      tag_33\n      jump\t// in\n    tag_46:\n      tag_47\n      jump\t// in\n    tag_45:\n      mload(0x40)\n      tag_48\n      swap2\n      swap1\n      tag_49\n      jump\t// in\n    tag_48:\n      mload(0x40)\n      dup1\n      swap2\n      sub\n      swap1\n      return\n        /* \"contracts/BlockbankSwap.sol\":3689:4126  function emergencyWithdraw(address to) external onlyOwner {... */\n    tag_10:\n      tag_50\n      0x04\n      dup1\n      calldatasize\n      sub\n      dup2\n      add\n      swap1\n      tag_51\n      swap2\n      swap1\n      tag_52\n      jump\t// in\n    tag_51:\n      tag_53\n      jump\t// in\n    tag_50:\n      stop\n        /* \"@openzeppelin/contracts/access/Ownable.sol\":2293:2394  function renounceOwnership() public virtual onlyOwner {... */\n    tag_11:\n      tag_54\n      tag_55\n      jump\t// in\n    tag_54:\n      stop\n        /* \"contracts/BlockbankSwap.sol\":4134:4183  function pause() external onlyOwner { _pause(); } */\n    tag_12:\n      tag_56\n      tag_57\n      jump\t// in\n    tag_56:\n      stop\n        /* \"contracts/BlockbankSwap.sol\":4481:4707  function getEstimatedBbusdForBbeth(uint256 bbethAmount) external view returns (uint256) {... */\n    tag_13:\n      tag_58\n      0x04\n      dup1\n      calldatasize\n      sub\n      dup2\n      add\n      swap1\n      tag_59\n      swap2\n      swap1\n      tag_33\n      jump\t// in\n    tag_59:\n      tag_60\n      jump\t// in\n    tag_58:\n      mload(0x40)\n      tag_61\n      swap2\n      swap1\n      tag_49\n      jump\t// in\n    tag_61:\n      mload(0x40)\n      dup1\n      swap2\n      sub\n      swap1\n      return\n        /* \"contracts/BlockbankSwap.sol\":514:543  IERC20 public immutable bbeth */\n    tag_14:\n      tag_62\n      tag_63\n      jump\t// in\n    tag_62:\n      mload(0x40)\n      tag_64\n      swap2\n      swap1\n      tag_30\n      jump\t// in\n    tag_64:\n      mload(0x40)\n      dup1\n      swap2\n      sub\n      swap1\n      return\n        /* \"@openzeppelin/contracts/access/Ownable.sol\":1638:1723  function owner() public view virtual returns (address) {... */\n    tag_15:\n      tag_65\n      tag_66\n      jump\t// in\n    tag_65:\n      mload(0x40)\n      tag_67\n      swap2\n      swap1\n      tag_68\n      jump\t// in\n    tag_67:\n      mload(0x40)\n      dup1\n      swap2\n      sub\n      swap1\n      return\n        /* \"contracts/BlockbankSwap.sol\":1370:1773  function getEthUsdPrice() public view returns (uint256 price, uint8 decimals) {... */\n    tag_16:\n      tag_69\n      tag_70\n      jump\t// in\n    tag_69:\n      mload(0x40)\n      tag_71\n      swap3\n      swap2\n      swap1\n      tag_72\n      jump\t// in\n    tag_71:\n      mload(0x40)\n      dup1\n      swap2\n      sub\n      swap1\n      return\n        /* \"contracts/BlockbankSwap.sol\":1781:2506  function swapBbusdToBbeth(uint256 bbusdAmount, uint256 minBbethOut)... */\n    tag_17:\n      tag_73\n      0x04\n      dup1\n      calldatasize\n      sub\n      dup2\n      add\n      swap1\n      tag_74\n      swap2\n      swap1\n      tag_25\n      jump\t// in\n    tag_74:\n      tag_75\n      jump\t// in\n    tag_73:\n      stop\n        /* \"@openzeppelin/contracts/access/Ownable.sol\":2543:2758  function transferOwnership(address newOwner) public virtual onlyOwner {... */\n    tag_18:\n      tag_76\n      0x04\n      dup1\n      calldatasize\n      sub\n      dup2\n      add\n      swap1\n      tag_77\n      swap2\n      swap1\n      tag_52\n      jump\t// in\n    tag_77:\n      tag_78\n      jump\t// in\n    tag_76:\n      stop\n        /* \"contracts/BlockbankSwap.sol\":3261:3467  function depositBbusd(uint256 amount) external onlyOwner {... */\n    tag_19:\n      tag_79\n      0x04\n      dup1\n      calldatasize\n      sub\n      dup2\n      add\n      swap1\n      tag_80\n      swap2\n      swap1\n      tag_33\n      jump\t// in\n    tag_80:\n      tag_81\n      jump\t// in\n    tag_79:\n      stop\n        /* \"contracts/BlockbankSwap.sol\":2514:3241  function swapBbethToBbusd(uint256 bbethAmount, uint256 minBbusdOut)... */\n    tag_26:\n        /* \"@openzeppelin/contracts/security/Pausable.sol\":1239:1258  _requireNotPaused() */\n      tag_83\n        /* \"@openzeppelin/contracts/security/Pausable.sol\":1239:1256  _requireNotPaused */\n      tag_84\n        /* \"@openzeppelin/contracts/security/Pausable.sol\":1239:1258  _requireNotPaused() */\n      jump\t// in\n    tag_83:\n        /* \"@openzeppelin/contracts/security/ReentrancyGuard.sol\":2261:2282  _nonReentrantBefore() */\n      tag_86\n        /* \"@openzeppelin/contracts/security/ReentrancyGuard.sol\":2261:2280  _nonReentrantBefore */\n      tag_87\n        /* \"@openzeppelin/contracts/security/ReentrancyGuard.sol\":2261:2282  _nonReentrantBefore() */\n      jump\t// in\n    tag_86:\n        /* \"contracts/BlockbankSwap.sol\":2652:2653  0 */\n      0x00\n        /* \"contracts/BlockbankSwap.sol\":2638:2649  bbethAmount */\n      dup3\n        /* \"contracts/BlockbankSwap.sol\":2638:2653  bbethAmount > 0 */\n      gt\n        /* \"contracts/BlockbankSwap.sol\":2630:2668  require(bbethAmount > 0, \"Zero input\") */\n      tag_89\n      jumpi\n      mload(0x40)\n      0x08c379a000000000000000000000000000000000000000000000000000000000\n      dup2\n      mstore\n      0x04\n      add\n      tag_90\n      swap1\n      tag_91\n      jump\t// in\n    tag_90:\n      mload(0x40)\n      dup1\n      swap2\n      sub\n      swap1\n      revert\n    tag_89:\n        /* \"contracts/BlockbankSwap.sol\":2676:2690  uint256 ethUsd */\n      0x00\n        /* \"contracts/BlockbankSwap.sol\":2692:2710  uint8 feedDecimals */\n      0x00\n        /* \"contracts/BlockbankSwap.sol\":2714:2730  getEthUsdPrice() */\n      tag_92\n        /* \"contracts/BlockbankSwap.sol\":2714:2728  getEthUsdPrice */\n      tag_70\n        /* \"contracts/BlockbankSwap.sol\":2714:2730  getEthUsdPrice() */\n      jump\t// in\n    tag_92:\n        /* \"contracts/BlockbankSwap.sol\":2675:2730  (uint256 ethUsd, uint8 feedDecimals) = getEthUsdPrice() */\n      swap2\n      pop\n      swap2\n      pop\n        /* \"contracts/BlockbankSwap.sol\":2739:2758  uint256 bbusdAmount */\n      0x00\n        /* \"contracts/BlockbankSwap.sol\":2812:2813  6 */\n      0x06\n        /* \"contracts/BlockbankSwap.sol\":2807:2809  18 */\n      0x12\n        /* \"contracts/BlockbankSwap.sol\":2792:2804  feedDecimals */\n      dup4\n        /* \"contracts/BlockbankSwap.sol\":2792:2809  feedDecimals + 18 */\n      tag_93\n      swap2\n      swap1\n      tag_94\n      jump\t// in\n    tag_93:\n        /* \"contracts/BlockbankSwap.sol\":2792:2813  feedDecimals + 18 - 6 */\n      tag_95\n      swap2\n      swap1\n      tag_96\n      jump\t// in\n    tag_95:\n        /* \"contracts/BlockbankSwap.sol\":2787:2789  10 */\n      0x0a\n        /* \"contracts/BlockbankSwap.sol\":2787:2814  10**(feedDecimals + 18 - 6) */\n      tag_97\n      swap2\n      swap1\n      tag_98\n      jump\t// in\n    tag_97:\n        /* \"contracts/BlockbankSwap.sol\":2776:2782  ethUsd */\n      dup4\n        /* \"contracts/BlockbankSwap.sol\":2762:2773  bbethAmount */\n      dup7\n        /* \"contracts/BlockbankSwap.sol\":2762:2782  bbethAmount * ethUsd */\n      tag_99\n      swap2\n      swap1\n      tag_100\n      jump\t// in\n    tag_99:\n        /* \"contracts/BlockbankSwap.sol\":2761:2815  (bbethAmount * ethUsd) / (10**(feedDecimals + 18 - 6)) */\n      tag_101\n      swap2\n      swap1\n      tag_102\n      jump\t// in\n    tag_101:\n        /* \"contracts/BlockbankSwap.sol\":2739:2815  uint256 bbusdAmount = (bbethAmount * ethUsd) / (10**(feedDecimals + 18 - 6)) */\n      swap1\n      pop\n        /* \"contracts/BlockbankSwap.sol\":2847:2858  minBbusdOut */\n      dup4\n        /* \"contracts/BlockbankSwap.sol\":2832:2843  bbusdAmount */\n      dup2\n        /* \"contracts/BlockbankSwap.sol\":2832:2858  bbusdAmount >= minBbusdOut */\n      lt\n      iszero\n        /* \"contracts/BlockbankSwap.sol\":2824:2890  require(bbusdAmount >= minBbusdOut, \"Slippage: too little output\") */\n      tag_103\n      jumpi\n      mload(0x40)\n      0x08c379a000000000000000000000000000000000000000000000000000000000\n      dup2\n      mstore\n      0x04\n      add\n      tag_104\n      swap1\n      tag_105\n      jump\t// in\n    tag_104:\n      mload(0x40)\n      dup1\n      swap2\n      sub\n      swap1\n      revert\n    tag_103:\n        /* \"contracts/BlockbankSwap.sol\":2939:2950  bbusdAmount */\n      dup1\n        /* \"contracts/BlockbankSwap.sol\":2905:2910  bbusd */\n      immutable(\"0x81e684302dba258ad18c3b31de9ac01448b470fcf6136d2ace7eb5c581a909a4\")\n        /* \"contracts/BlockbankSwap.sol\":2905:2920  bbusd.balanceOf */\n      0xffffffffffffffffffffffffffffffffffffffff\n      and\n      0x70a08231\n        /* \"contracts/BlockbankSwap.sol\":2929:2933  this */\n      address\n        /* \"contracts/BlockbankSwap.sol\":2905:2935  bbusd.balanceOf(address(this)) */\n      mload(0x40)\n      dup3\n      0xffffffff\n      and\n      0xe0\n      shl\n      dup2\n      mstore\n      0x04\n      add\n      tag_106\n      swap2\n      swap1\n      tag_68\n      jump\t// in\n    tag_106:\n      0x20\n      mload(0x40)\n      dup1\n      dup4\n      sub\n      dup2\n      dup7\n      gas\n      staticcall\n      iszero\n      dup1\n      iszero\n      tag_108\n      jumpi\n      returndatacopy(0x00, 0x00, returndatasize)\n      revert(0x00, returndatasize)\n    tag_108:\n      pop\n      pop\n      pop\n      pop\n      mload(0x40)\n      returndatasize\n      not(0x1f)\n      0x1f\n      dup3\n      add\n      and\n      dup3\n      add\n      dup1\n      0x40\n      mstore\n      pop\n      dup2\n      add\n      swap1\n      tag_109\n      swap2\n      swap1\n      tag_110\n      jump\t// in\n    tag_109:\n        /* \"contracts/BlockbankSwap.sol\":2905:2950  bbusd.balanceOf(address(this)) >= bbusdAmount */\n      lt\n      iszero\n        /* \"contracts/BlockbankSwap.sol\":2897:2985  require(bbusd.balanceOf(address(this)) >= bbusdAmount, \"Insufficient BBUSD in contract\") */\n      tag_111\n      jumpi\n      mload(0x40)\n      0x08c379a000000000000000000000000000000000000000000000000000000000\n      dup2\n      mstore\n      0x04\n      add\n      tag_112\n      swap1\n      tag_113\n      jump\t// in\n    tag_112:\n      mload(0x40)\n      dup1\n      swap2\n      sub\n      swap1\n      revert\n    tag_111:\n        /* \"contracts/BlockbankSwap.sol\":3002:3007  bbeth */\n      immutable(\"0xa22c77fde226c01897a2fe21dd32df8d23478da0d66d0b2201f2b7d428b73cc4\")\n        /* \"contracts/BlockbankSwap.sol\":3002:3020  bbeth.transferFrom */\n      0xffffffffffffffffffffffffffffffffffffffff\n      and\n      0x23b872dd\n        /* \"contracts/BlockbankSwap.sol\":3021:3031  msg.sender */\n      caller\n        /* \"contracts/BlockbankSwap.sol\":3041:3045  this */\n      address\n        /* \"contracts/BlockbankSwap.sol\":3048:3059  bbethAmount */\n      dup9\n        /* \"contracts/BlockbankSwap.sol\":3002:3060  bbeth.transferFrom(msg.sender, address(this), bbethAmount) */\n      mload(0x40)\n      dup5\n      0xffffffff\n      and\n      0xe0\n      shl\n      dup2\n      mstore\n      0x04\n      add\n      tag_114\n      swap4\n      swap3\n      swap2\n      swap1\n      tag_115\n      jump\t// in\n    tag_114:\n      0x20\n      mload(0x40)\n      dup1\n      dup4\n      sub\n      dup2\n      0x00\n      dup8\n      gas\n      call\n      iszero\n      dup1\n      iszero\n      tag_117\n      jumpi\n      returndatacopy(0x00, 0x00, returndatasize)\n      revert(0x00, returndatasize)\n    tag_117:\n      pop\n      pop\n      pop\n      pop\n      mload(0x40)\n      returndatasize\n      not(0x1f)\n      0x1f\n      dup3\n      add\n      and\n      dup3\n      add\n      dup1\n      0x40\n      mstore\n      pop\n      dup2\n      add\n      swap1\n      tag_118\n      swap2\n      swap1\n      tag_119\n      jump\t// in\n    tag_118:\n        /* \"contracts/BlockbankSwap.sol\":2994:3084  require(bbeth.transferFrom(msg.sender, address(this), bbethAmount), \"BBETH transfer fail\") */\n      tag_120\n      jumpi\n      mload(0x40)\n      0x08c379a000000000000000000000000000000000000000000000000000000000\n      dup2\n      mstore\n      0x04\n      add\n      tag_121\n      swap1\n      tag_122\n      jump\t// in\n    tag_121:\n      mload(0x40)\n      dup1\n      swap2\n      sub\n      swap1\n      revert\n    tag_120:\n        /* \"contracts/BlockbankSwap.sol\":3099:3104  bbusd */\n      immutable(\"0x81e684302dba258ad18c3b31de9ac01448b470fcf6136d2ace7eb5c581a909a4\")\n        /* \"contracts/BlockbankSwap.sol\":3099:3113  bbusd.transfer */\n      0xffffffffffffffffffffffffffffffffffffffff\n      and\n      0xa9059cbb\n        /* \"contracts/BlockbankSwap.sol\":3114:3124  msg.sender */\n      caller\n        /* \"contracts/BlockbankSwap.sol\":3126:3137  bbusdAmount */\n      dup4\n        /* \"contracts/BlockbankSwap.sol\":3099:3138  bbusd.transfer(msg.sender, bbusdAmount) */\n      mload(0x40)\n      dup4\n      0xffffffff\n      and\n      0xe0\n      shl\n      dup2\n      mstore\n      0x04\n      add\n      tag_123\n      swap3\n      swap2\n      swap1\n      tag_124\n      jump\t// in\n    tag_123:\n      0x20\n      mload(0x40)\n      dup1\n      dup4\n      sub\n      dup2\n      0x00\n      dup8\n      gas\n      call\n      iszero\n      dup1\n      iszero\n      tag_126\n      jumpi\n      returndatacopy(0x00, 0x00, returndatasize)\n      revert(0x00, returndatasize)\n    tag_126:\n      pop\n      pop\n      pop\n      pop\n      mload(0x40)\n      returndatasize\n      not(0x1f)\n      0x1f\n      dup3\n      add\n      and\n      dup3\n      add\n      dup1\n      0x40\n      mstore\n      pop\n      dup2\n      add\n      swap1\n      tag_127\n      swap2\n      swap1\n      tag_119\n      jump\t// in\n    tag_127:\n        /* \"contracts/BlockbankSwap.sol\":3091:3162  require(bbusd.transfer(msg.sender, bbusdAmount), \"BBUSD transfer fail\") */\n      tag_128\n      jumpi\n      mload(0x40)\n      0x08c379a000000000000000000000000000000000000000000000000000000000\n      dup2\n      mstore\n      0x04\n      add\n      tag_129\n      swap1\n      tag_130\n      jump\t// in\n    tag_129:\n      mload(0x40)\n      dup1\n      swap2\n      sub\n      swap1\n      revert\n    tag_128:\n        /* \"contracts/BlockbankSwap.sol\":3196:3206  msg.sender */\n      caller\n        /* \"contracts/BlockbankSwap.sol\":3176:3233  SwappedBbethToBbusd(msg.sender, bbethAmount, bbusdAmount) */\n      0xffffffffffffffffffffffffffffffffffffffff\n      and\n      0xf26d1deb3a000c2bdf214b75e8c826f55c697da9c0487e22a21caa4a9c95492e\n        /* \"contracts/BlockbankSwap.sol\":3208:3219  bbethAmount */\n      dup7\n        /* \"contracts/BlockbankSwap.sol\":3221:3232  bbusdAmount */\n      dup4\n        /* \"contracts/BlockbankSwap.sol\":3176:3233  SwappedBbethToBbusd(msg.sender, bbethAmount, bbusdAmount) */\n      mload(0x40)\n      tag_131\n      swap3\n      swap2\n      swap1\n      tag_132\n      jump\t// in\n    tag_131:\n      mload(0x40)\n      dup1\n      swap2\n      sub\n      swap1\n      log2\n        /* \"contracts/BlockbankSwap.sol\":2623:3241  {... */\n      pop\n      pop\n      pop\n        /* \"@openzeppelin/contracts/security/ReentrancyGuard.sol\":2303:2323  _nonReentrantAfter() */\n      tag_133\n        /* \"@openzeppelin/contracts/security/ReentrancyGuard.sol\":2303:2321  _nonReentrantAfter */\n      tag_134\n        /* \"@openzeppelin/contracts/security/ReentrancyGuard.sol\":2303:2323  _nonReentrantAfter() */\n      jump\t// in\n    tag_133:\n        /* \"contracts/BlockbankSwap.sol\":2514:3241  function swapBbethToBbusd(uint256 bbethAmount, uint256 minBbusdOut)... */\n      pop\n      pop\n      jump\t// out\n        /* \"contracts/BlockbankSwap.sol\":478:507  IERC20 public immutable bbusd */\n    tag_28:\n      immutable(\"0x81e684302dba258ad18c3b31de9ac01448b470fcf6136d2ace7eb5c581a909a4\")\n      dup2\n      jump\t// out\n        /* \"contracts/BlockbankSwap.sol\":3475:3681  function depositBbeth(uint256 amount) external onlyOwner {... */\n    tag_34:\n        /* \"@openzeppelin/contracts/access/Ownable.sol\":1531:1544  _checkOwner() */\n      tag_136\n        /* \"@openzeppelin/contracts/access/Ownable.sol\":1531:1542  _checkOwner */\n      tag_137\n        /* \"@openzeppelin/contracts/access/Ownable.sol\":1531:1544  _checkOwner() */\n      jump\t// in\n    tag_136:\n        /* \"contracts/BlockbankSwap.sol\":3560:3561  0 */\n      0x00\n        /* \"contracts/BlockbankSwap.sol\":3551:3557  amount */\n      dup2\n        /* \"contracts/BlockbankSwap.sol\":3551:3561  amount > 0 */\n      gt\n        /* \"contracts/BlockbankSwap.sol\":3543:3578  require(amount > 0, \"Zero deposit\") */\n      tag_139\n      jumpi\n      mload(0x40)\n      0x08c379a000000000000000000000000000000000000000000000000000000000\n      dup2\n      mstore\n      0x04\n      add\n      tag_140\n      swap1\n      tag_141\n      jump\t// in\n    tag_140:\n      mload(0x40)\n      dup1\n      swap2\n      sub\n      swap1\n      revert\n    tag_139:\n        /* \"contracts/BlockbankSwap.sol\":3597:3602  bbeth */\n      immutable(\"0xa22c77fde226c01897a2fe21dd32df8d23478da0d66d0b2201f2b7d428b73cc4\")\n        /* \"contracts/BlockbankSwap.sol\":3597:3615  bbeth.transferFrom */\n      0xffffffffffffffffffffffffffffffffffffffff\n      and\n      0x23b872dd\n        /* \"contracts/BlockbankSwap.sol\":3616:3626  msg.sender */\n      caller\n        /* \"contracts/BlockbankSwap.sol\":3636:3640  this */\n      address\n        /* \"contracts/BlockbankSwap.sol\":3643:3649  amount */\n      dup5\n        /* \"contracts/BlockbankSwap.sol\":3597:3650  bbeth.transferFrom(msg.sender, address(this), amount) */\n      mload(0x40)\n      dup5\n      0xffffffff\n      and\n      0xe0\n      shl\n      dup2\n      mstore\n      0x04\n      add\n      tag_142\n      swap4\n      swap3\n      swap2\n      swap1\n      tag_115\n      jump\t// in\n    tag_142:\n      0x20\n      mload(0x40)\n      dup1\n      dup4\n      sub\n      dup2\n      0x00\n      dup8\n      gas\n      call\n      iszero\n      dup1\n      iszero\n      tag_144\n      jumpi\n      returndatacopy(0x00, 0x00, returndatasize)\n      revert(0x00, returndatasize)\n    tag_144:\n      pop\n      pop\n      pop\n      pop\n      mload(0x40)\n      returndatasize\n      not(0x1f)\n      0x1f\n      dup3\n      add\n      and\n      dup3\n      add\n      dup1\n      0x40\n      mstore\n      pop\n      dup2\n      add\n      swap1\n      tag_145\n      swap2\n      swap1\n      tag_119\n      jump\t// in\n    tag_145:\n        /* \"contracts/BlockbankSwap.sol\":3589:3673  require(bbeth.transferFrom(msg.sender, address(this), amount), \"Deposit BBETH fail\") */\n      tag_146\n      jumpi\n      mload(0x40)\n      0x08c379a000000000000000000000000000000000000000000000000000000000\n      dup2\n      mstore\n      0x04\n      add\n      tag_147\n      swap1\n      tag_148\n      jump\t// in\n    tag_147:\n      mload(0x40)\n      dup1\n      swap2\n      sub\n      swap1\n      revert\n    tag_146:\n        /* \"contracts/BlockbankSwap.sol\":3475:3681  function depositBbeth(uint256 amount) external onlyOwner {... */\n      pop\n      jump\t// out\n        /* \"contracts/BlockbankSwap.sol\":4189:4242  function unpause() external onlyOwner { _unpause(); } */\n    tag_36:\n        /* \"@openzeppelin/contracts/access/Ownable.sol\":1531:1544  _checkOwner() */\n      tag_150\n        /* \"@openzeppelin/contracts/access/Ownable.sol\":1531:1542  _checkOwner */\n      tag_137\n        /* \"@openzeppelin/contracts/access/Ownable.sol\":1531:1544  _checkOwner() */\n      jump\t// in\n    tag_150:\n        /* \"contracts/BlockbankSwap.sol\":4229:4239  _unpause() */\n      tag_152\n        /* \"contracts/BlockbankSwap.sol\":4229:4237  _unpause */\n      tag_153\n        /* \"contracts/BlockbankSwap.sol\":4229:4239  _unpause() */\n      jump\t// in\n    tag_152:\n        /* \"contracts/BlockbankSwap.sol\":4189:4242  function unpause() external onlyOwner { _unpause(); } */\n      jump\t// out\n        /* \"contracts/BlockbankSwap.sol\":550:604  AggregatorV3Interface public immutable ethUsdPriceFeed */\n    tag_38:\n      immutable(\"0x29640c5389980219501217c4107f20f291a1fe6368349c66046a2466d4f1adbf\")\n      dup2\n      jump\t// out\n        /* \"@openzeppelin/contracts/security/Pausable.sol\":1615:1699  function paused() public view virtual returns (bool) {... */\n    tag_42:\n        /* \"@openzeppelin/contracts/security/Pausable.sol\":1662:1666  bool */\n      0x00\n        /* \"@openzeppelin/contracts/security/Pausable.sol\":1685:1692  _paused */\n      0x01\n      0x00\n      swap1\n      sload\n      swap1\n      0x0100\n      exp\n      swap1\n      div\n      0xff\n      and\n        /* \"@openzeppelin/contracts/security/Pausable.sol\":1678:1692  return _paused */\n      swap1\n      pop\n        /* \"@openzeppelin/contracts/security/Pausable.sol\":1615:1699  function paused() public view virtual returns (bool) {... */\n      swap1\n      jump\t// out\n        /* \"contracts/BlockbankSwap.sol\":4249:4473  function getEstimatedBbethForBbusd(uint256 bbusdAmount) external view returns (uint256) {... */\n    tag_47:\n        /* \"contracts/BlockbankSwap.sol\":4328:4335  uint256 */\n      0x00\n        /* \"contracts/BlockbankSwap.sol\":4345:4359  uint256 ethUsd */\n      0x00\n        /* \"contracts/BlockbankSwap.sol\":4361:4379  uint8 feedDecimals */\n      0x00\n        /* \"contracts/BlockbankSwap.sol\":4383:4399  getEthUsdPrice() */\n      tag_156\n        /* \"contracts/BlockbankSwap.sol\":4383:4397  getEthUsdPrice */\n      tag_70\n        /* \"contracts/BlockbankSwap.sol\":4383:4399  getEthUsdPrice() */\n      jump\t// in\n    tag_156:\n        /* \"contracts/BlockbankSwap.sol\":4344:4399  (uint256 ethUsd, uint8 feedDecimals) = getEthUsdPrice() */\n      swap2\n      pop\n      swap2\n      pop\n        /* \"contracts/BlockbankSwap.sol\":4459:4465  ethUsd */\n      dup2\n        /* \"contracts/BlockbankSwap.sol\":4453:4454  6 */\n      0x06\n        /* \"contracts/BlockbankSwap.sol\":4438:4450  feedDecimals */\n      dup3\n        /* \"contracts/BlockbankSwap.sol\":4433:4435  18 */\n      0x12\n        /* \"contracts/BlockbankSwap.sol\":4433:4450  18 + feedDecimals */\n      tag_157\n      swap2\n      swap1\n      tag_94\n      jump\t// in\n    tag_157:\n        /* \"contracts/BlockbankSwap.sol\":4433:4454  18 + feedDecimals - 6 */\n      tag_158\n      swap2\n      swap1\n      tag_96\n      jump\t// in\n    tag_158:\n        /* \"contracts/BlockbankSwap.sol\":4428:4430  10 */\n      0x0a\n        /* \"contracts/BlockbankSwap.sol\":4428:4455  10**(18 + feedDecimals - 6) */\n      tag_159\n      swap2\n      swap1\n      tag_98\n      jump\t// in\n    tag_159:\n        /* \"contracts/BlockbankSwap.sol\":4414:4425  bbusdAmount */\n      dup6\n        /* \"contracts/BlockbankSwap.sol\":4414:4455  bbusdAmount * 10**(18 + feedDecimals - 6) */\n      tag_160\n      swap2\n      swap1\n      tag_100\n      jump\t// in\n    tag_160:\n        /* \"contracts/BlockbankSwap.sol\":4413:4465  (bbusdAmount * 10**(18 + feedDecimals - 6)) / ethUsd */\n      tag_161\n      swap2\n      swap1\n      tag_102\n      jump\t// in\n    tag_161:\n        /* \"contracts/BlockbankSwap.sol\":4406:4465  return (bbusdAmount * 10**(18 + feedDecimals - 6)) / ethUsd */\n      swap3\n      pop\n      pop\n      pop\n        /* \"contracts/BlockbankSwap.sol\":4249:4473  function getEstimatedBbethForBbusd(uint256 bbusdAmount) external view returns (uint256) {... */\n      swap2\n      swap1\n      pop\n      jump\t// out\n        /* \"contracts/BlockbankSwap.sol\":3689:4126  function emergencyWithdraw(address to) external onlyOwner {... */\n    tag_53:\n        /* \"@openzeppelin/contracts/access/Ownable.sol\":1531:1544  _checkOwner() */\n      tag_163\n        /* \"@openzeppelin/contracts/access/Ownable.sol\":1531:1542  _checkOwner */\n      tag_137\n        /* \"@openzeppelin/contracts/access/Ownable.sol\":1531:1544  _checkOwner() */\n      jump\t// in\n    tag_163:\n        /* \"contracts/BlockbankSwap.sol\":3780:3781  0 */\n      0x00\n        /* \"contracts/BlockbankSwap.sol\":3766:3782  to != address(0) */\n      0xffffffffffffffffffffffffffffffffffffffff\n      and\n        /* \"contracts/BlockbankSwap.sol\":3766:3768  to */\n      dup2\n        /* \"contracts/BlockbankSwap.sol\":3766:3782  to != address(0) */\n      0xffffffffffffffffffffffffffffffffffffffff\n      and\n      sub\n        /* \"contracts/BlockbankSwap.sol\":3758:3799  require(to != address(0), \"Zero address\") */\n      tag_165\n      jumpi\n      mload(0x40)\n      0x08c379a000000000000000000000000000000000000000000000000000000000\n      dup2\n      mstore\n      0x04\n      add\n      tag_166\n      swap1\n      tag_167\n      jump\t// in\n    tag_166:\n      mload(0x40)\n      dup1\n      swap2\n      sub\n      swap1\n      revert\n    tag_165:\n        /* \"contracts/BlockbankSwap.sol\":3810:3826  uint256 bbethBal */\n      0x00\n        /* \"contracts/BlockbankSwap.sol\":3829:3834  bbeth */\n      immutable(\"0xa22c77fde226c01897a2fe21dd32df8d23478da0d66d0b2201f2b7d428b73cc4\")\n        /* \"contracts/BlockbankSwap.sol\":3829:3844  bbeth.balanceOf */\n      0xffffffffffffffffffffffffffffffffffffffff\n      and\n      0x70a08231\n        /* \"contracts/BlockbankSwap.sol\":3853:3857  this */\n      address\n        /* \"contracts/BlockbankSwap.sol\":3829:3859  bbeth.balanceOf(address(this)) */\n      mload(0x40)\n      dup3\n      0xffffffff\n      and\n      0xe0\n      shl\n      dup2\n      mstore\n      0x04\n      add\n      tag_168\n      swap2\n      swap1\n      tag_68\n      jump\t// in\n    tag_168:\n      0x20\n      mload(0x40)\n      dup1\n      dup4\n      sub\n      dup2\n      dup7\n      gas\n      staticcall\n      iszero\n      dup1\n      iszero\n      tag_170\n      jumpi\n      returndatacopy(0x00, 0x00, returndatasize)\n      revert(0x00, returndatasize)\n    tag_170:\n      pop\n      pop\n      pop\n      pop\n      mload(0x40)\n      returndatasize\n      not(0x1f)\n      0x1f\n      dup3\n      add\n      and\n      dup3\n      add\n      dup1\n      0x40\n      mstore\n      pop\n      dup2\n      add\n      swap1\n      tag_171\n      swap2\n      swap1\n      tag_110\n      jump\t// in\n    tag_171:\n        /* \"contracts/BlockbankSwap.sol\":3810:3859  uint256 bbethBal = bbeth.balanceOf(address(this)) */\n      swap1\n      pop\n        /* \"contracts/BlockbankSwap.sol\":3870:3886  uint256 bbusdBal */\n      0x00\n        /* \"contracts/BlockbankSwap.sol\":3889:3894  bbusd */\n      immutable(\"0x81e684302dba258ad18c3b31de9ac01448b470fcf6136d2ace7eb5c581a909a4\")\n        /* \"contracts/BlockbankSwap.sol\":3889:3904  bbusd.balanceOf */\n      0xffffffffffffffffffffffffffffffffffffffff\n      and\n      0x70a08231\n        /* \"contracts/BlockbankSwap.sol\":3913:3917  this */\n      address\n        /* \"contracts/BlockbankSwap.sol\":3889:3919  bbusd.balanceOf(address(this)) */\n      mload(0x40)\n      dup3\n      0xffffffff\n      and\n      0xe0\n      shl\n      dup2\n      mstore\n      0x04\n      add\n      tag_172\n      swap2\n      swap1\n      tag_68\n      jump\t// in\n    tag_172:\n      0x20\n      mload(0x40)\n      dup1\n      dup4\n      sub\n      dup2\n      dup7\n      gas\n      staticcall\n      iszero\n      dup1\n      iszero\n      tag_174\n      jumpi\n      returndatacopy(0x00, 0x00, returndatasize)\n      revert(0x00, returndatasize)\n    tag_174:\n      pop\n      pop\n      pop\n      pop\n      mload(0x40)\n      returndatasize\n      not(0x1f)\n      0x1f\n      dup3\n      add\n      and\n      dup3\n      add\n      dup1\n      0x40\n      mstore\n      pop\n      dup2\n      add\n      swap1\n      tag_175\n      swap2\n      swap1\n      tag_110\n      jump\t// in\n    tag_175:\n        /* \"contracts/BlockbankSwap.sol\":3870:3919  uint256 bbusdBal = bbusd.balanceOf(address(this)) */\n      swap1\n      pop\n        /* \"contracts/BlockbankSwap.sol\":3938:3943  bbeth */\n      immutable(\"0xa22c77fde226c01897a2fe21dd32df8d23478da0d66d0b2201f2b7d428b73cc4\")\n        /* \"contracts/BlockbankSwap.sol\":3938:3952  bbeth.transfer */\n      0xffffffffffffffffffffffffffffffffffffffff\n      and\n      0xa9059cbb\n        /* \"contracts/BlockbankSwap.sol\":3953:3955  to */\n      dup5\n        /* \"contracts/BlockbankSwap.sol\":3957:3965  bbethBal */\n      dup5\n        /* \"contracts/BlockbankSwap.sol\":3938:3966  bbeth.transfer(to, bbethBal) */\n      mload(0x40)\n      dup4\n      0xffffffff\n      and\n      0xe0\n      shl\n      dup2\n      mstore\n      0x04\n      add\n      tag_176\n      swap3\n      swap2\n      swap1\n      tag_124\n      jump\t// in\n    tag_176:\n      0x20\n      mload(0x40)\n      dup1\n      dup4\n      sub\n      dup2\n      0x00\n      dup8\n      gas\n      call\n      iszero\n      dup1\n      iszero\n      tag_178\n      jumpi\n      returndatacopy(0x00, 0x00, returndatasize)\n      revert(0x00, returndatasize)\n    tag_178:\n      pop\n      pop\n      pop\n      pop\n      mload(0x40)\n      returndatasize\n      not(0x1f)\n      0x1f\n      dup3\n      add\n      and\n      dup3\n      add\n      dup1\n      0x40\n      mstore\n      pop\n      dup2\n      add\n      swap1\n      tag_179\n      swap2\n      swap1\n      tag_119\n      jump\t// in\n    tag_179:\n        /* \"contracts/BlockbankSwap.sol\":3930:3990  require(bbeth.transfer(to, bbethBal), \"Withdraw BBETH fail\") */\n      tag_180\n      jumpi\n      mload(0x40)\n      0x08c379a000000000000000000000000000000000000000000000000000000000\n      dup2\n      mstore\n      0x04\n      add\n      tag_181\n      swap1\n      tag_182\n      jump\t// in\n    tag_181:\n      mload(0x40)\n      dup1\n      swap2\n      sub\n      swap1\n      revert\n    tag_180:\n        /* \"contracts/BlockbankSwap.sol\":4009:4014  bbusd */\n      immutable(\"0x81e684302dba258ad18c3b31de9ac01448b470fcf6136d2ace7eb5c581a909a4\")\n        /* \"contracts/BlockbankSwap.sol\":4009:4023  bbusd.transfer */\n      0xffffffffffffffffffffffffffffffffffffffff\n      and\n      0xa9059cbb\n        /* \"contracts/BlockbankSwap.sol\":4024:4026  to */\n      dup5\n        /* \"contracts/BlockbankSwap.sol\":4028:4036  bbusdBal */\n      dup4\n        /* \"contracts/BlockbankSwap.sol\":4009:4037  bbusd.transfer(to, bbusdBal) */\n      mload(0x40)\n      dup4\n      0xffffffff\n      and\n      0xe0\n      shl\n      dup2\n      mstore\n      0x04\n      add\n      tag_183\n      swap3\n      swap2\n      swap1\n      tag_124\n      jump\t// in\n    tag_183:\n      0x20\n      mload(0x40)\n      dup1\n      dup4\n      sub\n      dup2\n      0x00\n      dup8\n      gas\n      call\n      iszero\n      dup1\n      iszero\n      tag_185\n      jumpi\n      returndatacopy(0x00, 0x00, returndatasize)\n      revert(0x00, returndatasize)\n    tag_185:\n      pop\n      pop\n      pop\n      pop\n      mload(0x40)\n      returndatasize\n      not(0x1f)\n      0x1f\n      dup3\n      add\n      and\n      dup3\n      add\n      dup1\n      0x40\n      mstore\n      pop\n      dup2\n      add\n      swap1\n      tag_186\n      swap2\n      swap1\n      tag_119\n      jump\t// in\n    tag_186:\n        /* \"contracts/BlockbankSwap.sol\":4001:4061  require(bbusd.transfer(to, bbusdBal), \"Withdraw BBUSD fail\") */\n      tag_187\n      jumpi\n      mload(0x40)\n      0x08c379a000000000000000000000000000000000000000000000000000000000\n      dup2\n      mstore\n      0x04\n      add\n      tag_188\n      swap1\n      tag_189\n      jump\t// in\n    tag_188:\n      mload(0x40)\n      dup1\n      swap2\n      sub\n      swap1\n      revert\n    tag_187:\n        /* \"contracts/BlockbankSwap.sol\":4095:4097  to */\n      dup3\n        /* \"contracts/BlockbankSwap.sol\":4077:4118  EmergencyWithdraw(to, bbethBal, bbusdBal) */\n      0xffffffffffffffffffffffffffffffffffffffff\n      and\n      0xbb757047c2b5f3974fe26b7c10f732e7bce710b0952a71082702781e62ae0595\n        /* \"contracts/BlockbankSwap.sol\":4099:4107  bbethBal */\n      dup4\n        /* \"contracts/BlockbankSwap.sol\":4109:4117  bbusdBal */\n      dup4\n        /* \"contracts/BlockbankSwap.sol\":4077:4118  EmergencyWithdraw(to, bbethBal, bbusdBal) */\n      mload(0x40)\n      tag_190\n      swap3\n      swap2\n      swap1\n      tag_132\n      jump\t// in\n    tag_190:\n      mload(0x40)\n      dup1\n      swap2\n      sub\n      swap1\n      log2\n        /* \"contracts/BlockbankSwap.sol\":3747:4126  {... */\n      pop\n      pop\n        /* \"contracts/BlockbankSwap.sol\":3689:4126  function emergencyWithdraw(address to) external onlyOwner {... */\n      pop\n      jump\t// out\n        /* \"@openzeppelin/contracts/access/Ownable.sol\":2293:2394  function renounceOwnership() public virtual onlyOwner {... */\n    tag_55:\n        /* \"@openzeppelin/contracts/access/Ownable.sol\":1531:1544  _checkOwner() */\n      tag_192\n        /* \"@openzeppelin/contracts/access/Ownable.sol\":1531:1542  _checkOwner */\n      tag_137\n        /* \"@openzeppelin/contracts/access/Ownable.sol\":1531:1544  _checkOwner() */\n      jump\t// in\n    tag_192:\n        /* \"@openzeppelin/contracts/access/Ownable.sol\":2357:2387  _transferOwnership(address(0)) */\n      tag_194\n        /* \"@openzeppelin/contracts/access/Ownable.sol\":2384:2385  0 */\n      0x00\n        /* \"@openzeppelin/contracts/access/Ownable.sol\":2357:2375  _transferOwnership */\n      tag_195\n        /* \"@openzeppelin/contracts/access/Ownable.sol\":2357:2387  _transferOwnership(address(0)) */\n      jump\t// in\n    tag_194:\n        /* \"@openzeppelin/contracts/access/Ownable.sol\":2293:2394  function renounceOwnership() public virtual onlyOwner {... */\n      jump\t// out\n        /* \"contracts/BlockbankSwap.sol\":4134:4183  function pause() external onlyOwner { _pause(); } */\n    tag_57:\n        /* \"@openzeppelin/contracts/access/Ownable.sol\":1531:1544  _checkOwner() */\n      tag_197\n        /* \"@openzeppelin/contracts/access/Ownable.sol\":1531:1542  _checkOwner */\n      tag_137\n        /* \"@openzeppelin/contracts/access/Ownable.sol\":1531:1544  _checkOwner() */\n      jump\t// in\n    tag_197:\n        /* \"contracts/BlockbankSwap.sol\":4172:4180  _pause() */\n      tag_199\n        /* \"contracts/BlockbankSwap.sol\":4172:4178  _pause */\n      tag_200\n        /* \"contracts/BlockbankSwap.sol\":4172:4180  _pause() */\n      jump\t// in\n    tag_199:\n        /* \"contracts/BlockbankSwap.sol\":4134:4183  function pause() external onlyOwner { _pause(); } */\n      jump\t// out\n        /* \"contracts/BlockbankSwap.sol\":4481:4707  function getEstimatedBbusdForBbeth(uint256 bbethAmount) external view returns (uint256) {... */\n    tag_60:\n        /* \"contracts/BlockbankSwap.sol\":4560:4567  uint256 */\n      0x00\n        /* \"contracts/BlockbankSwap.sol\":4577:4591  uint256 ethUsd */\n      0x00\n        /* \"contracts/BlockbankSwap.sol\":4593:4611  uint8 feedDecimals */\n      0x00\n        /* \"contracts/BlockbankSwap.sol\":4615:4631  getEthUsdPrice() */\n      tag_202\n        /* \"contracts/BlockbankSwap.sol\":4615:4629  getEthUsdPrice */\n      tag_70\n        /* \"contracts/BlockbankSwap.sol\":4615:4631  getEthUsdPrice() */\n      jump\t// in\n    tag_202:\n        /* \"contracts/BlockbankSwap.sol\":4576:4631  (uint256 ethUsd, uint8 feedDecimals) = getEthUsdPrice() */\n      swap2\n      pop\n      swap2\n      pop\n        /* \"contracts/BlockbankSwap.sol\":4696:4697  6 */\n      0x06\n        /* \"contracts/BlockbankSwap.sol\":4691:4693  18 */\n      0x12\n        /* \"contracts/BlockbankSwap.sol\":4676:4688  feedDecimals */\n      dup3\n        /* \"contracts/BlockbankSwap.sol\":4676:4693  feedDecimals + 18 */\n      tag_203\n      swap2\n      swap1\n      tag_94\n      jump\t// in\n    tag_203:\n        /* \"contracts/BlockbankSwap.sol\":4676:4697  feedDecimals + 18 - 6 */\n      tag_204\n      swap2\n      swap1\n      tag_96\n      jump\t// in\n    tag_204:\n        /* \"contracts/BlockbankSwap.sol\":4671:4673  10 */\n      0x0a\n        /* \"contracts/BlockbankSwap.sol\":4671:4698  10**(feedDecimals + 18 - 6) */\n      tag_205\n      swap2\n      swap1\n      tag_98\n      jump\t// in\n    tag_205:\n        /* \"contracts/BlockbankSwap.sol\":4660:4666  ethUsd */\n      dup3\n        /* \"contracts/BlockbankSwap.sol\":4646:4657  bbethAmount */\n      dup6\n        /* \"contracts/BlockbankSwap.sol\":4646:4666  bbethAmount * ethUsd */\n      tag_206\n      swap2\n      swap1\n      tag_100\n      jump\t// in\n    tag_206:\n        /* \"contracts/BlockbankSwap.sol\":4645:4699  (bbethAmount * ethUsd) / (10**(feedDecimals + 18 - 6)) */\n      tag_207\n      swap2\n      swap1\n      tag_102\n      jump\t// in\n    tag_207:\n        /* \"contracts/BlockbankSwap.sol\":4638:4699  return (bbethAmount * ethUsd) / (10**(feedDecimals + 18 - 6)) */\n      swap3\n      pop\n      pop\n      pop\n        /* \"contracts/BlockbankSwap.sol\":4481:4707  function getEstimatedBbusdForBbeth(uint256 bbethAmount) external view returns (uint256) {... */\n      swap2\n      swap1\n      pop\n      jump\t// out\n        /* \"contracts/BlockbankSwap.sol\":514:543  IERC20 public immutable bbeth */\n    tag_63:\n      immutable(\"0xa22c77fde226c01897a2fe21dd32df8d23478da0d66d0b2201f2b7d428b73cc4\")\n      dup2\n      jump\t// out\n        /* \"@openzeppelin/contracts/access/Ownable.sol\":1638:1723  function owner() public view virtual returns (address) {... */\n    tag_66:\n        /* \"@openzeppelin/contracts/access/Ownable.sol\":1684:1691  address */\n      0x00\n        /* \"@openzeppelin/contracts/access/Ownable.sol\":1710:1716  _owner */\n      0x01\n      dup1\n      sload\n      swap1\n      0x0100\n      exp\n      swap1\n      div\n      0xffffffffffffffffffffffffffffffffffffffff\n      and\n        /* \"@openzeppelin/contracts/access/Ownable.sol\":1703:1716  return _owner */\n      swap1\n      pop\n        /* \"@openzeppelin/contracts/access/Ownable.sol\":1638:1723  function owner() public view virtual returns (address) {... */\n      swap1\n      jump\t// out\n        /* \"contracts/BlockbankSwap.sol\":1370:1773  function getEthUsdPrice() public view returns (uint256 price, uint8 decimals) {... */\n    tag_70:\n        /* \"contracts/BlockbankSwap.sol\":1417:1430  uint256 price */\n      0x00\n        /* \"contracts/BlockbankSwap.sol\":1432:1446  uint8 decimals */\n      0x00\n        /* \"contracts/BlockbankSwap.sol\":1476:1491  int256 rawPrice */\n      0x00\n        /* \"contracts/BlockbankSwap.sol\":1494:1511  uint256 updatedAt */\n      0x00\n        /* \"contracts/BlockbankSwap.sol\":1526:1541  ethUsdPriceFeed */\n      immutable(\"0x29640c5389980219501217c4107f20f291a1fe6368349c66046a2466d4f1adbf\")\n        /* \"contracts/BlockbankSwap.sol\":1526:1557  ethUsdPriceFeed.latestRoundData */\n      0xffffffffffffffffffffffffffffffffffffffff\n      and\n      0xfeaf968c\n        /* \"contracts/BlockbankSwap.sol\":1526:1559  ethUsdPriceFeed.latestRoundData() */\n      mload(0x40)\n      dup2\n      0xffffffff\n      and\n      0xe0\n      shl\n      dup2\n      mstore\n      0x04\n      add\n      0xa0\n      mload(0x40)\n      dup1\n      dup4\n      sub\n      dup2\n      dup7\n      gas\n      staticcall\n      iszero\n      dup1\n      iszero\n      tag_211\n      jumpi\n      returndatacopy(0x00, 0x00, returndatasize)\n      revert(0x00, returndatasize)\n    tag_211:\n      pop\n      pop\n      pop\n      pop\n      mload(0x40)\n      returndatasize\n      not(0x1f)\n      0x1f\n      dup3\n      add\n      and\n      dup3\n      add\n      dup1\n      0x40\n      mstore\n      pop\n      dup2\n      add\n      swap1\n      tag_212\n      swap2\n      swap1\n      tag_213\n      jump\t// in\n    tag_212:\n        /* \"contracts/BlockbankSwap.sol\":1459:1559  (... */\n      pop\n      swap4\n      pop\n      pop\n      swap3\n      pop\n      pop\n        /* \"contracts/BlockbankSwap.sol\":1589:1590  0 */\n      0x00\n        /* \"contracts/BlockbankSwap.sol\":1578:1586  rawPrice */\n      dup3\n        /* \"contracts/BlockbankSwap.sol\":1578:1590  rawPrice > 0 */\n      sgt\n        /* \"contracts/BlockbankSwap.sol\":1570:1608  require(rawPrice > 0, \"Invalid price\") */\n      tag_214\n      jumpi\n      mload(0x40)\n      0x08c379a000000000000000000000000000000000000000000000000000000000\n      dup2\n      mstore\n      0x04\n      add\n      tag_215\n      swap1\n      tag_216\n      jump\t// in\n    tag_215:\n      mload(0x40)\n      dup1\n      swap2\n      sub\n      swap1\n      revert\n    tag_214:\n        /* \"contracts/BlockbankSwap.sol\":1658:1665  1 hours */\n      0x0e10\n        /* \"contracts/BlockbankSwap.sol\":1640:1655  block.timestamp */\n      timestamp\n        /* \"contracts/BlockbankSwap.sol\":1640:1665  block.timestamp - 1 hours */\n      tag_217\n      swap2\n      swap1\n      tag_218\n      jump\t// in\n    tag_217:\n        /* \"contracts/BlockbankSwap.sol\":1627:1636  updatedAt */\n      dup2\n        /* \"contracts/BlockbankSwap.sol\":1627:1665  updatedAt >= block.timestamp - 1 hours */\n      lt\n      iszero\n        /* \"contracts/BlockbankSwap.sol\":1619:1681  require(updatedAt >= block.timestamp - 1 hours, \"Stale price\") */\n      tag_219\n      jumpi\n      mload(0x40)\n      0x08c379a000000000000000000000000000000000000000000000000000000000\n      dup2\n      mstore\n      0x04\n      add\n      tag_220\n      swap1\n      tag_221\n      jump\t// in\n    tag_220:\n      mload(0x40)\n      dup1\n      swap2\n      sub\n      swap1\n      revert\n    tag_219:\n        /* \"contracts/BlockbankSwap.sol\":1708:1716  rawPrice */\n      dup2\n        /* \"contracts/BlockbankSwap.sol\":1692:1717  price = uint256(rawPrice) */\n      swap4\n      pop\n        /* \"contracts/BlockbankSwap.sol\":1739:1754  ethUsdPriceFeed */\n      immutable(\"0x29640c5389980219501217c4107f20f291a1fe6368349c66046a2466d4f1adbf\")\n        /* \"contracts/BlockbankSwap.sol\":1739:1763  ethUsdPriceFeed.decimals */\n      0xffffffffffffffffffffffffffffffffffffffff\n      and\n      0x313ce567\n        /* \"contracts/BlockbankSwap.sol\":1739:1765  ethUsdPriceFeed.decimals() */\n      mload(0x40)\n      dup2\n      0xffffffff\n      and\n      0xe0\n      shl\n      dup2\n      mstore\n      0x04\n      add\n      0x20\n      mload(0x40)\n      dup1\n      dup4\n      sub\n      dup2\n      dup7\n      gas\n      staticcall\n      iszero\n      dup1\n      iszero\n      tag_223\n      jumpi\n      returndatacopy(0x00, 0x00, returndatasize)\n      revert(0x00, returndatasize)\n    tag_223:\n      pop\n      pop\n      pop\n      pop\n      mload(0x40)\n      returndatasize\n      not(0x1f)\n      0x1f\n      dup3\n      add\n      and\n      dup3\n      add\n      dup1\n      0x40\n      mstore\n      pop\n      dup2\n      add\n      swap1\n      tag_224\n      swap2\n      swap1\n      tag_225\n      jump\t// in\n    tag_224:\n        /* \"contracts/BlockbankSwap.sol\":1728:1765  decimals = ethUsdPriceFeed.decimals() */\n      swap3\n      pop\n        /* \"contracts/BlockbankSwap.sol\":1448:1773  {... */\n      pop\n      pop\n        /* \"contracts/BlockbankSwap.sol\":1370:1773  function getEthUsdPrice() public view returns (uint256 price, uint8 decimals) {... */\n      swap1\n      swap2\n      jump\t// out\n        /* \"contracts/BlockbankSwap.sol\":1781:2506  function swapBbusdToBbeth(uint256 bbusdAmount, uint256 minBbethOut)... */\n    tag_75:\n        /* \"@openzeppelin/contracts/security/Pausable.sol\":1239:1258  _requireNotPaused() */\n      tag_227\n        /* \"@openzeppelin/contracts/security/Pausable.sol\":1239:1256  _requireNotPaused */\n      tag_84\n        /* \"@openzeppelin/contracts/security/Pausable.sol\":1239:1258  _requireNotPaused() */\n      jump\t// in\n    tag_227:\n        /* \"@openzeppelin/contracts/security/ReentrancyGuard.sol\":2261:2282  _nonReentrantBefore() */\n      tag_229\n        /* \"@openzeppelin/contracts/security/ReentrancyGuard.sol\":2261:2280  _nonReentrantBefore */\n      tag_87\n        /* \"@openzeppelin/contracts/security/ReentrancyGuard.sol\":2261:2282  _nonReentrantBefore() */\n      jump\t// in\n    tag_229:\n        /* \"contracts/BlockbankSwap.sol\":1919:1920  0 */\n      0x00\n        /* \"contracts/BlockbankSwap.sol\":1905:1916  bbusdAmount */\n      dup3\n        /* \"contracts/BlockbankSwap.sol\":1905:1920  bbusdAmount > 0 */\n      gt\n        /* \"contracts/BlockbankSwap.sol\":1897:1935  require(bbusdAmount > 0, \"Zero input\") */\n      tag_231\n      jumpi\n      mload(0x40)\n      0x08c379a000000000000000000000000000000000000000000000000000000000\n      dup2\n      mstore\n      0x04\n      add\n      tag_232\n      swap1\n      tag_91\n      jump\t// in\n    tag_232:\n      mload(0x40)\n      dup1\n      swap2\n      sub\n      swap1\n      revert\n    tag_231:\n        /* \"contracts/BlockbankSwap.sol\":1943:1957  uint256 ethUsd */\n      0x00\n        /* \"contracts/BlockbankSwap.sol\":1959:1977  uint8 feedDecimals */\n      0x00\n        /* \"contracts/BlockbankSwap.sol\":1981:1997  getEthUsdPrice() */\n      tag_233\n        /* \"contracts/BlockbankSwap.sol\":1981:1995  getEthUsdPrice */\n      tag_70\n        /* \"contracts/BlockbankSwap.sol\":1981:1997  getEthUsdPrice() */\n      jump\t// in\n    tag_233:\n        /* \"contracts/BlockbankSwap.sol\":1942:1997  (uint256 ethUsd, uint8 feedDecimals) = getEthUsdPrice() */\n      swap2\n      pop\n      swap2\n      pop\n        /* \"contracts/BlockbankSwap.sol\":2006:2025  uint256 bbethAmount */\n      0x00\n        /* \"contracts/BlockbankSwap.sol\":2074:2080  ethUsd */\n      dup3\n        /* \"contracts/BlockbankSwap.sol\":2068:2069  6 */\n      0x06\n        /* \"contracts/BlockbankSwap.sol\":2053:2065  feedDecimals */\n      dup4\n        /* \"contracts/BlockbankSwap.sol\":2048:2050  18 */\n      0x12\n        /* \"contracts/BlockbankSwap.sol\":2048:2065  18 + feedDecimals */\n      tag_234\n      swap2\n      swap1\n      tag_94\n      jump\t// in\n    tag_234:\n        /* \"contracts/BlockbankSwap.sol\":2048:2069  18 + feedDecimals - 6 */\n      tag_235\n      swap2\n      swap1\n      tag_96\n      jump\t// in\n    tag_235:\n        /* \"contracts/BlockbankSwap.sol\":2043:2045  10 */\n      0x0a\n        /* \"contracts/BlockbankSwap.sol\":2043:2070  10**(18 + feedDecimals - 6) */\n      tag_236\n      swap2\n      swap1\n      tag_98\n      jump\t// in\n    tag_236:\n        /* \"contracts/BlockbankSwap.sol\":2029:2040  bbusdAmount */\n      dup7\n        /* \"contracts/BlockbankSwap.sol\":2029:2070  bbusdAmount * 10**(18 + feedDecimals - 6) */\n      tag_237\n      swap2\n      swap1\n      tag_100\n      jump\t// in\n    tag_237:\n        /* \"contracts/BlockbankSwap.sol\":2028:2080  (bbusdAmount * 10**(18 + feedDecimals - 6)) / ethUsd */\n      tag_238\n      swap2\n      swap1\n      tag_102\n      jump\t// in\n    tag_238:\n        /* \"contracts/BlockbankSwap.sol\":2006:2080  uint256 bbethAmount = (bbusdAmount * 10**(18 + feedDecimals - 6)) / ethUsd */\n      swap1\n      pop\n        /* \"contracts/BlockbankSwap.sol\":2112:2123  minBbethOut */\n      dup4\n        /* \"contracts/BlockbankSwap.sol\":2097:2108  bbethAmount */\n      dup2\n        /* \"contracts/BlockbankSwap.sol\":2097:2123  bbethAmount >= minBbethOut */\n      lt\n      iszero\n        /* \"contracts/BlockbankSwap.sol\":2089:2155  require(bbethAmount >= minBbethOut, \"Slippage: too little output\") */\n      tag_239\n      jumpi\n      mload(0x40)\n      0x08c379a000000000000000000000000000000000000000000000000000000000\n      dup2\n      mstore\n      0x04\n      add\n      tag_240\n      swap1\n      tag_105\n      jump\t// in\n    tag_240:\n      mload(0x40)\n      dup1\n      swap2\n      sub\n      swap1\n      revert\n    tag_239:\n        /* \"contracts/BlockbankSwap.sol\":2204:2215  bbethAmount */\n      dup1\n        /* \"contracts/BlockbankSwap.sol\":2170:2175  bbeth */\n      immutable(\"0xa22c77fde226c01897a2fe21dd32df8d23478da0d66d0b2201f2b7d428b73cc4\")\n        /* \"contracts/BlockbankSwap.sol\":2170:2185  bbeth.balanceOf */\n      0xffffffffffffffffffffffffffffffffffffffff\n      and\n      0x70a08231\n        /* \"contracts/BlockbankSwap.sol\":2194:2198  this */\n      address\n        /* \"contracts/BlockbankSwap.sol\":2170:2200  bbeth.balanceOf(address(this)) */\n      mload(0x40)\n      dup3\n      0xffffffff\n      and\n      0xe0\n      shl\n      dup2\n      mstore\n      0x04\n      add\n      tag_241\n      swap2\n      swap1\n      tag_68\n      jump\t// in\n    tag_241:\n      0x20\n      mload(0x40)\n      dup1\n      dup4\n      sub\n      dup2\n      dup7\n      gas\n      staticcall\n      iszero\n      dup1\n      iszero\n      tag_243\n      jumpi\n      returndatacopy(0x00, 0x00, returndatasize)\n      revert(0x00, returndatasize)\n    tag_243:\n      pop\n      pop\n      pop\n      pop\n      mload(0x40)\n      returndatasize\n      not(0x1f)\n      0x1f\n      dup3\n      add\n      and\n      dup3\n      add\n      dup1\n      0x40\n      mstore\n      pop\n      dup2\n      add\n      swap1\n      tag_244\n      swap2\n      swap1\n      tag_110\n      jump\t// in\n    tag_244:\n        /* \"contracts/BlockbankSwap.sol\":2170:2215  bbeth.balanceOf(address(this)) >= bbethAmount */\n      lt\n      iszero\n        /* \"contracts/BlockbankSwap.sol\":2162:2250  require(bbeth.balanceOf(address(this)) >= bbethAmount, \"Insufficient BBETH in contract\") */\n      tag_245\n      jumpi\n      mload(0x40)\n      0x08c379a000000000000000000000000000000000000000000000000000000000\n      dup2\n      mstore\n      0x04\n      add\n      tag_246\n      swap1\n      tag_247\n      jump\t// in\n    tag_246:\n      mload(0x40)\n      dup1\n      swap2\n      sub\n      swap1\n      revert\n    tag_245:\n        /* \"contracts/BlockbankSwap.sol\":2267:2272  bbusd */\n      immutable(\"0x81e684302dba258ad18c3b31de9ac01448b470fcf6136d2ace7eb5c581a909a4\")\n        /* \"contracts/BlockbankSwap.sol\":2267:2285  bbusd.transferFrom */\n      0xffffffffffffffffffffffffffffffffffffffff\n      and\n      0x23b872dd\n        /* \"contracts/BlockbankSwap.sol\":2286:2296  msg.sender */\n      caller\n        /* \"contracts/BlockbankSwap.sol\":2306:2310  this */\n      address\n        /* \"contracts/BlockbankSwap.sol\":2313:2324  bbusdAmount */\n      dup9\n        /* \"contracts/BlockbankSwap.sol\":2267:2325  bbusd.transferFrom(msg.sender, address(this), bbusdAmount) */\n      mload(0x40)\n      dup5\n      0xffffffff\n      and\n      0xe0\n      shl\n      dup2\n      mstore\n      0x04\n      add\n      tag_248\n      swap4\n      swap3\n      swap2\n      swap1\n      tag_115\n      jump\t// in\n    tag_248:\n      0x20\n      mload(0x40)\n      dup1\n      dup4\n      sub\n      dup2\n      0x00\n      dup8\n      gas\n      call\n      iszero\n      dup1\n      iszero\n      tag_250\n      jumpi\n      returndatacopy(0x00, 0x00, returndatasize)\n      revert(0x00, returndatasize)\n    tag_250:\n      pop\n      pop\n      pop\n      pop\n      mload(0x40)\n      returndatasize\n      not(0x1f)\n      0x1f\n      dup3\n      add\n      and\n      dup3\n      add\n      dup1\n      0x40\n      mstore\n      pop\n      dup2\n      add\n      swap1\n      tag_251\n      swap2\n      swap1\n      tag_119\n      jump\t// in\n    tag_251:\n        /* \"contracts/BlockbankSwap.sol\":2259:2349  require(bbusd.transferFrom(msg.sender, address(this), bbusdAmount), \"BBUSD transfer fail\") */\n      tag_252\n      jumpi\n      mload(0x40)\n      0x08c379a000000000000000000000000000000000000000000000000000000000\n      dup2\n      mstore\n      0x04\n      add\n      tag_253\n      swap1\n      tag_130\n      jump\t// in\n    tag_253:\n      mload(0x40)\n      dup1\n      swap2\n      sub\n      swap1\n      revert\n    tag_252:\n        /* \"contracts/BlockbankSwap.sol\":2364:2369  bbeth */\n      immutable(\"0xa22c77fde226c01897a2fe21dd32df8d23478da0d66d0b2201f2b7d428b73cc4\")\n        /* \"contracts/BlockbankSwap.sol\":2364:2378  bbeth.transfer */\n      0xffffffffffffffffffffffffffffffffffffffff\n      and\n      0xa9059cbb\n        /* \"contracts/BlockbankSwap.sol\":2379:2389  msg.sender */\n      caller\n        /* \"contracts/BlockbankSwap.sol\":2391:2402  bbethAmount */\n      dup4\n        /* \"contracts/BlockbankSwap.sol\":2364:2403  bbeth.transfer(msg.sender, bbethAmount) */\n      mload(0x40)\n      dup4\n      0xffffffff\n      and\n      0xe0\n      shl\n      dup2\n      mstore\n      0x04\n      add\n      tag_254\n      swap3\n      swap2\n      swap1\n      tag_124\n      jump\t// in\n    tag_254:\n      0x20\n      mload(0x40)\n      dup1\n      dup4\n      sub\n      dup2\n      0x00\n      dup8\n      gas\n      call\n      iszero\n      dup1\n      iszero\n      tag_256\n      jumpi\n      returndatacopy(0x00, 0x00, returndatasize)\n      revert(0x00, returndatasize)\n    tag_256:\n      pop\n      pop\n      pop\n      pop\n      mload(0x40)\n      returndatasize\n      not(0x1f)\n      0x1f\n      dup3\n      add\n      and\n      dup3\n      add\n      dup1\n      0x40\n      mstore\n      pop\n      dup2\n      add\n      swap1\n      tag_257\n      swap2\n      swap1\n      tag_119\n      jump\t// in\n    tag_257:\n        /* \"contracts/BlockbankSwap.sol\":2356:2427  require(bbeth.transfer(msg.sender, bbethAmount), \"BBETH transfer fail\") */\n      tag_258\n      jumpi\n      mload(0x40)\n      0x08c379a000000000000000000000000000000000000000000000000000000000\n      dup2\n      mstore\n      0x04\n      add\n      tag_259\n      swap1\n      tag_122\n      jump\t// in\n    tag_259:\n      mload(0x40)\n      dup1\n      swap2\n      sub\n      swap1\n      revert\n    tag_258:\n        /* \"contracts/BlockbankSwap.sol\":2461:2471  msg.sender */\n      caller\n        /* \"contracts/BlockbankSwap.sol\":2441:2498  SwappedBbusdToBbeth(msg.sender, bbusdAmount, bbethAmount) */\n      0xffffffffffffffffffffffffffffffffffffffff\n      and\n      0xb93052fcfbb4398d57b82aa4a6026424c21d0594a56e4d2d50a69921a613ef66\n        /* \"contracts/BlockbankSwap.sol\":2473:2484  bbusdAmount */\n      dup7\n        /* \"contracts/BlockbankSwap.sol\":2486:2497  bbethAmount */\n      dup4\n        /* \"contracts/BlockbankSwap.sol\":2441:2498  SwappedBbusdToBbeth(msg.sender, bbusdAmount, bbethAmount) */\n      mload(0x40)\n      tag_260\n      swap3\n      swap2\n      swap1\n      tag_132\n      jump\t// in\n    tag_260:\n      mload(0x40)\n      dup1\n      swap2\n      sub\n      swap1\n      log2\n        /* \"contracts/BlockbankSwap.sol\":1890:2506  {... */\n      pop\n      pop\n      pop\n        /* \"@openzeppelin/contracts/security/ReentrancyGuard.sol\":2303:2323  _nonReentrantAfter() */\n      tag_261\n        /* \"@openzeppelin/contracts/security/ReentrancyGuard.sol\":2303:2321  _nonReentrantAfter */\n      tag_134\n        /* \"@openzeppelin/contracts/security/ReentrancyGuard.sol\":2303:2323  _nonReentrantAfter() */\n      jump\t// in\n    tag_261:\n        /* \"contracts/BlockbankSwap.sol\":1781:2506  function swapBbusdToBbeth(uint256 bbusdAmount, uint256 minBbethOut)... */\n      pop\n      pop\n      jump\t// out\n        /* \"@openzeppelin/contracts/access/Ownable.sol\":2543:2758  function transferOwnership(address newOwner) public virtual onlyOwner {... */\n    tag_78:\n        /* \"@openzeppelin/contracts/access/Ownable.sol\":1531:1544  _checkOwner() */\n      tag_263\n        /* \"@openzeppelin/contracts/access/Ownable.sol\":1531:1542  _checkOwner */\n      tag_137\n        /* \"@openzeppelin/contracts/access/Ownable.sol\":1531:1544  _checkOwner() */\n      jump\t// in\n    tag_263:\n        /* \"@openzeppelin/contracts/access/Ownable.sol\":2647:2648  0 */\n      0x00\n        /* \"@openzeppelin/contracts/access/Ownable.sol\":2627:2649  newOwner == address(0) */\n      0xffffffffffffffffffffffffffffffffffffffff\n      and\n        /* \"@openzeppelin/contracts/access/Ownable.sol\":2627:2635  newOwner */\n      dup2\n        /* \"@openzeppelin/contracts/access/Ownable.sol\":2627:2649  newOwner == address(0) */\n      0xffffffffffffffffffffffffffffffffffffffff\n      and\n      sub\n        /* \"@openzeppelin/contracts/access/Ownable.sol\":2623:2714  if (newOwner == address(0)) {... */\n      tag_265\n      jumpi\n        /* \"@openzeppelin/contracts/access/Ownable.sol\":2700:2701  0 */\n      0x00\n        /* \"@openzeppelin/contracts/access/Ownable.sol\":2672:2703  OwnableInvalidOwner(address(0)) */\n      mload(0x40)\n      0x1e4fbdf700000000000000000000000000000000000000000000000000000000\n      dup2\n      mstore\n      0x04\n      add\n      tag_266\n      swap2\n      swap1\n      tag_68\n      jump\t// in\n    tag_266:\n      mload(0x40)\n      dup1\n      swap2\n      sub\n      swap1\n      revert\n        /* \"@openzeppelin/contracts/access/Ownable.sol\":2623:2714  if (newOwner == address(0)) {... */\n    tag_265:\n        /* \"@openzeppelin/contracts/access/Ownable.sol\":2723:2751  _transferOwnership(newOwner) */\n      tag_267\n        /* \"@openzeppelin/contracts/access/Ownable.sol\":2742:2750  newOwner */\n      dup2\n        /* \"@openzeppelin/contracts/access/Ownable.sol\":2723:2741  _transferOwnership */\n      tag_195\n        /* \"@openzeppelin/contracts/access/Ownable.sol\":2723:2751  _transferOwnership(newOwner) */\n      jump\t// in\n    tag_267:\n        /* \"@openzeppelin/contracts/access/Ownable.sol\":2543:2758  function transferOwnership(address newOwner) public virtual onlyOwner {... */\n      pop\n      jump\t// out\n        /* \"contracts/BlockbankSwap.sol\":3261:3467  function depositBbusd(uint256 amount) external onlyOwner {... */\n    tag_81:\n        /* \"@openzeppelin/contracts/access/Ownable.sol\":1531:1544  _checkOwner() */\n      tag_269\n        /* \"@openzeppelin/contracts/access/Ownable.sol\":1531:1542  _checkOwner */\n      tag_137\n        /* \"@openzeppelin/contracts/access/Ownable.sol\":1531:1544  _checkOwner() */\n      jump\t// in\n    tag_269:\n        /* \"contracts/BlockbankSwap.sol\":3346:3347  0 */\n      0x00\n        /* \"contracts/BlockbankSwap.sol\":3337:3343  amount */\n      dup2\n        /* \"contracts/BlockbankSwap.sol\":3337:3347  amount > 0 */\n      gt\n        /* \"contracts/BlockbankSwap.sol\":3329:3364  require(amount > 0, \"Zero deposit\") */\n      tag_271\n      jumpi\n      mload(0x40)\n      0x08c379a000000000000000000000000000000000000000000000000000000000\n      dup2\n      mstore\n      0x04\n      add\n      tag_272\n      swap1\n      tag_141\n      jump\t// in\n    tag_272:\n      mload(0x40)\n      dup1\n      swap2\n      sub\n      swap1\n      revert\n    tag_271:\n        /* \"contracts/BlockbankSwap.sol\":3383:3388  bbusd */\n      immutable(\"0x81e684302dba258ad18c3b31de9ac01448b470fcf6136d2ace7eb5c581a909a4\")\n        /* \"contracts/BlockbankSwap.sol\":3383:3401  bbusd.transferFrom */\n      0xffffffffffffffffffffffffffffffffffffffff\n      and\n      0x23b872dd\n        /* \"contracts/BlockbankSwap.sol\":3402:3412  msg.sender */\n      caller\n        /* \"contracts/BlockbankSwap.sol\":3422:3426  this */\n      address\n        /* \"contracts/BlockbankSwap.sol\":3429:3435  amount */\n      dup5\n        /* \"contracts/BlockbankSwap.sol\":3383:3436  bbusd.transferFrom(msg.sender, address(this), amount) */\n      mload(0x40)\n      dup5\n      0xffffffff\n      and\n      0xe0\n      shl\n      dup2\n      mstore\n      0x04\n      add\n      tag_273\n      swap4\n      swap3\n      swap2\n      swap1\n      tag_115\n      jump\t// in\n    tag_273:\n      0x20\n      mload(0x40)\n      dup1\n      dup4\n      sub\n      dup2\n      0x00\n      dup8\n      gas\n      call\n      iszero\n      dup1\n      iszero\n      tag_275\n      jumpi\n      returndatacopy(0x00, 0x00, returndatasize)\n      revert(0x00, returndatasize)\n    tag_275:\n      pop\n      pop\n      pop\n      pop\n      mload(0x40)\n      returndatasize\n      not(0x1f)\n      0x1f\n      dup3\n      add\n      and\n      dup3\n      add\n      dup1\n      0x40\n      mstore\n      pop\n      dup2\n      add\n      swap1\n      tag_276\n      swap2\n      swap1\n      tag_119\n      jump\t// in\n    tag_276:\n        /* \"contracts/BlockbankSwap.sol\":3375:3459  require(bbusd.transferFrom(msg.sender, address(this), amount), \"Deposit BBUSD fail\") */\n      tag_277\n      jumpi\n      mload(0x40)\n      0x08c379a000000000000000000000000000000000000000000000000000000000\n      dup2\n      mstore\n      0x04\n      add\n      tag_278\n      swap1\n      tag_279\n      jump\t// in\n    tag_278:\n      mload(0x40)\n      dup1\n      swap2\n      sub\n      swap1\n      revert\n    tag_277:\n        /* \"contracts/BlockbankSwap.sol\":3261:3467  function depositBbusd(uint256 amount) external onlyOwner {... */\n      pop\n      jump\t// out\n        /* \"@openzeppelin/contracts/security/Pausable.sol\":1767:1873  function _requireNotPaused() internal view virtual {... */\n    tag_84:\n        /* \"@openzeppelin/contracts/security/Pausable.sol\":1837:1845  paused() */\n      tag_281\n        /* \"@openzeppelin/contracts/security/Pausable.sol\":1837:1843  paused */\n      tag_42\n        /* \"@openzeppelin/contracts/security/Pausable.sol\":1837:1845  paused() */\n      jump\t// in\n    tag_281:\n        /* \"@openzeppelin/contracts/security/Pausable.sol\":1836:1845  !paused() */\n      iszero\n        /* \"@openzeppelin/contracts/security/Pausable.sol\":1828:1866  require(!paused(), \"Pausable: paused\") */\n      tag_282\n      jumpi\n      mload(0x40)\n      0x08c379a000000000000000000000000000000000000000000000000000000000\n      dup2\n      mstore\n      0x04\n      add\n      tag_283\n      swap1\n      tag_284\n      jump\t// in\n    tag_283:\n      mload(0x40)\n      dup1\n      swap2\n      sub\n      swap1\n      revert\n    tag_282:\n        /* \"@openzeppelin/contracts/security/Pausable.sol\":1767:1873  function _requireNotPaused() internal view virtual {... */\n      jump\t// out\n        /* \"@openzeppelin/contracts/security/ReentrancyGuard.sol\":2336:2623  function _nonReentrantBefore() private {... */\n    tag_87:\n        /* \"@openzeppelin/contracts/security/ReentrancyGuard.sol\":1759:1760  2 */\n      0x02\n        /* \"@openzeppelin/contracts/security/ReentrancyGuard.sol\":2468:2475  _status */\n      sload(0x00)\n        /* \"@openzeppelin/contracts/security/ReentrancyGuard.sol\":2468:2487  _status != _ENTERED */\n      sub\n        /* \"@openzeppelin/contracts/security/ReentrancyGuard.sol\":2460:2523  require(_status != _ENTERED, \"ReentrancyGuard: reentrant call\") */\n      tag_286\n      jumpi\n      mload(0x40)\n      0x08c379a000000000000000000000000000000000000000000000000000000000\n      dup2\n      mstore\n      0x04\n      add\n      tag_287\n      swap1\n      tag_288\n      jump\t// in\n    tag_287:\n      mload(0x40)\n      dup1\n      swap2\n      sub\n      swap1\n      revert\n    tag_286:\n        /* \"@openzeppelin/contracts/security/ReentrancyGuard.sol\":1759:1760  2 */\n      0x02\n        /* \"@openzeppelin/contracts/security/ReentrancyGuard.sol\":2598:2605  _status */\n      0x00\n        /* \"@openzeppelin/contracts/security/ReentrancyGuard.sol\":2598:2616  _status = _ENTERED */\n      dup2\n      swap1\n      sstore\n      pop\n        /* \"@openzeppelin/contracts/security/ReentrancyGuard.sol\":2336:2623  function _nonReentrantBefore() private {... */\n      jump\t// out\n        /* \"@openzeppelin/contracts/security/ReentrancyGuard.sol\":2629:2838  function _nonReentrantAfter() private {... */\n    tag_134:\n        /* \"@openzeppelin/contracts/security/ReentrancyGuard.sol\":1716:1717  1 */\n      0x01\n        /* \"@openzeppelin/contracts/security/ReentrancyGuard.sol\":2809:2816  _status */\n      0x00\n        /* \"@openzeppelin/contracts/security/ReentrancyGuard.sol\":2809:2831  _status = _NOT_ENTERED */\n      dup2\n      swap1\n      sstore\n      pop\n        /* \"@openzeppelin/contracts/security/ReentrancyGuard.sol\":2629:2838  function _nonReentrantAfter() private {... */\n      jump\t// out\n        /* \"@openzeppelin/contracts/access/Ownable.sol\":1796:1958  function _checkOwner() internal view virtual {... */\n    tag_137:\n        /* \"@openzeppelin/contracts/access/Ownable.sol\":1866:1878  _msgSender() */\n      tag_291\n        /* \"@openzeppelin/contracts/access/Ownable.sol\":1866:1876  _msgSender */\n      tag_292\n        /* \"@openzeppelin/contracts/access/Ownable.sol\":1866:1878  _msgSender() */\n      jump\t// in\n    tag_291:\n        /* \"@openzeppelin/contracts/access/Ownable.sol\":1855:1878  owner() != _msgSender() */\n      0xffffffffffffffffffffffffffffffffffffffff\n      and\n        /* \"@openzeppelin/contracts/access/Ownable.sol\":1855:1862  owner() */\n      tag_293\n        /* \"@openzeppelin/contracts/access/Ownable.sol\":1855:1860  owner */\n      tag_66\n        /* \"@openzeppelin/contracts/access/Ownable.sol\":1855:1862  owner() */\n      jump\t// in\n    tag_293:\n        /* \"@openzeppelin/contracts/access/Ownable.sol\":1855:1878  owner() != _msgSender() */\n      0xffffffffffffffffffffffffffffffffffffffff\n      and\n      eq\n        /* \"@openzeppelin/contracts/access/Ownable.sol\":1851:1952  if (owner() != _msgSender()) {... */\n      tag_294\n      jumpi\n        /* \"@openzeppelin/contracts/access/Ownable.sol\":1928:1940  _msgSender() */\n      tag_295\n        /* \"@openzeppelin/contracts/access/Ownable.sol\":1928:1938  _msgSender */\n      tag_292\n        /* \"@openzeppelin/contracts/access/Ownable.sol\":1928:1940  _msgSender() */\n      jump\t// in\n    tag_295:\n        /* \"@openzeppelin/contracts/access/Ownable.sol\":1901:1941  OwnableUnauthorizedAccount(_msgSender()) */\n      mload(0x40)\n      0x118cdaa700000000000000000000000000000000000000000000000000000000\n      dup2\n      mstore\n      0x04\n      add\n      tag_296\n      swap2\n      swap1\n      tag_68\n      jump\t// in\n    tag_296:\n      mload(0x40)\n      dup1\n      swap2\n      sub\n      swap1\n      revert\n        /* \"@openzeppelin/contracts/access/Ownable.sol\":1851:1952  if (owner() != _msgSender()) {... */\n    tag_294:\n        /* \"@openzeppelin/contracts/access/Ownable.sol\":1796:1958  function _checkOwner() internal view virtual {... */\n      jump\t// out\n        /* \"@openzeppelin/contracts/security/Pausable.sol\":2433:2550  function _unpause() internal virtual whenPaused {... */\n    tag_153:\n        /* \"@openzeppelin/contracts/security/Pausable.sol\":1486:1502  _requirePaused() */\n      tag_298\n        /* \"@openzeppelin/contracts/security/Pausable.sol\":1486:1500  _requirePaused */\n      tag_299\n        /* \"@openzeppelin/contracts/security/Pausable.sol\":1486:1502  _requirePaused() */\n      jump\t// in\n    tag_298:\n        /* \"@openzeppelin/contracts/security/Pausable.sol\":2501:2506  false */\n      0x00\n        /* \"@openzeppelin/contracts/security/Pausable.sol\":2491:2498  _paused */\n      0x01\n      0x00\n        /* \"@openzeppelin/contracts/security/Pausable.sol\":2491:2506  _paused = false */\n      0x0100\n      exp\n      dup2\n      sload\n      dup2\n      0xff\n      mul\n      not\n      and\n      swap1\n      dup4\n      iszero\n      iszero\n      mul\n      or\n      swap1\n      sstore\n      pop\n        /* \"@openzeppelin/contracts/security/Pausable.sol\":2521:2543  Unpaused(_msgSender()) */\n      0x5db9ee0a495bf2e6ff9c91a7834c1ba4fdd244a5e8aa4e537bd38aeae4b073aa\n        /* \"@openzeppelin/contracts/security/Pausable.sol\":2530:2542  _msgSender() */\n      tag_301\n        /* \"@openzeppelin/contracts/security/Pausable.sol\":2530:2540  _msgSender */\n      tag_292\n        /* \"@openzeppelin/contracts/security/Pausable.sol\":2530:2542  _msgSender() */\n      jump\t// in\n    tag_301:\n        /* \"@openzeppelin/contracts/security/Pausable.sol\":2521:2543  Unpaused(_msgSender()) */\n      mload(0x40)\n      tag_302\n      swap2\n      swap1\n      tag_68\n      jump\t// in\n    tag_302:\n      mload(0x40)\n      dup1\n      swap2\n      sub\n      swap1\n      log1\n        /* \"@openzeppelin/contracts/security/Pausable.sol\":2433:2550  function _unpause() internal virtual whenPaused {... */\n      jump\t// out\n        /* \"@openzeppelin/contracts/access/Ownable.sol\":2912:3099  function _transferOwnership(address newOwner) internal virtual {... */\n    tag_195:\n        /* \"@openzeppelin/contracts/access/Ownable.sol\":2985:3001  address oldOwner */\n      0x00\n        /* \"@openzeppelin/contracts/access/Ownable.sol\":3004:3010  _owner */\n      0x01\n      dup1\n      sload\n      swap1\n      0x0100\n      exp\n      swap1\n      div\n      0xffffffffffffffffffffffffffffffffffffffff\n      and\n        /* \"@openzeppelin/contracts/access/Ownable.sol\":2985:3010  address oldOwner = _owner */\n      swap1\n      pop\n        /* \"@openzeppelin/contracts/access/Ownable.sol\":3029:3037  newOwner */\n      dup2\n        /* \"@openzeppelin/contracts/access/Ownable.sol\":3020:3026  _owner */\n      0x01\n      dup1\n        /* \"@openzeppelin/contracts/access/Ownable.sol\":3020:3037  _owner = newOwner */\n      0x0100\n      exp\n      dup2\n      sload\n      dup2\n      0xffffffffffffffffffffffffffffffffffffffff\n      mul\n      not\n      and\n      swap1\n      dup4\n      0xffffffffffffffffffffffffffffffffffffffff\n      and\n      mul\n      or\n      swap1\n      sstore\n      pop\n        /* \"@openzeppelin/contracts/access/Ownable.sol\":3083:3091  newOwner */\n      dup2\n        /* \"@openzeppelin/contracts/access/Ownable.sol\":3052:3092  OwnershipTransferred(oldOwner, newOwner) */\n      0xffffffffffffffffffffffffffffffffffffffff\n      and\n        /* \"@openzeppelin/contracts/access/Ownable.sol\":3073:3081  oldOwner */\n      dup2\n        /* \"@openzeppelin/contracts/access/Ownable.sol\":3052:3092  OwnershipTransferred(oldOwner, newOwner) */\n      0xffffffffffffffffffffffffffffffffffffffff\n      and\n      0x8be0079c531659141344cd1fd0a4f28419497f9722a3daafe3b4186f6b6457e0\n      mload(0x40)\n      mload(0x40)\n      dup1\n      swap2\n      sub\n      swap1\n      log3\n        /* \"@openzeppelin/contracts/access/Ownable.sol\":2975:3099  {... */\n      pop\n        /* \"@openzeppelin/contracts/access/Ownable.sol\":2912:3099  function _transferOwnership(address newOwner) internal virtual {... */\n      pop\n      jump\t// out\n        /* \"@openzeppelin/contracts/security/Pausable.sol\":2186:2301  function _pause() internal virtual whenNotPaused {... */\n    tag_200:\n        /* \"@openzeppelin/contracts/security/Pausable.sol\":1239:1258  _requireNotPaused() */\n      tag_305\n        /* \"@openzeppelin/contracts/security/Pausable.sol\":1239:1256  _requireNotPaused */\n      tag_84\n        /* \"@openzeppelin/contracts/security/Pausable.sol\":1239:1258  _requireNotPaused() */\n      jump\t// in\n    tag_305:\n        /* \"@openzeppelin/contracts/security/Pausable.sol\":2255:2259  true */\n      0x01\n        /* \"@openzeppelin/contracts/security/Pausable.sol\":2245:2252  _paused */\n      dup1\n      0x00\n        /* \"@openzeppelin/contracts/security/Pausable.sol\":2245:2259  _paused = true */\n      0x0100\n      exp\n      dup2\n      sload\n      dup2\n      0xff\n      mul\n      not\n      and\n      swap1\n      dup4\n      iszero\n      iszero\n      mul\n      or\n      swap1\n      sstore\n      pop\n        /* \"@openzeppelin/contracts/security/Pausable.sol\":2274:2294  Paused(_msgSender()) */\n      0x62e78cea01bee320cd4e420270b5ea74000d11b0c9f74754ebdbfc544b05a258\n        /* \"@openzeppelin/contracts/security/Pausable.sol\":2281:2293  _msgSender() */\n      tag_307\n        /* \"@openzeppelin/contracts/security/Pausable.sol\":2281:2291  _msgSender */\n      tag_292\n        /* \"@openzeppelin/contracts/security/Pausable.sol\":2281:2293  _msgSender() */\n      jump\t// in\n    tag_307:\n        /* \"@openzeppelin/contracts/security/Pausable.sol\":2274:2294  Paused(_msgSender()) */\n      mload(0x40)\n      tag_308\n      swap2\n      swap1\n      tag_68\n      jump\t// in\n    tag_308:\n      mload(0x40)\n      dup1\n      swap2\n      sub\n      swap1\n      log1\n        /* \"@openzeppelin/contracts/security/Pausable.sol\":2186:2301  function _pause() internal virtual whenNotPaused {... */\n      jump\t// out\n        /* \"@openzeppelin/contracts/utils/Context.sol\":656:752  function _msgSender() internal view virtual returns (address) {... */\n    tag_292:\n        /* \"@openzeppelin/contracts/utils/Context.sol\":709:716  address */\n      0x00\n        /* \"@openzeppelin/contracts/utils/Context.sol\":735:745  msg.sender */\n      caller\n        /* \"@openzeppelin/contracts/utils/Context.sol\":728:745  return msg.sender */\n      swap1\n      pop\n        /* \"@openzeppelin/contracts/utils/Context.sol\":656:752  function _msgSender() internal view virtual returns (address) {... */\n      swap1\n      jump\t// out\n        /* \"@openzeppelin/contracts/security/Pausable.sol\":1945:2051  function _requirePaused() internal view virtual {... */\n    tag_299:\n        /* \"@openzeppelin/contracts/security/Pausable.sol\":2011:2019  paused() */\n      tag_311\n        /* \"@openzeppelin/contracts/security/Pausable.sol\":2011:2017  paused */\n      tag_42\n        /* \"@openzeppelin/contracts/security/Pausable.sol\":2011:2019  paused() */\n      jump\t// in\n    tag_311:\n        /* \"@openzeppelin/contracts/security/Pausable.sol\":2003:2044  require(paused(), \"Pausable: not paused\") */\n      tag_312\n      jumpi\n      mload(0x40)\n      0x08c379a000000000000000000000000000000000000000000000000000000000\n      dup2\n      mstore\n      0x04\n      add\n      tag_313\n      swap1\n      tag_314\n      jump\t// in\n    tag_313:\n      mload(0x40)\n      dup1\n      swap2\n      sub\n      swap1\n      revert\n    tag_312:\n        /* \"@openzeppelin/contracts/security/Pausable.sol\":1945:2051  function _requirePaused() internal view virtual {... */\n      jump\t// out\n        /* \"#utility.yul\":88:205   */\n    tag_316:\n        /* \"#utility.yul\":197:198   */\n      0x00\n        /* \"#utility.yul\":194:195   */\n      0x00\n        /* \"#utility.yul\":187:199   */\n      revert\n        /* \"#utility.yul\":334:411   */\n    tag_318:\n        /* \"#utility.yul\":371:378   */\n      0x00\n        /* \"#utility.yul\":400:405   */\n      dup2\n        /* \"#utility.yul\":389:405   */\n      swap1\n      pop\n        /* \"#utility.yul\":334:411   */\n      swap2\n      swap1\n      pop\n      jump\t// out\n        /* \"#utility.yul\":417:539   */\n    tag_319:\n        /* \"#utility.yul\":490:514   */\n      tag_395\n        /* \"#utility.yul\":508:513   */\n      dup2\n        /* \"#utility.yul\":490:514   */\n      tag_318\n      jump\t// in\n    tag_395:\n        /* \"#utility.yul\":483:488   */\n      dup2\n        /* \"#utility.yul\":480:515   */\n      eq\n        /* \"#utility.yul\":470:533   */\n      tag_396\n      jumpi\n        /* \"#utility.yul\":529:530   */\n      0x00\n        /* \"#utility.yul\":526:527   */\n      0x00\n        /* \"#utility.yul\":519:531   */\n      revert\n        /* \"#utility.yul\":470:533   */\n    tag_396:\n        /* \"#utility.yul\":417:539   */\n      pop\n      jump\t// out\n        /* \"#utility.yul\":545:684   */\n    tag_320:\n        /* \"#utility.yul\":591:596   */\n      0x00\n        /* \"#utility.yul\":629:635   */\n      dup2\n        /* \"#utility.yul\":616:636   */\n      calldataload\n        /* \"#utility.yul\":607:636   */\n      swap1\n      pop\n        /* \"#utility.yul\":645:678   */\n      tag_398\n        /* \"#utility.yul\":672:677   */\n      dup2\n        /* \"#utility.yul\":645:678   */\n      tag_319\n      jump\t// in\n    tag_398:\n        /* \"#utility.yul\":545:684   */\n      swap3\n      swap2\n      pop\n      pop\n      jump\t// out\n        /* \"#utility.yul\":690:1164   */\n    tag_25:\n        /* \"#utility.yul\":758:764   */\n      0x00\n        /* \"#utility.yul\":766:772   */\n      0x00\n        /* \"#utility.yul\":815:817   */\n      0x40\n        /* \"#utility.yul\":803:812   */\n      dup4\n        /* \"#utility.yul\":794:801   */\n      dup6\n        /* \"#utility.yul\":790:813   */\n      sub\n        /* \"#utility.yul\":786:818   */\n      slt\n        /* \"#utility.yul\":783:902   */\n      iszero\n      tag_400\n      jumpi\n        /* \"#utility.yul\":821:900   */\n      tag_401\n      tag_316\n      jump\t// in\n    tag_401:\n        /* \"#utility.yul\":783:902   */\n    tag_400:\n        /* \"#utility.yul\":941:942   */\n      0x00\n        /* \"#utility.yul\":966:1019   */\n      tag_402\n        /* \"#utility.yul\":1011:1018   */\n      dup6\n        /* \"#utility.yul\":1002:1008   */\n      dup3\n        /* \"#utility.yul\":991:1000   */\n      dup7\n        /* \"#utility.yul\":987:1009   */\n      add\n        /* \"#utility.yul\":966:1019   */\n      tag_320\n      jump\t// in\n    tag_402:\n        /* \"#utility.yul\":956:1019   */\n      swap3\n      pop\n        /* \"#utility.yul\":912:1029   */\n      pop\n        /* \"#utility.yul\":1068:1070   */\n      0x20\n        /* \"#utility.yul\":1094:1147   */\n      tag_403\n        /* \"#utility.yul\":1139:1146   */\n      dup6\n        /* \"#utility.yul\":1130:1136   */\n      dup3\n        /* \"#utility.yul\":1119:1128   */\n      dup7\n        /* \"#utility.yul\":1115:1137   */\n      add\n        /* \"#utility.yul\":1094:1147   */\n      tag_320\n      jump\t// in\n    tag_403:\n        /* \"#utility.yul\":1084:1147   */\n      swap2\n      pop\n        /* \"#utility.yul\":1039:1157   */\n      pop\n        /* \"#utility.yul\":690:1164   */\n      swap3\n      pop\n      swap3\n      swap1\n      pop\n      jump\t// out\n        /* \"#utility.yul\":1170:1296   */\n    tag_321:\n        /* \"#utility.yul\":1207:1214   */\n      0x00\n        /* \"#utility.yul\":1247:1289   */\n      0xffffffffffffffffffffffffffffffffffffffff\n        /* \"#utility.yul\":1240:1245   */\n      dup3\n        /* \"#utility.yul\":1236:1290   */\n      and\n        /* \"#utility.yul\":1225:1290   */\n      swap1\n      pop\n        /* \"#utility.yul\":1170:1296   */\n      swap2\n      swap1\n      pop\n      jump\t// out\n        /* \"#utility.yul\":1302:1362   */\n    tag_322:\n        /* \"#utility.yul\":1330:1333   */\n      0x00\n        /* \"#utility.yul\":1351:1356   */\n      dup2\n        /* \"#utility.yul\":1344:1356   */\n      swap1\n      pop\n        /* \"#utility.yul\":1302:1362   */\n      swap2\n      swap1\n      pop\n      jump\t// out\n        /* \"#utility.yul\":1368:1510   */\n    tag_323:\n        /* \"#utility.yul\":1418:1427   */\n      0x00\n        /* \"#utility.yul\":1451:1504   */\n      tag_407\n        /* \"#utility.yul\":1469:1503   */\n      tag_408\n        /* \"#utility.yul\":1478:1502   */\n      tag_409\n        /* \"#utility.yul\":1496:1501   */\n      dup5\n        /* \"#utility.yul\":1478:1502   */\n      tag_321\n      jump\t// in\n    tag_409:\n        /* \"#utility.yul\":1469:1503   */\n      tag_322\n      jump\t// in\n    tag_408:\n        /* \"#utility.yul\":1451:1504   */\n      tag_321\n      jump\t// in\n    tag_407:\n        /* \"#utility.yul\":1438:1504   */\n      swap1\n      pop\n        /* \"#utility.yul\":1368:1510   */\n      swap2\n      swap1\n      pop\n      jump\t// out\n        /* \"#utility.yul\":1516:1642   */\n    tag_324:\n        /* \"#utility.yul\":1566:1575   */\n      0x00\n        /* \"#utility.yul\":1599:1636   */\n      tag_411\n        /* \"#utility.yul\":1630:1635   */\n      dup3\n        /* \"#utility.yul\":1599:1636   */\n      tag_323\n      jump\t// in\n    tag_411:\n        /* \"#utility.yul\":1586:1636   */\n      swap1\n      pop\n        /* \"#utility.yul\":1516:1642   */\n      swap2\n      swap1\n      pop\n      jump\t// out\n        /* \"#utility.yul\":1648:1788   */\n    tag_325:\n        /* \"#utility.yul\":1712:1721   */\n      0x00\n        /* \"#utility.yul\":1745:1782   */\n      tag_413\n        /* \"#utility.yul\":1776:1781   */\n      dup3\n        /* \"#utility.yul\":1745:1782   */\n      tag_324\n      jump\t// in\n    tag_413:\n        /* \"#utility.yul\":1732:1782   */\n      swap1\n      pop\n        /* \"#utility.yul\":1648:1788   */\n      swap2\n      swap1\n      pop\n      jump\t// out\n        /* \"#utility.yul\":1794:1953   */\n    tag_326:\n        /* \"#utility.yul\":1895:1946   */\n      tag_415\n        /* \"#utility.yul\":1940:1945   */\n      dup2\n        /* \"#utility.yul\":1895:1946   */\n      tag_325\n      jump\t// in\n    tag_415:\n        /* \"#utility.yul\":1890:1893   */\n      dup3\n        /* \"#utility.yul\":1883:1947   */\n      mstore\n        /* \"#utility.yul\":1794:1953   */\n      pop\n      pop\n      jump\t// out\n        /* \"#utility.yul\":1959:2209   */\n    tag_30:\n        /* \"#utility.yul\":2066:2070   */\n      0x00\n        /* \"#utility.yul\":2104:2106   */\n      0x20\n        /* \"#utility.yul\":2093:2102   */\n      dup3\n        /* \"#utility.yul\":2089:2107   */\n      add\n        /* \"#utility.yul\":2081:2107   */\n      swap1\n      pop\n        /* \"#utility.yul\":2117:2202   */\n      tag_417\n        /* \"#utility.yul\":2199:2200   */\n      0x00\n        /* \"#utility.yul\":2188:2197   */\n      dup4\n        /* \"#utility.yul\":2184:2201   */\n      add\n        /* \"#utility.yul\":2175:2181   */\n      dup5\n        /* \"#utility.yul\":2117:2202   */\n      tag_326\n      jump\t// in\n    tag_417:\n        /* \"#utility.yul\":1959:2209   */\n      swap3\n      swap2\n      pop\n      pop\n      jump\t// out\n        /* \"#utility.yul\":2215:2544   */\n    tag_33:\n        /* \"#utility.yul\":2274:2280   */\n      0x00\n        /* \"#utility.yul\":2323:2325   */\n      0x20\n        /* \"#utility.yul\":2311:2320   */\n      dup3\n        /* \"#utility.yul\":2302:2309   */\n      dup5\n        /* \"#utility.yul\":2298:2321   */\n      sub\n        /* \"#utility.yul\":2294:2326   */\n      slt\n        /* \"#utility.yul\":2291:2410   */\n      iszero\n      tag_419\n      jumpi\n        /* \"#utility.yul\":2329:2408   */\n      tag_420\n      tag_316\n      jump\t// in\n    tag_420:\n        /* \"#utility.yul\":2291:2410   */\n    tag_419:\n        /* \"#utility.yul\":2449:2450   */\n      0x00\n        /* \"#utility.yul\":2474:2527   */\n      tag_421\n        /* \"#utility.yul\":2519:2526   */\n      dup5\n        /* \"#utility.yul\":2510:2516   */\n      dup3\n        /* \"#utility.yul\":2499:2508   */\n      dup6\n        /* \"#utility.yul\":2495:2517   */\n      add\n        /* \"#utility.yul\":2474:2527   */\n      tag_320\n      jump\t// in\n    tag_421:\n        /* \"#utility.yul\":2464:2527   */\n      swap2\n      pop\n        /* \"#utility.yul\":2420:2537   */\n      pop\n        /* \"#utility.yul\":2215:2544   */\n      swap3\n      swap2\n      pop\n      pop\n      jump\t// out\n        /* \"#utility.yul\":2550:2704   */\n    tag_327:\n        /* \"#utility.yul\":2628:2637   */\n      0x00\n        /* \"#utility.yul\":2661:2698   */\n      tag_423\n        /* \"#utility.yul\":2692:2697   */\n      dup3\n        /* \"#utility.yul\":2661:2698   */\n      tag_324\n      jump\t// in\n    tag_423:\n        /* \"#utility.yul\":2648:2698   */\n      swap1\n      pop\n        /* \"#utility.yul\":2550:2704   */\n      swap2\n      swap1\n      pop\n      jump\t// out\n        /* \"#utility.yul\":2710:2897   */\n    tag_328:\n        /* \"#utility.yul\":2825:2890   */\n      tag_425\n        /* \"#utility.yul\":2884:2889   */\n      dup2\n        /* \"#utility.yul\":2825:2890   */\n      tag_327\n      jump\t// in\n    tag_425:\n        /* \"#utility.yul\":2820:2823   */\n      dup3\n        /* \"#utility.yul\":2813:2891   */\n      mstore\n        /* \"#utility.yul\":2710:2897   */\n      pop\n      pop\n      jump\t// out\n        /* \"#utility.yul\":2903:3181   */\n    tag_40:\n        /* \"#utility.yul\":3024:3028   */\n      0x00\n        /* \"#utility.yul\":3062:3064   */\n      0x20\n        /* \"#utility.yul\":3051:3060   */\n      dup3\n        /* \"#utility.yul\":3047:3065   */\n      add\n        /* \"#utility.yul\":3039:3065   */\n      swap1\n      pop\n        /* \"#utility.yul\":3075:3174   */\n      tag_427\n        /* \"#utility.yul\":3171:3172   */\n      0x00\n        /* \"#utility.yul\":3160:3169   */\n      dup4\n        /* \"#utility.yul\":3156:3173   */\n      add\n        /* \"#utility.yul\":3147:3153   */\n      dup5\n        /* \"#utility.yul\":3075:3174   */\n      tag_328\n      jump\t// in\n    tag_427:\n        /* \"#utility.yul\":2903:3181   */\n      swap3\n      swap2\n      pop\n      pop\n      jump\t// out\n        /* \"#utility.yul\":3187:3277   */\n    tag_329:\n        /* \"#utility.yul\":3221:3228   */\n      0x00\n        /* \"#utility.yul\":3264:3269   */\n      dup2\n        /* \"#utility.yul\":3257:3270   */\n      iszero\n        /* \"#utility.yul\":3250:3271   */\n      iszero\n        /* \"#utility.yul\":3239:3271   */\n      swap1\n      pop\n        /* \"#utility.yul\":3187:3277   */\n      swap2\n      swap1\n      pop\n      jump\t// out\n        /* \"#utility.yul\":3283:3392   */\n    tag_330:\n        /* \"#utility.yul\":3364:3385   */\n      tag_430\n        /* \"#utility.yul\":3379:3384   */\n      dup2\n        /* \"#utility.yul\":3364:3385   */\n      tag_329\n      jump\t// in\n    tag_430:\n        /* \"#utility.yul\":3359:3362   */\n      dup3\n        /* \"#utility.yul\":3352:3386   */\n      mstore\n        /* \"#utility.yul\":3283:3392   */\n      pop\n      pop\n      jump\t// out\n        /* \"#utility.yul\":3398:3608   */\n    tag_44:\n        /* \"#utility.yul\":3485:3489   */\n      0x00\n        /* \"#utility.yul\":3523:3525   */\n      0x20\n        /* \"#utility.yul\":3512:3521   */\n      dup3\n        /* \"#utility.yul\":3508:3526   */\n      add\n        /* \"#utility.yul\":3500:3526   */\n      swap1\n      pop\n        /* \"#utility.yul\":3536:3601   */\n      tag_432\n        /* \"#utility.yul\":3598:3599   */\n      0x00\n        /* \"#utility.yul\":3587:3596   */\n      dup4\n        /* \"#utility.yul\":3583:3600   */\n      add\n        /* \"#utility.yul\":3574:3580   */\n      dup5\n        /* \"#utility.yul\":3536:3601   */\n      tag_330\n      jump\t// in\n    tag_432:\n        /* \"#utility.yul\":3398:3608   */\n      swap3\n      swap2\n      pop\n      pop\n      jump\t// out\n        /* \"#utility.yul\":3614:3732   */\n    tag_331:\n        /* \"#utility.yul\":3701:3725   */\n      tag_434\n        /* \"#utility.yul\":3719:3724   */\n      dup2\n        /* \"#utility.yul\":3701:3725   */\n      tag_318\n      jump\t// in\n    tag_434:\n        /* \"#utility.yul\":3696:3699   */\n      dup3\n        /* \"#utility.yul\":3689:3726   */\n      mstore\n        /* \"#utility.yul\":3614:3732   */\n      pop\n      pop\n      jump\t// out\n        /* \"#utility.yul\":3738:3960   */\n    tag_49:\n        /* \"#utility.yul\":3831:3835   */\n      0x00\n        /* \"#utility.yul\":3869:3871   */\n      0x20\n        /* \"#utility.yul\":3858:3867   */\n      dup3\n        /* \"#utility.yul\":3854:3872   */\n      add\n        /* \"#utility.yul\":3846:3872   */\n      swap1\n      pop\n        /* \"#utility.yul\":3882:3953   */\n      tag_436\n        /* \"#utility.yul\":3950:3951   */\n      0x00\n        /* \"#utility.yul\":3939:3948   */\n      dup4\n        /* \"#utility.yul\":3935:3952   */\n      add\n        /* \"#utility.yul\":3926:3932   */\n      dup5\n        /* \"#utility.yul\":3882:3953   */\n      tag_331\n      jump\t// in\n    tag_436:\n        /* \"#utility.yul\":3738:3960   */\n      swap3\n      swap2\n      pop\n      pop\n      jump\t// out\n        /* \"#utility.yul\":3966:4062   */\n    tag_332:\n        /* \"#utility.yul\":4003:4010   */\n      0x00\n        /* \"#utility.yul\":4032:4056   */\n      tag_438\n        /* \"#utility.yul\":4050:4055   */\n      dup3\n        /* \"#utility.yul\":4032:4056   */\n      tag_321\n      jump\t// in\n    tag_438:\n        /* \"#utility.yul\":4021:4056   */\n      swap1\n      pop\n        /* \"#utility.yul\":3966:4062   */\n      swap2\n      swap1\n      pop\n      jump\t// out\n        /* \"#utility.yul\":4068:4190   */\n    tag_333:\n        /* \"#utility.yul\":4141:4165   */\n      tag_440\n        /* \"#utility.yul\":4159:4164   */\n      dup2\n        /* \"#utility.yul\":4141:4165   */\n      tag_332\n      jump\t// in\n    tag_440:\n        /* \"#utility.yul\":4134:4139   */\n      dup2\n        /* \"#utility.yul\":4131:4166   */\n      eq\n        /* \"#utility.yul\":4121:4184   */\n      tag_441\n      jumpi\n        /* \"#utility.yul\":4180:4181   */\n      0x00\n        /* \"#utility.yul\":4177:4178   */\n      0x00\n        /* \"#utility.yul\":4170:4182   */\n      revert\n        /* \"#utility.yul\":4121:4184   */\n    tag_441:\n        /* \"#utility.yul\":4068:4190   */\n      pop\n      jump\t// out\n        /* \"#utility.yul\":4196:4335   */\n    tag_334:\n        /* \"#utility.yul\":4242:4247   */\n      0x00\n        /* \"#utility.yul\":4280:4286   */\n      dup2\n        /* \"#utility.yul\":4267:4287   */\n      calldataload\n        /* \"#utility.yul\":4258:4287   */\n      swap1\n      pop\n        /* \"#utility.yul\":4296:4329   */\n      tag_443\n        /* \"#utility.yul\":4323:4328   */\n      dup2\n        /* \"#utility.yul\":4296:4329   */\n      tag_333\n      jump\t// in\n    tag_443:\n        /* \"#utility.yul\":4196:4335   */\n      swap3\n      swap2\n      pop\n      pop\n      jump\t// out\n        /* \"#utility.yul\":4341:4670   */\n    tag_52:\n        /* \"#utility.yul\":4400:4406   */\n      0x00\n        /* \"#utility.yul\":4449:4451   */\n      0x20\n        /* \"#utility.yul\":4437:4446   */\n      dup3\n        /* \"#utility.yul\":4428:4435   */\n      dup5\n        /* \"#utility.yul\":4424:4447   */\n      sub\n        /* \"#utility.yul\":4420:4452   */\n      slt\n        /* \"#utility.yul\":4417:4536   */\n      iszero\n      tag_445\n      jumpi\n        /* \"#utility.yul\":4455:4534   */\n      tag_446\n      tag_316\n      jump\t// in\n    tag_446:\n        /* \"#utility.yul\":4417:4536   */\n    tag_445:\n        /* \"#utility.yul\":4575:4576   */\n      0x00\n        /* \"#utility.yul\":4600:4653   */\n      tag_447\n        /* \"#utility.yul\":4645:4652   */\n      dup5\n        /* \"#utility.yul\":4636:4642   */\n      dup3\n        /* \"#utility.yul\":4625:4634   */\n      dup6\n        /* \"#utility.yul\":4621:4643   */\n      add\n        /* \"#utility.yul\":4600:4653   */\n      tag_334\n      jump\t// in\n    tag_447:\n        /* \"#utility.yul\":4590:4653   */\n      swap2\n      pop\n        /* \"#utility.yul\":4546:4663   */\n      pop\n        /* \"#utility.yul\":4341:4670   */\n      swap3\n      swap2\n      pop\n      pop\n      jump\t// out\n        /* \"#utility.yul\":4676:4794   */\n    tag_335:\n        /* \"#utility.yul\":4763:4787   */\n      tag_449\n        /* \"#utility.yul\":4781:4786   */\n      dup2\n        /* \"#utility.yul\":4763:4787   */\n      tag_332\n      jump\t// in\n    tag_449:\n        /* \"#utility.yul\":4758:4761   */\n      dup3\n        /* \"#utility.yul\":4751:4788   */\n      mstore\n        /* \"#utility.yul\":4676:4794   */\n      pop\n      pop\n      jump\t// out\n        /* \"#utility.yul\":4800:5022   */\n    tag_68:\n        /* \"#utility.yul\":4893:4897   */\n      0x00\n        /* \"#utility.yul\":4931:4933   */\n      0x20\n        /* \"#utility.yul\":4920:4929   */\n      dup3\n        /* \"#utility.yul\":4916:4934   */\n      add\n        /* \"#utility.yul\":4908:4934   */\n      swap1\n      pop\n        /* \"#utility.yul\":4944:5015   */\n      tag_451\n        /* \"#utility.yul\":5012:5013   */\n      0x00\n        /* \"#utility.yul\":5001:5010   */\n      dup4\n        /* \"#utility.yul\":4997:5014   */\n      add\n        /* \"#utility.yul\":4988:4994   */\n      dup5\n        /* \"#utility.yul\":4944:5015   */\n      tag_335\n      jump\t// in\n    tag_451:\n        /* \"#utility.yul\":4800:5022   */\n      swap3\n      swap2\n      pop\n      pop\n      jump\t// out\n        /* \"#utility.yul\":5028:5114   */\n    tag_336:\n        /* \"#utility.yul\":5063:5070   */\n      0x00\n        /* \"#utility.yul\":5103:5107   */\n      0xff\n        /* \"#utility.yul\":5096:5101   */\n      dup3\n        /* \"#utility.yul\":5092:5108   */\n      and\n        /* \"#utility.yul\":5081:5108   */\n      swap1\n      pop\n        /* \"#utility.yul\":5028:5114   */\n      swap2\n      swap1\n      pop\n      jump\t// out\n        /* \"#utility.yul\":5120:5232   */\n    tag_337:\n        /* \"#utility.yul\":5203:5225   */\n      tag_454\n        /* \"#utility.yul\":5219:5224   */\n      dup2\n        /* \"#utility.yul\":5203:5225   */\n      tag_336\n      jump\t// in\n    tag_454:\n        /* \"#utility.yul\":5198:5201   */\n      dup3\n        /* \"#utility.yul\":5191:5226   */\n      mstore\n        /* \"#utility.yul\":5120:5232   */\n      pop\n      pop\n      jump\t// out\n        /* \"#utility.yul\":5238:5562   */\n    tag_72:\n        /* \"#utility.yul\":5355:5359   */\n      0x00\n        /* \"#utility.yul\":5393:5395   */\n      0x40\n        /* \"#utility.yul\":5382:5391   */\n      dup3\n        /* \"#utility.yul\":5378:5396   */\n      add\n        /* \"#utility.yul\":5370:5396   */\n      swap1\n      pop\n        /* \"#utility.yul\":5406:5477   */\n      tag_456\n        /* \"#utility.yul\":5474:5475   */\n      0x00\n        /* \"#utility.yul\":5463:5472   */\n      dup4\n        /* \"#utility.yul\":5459:5476   */\n      add\n        /* \"#utility.yul\":5450:5456   */\n      dup6\n        /* \"#utility.yul\":5406:5477   */\n      tag_331\n      jump\t// in\n    tag_456:\n        /* \"#utility.yul\":5487:5555   */\n      tag_457\n        /* \"#utility.yul\":5551:5553   */\n      0x20\n        /* \"#utility.yul\":5540:5549   */\n      dup4\n        /* \"#utility.yul\":5536:5554   */\n      add\n        /* \"#utility.yul\":5527:5533   */\n      dup5\n        /* \"#utility.yul\":5487:5555   */\n      tag_337\n      jump\t// in\n    tag_457:\n        /* \"#utility.yul\":5238:5562   */\n      swap4\n      swap3\n      pop\n      pop\n      pop\n      jump\t// out\n        /* \"#utility.yul\":5568:5737   */\n    tag_338:\n        /* \"#utility.yul\":5652:5663   */\n      0x00\n        /* \"#utility.yul\":5686:5692   */\n      dup3\n        /* \"#utility.yul\":5681:5684   */\n      dup3\n        /* \"#utility.yul\":5674:5693   */\n      mstore\n        /* \"#utility.yul\":5726:5730   */\n      0x20\n        /* \"#utility.yul\":5721:5724   */\n      dup3\n        /* \"#utility.yul\":5717:5731   */\n      add\n        /* \"#utility.yul\":5702:5731   */\n      swap1\n      pop\n        /* \"#utility.yul\":5568:5737   */\n      swap3\n      swap2\n      pop\n      pop\n      jump\t// out\n        /* \"#utility.yul\":5743:5903   */\n    tag_339:\n        /* \"#utility.yul\":5883:5895   */\n      0x5a65726f20696e70757400000000000000000000000000000000000000000000\n        /* \"#utility.yul\":5879:5880   */\n      0x00\n        /* \"#utility.yul\":5871:5877   */\n      dup3\n        /* \"#utility.yul\":5867:5881   */\n      add\n        /* \"#utility.yul\":5860:5896   */\n      mstore\n        /* \"#utility.yul\":5743:5903   */\n      pop\n      jump\t// out\n        /* \"#utility.yul\":5909:6275   */\n    tag_340:\n        /* \"#utility.yul\":6051:6054   */\n      0x00\n        /* \"#utility.yul\":6072:6139   */\n      tag_461\n        /* \"#utility.yul\":6136:6138   */\n      0x0a\n        /* \"#utility.yul\":6131:6134   */\n      dup4\n        /* \"#utility.yul\":6072:6139   */\n      tag_338\n      jump\t// in\n    tag_461:\n        /* \"#utility.yul\":6065:6139   */\n      swap2\n      pop\n        /* \"#utility.yul\":6148:6241   */\n      tag_462\n        /* \"#utility.yul\":6237:6240   */\n      dup3\n        /* \"#utility.yul\":6148:6241   */\n      tag_339\n      jump\t// in\n    tag_462:\n        /* \"#utility.yul\":6266:6268   */\n      0x20\n        /* \"#utility.yul\":6261:6264   */\n      dup3\n        /* \"#utility.yul\":6257:6269   */\n      add\n        /* \"#utility.yul\":6250:6269   */\n      swap1\n      pop\n        /* \"#utility.yul\":5909:6275   */\n      swap2\n      swap1\n      pop\n      jump\t// out\n        /* \"#utility.yul\":6281:6700   */\n    tag_91:\n        /* \"#utility.yul\":6447:6451   */\n      0x00\n        /* \"#utility.yul\":6485:6487   */\n      0x20\n        /* \"#utility.yul\":6474:6483   */\n      dup3\n        /* \"#utility.yul\":6470:6488   */\n      add\n        /* \"#utility.yul\":6462:6488   */\n      swap1\n      pop\n        /* \"#utility.yul\":6534:6543   */\n      dup2\n        /* \"#utility.yul\":6528:6532   */\n      dup2\n        /* \"#utility.yul\":6524:6544   */\n      sub\n        /* \"#utility.yul\":6520:6521   */\n      0x00\n        /* \"#utility.yul\":6509:6518   */\n      dup4\n        /* \"#utility.yul\":6505:6522   */\n      add\n        /* \"#utility.yul\":6498:6545   */\n      mstore\n        /* \"#utility.yul\":6562:6693   */\n      tag_464\n        /* \"#utility.yul\":6688:6692   */\n      dup2\n        /* \"#utility.yul\":6562:6693   */\n      tag_340\n      jump\t// in\n    tag_464:\n        /* \"#utility.yul\":6554:6693   */\n      swap1\n      pop\n        /* \"#utility.yul\":6281:6700   */\n      swap2\n      swap1\n      pop\n      jump\t// out\n        /* \"#utility.yul\":6706:6886   */\n    tag_341:\n        /* \"#utility.yul\":6754:6831   */\n      0x4e487b7100000000000000000000000000000000000000000000000000000000\n        /* \"#utility.yul\":6751:6752   */\n      0x00\n        /* \"#utility.yul\":6744:6832   */\n      mstore\n        /* \"#utility.yul\":6851:6855   */\n      0x11\n        /* \"#utility.yul\":6848:6849   */\n      0x04\n        /* \"#utility.yul\":6841:6856   */\n      mstore\n        /* \"#utility.yul\":6875:6879   */\n      0x24\n        /* \"#utility.yul\":6872:6873   */\n      0x00\n        /* \"#utility.yul\":6865:6880   */\n      revert\n        /* \"#utility.yul\":6892:7080   */\n    tag_94:\n        /* \"#utility.yul\":6930:6933   */\n      0x00\n        /* \"#utility.yul\":6949:6967   */\n      tag_467\n        /* \"#utility.yul\":6965:6966   */\n      dup3\n        /* \"#utility.yul\":6949:6967   */\n      tag_336\n      jump\t// in\n    tag_467:\n        /* \"#utility.yul\":6944:6967   */\n      swap2\n      pop\n        /* \"#utility.yul\":6981:6999   */\n      tag_468\n        /* \"#utility.yul\":6997:6998   */\n      dup4\n        /* \"#utility.yul\":6981:6999   */\n      tag_336\n      jump\t// in\n    tag_468:\n        /* \"#utility.yul\":6976:6999   */\n      swap3\n      pop\n        /* \"#utility.yul\":7022:7023   */\n      dup3\n        /* \"#utility.yul\":7019:7020   */\n      dup3\n        /* \"#utility.yul\":7015:7024   */\n      add\n        /* \"#utility.yul\":7008:7024   */\n      swap1\n      pop\n        /* \"#utility.yul\":7045:7049   */\n      0xff\n        /* \"#utility.yul\":7040:7043   */\n      dup2\n        /* \"#utility.yul\":7037:7050   */\n      gt\n        /* \"#utility.yul\":7034:7073   */\n      iszero\n      tag_469\n      jumpi\n        /* \"#utility.yul\":7053:7071   */\n      tag_470\n      tag_341\n      jump\t// in\n    tag_470:\n        /* \"#utility.yul\":7034:7073   */\n    tag_469:\n        /* \"#utility.yul\":6892:7080   */\n      swap3\n      swap2\n      pop\n      pop\n      jump\t// out\n        /* \"#utility.yul\":7086:7277   */\n    tag_96:\n        /* \"#utility.yul\":7124:7128   */\n      0x00\n        /* \"#utility.yul\":7144:7162   */\n      tag_472\n        /* \"#utility.yul\":7160:7161   */\n      dup3\n        /* \"#utility.yul\":7144:7162   */\n      tag_336\n      jump\t// in\n    tag_472:\n        /* \"#utility.yul\":7139:7162   */\n      swap2\n      pop\n        /* \"#utility.yul\":7176:7194   */\n      tag_473\n        /* \"#utility.yul\":7192:7193   */\n      dup4\n        /* \"#utility.yul\":7176:7194   */\n      tag_336\n      jump\t// in\n    tag_473:\n        /* \"#utility.yul\":7171:7194   */\n      swap3\n      pop\n        /* \"#utility.yul\":7218:7219   */\n      dup3\n        /* \"#utility.yul\":7215:7216   */\n      dup3\n        /* \"#utility.yul\":7211:7220   */\n      sub\n        /* \"#utility.yul\":7203:7220   */\n      swap1\n      pop\n        /* \"#utility.yul\":7242:7246   */\n      0xff\n        /* \"#utility.yul\":7236:7240   */\n      dup2\n        /* \"#utility.yul\":7233:7247   */\n      gt\n        /* \"#utility.yul\":7230:7270   */\n      iszero\n      tag_474\n      jumpi\n        /* \"#utility.yul\":7250:7268   */\n      tag_475\n      tag_341\n      jump\t// in\n    tag_475:\n        /* \"#utility.yul\":7230:7270   */\n    tag_474:\n        /* \"#utility.yul\":7086:7277   */\n      swap3\n      swap2\n      pop\n      pop\n      jump\t// out\n        /* \"#utility.yul\":7283:7385   */\n    tag_342:\n        /* \"#utility.yul\":7325:7333   */\n      0x00\n        /* \"#utility.yul\":7372:7377   */\n      dup2\n        /* \"#utility.yul\":7369:7370   */\n      0x01\n        /* \"#utility.yul\":7365:7378   */\n      shr\n        /* \"#utility.yul\":7344:7378   */\n      swap1\n      pop\n        /* \"#utility.yul\":7283:7385   */\n      swap2\n      swap1\n      pop\n      jump\t// out\n        /* \"#utility.yul\":7391:8239   */\n    tag_343:\n        /* \"#utility.yul\":7452:7457   */\n      0x00\n        /* \"#utility.yul\":7459:7463   */\n      0x00\n        /* \"#utility.yul\":7483:7489   */\n      dup3\n        /* \"#utility.yul\":7474:7489   */\n      swap2\n      pop\n        /* \"#utility.yul\":7507:7512   */\n      dup4\n        /* \"#utility.yul\":7498:7512   */\n      swap1\n      pop\n        /* \"#utility.yul\":7521:8233   */\n    tag_478:\n        /* \"#utility.yul\":7542:7543   */\n      0x01\n        /* \"#utility.yul\":7532:7540   */\n      dup6\n        /* \"#utility.yul\":7529:7544   */\n      gt\n        /* \"#utility.yul\":7521:8233   */\n      iszero\n      tag_480\n      jumpi\n        /* \"#utility.yul\":7637:7641   */\n      dup1\n        /* \"#utility.yul\":7632:7635   */\n      dup7\n        /* \"#utility.yul\":7628:7642   */\n      div\n        /* \"#utility.yul\":7622:7626   */\n      dup2\n        /* \"#utility.yul\":7619:7643   */\n      gt\n        /* \"#utility.yul\":7616:7666   */\n      iszero\n      tag_481\n      jumpi\n        /* \"#utility.yul\":7646:7664   */\n      tag_482\n      tag_341\n      jump\t// in\n    tag_482:\n        /* \"#utility.yul\":7616:7666   */\n    tag_481:\n        /* \"#utility.yul\":7696:7697   */\n      0x01\n        /* \"#utility.yul\":7686:7694   */\n      dup6\n        /* \"#utility.yul\":7682:7698   */\n      and\n        /* \"#utility.yul\":7679:8130   */\n      iszero\n      tag_483\n      jumpi\n        /* \"#utility.yul\":8111:8115   */\n      dup1\n        /* \"#utility.yul\":8104:8109   */\n      dup3\n        /* \"#utility.yul\":8100:8116   */\n      mul\n        /* \"#utility.yul\":8091:8116   */\n      swap2\n      pop\n        /* \"#utility.yul\":7679:8130   */\n    tag_483:\n        /* \"#utility.yul\":8161:8165   */\n      dup1\n        /* \"#utility.yul\":8155:8159   */\n      dup2\n        /* \"#utility.yul\":8151:8166   */\n      mul\n        /* \"#utility.yul\":8143:8166   */\n      swap1\n      pop\n        /* \"#utility.yul\":8191:8223   */\n      tag_484\n        /* \"#utility.yul\":8214:8222   */\n      dup6\n        /* \"#utility.yul\":8191:8223   */\n      tag_342\n      jump\t// in\n    tag_484:\n        /* \"#utility.yul\":8179:8223   */\n      swap5\n      pop\n        /* \"#utility.yul\":7521:8233   */\n      jump(tag_478)\n    tag_480:\n        /* \"#utility.yul\":7391:8239   */\n      swap5\n      pop\n      swap5\n      swap3\n      pop\n      pop\n      pop\n      jump\t// out\n        /* \"#utility.yul\":8245:9318   */\n    tag_344:\n        /* \"#utility.yul\":8299:8304   */\n      0x00\n        /* \"#utility.yul\":8490:8498   */\n      dup3\n        /* \"#utility.yul\":8480:8520   */\n      tag_486\n      jumpi\n        /* \"#utility.yul\":8511:8512   */\n      0x01\n        /* \"#utility.yul\":8502:8512   */\n      swap1\n      pop\n        /* \"#utility.yul\":8513:8518   */\n      jump(tag_485)\n        /* \"#utility.yul\":8480:8520   */\n    tag_486:\n        /* \"#utility.yul\":8539:8543   */\n      dup2\n        /* \"#utility.yul\":8529:8565   */\n      tag_487\n      jumpi\n        /* \"#utility.yul\":8556:8557   */\n      0x00\n        /* \"#utility.yul\":8547:8557   */\n      swap1\n      pop\n        /* \"#utility.yul\":8558:8563   */\n      jump(tag_485)\n        /* \"#utility.yul\":8529:8565   */\n    tag_487:\n        /* \"#utility.yul\":8625:8629   */\n      dup2\n        /* \"#utility.yul\":8673:8674   */\n      0x01\n        /* \"#utility.yul\":8668:8695   */\n      dup2\n      eq\n      tag_489\n      jumpi\n        /* \"#utility.yul\":8709:8710   */\n      0x02\n        /* \"#utility.yul\":8704:8895   */\n      dup2\n      eq\n      tag_490\n      jumpi\n        /* \"#utility.yul\":8618:8895   */\n      jump(tag_488)\n        /* \"#utility.yul\":8668:8695   */\n    tag_489:\n        /* \"#utility.yul\":8686:8687   */\n      0x01\n        /* \"#utility.yul\":8677:8687   */\n      swap2\n      pop\n        /* \"#utility.yul\":8688:8693   */\n      pop\n      jump(tag_485)\n        /* \"#utility.yul\":8704:8895   */\n    tag_490:\n        /* \"#utility.yul\":8749:8752   */\n      0xff\n        /* \"#utility.yul\":8739:8747   */\n      dup5\n        /* \"#utility.yul\":8736:8753   */\n      gt\n        /* \"#utility.yul\":8733:8776   */\n      iszero\n      tag_491\n      jumpi\n        /* \"#utility.yul\":8756:8774   */\n      tag_492\n      tag_341\n      jump\t// in\n    tag_492:\n        /* \"#utility.yul\":8733:8776   */\n    tag_491:\n        /* \"#utility.yul\":8805:8813   */\n      dup4\n        /* \"#utility.yul\":8802:8803   */\n      0x02\n        /* \"#utility.yul\":8798:8814   */\n      exp\n        /* \"#utility.yul\":8789:8814   */\n      swap2\n      pop\n        /* \"#utility.yul\":8840:8843   */\n      dup5\n        /* \"#utility.yul\":8833:8838   */\n      dup3\n        /* \"#utility.yul\":8830:8844   */\n      gt\n        /* \"#utility.yul\":8827:8867   */\n      iszero\n      tag_493\n      jumpi\n        /* \"#utility.yul\":8847:8865   */\n      tag_494\n      tag_341\n      jump\t// in\n    tag_494:\n        /* \"#utility.yul\":8827:8867   */\n    tag_493:\n        /* \"#utility.yul\":8880:8885   */\n      pop\n      jump(tag_485)\n        /* \"#utility.yul\":8618:8895   */\n    tag_488:\n      pop\n        /* \"#utility.yul\":9004:9006   */\n      0x20\n        /* \"#utility.yul\":8994:9002   */\n      dup4\n        /* \"#utility.yul\":8991:9007   */\n      lt\n        /* \"#utility.yul\":8985:8988   */\n      0x0133\n        /* \"#utility.yul\":8979:8983   */\n      dup4\n        /* \"#utility.yul\":8976:8989   */\n      lt\n        /* \"#utility.yul\":8972:9008   */\n      and\n        /* \"#utility.yul\":8954:8956   */\n      0x4e\n        /* \"#utility.yul\":8944:8952   */\n      dup5\n        /* \"#utility.yul\":8941:8957   */\n      lt\n        /* \"#utility.yul\":8936:8938   */\n      0x0b\n        /* \"#utility.yul\":8930:8934   */\n      dup5\n        /* \"#utility.yul\":8927:8939   */\n      lt\n        /* \"#utility.yul\":8923:8958   */\n      and\n        /* \"#utility.yul\":8907:9018   */\n      or\n        /* \"#utility.yul\":8904:9150   */\n      iszero\n      tag_495\n      jumpi\n        /* \"#utility.yul\":9060:9068   */\n      dup3\n        /* \"#utility.yul\":9054:9058   */\n      dup3\n        /* \"#utility.yul\":9050:9069   */\n      exp\n        /* \"#utility.yul\":9041:9069   */\n      swap1\n      pop\n        /* \"#utility.yul\":9095:9098   */\n      dup4\n        /* \"#utility.yul\":9088:9093   */\n      dup2\n        /* \"#utility.yul\":9085:9099   */\n      gt\n        /* \"#utility.yul\":9082:9122   */\n      iszero\n      tag_496\n      jumpi\n        /* \"#utility.yul\":9102:9120   */\n      tag_497\n      tag_341\n      jump\t// in\n    tag_497:\n        /* \"#utility.yul\":9082:9122   */\n    tag_496:\n        /* \"#utility.yul\":9135:9140   */\n      jump(tag_485)\n        /* \"#utility.yul\":8904:9150   */\n    tag_495:\n        /* \"#utility.yul\":9175:9217   */\n      tag_498\n        /* \"#utility.yul\":9213:9216   */\n      dup5\n        /* \"#utility.yul\":9203:9211   */\n      dup5\n        /* \"#utility.yul\":9197:9201   */\n      dup5\n        /* \"#utility.yul\":9194:9195   */\n      0x01\n        /* \"#utility.yul\":9175:9217   */\n      tag_343\n      jump\t// in\n    tag_498:\n        /* \"#utility.yul\":9160:9217   */\n      swap3\n      pop\n      swap1\n      pop\n        /* \"#utility.yul\":9249:9253   */\n      dup2\n        /* \"#utility.yul\":9244:9247   */\n      dup5\n        /* \"#utility.yul\":9240:9254   */\n      div\n        /* \"#utility.yul\":9233:9238   */\n      dup2\n        /* \"#utility.yul\":9230:9255   */\n      gt\n        /* \"#utility.yul\":9227:9278   */\n      iszero\n      tag_499\n      jumpi\n        /* \"#utility.yul\":9258:9276   */\n      tag_500\n      tag_341\n      jump\t// in\n    tag_500:\n        /* \"#utility.yul\":9227:9278   */\n    tag_499:\n        /* \"#utility.yul\":9307:9311   */\n      dup2\n        /* \"#utility.yul\":9300:9305   */\n      dup2\n        /* \"#utility.yul\":9296:9312   */\n      mul\n        /* \"#utility.yul\":9287:9312   */\n      swap1\n      pop\n        /* \"#utility.yul\":8245:9318   */\n    tag_485:\n      swap4\n      swap3\n      pop\n      pop\n      pop\n      jump\t// out\n        /* \"#utility.yul\":9324:9605   */\n    tag_98:\n        /* \"#utility.yul\":9382:9387   */\n      0x00\n        /* \"#utility.yul\":9406:9429   */\n      tag_502\n        /* \"#utility.yul\":9424:9428   */\n      dup3\n        /* \"#utility.yul\":9406:9429   */\n      tag_318\n      jump\t// in\n    tag_502:\n        /* \"#utility.yul\":9398:9429   */\n      swap2\n      pop\n        /* \"#utility.yul\":9450:9475   */\n      tag_503\n        /* \"#utility.yul\":9466:9474   */\n      dup4\n        /* \"#utility.yul\":9450:9475   */\n      tag_336\n      jump\t// in\n    tag_503:\n        /* \"#utility.yul\":9438:9475   */\n      swap3\n      pop\n        /* \"#utility.yul\":9494:9598   */\n      tag_504\n        /* \"#utility.yul\":9531:9597   */\n      0xffffffffffffffffffffffffffffffffffffffffffffffffffffffffffffffff\n        /* \"#utility.yul\":9521:9529   */\n      dup5\n        /* \"#utility.yul\":9515:9519   */\n      dup5\n        /* \"#utility.yul\":9494:9598   */\n      tag_344\n      jump\t// in\n    tag_504:\n        /* \"#utility.yul\":9485:9598   */\n      swap1\n      pop\n        /* \"#utility.yul\":9324:9605   */\n      swap3\n      swap2\n      pop\n      pop\n      jump\t// out\n        /* \"#utility.yul\":9611:10021   */\n    tag_100:\n        /* \"#utility.yul\":9651:9658   */\n      0x00\n        /* \"#utility.yul\":9674:9694   */\n      tag_506\n        /* \"#utility.yul\":9692:9693   */\n      dup3\n        /* \"#utility.yul\":9674:9694   */\n      tag_318\n      jump\t// in\n    tag_506:\n        /* \"#utility.yul\":9669:9694   */\n      swap2\n      pop\n        /* \"#utility.yul\":9708:9728   */\n      tag_507\n        /* \"#utility.yul\":9726:9727   */\n      dup4\n        /* \"#utility.yul\":9708:9728   */\n      tag_318\n      jump\t// in\n    tag_507:\n        /* \"#utility.yul\":9703:9728   */\n      swap3\n      pop\n        /* \"#utility.yul\":9763:9764   */\n      dup3\n        /* \"#utility.yul\":9760:9761   */\n      dup3\n        /* \"#utility.yul\":9756:9765   */\n      mul\n        /* \"#utility.yul\":9785:9815   */\n      tag_508\n        /* \"#utility.yul\":9803:9814   */\n      dup2\n        /* \"#utility.yul\":9785:9815   */\n      tag_318\n      jump\t// in\n    tag_508:\n        /* \"#utility.yul\":9774:9815   */\n      swap2\n      pop\n        /* \"#utility.yul\":9964:9965   */\n      dup3\n        /* \"#utility.yul\":9955:9962   */\n      dup3\n        /* \"#utility.yul\":9951:9966   */\n      div\n        /* \"#utility.yul\":9948:9949   */\n      dup5\n        /* \"#utility.yul\":9945:9967   */\n      eq\n        /* \"#utility.yul\":9925:9926   */\n      dup4\n        /* \"#utility.yul\":9918:9927   */\n      iszero\n        /* \"#utility.yul\":9898:9981   */\n      or\n        /* \"#utility.yul\":9875:10014   */\n      tag_509\n      jumpi\n        /* \"#utility.yul\":9994:10012   */\n      tag_510\n      tag_341\n      jump\t// in\n    tag_510:\n        /* \"#utility.yul\":9875:10014   */\n    tag_509:\n        /* \"#utility.yul\":9659:10021   */\n      pop\n        /* \"#utility.yul\":9611:10021   */\n      swap3\n      swap2\n      pop\n      pop\n      jump\t// out\n        /* \"#utility.yul\":10027:10207   */\n    tag_345:\n        /* \"#utility.yul\":10075:10152   */\n      0x4e487b7100000000000000000000000000000000000000000000000000000000\n        /* \"#utility.yul\":10072:10073   */\n      0x00\n        /* \"#utility.yul\":10065:10153   */\n      mstore\n        /* \"#utility.yul\":10172:10176   */\n      0x12\n        /* \"#utility.yul\":10169:10170   */\n      0x04\n        /* \"#utility.yul\":10162:10177   */\n      mstore\n        /* \"#utility.yul\":10196:10200   */\n      0x24\n        /* \"#utility.yul\":10193:10194   */\n      0x00\n        /* \"#utility.yul\":10186:10201   */\n      revert\n        /* \"#utility.yul\":10213:10398   */\n    tag_102:\n        /* \"#utility.yul\":10253:10254   */\n      0x00\n        /* \"#utility.yul\":10270:10290   */\n      tag_513\n        /* \"#utility.yul\":10288:10289   */\n      dup3\n        /* \"#utility.yul\":10270:10290   */\n      tag_318\n      jump\t// in\n    tag_513:\n        /* \"#utility.yul\":10265:10290   */\n      swap2\n      pop\n        /* \"#utility.yul\":10304:10324   */\n      tag_514\n        /* \"#utility.yul\":10322:10323   */\n      dup4\n        /* \"#utility.yul\":10304:10324   */\n      tag_318\n      jump\t// in\n    tag_514:\n        /* \"#utility.yul\":10299:10324   */\n      swap3\n      pop\n        /* \"#utility.yul\":10343:10344   */\n      dup3\n        /* \"#utility.yul\":10333:10368   */\n      tag_515\n      jumpi\n        /* \"#utility.yul\":10348:10366   */\n      tag_516\n      tag_345\n      jump\t// in\n    tag_516:\n        /* \"#utility.yul\":10333:10368   */\n    tag_515:\n        /* \"#utility.yul\":10390:10391   */\n      dup3\n        /* \"#utility.yul\":10387:10388   */\n      dup3\n        /* \"#utility.yul\":10383:10392   */\n      div\n        /* \"#utility.yul\":10378:10392   */\n      swap1\n      pop\n        /* \"#utility.yul\":10213:10398   */\n      swap3\n      swap2\n      pop\n      pop\n      jump\t// out\n        /* \"#utility.yul\":10404:10581   */\n    tag_346:\n        /* \"#utility.yul\":10544:10573   */\n      0x536c6970706167653a20746f6f206c6974746c65206f75747075740000000000\n        /* \"#utility.yul\":10540:10541   */\n      0x00\n        /* \"#utility.yul\":10532:10538   */\n      dup3\n        /* \"#utility.yul\":10528:10542   */\n      add\n        /* \"#utility.yul\":10521:10574   */\n      mstore\n        /* \"#utility.yul\":10404:10581   */\n      pop\n      jump\t// out\n        /* \"#utility.yul\":10587:10953   */\n    tag_347:\n        /* \"#utility.yul\":10729:10732   */\n      0x00\n        /* \"#utility.yul\":10750:10817   */\n      tag_519\n        /* \"#utility.yul\":10814:10816   */\n      0x1b\n        /* \"#utility.yul\":10809:10812   */\n      dup4\n        /* \"#utility.yul\":10750:10817   */\n      tag_338\n      jump\t// in\n    tag_519:\n        /* \"#utility.yul\":10743:10817   */\n      swap2\n      pop\n        /* \"#utility.yul\":10826:10919   */\n      tag_520\n        /* \"#utility.yul\":10915:10918   */\n      dup3\n        /* \"#utility.yul\":10826:10919   */\n      tag_346\n      jump\t// in\n    tag_520:\n        /* \"#utility.yul\":10944:10946   */\n      0x20\n        /* \"#utility.yul\":10939:10942   */\n      dup3\n        /* \"#utility.yul\":10935:10947   */\n      add\n        /* \"#utility.yul\":10928:10947   */\n      swap1\n      pop\n        /* \"#utility.yul\":10587:10953   */\n      swap2\n      swap1\n      pop\n      jump\t// out\n        /* \"#utility.yul\":10959:11378   */\n    tag_105:\n        /* \"#utility.yul\":11125:11129   */\n      0x00\n        /* \"#utility.yul\":11163:11165   */\n      0x20\n        /* \"#utility.yul\":11152:11161   */\n      dup3\n        /* \"#utility.yul\":11148:11166   */\n      add\n        /* \"#utility.yul\":11140:11166   */\n      swap1\n      pop\n        /* \"#utility.yul\":11212:11221   */\n      dup2\n        /* \"#utility.yul\":11206:11210   */\n      dup2\n        /* \"#utility.yul\":11202:11222   */\n      sub\n        /* \"#utility.yul\":11198:11199   */\n      0x00\n        /* \"#utility.yul\":11187:11196   */\n      dup4\n        /* \"#utility.yul\":11183:11200   */\n      add\n        /* \"#utility.yul\":11176:11223   */\n      mstore\n        /* \"#utility.yul\":11240:11371   */\n      tag_522\n        /* \"#utility.yul\":11366:11370   */\n      dup2\n        /* \"#utility.yul\":11240:11371   */\n      tag_347\n      jump\t// in\n    tag_522:\n        /* \"#utility.yul\":11232:11371   */\n      swap1\n      pop\n        /* \"#utility.yul\":10959:11378   */\n      swap2\n      swap1\n      pop\n      jump\t// out\n        /* \"#utility.yul\":11384:11527   */\n    tag_348:\n        /* \"#utility.yul\":11441:11446   */\n      0x00\n        /* \"#utility.yul\":11472:11478   */\n      dup2\n        /* \"#utility.yul\":11466:11479   */\n      mload\n        /* \"#utility.yul\":11457:11479   */\n      swap1\n      pop\n        /* \"#utility.yul\":11488:11521   */\n      tag_524\n        /* \"#utility.yul\":11515:11520   */\n      dup2\n        /* \"#utility.yul\":11488:11521   */\n      tag_319\n      jump\t// in\n    tag_524:\n        /* \"#utility.yul\":11384:11527   */\n      swap3\n      swap2\n      pop\n      pop\n      jump\t// out\n        /* \"#utility.yul\":11533:11884   */\n    tag_110:\n        /* \"#utility.yul\":11603:11609   */\n      0x00\n        /* \"#utility.yul\":11652:11654   */\n      0x20\n        /* \"#utility.yul\":11640:11649   */\n      dup3\n        /* \"#utility.yul\":11631:11638   */\n      dup5\n        /* \"#utility.yul\":11627:11650   */\n      sub\n        /* \"#utility.yul\":11623:11655   */\n      slt\n        /* \"#utility.yul\":11620:11739   */\n      iszero\n      tag_526\n      jumpi\n        /* \"#utility.yul\":11658:11737   */\n      tag_527\n      tag_316\n      jump\t// in\n    tag_527:\n        /* \"#utility.yul\":11620:11739   */\n    tag_526:\n        /* \"#utility.yul\":11778:11779   */\n      0x00\n        /* \"#utility.yul\":11803:11867   */\n      tag_528\n        /* \"#utility.yul\":11859:11866   */\n      dup5\n        /* \"#utility.yul\":11850:11856   */\n      dup3\n        /* \"#utility.yul\":11839:11848   */\n      dup6\n        /* \"#utility.yul\":11835:11857   */\n      add\n        /* \"#utility.yul\":11803:11867   */\n      tag_348\n      jump\t// in\n    tag_528:\n        /* \"#utility.yul\":11793:11867   */\n      swap2\n      pop\n        /* \"#utility.yul\":11749:11877   */\n      pop\n        /* \"#utility.yul\":11533:11884   */\n      swap3\n      swap2\n      pop\n      pop\n      jump\t// out\n        /* \"#utility.yul\":11890:12070   */\n    tag_349:\n        /* \"#utility.yul\":12030:12062   */\n      0x496e73756666696369656e7420424255534420696e20636f6e74726163740000\n        /* \"#utility.yul\":12026:12027   */\n      0x00\n        /* \"#utility.yul\":12018:12024   */\n      dup3\n        /* \"#utility.yul\":12014:12028   */\n      add\n        /* \"#utility.yul\":12007:12063   */\n      mstore\n        /* \"#utility.yul\":11890:12070   */\n      pop\n      jump\t// out\n        /* \"#utility.yul\":12076:12442   */\n    tag_350:\n        /* \"#utility.yul\":12218:12221   */\n      0x00\n        /* \"#utility.yul\":12239:12306   */\n      tag_531\n        /* \"#utility.yul\":12303:12305   */\n      0x1e\n        /* \"#utility.yul\":12298:12301   */\n      dup4\n        /* \"#utility.yul\":12239:12306   */\n      tag_338\n      jump\t// in\n    tag_531:\n        /* \"#utility.yul\":12232:12306   */\n      swap2\n      pop\n        /* \"#utility.yul\":12315:12408   */\n      tag_532\n        /* \"#utility.yul\":12404:12407   */\n      dup3\n        /* \"#utility.yul\":12315:12408   */\n      tag_349\n      jump\t// in\n    tag_532:\n        /* \"#utility.yul\":12433:12435   */\n      0x20\n        /* \"#utility.yul\":12428:12431   */\n      dup3\n        /* \"#utility.yul\":12424:12436   */\n      add\n        /* \"#utility.yul\":12417:12436   */\n      swap1\n      pop\n        /* \"#utility.yul\":12076:12442   */\n      swap2\n      swap1\n      pop\n      jump\t// out\n        /* \"#utility.yul\":12448:12867   */\n    tag_113:\n        /* \"#utility.yul\":12614:12618   */\n      0x00\n        /* \"#utility.yul\":12652:12654   */\n      0x20\n        /* \"#utility.yul\":12641:12650   */\n      dup3\n        /* \"#utility.yul\":12637:12655   */\n      add\n        /* \"#utility.yul\":12629:12655   */\n      swap1\n      pop\n        /* \"#utility.yul\":12701:12710   */\n      dup2\n        /* \"#utility.yul\":12695:12699   */\n      dup2\n        /* \"#utility.yul\":12691:12711   */\n      sub\n        /* \"#utility.yul\":12687:12688   */\n      0x00\n        /* \"#utility.yul\":12676:12685   */\n      dup4\n        /* \"#utility.yul\":12672:12689   */\n      add\n        /* \"#utility.yul\":12665:12712   */\n      mstore\n        /* \"#utility.yul\":12729:12860   */\n      tag_534\n        /* \"#utility.yul\":12855:12859   */\n      dup2\n        /* \"#utility.yul\":12729:12860   */\n      tag_350\n      jump\t// in\n    tag_534:\n        /* \"#utility.yul\":12721:12860   */\n      swap1\n      pop\n        /* \"#utility.yul\":12448:12867   */\n      swap2\n      swap1\n      pop\n      jump\t// out\n        /* \"#utility.yul\":12873:13315   */\n    tag_115:\n        /* \"#utility.yul\":13022:13026   */\n      0x00\n        /* \"#utility.yul\":13060:13062   */\n      0x60\n        /* \"#utility.yul\":13049:13058   */\n      dup3\n        /* \"#utility.yul\":13045:13063   */\n      add\n        /* \"#utility.yul\":13037:13063   */\n      swap1\n      pop\n        /* \"#utility.yul\":13073:13144   */\n      tag_536\n        /* \"#utility.yul\":13141:13142   */\n      0x00\n        /* \"#utility.yul\":13130:13139   */\n      dup4\n        /* \"#utility.yul\":13126:13143   */\n      add\n        /* \"#utility.yul\":13117:13123   */\n      dup7\n        /* \"#utility.yul\":13073:13144   */\n      tag_335\n      jump\t// in\n    tag_536:\n        /* \"#utility.yul\":13154:13226   */\n      tag_537\n        /* \"#utility.yul\":13222:13224   */\n      0x20\n        /* \"#utility.yul\":13211:13220   */\n      dup4\n        /* \"#utility.yul\":13207:13225   */\n      add\n        /* \"#utility.yul\":13198:13204   */\n      dup6\n        /* \"#utility.yul\":13154:13226   */\n      tag_335\n      jump\t// in\n    tag_537:\n        /* \"#utility.yul\":13236:13308   */\n      tag_538\n        /* \"#utility.yul\":13304:13306   */\n      0x40\n        /* \"#utility.yul\":13293:13302   */\n      dup4\n        /* \"#utility.yul\":13289:13307   */\n      add\n        /* \"#utility.yul\":13280:13286   */\n      dup5\n        /* \"#utility.yul\":13236:13308   */\n      tag_331\n      jump\t// in\n    tag_538:\n        /* \"#utility.yul\":12873:13315   */\n      swap5\n      swap4\n      pop\n      pop\n      pop\n      pop\n      jump\t// out\n        /* \"#utility.yul\":13321:13437   */\n    tag_351:\n        /* \"#utility.yul\":13391:13412   */\n      tag_540\n        /* \"#utility.yul\":13406:13411   */\n      dup2\n        /* \"#utility.yul\":13391:13412   */\n      tag_329\n      jump\t// in\n    tag_540:\n        /* \"#utility.yul\":13384:13389   */\n      dup2\n        /* \"#utility.yul\":13381:13413   */\n      eq\n        /* \"#utility.yul\":13371:13431   */\n      tag_541\n      jumpi\n        /* \"#utility.yul\":13427:13428   */\n      0x00\n        /* \"#utility.yul\":13424:13425   */\n      0x00\n        /* \"#utility.yul\":13417:13429   */\n      revert\n        /* \"#utility.yul\":13371:13431   */\n    tag_541:\n        /* \"#utility.yul\":13321:13437   */\n      pop\n      jump\t// out\n        /* \"#utility.yul\":13443:13580   */\n    tag_352:\n        /* \"#utility.yul\":13497:13502   */\n      0x00\n        /* \"#utility.yul\":13528:13534   */\n      dup2\n        /* \"#utility.yul\":13522:13535   */\n      mload\n        /* \"#utility.yul\":13513:13535   */\n      swap1\n      pop\n        /* \"#utility.yul\":13544:13574   */\n      tag_543\n        /* \"#utility.yul\":13568:13573   */\n      dup2\n        /* \"#utility.yul\":13544:13574   */\n      tag_351\n      jump\t// in\n    tag_543:\n        /* \"#utility.yul\":13443:13580   */\n      swap3\n      swap2\n      pop\n      pop\n      jump\t// out\n        /* \"#utility.yul\":13586:13931   */\n    tag_119:\n        /* \"#utility.yul\":13653:13659   */\n      0x00\n        /* \"#utility.yul\":13702:13704   */\n      0x20\n        /* \"#utility.yul\":13690:13699   */\n      dup3\n        /* \"#utility.yul\":13681:13688   */\n      dup5\n        /* \"#utility.yul\":13677:13700   */\n      sub\n        /* \"#utility.yul\":13673:13705   */\n      slt\n        /* \"#utility.yul\":13670:13789   */\n      iszero\n      tag_545\n      jumpi\n        /* \"#utility.yul\":13708:13787   */\n      tag_546\n      tag_316\n      jump\t// in\n    tag_546:\n        /* \"#utility.yul\":13670:13789   */\n    tag_545:\n        /* \"#utility.yul\":13828:13829   */\n      0x00\n        /* \"#utility.yul\":13853:13914   */\n      tag_547\n        /* \"#utility.yul\":13906:13913   */\n      dup5\n        /* \"#utility.yul\":13897:13903   */\n      dup3\n        /* \"#utility.yul\":13886:13895   */\n      dup6\n        /* \"#utility.yul\":13882:13904   */\n      add\n        /* \"#utility.yul\":13853:13914   */\n      tag_352\n      jump\t// in\n    tag_547:\n        /* \"#utility.yul\":13843:13914   */\n      swap2\n      pop\n        /* \"#utility.yul\":13799:13924   */\n      pop\n        /* \"#utility.yul\":13586:13931   */\n      swap3\n      swap2\n      pop\n      pop\n      jump\t// out\n        /* \"#utility.yul\":13937:14106   */\n    tag_353:\n        /* \"#utility.yul\":14077:14098   */\n      0x4242455448207472616e73666572206661696c00000000000000000000000000\n        /* \"#utility.yul\":14073:14074   */\n      0x00\n        /* \"#utility.yul\":14065:14071   */\n      dup3\n        /* \"#utility.yul\":14061:14075   */\n      add\n        /* \"#utility.yul\":14054:14099   */\n      mstore\n        /* \"#utility.yul\":13937:14106   */\n      pop\n      jump\t// out\n        /* \"#utility.yul\":14112:14478   */\n    tag_354:\n        /* \"#utility.yul\":14254:14257   */\n      0x00\n        /* \"#utility.yul\":14275:14342   */\n      tag_550\n        /* \"#utility.yul\":14339:14341   */\n      0x13\n        /* \"#utility.yul\":14334:14337   */\n      dup4\n        /* \"#utility.yul\":14275:14342   */\n      tag_338\n      jump\t// in\n    tag_550:\n        /* \"#utility.yul\":14268:14342   */\n      swap2\n      pop\n        /* \"#utility.yul\":14351:14444   */\n      tag_551\n        /* \"#utility.yul\":14440:14443   */\n      dup3\n        /* \"#utility.yul\":14351:14444   */\n      tag_353\n      jump\t// in\n    tag_551:\n        /* \"#utility.yul\":14469:14471   */\n      0x20\n        /* \"#utility.yul\":14464:14467   */\n      dup3\n        /* \"#utility.yul\":14460:14472   */\n      add\n        /* \"#utility.yul\":14453:14472   */\n      swap1\n      pop\n        /* \"#utility.yul\":14112:14478   */\n      swap2\n      swap1\n      pop\n      jump\t// out\n        /* \"#utility.yul\":14484:14903   */\n    tag_122:\n        /* \"#utility.yul\":14650:14654   */\n      0x00\n        /* \"#utility.yul\":14688:14690   */\n      0x20\n        /* \"#utility.yul\":14677:14686   */\n      dup3\n        /* \"#utility.yul\":14673:14691   */\n      add\n        /* \"#utility.yul\":14665:14691   */\n      swap1\n      pop\n        /* \"#utility.yul\":14737:14746   */\n      dup2\n        /* \"#utility.yul\":14731:14735   */\n      dup2\n        /* \"#utility.yul\":14727:14747   */\n      sub\n        /* \"#utility.yul\":14723:14724   */\n      0x00\n        /* \"#utility.yul\":14712:14721   */\n      dup4\n        /* \"#utility.yul\":14708:14725   */\n      add\n        /* \"#utility.yul\":14701:14748   */\n      mstore\n        /* \"#utility.yul\":14765:14896   */\n      tag_553\n        /* \"#utility.yul\":14891:14895   */\n      dup2\n        /* \"#utility.yul\":14765:14896   */\n      tag_354\n      jump\t// in\n    tag_553:\n        /* \"#utility.yul\":14757:14896   */\n      swap1\n      pop\n        /* \"#utility.yul\":14484:14903   */\n      swap2\n      swap1\n      pop\n      jump\t// out\n        /* \"#utility.yul\":14909:15241   */\n    tag_124:\n        /* \"#utility.yul\":15030:15034   */\n      0x00\n        /* \"#utility.yul\":15068:15070   */\n      0x40\n        /* \"#utility.yul\":15057:15066   */\n      dup3\n        /* \"#utility.yul\":15053:15071   */\n      add\n        /* \"#utility.yul\":15045:15071   */\n      swap1\n      pop\n        /* \"#utility.yul\":15081:15152   */\n      tag_555\n        /* \"#utility.yul\":15149:15150   */\n      0x00\n        /* \"#utility.yul\":15138:15147   */\n      dup4\n        /* \"#utility.yul\":15134:15151   */\n      add\n        /* \"#utility.yul\":15125:15131   */\n      dup6\n        /* \"#utility.yul\":15081:15152   */\n      tag_335\n      jump\t// in\n    tag_555:\n        /* \"#utility.yul\":15162:15234   */\n      tag_556\n        /* \"#utility.yul\":15230:15232   */\n      0x20\n        /* \"#utility.yul\":15219:15228   */\n      dup4\n        /* \"#utility.yul\":15215:15233   */\n      add\n        /* \"#utility.yul\":15206:15212   */\n      dup5\n        /* \"#utility.yul\":15162:15234   */\n      tag_331\n      jump\t// in\n    tag_556:\n        /* \"#utility.yul\":14909:15241   */\n      swap4\n      swap3\n      pop\n      pop\n      pop\n      jump\t// out\n        /* \"#utility.yul\":15247:15416   */\n    tag_355:\n        /* \"#utility.yul\":15387:15408   */\n      0x4242555344207472616e73666572206661696c00000000000000000000000000\n        /* \"#utility.yul\":15383:15384   */\n      0x00\n        /* \"#utility.yul\":15375:15381   */\n      dup3\n        /* \"#utility.yul\":15371:15385   */\n      add\n        /* \"#utility.yul\":15364:15409   */\n      mstore\n        /* \"#utility.yul\":15247:15416   */\n      pop\n      jump\t// out\n        /* \"#utility.yul\":15422:15788   */\n    tag_356:\n        /* \"#utility.yul\":15564:15567   */\n      0x00\n        /* \"#utility.yul\":15585:15652   */\n      tag_559\n        /* \"#utility.yul\":15649:15651   */\n      0x13\n        /* \"#utility.yul\":15644:15647   */\n      dup4\n        /* \"#utility.yul\":15585:15652   */\n      tag_338\n      jump\t// in\n    tag_559:\n        /* \"#utility.yul\":15578:15652   */\n      swap2\n      pop\n        /* \"#utility.yul\":15661:15754   */\n      tag_560\n        /* \"#utility.yul\":15750:15753   */\n      dup3\n        /* \"#utility.yul\":15661:15754   */\n      tag_355\n      jump\t// in\n    tag_560:\n        /* \"#utility.yul\":15779:15781   */\n      0x20\n        /* \"#utility.yul\":15774:15777   */\n      dup3\n        /* \"#utility.yul\":15770:15782   */\n      add\n        /* \"#utility.yul\":15763:15782   */\n      swap1\n      pop\n        /* \"#utility.yul\":15422:15788   */\n      swap2\n      swap1\n      pop\n      jump\t// out\n        /* \"#utility.yul\":15794:16213   */\n    tag_130:\n        /* \"#utility.yul\":15960:15964   */\n      0x00\n        /* \"#utility.yul\":15998:16000   */\n      0x20\n        /* \"#utility.yul\":15987:15996   */\n      dup3\n        /* \"#utility.yul\":15983:16001   */\n      add\n        /* \"#utility.yul\":15975:16001   */\n      swap1\n      pop\n        /* \"#utility.yul\":16047:16056   */\n      dup2\n        /* \"#utility.yul\":16041:16045   */\n      dup2\n        /* \"#utility.yul\":16037:16057   */\n      sub\n        /* \"#utility.yul\":16033:16034   */\n      0x00\n        /* \"#utility.yul\":16022:16031   */\n      dup4\n        /* \"#utility.yul\":16018:16035   */\n      add\n        /* \"#utility.yul\":16011:16058   */\n      mstore\n        /* \"#utility.yul\":16075:16206   */\n      tag_562\n        /* \"#utility.yul\":16201:16205   */\n      dup2\n        /* \"#utility.yul\":16075:16206   */\n      tag_356\n      jump\t// in\n    tag_562:\n        /* \"#utility.yul\":16067:16206   */\n      swap1\n      pop\n        /* \"#utility.yul\":15794:16213   */\n      swap2\n      swap1\n      pop\n      jump\t// out\n        /* \"#utility.yul\":16219:16551   */\n    tag_132:\n        /* \"#utility.yul\":16340:16344   */\n      0x00\n        /* \"#utility.yul\":16378:16380   */\n      0x40\n        /* \"#utility.yul\":16367:16376   */\n      dup3\n        /* \"#utility.yul\":16363:16381   */\n      add\n        /* \"#utility.yul\":16355:16381   */\n      swap1\n      pop\n        /* \"#utility.yul\":16391:16462   */\n      tag_564\n        /* \"#utility.yul\":16459:16460   */\n      0x00\n        /* \"#utility.yul\":16448:16457   */\n      dup4\n        /* \"#utility.yul\":16444:16461   */\n      add\n        /* \"#utility.yul\":16435:16441   */\n      dup6\n        /* \"#utility.yul\":16391:16462   */\n      tag_331\n      jump\t// in\n    tag_564:\n        /* \"#utility.yul\":16472:16544   */\n      tag_565\n        /* \"#utility.yul\":16540:16542   */\n      0x20\n        /* \"#utility.yul\":16529:16538   */\n      dup4\n        /* \"#utility.yul\":16525:16543   */\n      add\n        /* \"#utility.yul\":16516:16522   */\n      dup5\n        /* \"#utility.yul\":16472:16544   */\n      tag_331\n      jump\t// in\n    tag_565:\n        /* \"#utility.yul\":16219:16551   */\n      swap4\n      swap3\n      pop\n      pop\n      pop\n      jump\t// out\n        /* \"#utility.yul\":16557:16719   */\n    tag_357:\n        /* \"#utility.yul\":16697:16711   */\n      0x5a65726f206465706f7369740000000000000000000000000000000000000000\n        /* \"#utility.yul\":16693:16694   */\n      0x00\n        /* \"#utility.yul\":16685:16691   */\n      dup3\n        /* \"#utility.yul\":16681:16695   */\n      add\n        /* \"#utility.yul\":16674:16712   */\n      mstore\n        /* \"#utility.yul\":16557:16719   */\n      pop\n      jump\t// out\n        /* \"#utility.yul\":16725:17091   */\n    tag_358:\n        /* \"#utility.yul\":16867:16870   */\n      0x00\n        /* \"#utility.yul\":16888:16955   */\n      tag_568\n        /* \"#utility.yul\":16952:16954   */\n      0x0c\n        /* \"#utility.yul\":16947:16950   */\n      dup4\n        /* \"#utility.yul\":16888:16955   */\n      tag_338\n      jump\t// in\n    tag_568:\n        /* \"#utility.yul\":16881:16955   */\n      swap2\n      pop\n        /* \"#utility.yul\":16964:17057   */\n      tag_569\n        /* \"#utility.yul\":17053:17056   */\n      dup3\n        /* \"#utility.yul\":16964:17057   */\n      tag_357\n      jump\t// in\n    tag_569:\n        /* \"#utility.yul\":17082:17084   */\n      0x20\n        /* \"#utility.yul\":17077:17080   */\n      dup3\n        /* \"#utility.yul\":17073:17085   */\n      add\n        /* \"#utility.yul\":17066:17085   */\n      swap1\n      pop\n        /* \"#utility.yul\":16725:17091   */\n      swap2\n      swap1\n      pop\n      jump\t// out\n        /* \"#utility.yul\":17097:17516   */\n    tag_141:\n        /* \"#utility.yul\":17263:17267   */\n      0x00\n        /* \"#utility.yul\":17301:17303   */\n      0x20\n        /* \"#utility.yul\":17290:17299   */\n      dup3\n        /* \"#utility.yul\":17286:17304   */\n      add\n        /* \"#utility.yul\":17278:17304   */\n      swap1\n      pop\n        /* \"#utility.yul\":17350:17359   */\n      dup2\n        /* \"#utility.yul\":17344:17348   */\n      dup2\n        /* \"#utility.yul\":17340:17360   */\n      sub\n        /* \"#utility.yul\":17336:17337   */\n      0x00\n        /* \"#utility.yul\":17325:17334   */\n      dup4\n        /* \"#utility.yul\":17321:17338   */\n      add\n        /* \"#utility.yul\":17314:17361   */\n      mstore\n        /* \"#utility.yul\":17378:17509   */\n      tag_571\n        /* \"#utility.yul\":17504:17508   */\n      dup2\n        /* \"#utility.yul\":17378:17509   */\n      tag_358\n      jump\t// in\n    tag_571:\n        /* \"#utility.yul\":17370:17509   */\n      swap1\n      pop\n        /* \"#utility.yul\":17097:17516   */\n      swap2\n      swap1\n      pop\n      jump\t// out\n        /* \"#utility.yul\":17522:17690   */\n    tag_359:\n        /* \"#utility.yul\":17662:17682   */\n      0x4465706f736974204242455448206661696c0000000000000000000000000000\n        /* \"#utility.yul\":17658:17659   */\n      0x00\n        /* \"#utility.yul\":17650:17656   */\n      dup3\n        /* \"#utility.yul\":17646:17660   */\n      add\n        /* \"#utility.yul\":17639:17683   */\n      mstore\n        /* \"#utility.yul\":17522:17690   */\n      pop\n      jump\t// out\n        /* \"#utility.yul\":17696:18062   */\n    tag_360:\n        /* \"#utility.yul\":17838:17841   */\n      0x00\n        /* \"#utility.yul\":17859:17926   */\n      tag_574\n        /* \"#utility.yul\":17923:17925   */\n      0x12\n        /* \"#utility.yul\":17918:17921   */\n      dup4\n        /* \"#utility.yul\":17859:17926   */\n      tag_338\n      jump\t// in\n    tag_574:\n        /* \"#utility.yul\":17852:17926   */\n      swap2\n      pop\n        /* \"#utility.yul\":17935:18028   */\n      tag_575\n        /* \"#utility.yul\":18024:18027   */\n      dup3\n        /* \"#utility.yul\":17935:18028   */\n      tag_359\n      jump\t// in\n    tag_575:\n        /* \"#utility.yul\":18053:18055   */\n      0x20\n        /* \"#utility.yul\":18048:18051   */\n      dup3\n        /* \"#utility.yul\":18044:18056   */\n      add\n        /* \"#utility.yul\":18037:18056   */\n      swap1\n      pop\n        /* \"#utility.yul\":17696:18062   */\n      swap2\n      swap1\n      pop\n      jump\t// out\n        /* \"#utility.yul\":18068:18487   */\n    tag_148:\n        /* \"#utility.yul\":18234:18238   */\n      0x00\n        /* \"#utility.yul\":18272:18274   */\n      0x20\n        /* \"#utility.yul\":18261:18270   */\n      dup3\n        /* \"#utility.yul\":18257:18275   */\n      add\n        /* \"#utility.yul\":18249:18275   */\n      swap1\n      pop\n        /* \"#utility.yul\":18321:18330   */\n      dup2\n        /* \"#utility.yul\":18315:18319   */\n      dup2\n        /* \"#utility.yul\":18311:18331   */\n      sub\n        /* \"#utility.yul\":18307:18308   */\n      0x00\n        /* \"#utility.yul\":18296:18305   */\n      dup4\n        /* \"#utility.yul\":18292:18309   */\n      add\n        /* \"#utility.yul\":18285:18332   */\n      mstore\n        /* \"#utility.yul\":18349:18480   */\n      tag_577\n        /* \"#utility.yul\":18475:18479   */\n      dup2\n        /* \"#utility.yul\":18349:18480   */\n      tag_360\n      jump\t// in\n    tag_577:\n        /* \"#utility.yul\":18341:18480   */\n      swap1\n      pop\n        /* \"#utility.yul\":18068:18487   */\n      swap2\n      swap1\n      pop\n      jump\t// out\n        /* \"#utility.yul\":18493:18655   */\n    tag_361:\n        /* \"#utility.yul\":18633:18647   */\n      0x5a65726f20616464726573730000000000000000000000000000000000000000\n        /* \"#utility.yul\":18629:18630   */\n      0x00\n        /* \"#utility.yul\":18621:18627   */\n      dup3\n        /* \"#utility.yul\":18617:18631   */\n      add\n        /* \"#utility.yul\":18610:18648   */\n      mstore\n        /* \"#utility.yul\":18493:18655   */\n      pop\n      jump\t// out\n        /* \"#utility.yul\":18661:19027   */\n    tag_362:\n        /* \"#utility.yul\":18803:18806   */\n      0x00\n        /* \"#utility.yul\":18824:18891   */\n      tag_580\n        /* \"#utility.yul\":18888:18890   */\n      0x0c\n        /* \"#utility.yul\":18883:18886   */\n      dup4\n        /* \"#utility.yul\":18824:18891   */\n      tag_338\n      jump\t// in\n    tag_580:\n        /* \"#utility.yul\":18817:18891   */\n      swap2\n      pop\n        /* \"#utility.yul\":18900:18993   */\n      tag_581\n        /* \"#utility.yul\":18989:18992   */\n      dup3\n        /* \"#utility.yul\":18900:18993   */\n      tag_361\n      jump\t// in\n    tag_581:\n        /* \"#utility.yul\":19018:19020   */\n      0x20\n        /* \"#utility.yul\":19013:19016   */\n      dup3\n        /* \"#utility.yul\":19009:19021   */\n      add\n        /* \"#utility.yul\":19002:19021   */\n      swap1\n      pop\n        /* \"#utility.yul\":18661:19027   */\n      swap2\n      swap1\n      pop\n      jump\t// out\n        /* \"#utility.yul\":19033:19452   */\n    tag_167:\n        /* \"#utility.yul\":19199:19203   */\n      0x00\n        /* \"#utility.yul\":19237:19239   */\n      0x20\n        /* \"#utility.yul\":19226:19235   */\n      dup3\n        /* \"#utility.yul\":19222:19240   */\n      add\n        /* \"#utility.yul\":19214:19240   */\n      swap1\n      pop\n        /* \"#utility.yul\":19286:19295   */\n      dup2\n        /* \"#utility.yul\":19280:19284   */\n      dup2\n        /* \"#utility.yul\":19276:19296   */\n      sub\n        /* \"#utility.yul\":19272:19273   */\n      0x00\n        /* \"#utility.yul\":19261:19270   */\n      dup4\n        /* \"#utility.yul\":19257:19274   */\n      add\n        /* \"#utility.yul\":19250:19297   */\n      mstore\n        /* \"#utility.yul\":19314:19445   */\n      tag_583\n        /* \"#utility.yul\":19440:19444   */\n      dup2\n        /* \"#utility.yul\":19314:19445   */\n      tag_362\n      jump\t// in\n    tag_583:\n        /* \"#utility.yul\":19306:19445   */\n      swap1\n      pop\n        /* \"#utility.yul\":19033:19452   */\n      swap2\n      swap1\n      pop\n      jump\t// out\n        /* \"#utility.yul\":19458:19627   */\n    tag_363:\n        /* \"#utility.yul\":19598:19619   */\n      0x5769746864726177204242455448206661696c00000000000000000000000000\n        /* \"#utility.yul\":19594:19595   */\n      0x00\n        /* \"#utility.yul\":19586:19592   */\n      dup3\n        /* \"#utility.yul\":19582:19596   */\n      add\n        /* \"#utility.yul\":19575:19620   */\n      mstore\n        /* \"#utility.yul\":19458:19627   */\n      pop\n      jump\t// out\n        /* \"#utility.yul\":19633:19999   */\n    tag_364:\n        /* \"#utility.yul\":19775:19778   */\n      0x00\n        /* \"#utility.yul\":19796:19863   */\n      tag_586\n        /* \"#utility.yul\":19860:19862   */\n      0x13\n        /* \"#utility.yul\":19855:19858   */\n      dup4\n        /* \"#utility.yul\":19796:19863   */\n      tag_338\n      jump\t// in\n    tag_586:\n        /* \"#utility.yul\":19789:19863   */\n      swap2\n      pop\n        /* \"#utility.yul\":19872:19965   */\n      tag_587\n        /* \"#utility.yul\":19961:19964   */\n      dup3\n        /* \"#utility.yul\":19872:19965   */\n      tag_363\n      jump\t// in\n    tag_587:\n        /* \"#utility.yul\":19990:19992   */\n      0x20\n        /* \"#utility.yul\":19985:19988   */\n      dup3\n        /* \"#utility.yul\":19981:19993   */\n      add\n        /* \"#utility.yul\":19974:19993   */\n      swap1\n      pop\n        /* \"#utility.yul\":19633:19999   */\n      swap2\n      swap1\n      pop\n      jump\t// out\n        /* \"#utility.yul\":20005:20424   */\n    tag_182:\n        /* \"#utility.yul\":20171:20175   */\n      0x00\n        /* \"#utility.yul\":20209:20211   */\n      0x20\n        /* \"#utility.yul\":20198:20207   */\n      dup3\n        /* \"#utility.yul\":20194:20212   */\n      add\n        /* \"#utility.yul\":20186:20212   */\n      swap1\n      pop\n        /* \"#utility.yul\":20258:20267   */\n      dup2\n        /* \"#utility.yul\":20252:20256   */\n      dup2\n        /* \"#utility.yul\":20248:20268   */\n      sub\n        /* \"#utility.yul\":20244:20245   */\n      0x00\n        /* \"#utility.yul\":20233:20242   */\n      dup4\n        /* \"#utility.yul\":20229:20246   */\n      add\n        /* \"#utility.yul\":20222:20269   */\n      mstore\n        /* \"#utility.yul\":20286:20417   */\n      tag_589\n        /* \"#utility.yul\":20412:20416   */\n      dup2\n        /* \"#utility.yul\":20286:20417   */\n      tag_364\n      jump\t// in\n    tag_589:\n        /* \"#utility.yul\":20278:20417   */\n      swap1\n      pop\n        /* \"#utility.yul\":20005:20424   */\n      swap2\n      swap1\n      pop\n      jump\t// out\n        /* \"#utility.yul\":20430:20599   */\n    tag_365:\n        /* \"#utility.yul\":20570:20591   */\n      0x5769746864726177204242555344206661696c00000000000000000000000000\n        /* \"#utility.yul\":20566:20567   */\n      0x00\n        /* \"#utility.yul\":20558:20564   */\n      dup3\n        /* \"#utility.yul\":20554:20568   */\n      add\n        /* \"#utility.yul\":20547:20592   */\n      mstore\n        /* \"#utility.yul\":20430:20599   */\n      pop\n      jump\t// out\n        /* \"#utility.yul\":20605:20971   */\n    tag_366:\n        /* \"#utility.yul\":20747:20750   */\n      0x00\n        /* \"#utility.yul\":20768:20835   */\n      tag_592\n        /* \"#utility.yul\":20832:20834   */\n      0x13\n        /* \"#utility.yul\":20827:20830   */\n      dup4\n        /* \"#utility.yul\":20768:20835   */\n      tag_338\n      jump\t// in\n    tag_592:\n        /* \"#utility.yul\":20761:20835   */\n      swap2\n      pop\n        /* \"#utility.yul\":20844:20937   */\n      tag_593\n        /* \"#utility.yul\":20933:20936   */\n      dup3\n        /* \"#utility.yul\":20844:20937   */\n      tag_365\n      jump\t// in\n    tag_593:\n        /* \"#utility.yul\":20962:20964   */\n      0x20\n        /* \"#utility.yul\":20957:20960   */\n      dup3\n        /* \"#utility.yul\":20953:20965   */\n      add\n        /* \"#utility.yul\":20946:20965   */\n      swap1\n      pop\n        /* \"#utility.yul\":20605:20971   */\n      swap2\n      swap1\n      pop\n      jump\t// out\n        /* \"#utility.yul\":20977:21396   */\n    tag_189:\n        /* \"#utility.yul\":21143:21147   */\n      0x00\n        /* \"#utility.yul\":21181:21183   */\n      0x20\n        /* \"#utility.yul\":21170:21179   */\n      dup3\n        /* \"#utility.yul\":21166:21184   */\n      add\n        /* \"#utility.yul\":21158:21184   */\n      swap1\n      pop\n        /* \"#utility.yul\":21230:21239   */\n      dup2\n        /* \"#utility.yul\":21224:21228   */\n      dup2\n        /* \"#utility.yul\":21220:21240   */\n      sub\n        /* \"#utility.yul\":21216:21217   */\n      0x00\n        /* \"#utility.yul\":21205:21214   */\n      dup4\n        /* \"#utility.yul\":21201:21218   */\n      add\n        /* \"#utility.yul\":21194:21241   */\n      mstore\n        /* \"#utility.yul\":21258:21389   */\n      tag_595\n        /* \"#utility.yul\":21384:21388   */\n      dup2\n        /* \"#utility.yul\":21258:21389   */\n      tag_366\n      jump\t// in\n    tag_595:\n        /* \"#utility.yul\":21250:21389   */\n      swap1\n      pop\n        /* \"#utility.yul\":20977:21396   */\n      swap2\n      swap1\n      pop\n      jump\t// out\n        /* \"#utility.yul\":21402:21507   */\n    tag_367:\n        /* \"#utility.yul\":21438:21445   */\n      0x00\n        /* \"#utility.yul\":21478:21500   */\n      0xffffffffffffffffffff\n        /* \"#utility.yul\":21471:21476   */\n      dup3\n        /* \"#utility.yul\":21467:21501   */\n      and\n        /* \"#utility.yul\":21456:21501   */\n      swap1\n      pop\n        /* \"#utility.yul\":21402:21507   */\n      swap2\n      swap1\n      pop\n      jump\t// out\n        /* \"#utility.yul\":21513:21633   */\n    tag_368:\n        /* \"#utility.yul\":21585:21608   */\n      tag_598\n        /* \"#utility.yul\":21602:21607   */\n      dup2\n        /* \"#utility.yul\":21585:21608   */\n      tag_367\n      jump\t// in\n    tag_598:\n        /* \"#utility.yul\":21578:21583   */\n      dup2\n        /* \"#utility.yul\":21575:21609   */\n      eq\n        /* \"#utility.yul\":21565:21627   */\n      tag_599\n      jumpi\n        /* \"#utility.yul\":21623:21624   */\n      0x00\n        /* \"#utility.yul\":21620:21621   */\n      0x00\n        /* \"#utility.yul\":21613:21625   */\n      revert\n        /* \"#utility.yul\":21565:21627   */\n    tag_599:\n        /* \"#utility.yul\":21513:21633   */\n      pop\n      jump\t// out\n        /* \"#utility.yul\":21639:21780   */\n    tag_369:\n        /* \"#utility.yul\":21695:21700   */\n      0x00\n        /* \"#utility.yul\":21726:21732   */\n      dup2\n        /* \"#utility.yul\":21720:21733   */\n      mload\n        /* \"#utility.yul\":21711:21733   */\n      swap1\n      pop\n        /* \"#utility.yul\":21742:21774   */\n      tag_601\n        /* \"#utility.yul\":21768:21773   */\n      dup2\n        /* \"#utility.yul\":21742:21774   */\n      tag_368\n      jump\t// in\n    tag_601:\n        /* \"#utility.yul\":21639:21780   */\n      swap3\n      swap2\n      pop\n      pop\n      jump\t// out\n        /* \"#utility.yul\":21786:21862   */\n    tag_370:\n        /* \"#utility.yul\":21822:21829   */\n      0x00\n        /* \"#utility.yul\":21851:21856   */\n      dup2\n        /* \"#utility.yul\":21840:21856   */\n      swap1\n      pop\n        /* \"#utility.yul\":21786:21862   */\n      swap2\n      swap1\n      pop\n      jump\t// out\n        /* \"#utility.yul\":21868:21988   */\n    tag_371:\n        /* \"#utility.yul\":21940:21963   */\n      tag_604\n        /* \"#utility.yul\":21957:21962   */\n      dup2\n        /* \"#utility.yul\":21940:21963   */\n      tag_370\n      jump\t// in\n    tag_604:\n        /* \"#utility.yul\":21933:21938   */\n      dup2\n        /* \"#utility.yul\":21930:21964   */\n      eq\n        /* \"#utility.yul\":21920:21982   */\n      tag_605\n      jumpi\n        /* \"#utility.yul\":21978:21979   */\n      0x00\n        /* \"#utility.yul\":21975:21976   */\n      0x00\n        /* \"#utility.yul\":21968:21980   */\n      revert\n        /* \"#utility.yul\":21920:21982   */\n    tag_605:\n        /* \"#utility.yul\":21868:21988   */\n      pop\n      jump\t// out\n        /* \"#utility.yul\":21994:22135   */\n    tag_372:\n        /* \"#utility.yul\":22050:22055   */\n      0x00\n        /* \"#utility.yul\":22081:22087   */\n      dup2\n        /* \"#utility.yul\":22075:22088   */\n      mload\n        /* \"#utility.yul\":22066:22088   */\n      swap1\n      pop\n        /* \"#utility.yul\":22097:22129   */\n      tag_607\n        /* \"#utility.yul\":22123:22128   */\n      dup2\n        /* \"#utility.yul\":22097:22129   */\n      tag_371\n      jump\t// in\n    tag_607:\n        /* \"#utility.yul\":21994:22135   */\n      swap3\n      swap2\n      pop\n      pop\n      jump\t// out\n        /* \"#utility.yul\":22141:23112   */\n    tag_213:\n        /* \"#utility.yul\":22244:22250   */\n      0x00\n        /* \"#utility.yul\":22252:22258   */\n      0x00\n        /* \"#utility.yul\":22260:22266   */\n      0x00\n        /* \"#utility.yul\":22268:22274   */\n      0x00\n        /* \"#utility.yul\":22276:22282   */\n      0x00\n        /* \"#utility.yul\":22325:22328   */\n      0xa0\n        /* \"#utility.yul\":22313:22322   */\n      dup7\n        /* \"#utility.yul\":22304:22311   */\n      dup9\n        /* \"#utility.yul\":22300:22323   */\n      sub\n        /* \"#utility.yul\":22296:22329   */\n      slt\n        /* \"#utility.yul\":22293:22413   */\n      iszero\n      tag_609\n      jumpi\n        /* \"#utility.yul\":22332:22411   */\n      tag_610\n      tag_316\n      jump\t// in\n    tag_610:\n        /* \"#utility.yul\":22293:22413   */\n    tag_609:\n        /* \"#utility.yul\":22452:22453   */\n      0x00\n        /* \"#utility.yul\":22477:22540   */\n      tag_611\n        /* \"#utility.yul\":22532:22539   */\n      dup9\n        /* \"#utility.yul\":22523:22529   */\n      dup3\n        /* \"#utility.yul\":22512:22521   */\n      dup10\n        /* \"#utility.yul\":22508:22530   */\n      add\n        /* \"#utility.yul\":22477:22540   */\n      tag_369\n      jump\t// in\n    tag_611:\n        /* \"#utility.yul\":22467:22540   */\n      swap6\n      pop\n        /* \"#utility.yul\":22423:22550   */\n      pop\n        /* \"#utility.yul\":22589:22591   */\n      0x20\n        /* \"#utility.yul\":22615:22678   */\n      tag_612\n        /* \"#utility.yul\":22670:22677   */\n      dup9\n        /* \"#utility.yul\":22661:22667   */\n      dup3\n        /* \"#utility.yul\":22650:22659   */\n      dup10\n        /* \"#utility.yul\":22646:22668   */\n      add\n        /* \"#utility.yul\":22615:22678   */\n      tag_372\n      jump\t// in\n    tag_612:\n        /* \"#utility.yul\":22605:22678   */\n      swap5\n      pop\n        /* \"#utility.yul\":22560:22688   */\n      pop\n        /* \"#utility.yul\":22727:22729   */\n      0x40\n        /* \"#utility.yul\":22753:22817   */\n      tag_613\n        /* \"#utility.yul\":22809:22816   */\n      dup9\n        /* \"#utility.yul\":22800:22806   */\n      dup3\n        /* \"#utility.yul\":22789:22798   */\n      dup10\n        /* \"#utility.yul\":22785:22807   */\n      add\n        /* \"#utility.yul\":22753:22817   */\n      tag_348\n      jump\t// in\n    tag_613:\n        /* \"#utility.yul\":22743:22817   */\n      swap4\n      pop\n        /* \"#utility.yul\":22698:22827   */\n      pop\n        /* \"#utility.yul\":22866:22868   */\n      0x60\n        /* \"#utility.yul\":22892:22956   */\n      tag_614\n        /* \"#utility.yul\":22948:22955   */\n      dup9\n        /* \"#utility.yul\":22939:22945   */\n      dup3\n        /* \"#utility.yul\":22928:22937   */\n      dup10\n        /* \"#utility.yul\":22924:22946   */\n      add\n        /* \"#utility.yul\":22892:22956   */\n      tag_348\n      jump\t// in\n    tag_614:\n        /* \"#utility.yul\":22882:22956   */\n      swap3\n      pop\n        /* \"#utility.yul\":22837:22966   */\n      pop\n        /* \"#utility.yul\":23005:23008   */\n      0x80\n        /* \"#utility.yul\":23032:23095   */\n      tag_615\n        /* \"#utility.yul\":23087:23094   */\n      dup9\n        /* \"#utility.yul\":23078:23084   */\n      dup3\n        /* \"#utility.yul\":23067:23076   */\n      dup10\n        /* \"#utility.yul\":23063:23085   */\n      add\n        /* \"#utility.yul\":23032:23095   */\n      tag_369\n      jump\t// in\n    tag_615:\n        /* \"#utility.yul\":23022:23095   */\n      swap2\n      pop\n        /* \"#utility.yul\":22976:23105   */\n      pop\n        /* \"#utility.yul\":22141:23112   */\n      swap3\n      swap6\n      pop\n      swap3\n      swap6\n      swap1\n      swap4\n      pop\n      jump\t// out\n        /* \"#utility.yul\":23118:23281   */\n    tag_373:\n        /* \"#utility.yul\":23258:23273   */\n      0x496e76616c696420707269636500000000000000000000000000000000000000\n        /* \"#utility.yul\":23254:23255   */\n      0x00\n        /* \"#utility.yul\":23246:23252   */\n      dup3\n        /* \"#utility.yul\":23242:23256   */\n      add\n        /* \"#utility.yul\":23235:23274   */\n      mstore\n        /* \"#utility.yul\":23118:23281   */\n      pop\n      jump\t// out\n        /* \"#utility.yul\":23287:23653   */\n    tag_374:\n        /* \"#utility.yul\":23429:23432   */\n      0x00\n        /* \"#utility.yul\":23450:23517   */\n      tag_618\n        /* \"#utility.yul\":23514:23516   */\n      0x0d\n        /* \"#utility.yul\":23509:23512   */\n      dup4\n        /* \"#utility.yul\":23450:23517   */\n      tag_338\n      jump\t// in\n    tag_618:\n        /* \"#utility.yul\":23443:23517   */\n      swap2\n      pop\n        /* \"#utility.yul\":23526:23619   */\n      tag_619\n        /* \"#utility.yul\":23615:23618   */\n      dup3\n        /* \"#utility.yul\":23526:23619   */\n      tag_373\n      jump\t// in\n    tag_619:\n        /* \"#utility.yul\":23644:23646   */\n      0x20\n        /* \"#utility.yul\":23639:23642   */\n      dup3\n        /* \"#utility.yul\":23635:23647   */\n      add\n        /* \"#utility.yul\":23628:23647   */\n      swap1\n      pop\n        /* \"#utility.yul\":23287:23653   */\n      swap2\n      swap1\n      pop\n      jump\t// out\n        /* \"#utility.yul\":23659:24078   */\n    tag_216:\n        /* \"#utility.yul\":23825:23829   */\n      0x00\n        /* \"#utility.yul\":23863:23865   */\n      0x20\n        /* \"#utility.yul\":23852:23861   */\n      dup3\n        /* \"#utility.yul\":23848:23866   */\n      add\n        /* \"#utility.yul\":23840:23866   */\n      swap1\n      pop\n        /* \"#utility.yul\":23912:23921   */\n      dup2\n        /* \"#utility.yul\":23906:23910   */\n      dup2\n        /* \"#utility.yul\":23902:23922   */\n      sub\n        /* \"#utility.yul\":23898:23899   */\n      0x00\n        /* \"#utility.yul\":23887:23896   */\n      dup4\n        /* \"#utility.yul\":23883:23900   */\n      add\n        /* \"#utility.yul\":23876:23923   */\n      mstore\n        /* \"#utility.yul\":23940:24071   */\n      tag_621\n        /* \"#utility.yul\":24066:24070   */\n      dup2\n        /* \"#utility.yul\":23940:24071   */\n      tag_374\n      jump\t// in\n    tag_621:\n        /* \"#utility.yul\":23932:24071   */\n      swap1\n      pop\n        /* \"#utility.yul\":23659:24078   */\n      swap2\n      swap1\n      pop\n      jump\t// out\n        /* \"#utility.yul\":24084:24278   */\n    tag_218:\n        /* \"#utility.yul\":24124:24128   */\n      0x00\n        /* \"#utility.yul\":24144:24164   */\n      tag_623\n        /* \"#utility.yul\":24162:24163   */\n      dup3\n        /* \"#utility.yul\":24144:24164   */\n      tag_318\n      jump\t// in\n    tag_623:\n        /* \"#utility.yul\":24139:24164   */\n      swap2\n      pop\n        /* \"#utility.yul\":24178:24198   */\n      tag_624\n        /* \"#utility.yul\":24196:24197   */\n      dup4\n        /* \"#utility.yul\":24178:24198   */\n      tag_318\n      jump\t// in\n    tag_624:\n        /* \"#utility.yul\":24173:24198   */\n      swap3\n      pop\n        /* \"#utility.yul\":24222:24223   */\n      dup3\n        /* \"#utility.yul\":24219:24220   */\n      dup3\n        /* \"#utility.yul\":24215:24224   */\n      sub\n        /* \"#utility.yul\":24207:24224   */\n      swap1\n      pop\n        /* \"#utility.yul\":24246:24247   */\n      dup2\n        /* \"#utility.yul\":24240:24244   */\n      dup2\n        /* \"#utility.yul\":24237:24248   */\n      gt\n        /* \"#utility.yul\":24234:24271   */\n      iszero\n      tag_625\n      jumpi\n        /* \"#utility.yul\":24251:24269   */\n      tag_626\n      tag_341\n      jump\t// in\n    tag_626:\n        /* \"#utility.yul\":24234:24271   */\n    tag_625:\n        /* \"#utility.yul\":24084:24278   */\n      swap3\n      swap2\n      pop\n      pop\n      jump\t// out\n        /* \"#utility.yul\":24284:24445   */\n    tag_375:\n        /* \"#utility.yul\":24424:24437   */\n      0x5374616c65207072696365000000000000000000000000000000000000000000\n        /* \"#utility.yul\":24420:24421   */\n      0x00\n        /* \"#utility.yul\":24412:24418   */\n      dup3\n        /* \"#utility.yul\":24408:24422   */\n      add\n        /* \"#utility.yul\":24401:24438   */\n      mstore\n        /* \"#utility.yul\":24284:24445   */\n      pop\n      jump\t// out\n        /* \"#utility.yul\":24451:24817   */\n    tag_376:\n        /* \"#utility.yul\":24593:24596   */\n      0x00\n        /* \"#utility.yul\":24614:24681   */\n      tag_629\n        /* \"#utility.yul\":24678:24680   */\n      0x0b\n        /* \"#utility.yul\":24673:24676   */\n      dup4\n        /* \"#utility.yul\":24614:24681   */\n      tag_338\n      jump\t// in\n    tag_629:\n        /* \"#utility.yul\":24607:24681   */\n      swap2\n      pop\n        /* \"#utility.yul\":24690:24783   */\n      tag_630\n        /* \"#utility.yul\":24779:24782   */\n      dup3\n        /* \"#utility.yul\":24690:24783   */\n      tag_375\n      jump\t// in\n    tag_630:\n        /* \"#utility.yul\":24808:24810   */\n      0x20\n        /* \"#utility.yul\":24803:24806   */\n      dup3\n        /* \"#utility.yul\":24799:24811   */\n      add\n        /* \"#utility.yul\":24792:24811   */\n      swap1\n      pop\n        /* \"#utility.yul\":24451:24817   */\n      swap2\n      swap1\n      pop\n      jump\t// out\n        /* \"#utility.yul\":24823:25242   */\n    tag_221:\n        /* \"#utility.yul\":24989:24993   */\n      0x00\n        /* \"#utility.yul\":25027:25029   */\n      0x20\n        /* \"#utility.yul\":25016:25025   */\n      dup3\n        /* \"#utility.yul\":25012:25030   */\n      add\n        /* \"#utility.yul\":25004:25030   */\n      swap1\n      pop\n        /* \"#utility.yul\":25076:25085   */\n      dup2\n        /* \"#utility.yul\":25070:25074   */\n      dup2\n        /* \"#utility.yul\":25066:25086   */\n      sub\n        /* \"#utility.yul\":25062:25063   */\n      0x00\n        /* \"#utility.yul\":25051:25060   */\n      dup4\n        /* \"#utility.yul\":25047:25064   */\n      add\n        /* \"#utility.yul\":25040:25087   */\n      mstore\n        /* \"#utility.yul\":25104:25235   */\n      tag_632\n        /* \"#utility.yul\":25230:25234   */\n      dup2\n        /* \"#utility.yul\":25104:25235   */\n      tag_376\n      jump\t// in\n    tag_632:\n        /* \"#utility.yul\":25096:25235   */\n      swap1\n      pop\n        /* \"#utility.yul\":24823:25242   */\n      swap2\n      swap1\n      pop\n      jump\t// out\n        /* \"#utility.yul\":25248:25366   */\n    tag_377:\n        /* \"#utility.yul\":25319:25341   */\n      tag_634\n        /* \"#utility.yul\":25335:25340   */\n      dup2\n        /* \"#utility.yul\":25319:25341   */\n      tag_336\n      jump\t// in\n    tag_634:\n        /* \"#utility.yul\":25312:25317   */\n      dup2\n        /* \"#utility.yul\":25309:25342   */\n      eq\n        /* \"#utility.yul\":25299:25360   */\n      tag_635\n      jumpi\n        /* \"#utility.yul\":25356:25357   */\n      0x00\n        /* \"#utility.yul\":25353:25354   */\n      0x00\n        /* \"#utility.yul\":25346:25358   */\n      revert\n        /* \"#utility.yul\":25299:25360   */\n    tag_635:\n        /* \"#utility.yul\":25248:25366   */\n      pop\n      jump\t// out\n        /* \"#utility.yul\":25372:25511   */\n    tag_378:\n        /* \"#utility.yul\":25427:25432   */\n      0x00\n        /* \"#utility.yul\":25458:25464   */\n      dup2\n        /* \"#utility.yul\":25452:25465   */\n      mload\n        /* \"#utility.yul\":25443:25465   */\n      swap1\n      pop\n        /* \"#utility.yul\":25474:25505   */\n      tag_637\n        /* \"#utility.yul\":25499:25504   */\n      dup2\n        /* \"#utility.yul\":25474:25505   */\n      tag_377\n      jump\t// in\n    tag_637:\n        /* \"#utility.yul\":25372:25511   */\n      swap3\n      swap2\n      pop\n      pop\n      jump\t// out\n        /* \"#utility.yul\":25517:25864   */\n    tag_225:\n        /* \"#utility.yul\":25585:25591   */\n      0x00\n        /* \"#utility.yul\":25634:25636   */\n      0x20\n        /* \"#utility.yul\":25622:25631   */\n      dup3\n        /* \"#utility.yul\":25613:25620   */\n      dup5\n        /* \"#utility.yul\":25609:25632   */\n      sub\n        /* \"#utility.yul\":25605:25637   */\n      slt\n        /* \"#utility.yul\":25602:25721   */\n      iszero\n      tag_639\n      jumpi\n        /* \"#utility.yul\":25640:25719   */\n      tag_640\n      tag_316\n      jump\t// in\n    tag_640:\n        /* \"#utility.yul\":25602:25721   */\n    tag_639:\n        /* \"#utility.yul\":25760:25761   */\n      0x00\n        /* \"#utility.yul\":25785:25847   */\n      tag_641\n        /* \"#utility.yul\":25839:25846   */\n      dup5\n        /* \"#utility.yul\":25830:25836   */\n      dup3\n        /* \"#utility.yul\":25819:25828   */\n      dup6\n        /* \"#utility.yul\":25815:25837   */\n      add\n        /* \"#utility.yul\":25785:25847   */\n      tag_378\n      jump\t// in\n    tag_641:\n        /* \"#utility.yul\":25775:25847   */\n      swap2\n      pop\n        /* \"#utility.yul\":25731:25857   */\n      pop\n        /* \"#utility.yul\":25517:25864   */\n      swap3\n      swap2\n      pop\n      pop\n      jump\t// out\n        /* \"#utility.yul\":25870:26050   */\n    tag_379:\n        /* \"#utility.yul\":26010:26042   */\n      0x496e73756666696369656e7420424245544820696e20636f6e74726163740000\n        /* \"#utility.yul\":26006:26007   */\n      0x00\n        /* \"#utility.yul\":25998:26004   */\n      dup3\n        /* \"#utility.yul\":25994:26008   */\n      add\n        /* \"#utility.yul\":25987:26043   */\n      mstore\n        /* \"#utility.yul\":25870:26050   */\n      pop\n      jump\t// out\n        /* \"#utility.yul\":26056:26422   */\n    tag_380:\n        /* \"#utility.yul\":26198:26201   */\n      0x00\n        /* \"#utility.yul\":26219:26286   */\n      tag_644\n        /* \"#utility.yul\":26283:26285   */\n      0x1e\n        /* \"#utility.yul\":26278:26281   */\n      dup4\n        /* \"#utility.yul\":26219:26286   */\n      tag_338\n      jump\t// in\n    tag_644:\n        /* \"#utility.yul\":26212:26286   */\n      swap2\n      pop\n        /* \"#utility.yul\":26295:26388   */\n      tag_645\n        /* \"#utility.yul\":26384:26387   */\n      dup3\n        /* \"#utility.yul\":26295:26388   */\n      tag_379\n      jump\t// in\n    tag_645:\n        /* \"#utility.yul\":26413:26415   */\n      0x20\n        /* \"#utility.yul\":26408:26411   */\n      dup3\n        /* \"#utility.yul\":26404:26416   */\n      add\n        /* \"#utility.yul\":26397:26416   */\n      swap1\n      pop\n        /* \"#utility.yul\":26056:26422   */\n      swap2\n      swap1\n      pop\n      jump\t// out\n        /* \"#utility.yul\":26428:26847   */\n    tag_247:\n        /* \"#utility.yul\":26594:26598   */\n      0x00\n        /* \"#utility.yul\":26632:26634   */\n      0x20\n        /* \"#utility.yul\":26621:26630   */\n      dup3\n        /* \"#utility.yul\":26617:26635   */\n      add\n        /* \"#utility.yul\":26609:26635   */\n      swap1\n      pop\n        /* \"#utility.yul\":26681:26690   */\n      dup2\n        /* \"#utility.yul\":26675:26679   */\n      dup2\n        /* \"#utility.yul\":26671:26691   */\n      sub\n        /* \"#utility.yul\":26667:26668   */\n      0x00\n        /* \"#utility.yul\":26656:26665   */\n      dup4\n        /* \"#utility.yul\":26652:26669   */\n      add\n        /* \"#utility.yul\":26645:26692   */\n      mstore\n        /* \"#utility.yul\":26709:26840   */\n      tag_647\n        /* \"#utility.yul\":26835:26839   */\n      dup2\n        /* \"#utility.yul\":26709:26840   */\n      tag_380\n      jump\t// in\n    tag_647:\n        /* \"#utility.yul\":26701:26840   */\n      swap1\n      pop\n        /* \"#utility.yul\":26428:26847   */\n      swap2\n      swap1\n      pop\n      jump\t// out\n        /* \"#utility.yul\":26853:27021   */\n    tag_381:\n        /* \"#utility.yul\":26993:27013   */\n      0x4465706f736974204242555344206661696c0000000000000000000000000000\n        /* \"#utility.yul\":26989:26990   */\n      0x00\n        /* \"#utility.yul\":26981:26987   */\n      dup3\n        /* \"#utility.yul\":26977:26991   */\n      add\n        /* \"#utility.yul\":26970:27014   */\n      mstore\n        /* \"#utility.yul\":26853:27021   */\n      pop\n      jump\t// out\n        /* \"#utility.yul\":27027:27393   */\n    tag_382:\n        /* \"#utility.yul\":27169:27172   */\n      0x00\n        /* \"#utility.yul\":27190:27257   */\n      tag_650\n        /* \"#utility.yul\":27254:27256   */\n      0x12\n        /* \"#utility.yul\":27249:27252   */\n      dup4\n        /* \"#utility.yul\":27190:27257   */\n      tag_338\n      jump\t// in\n    tag_650:\n        /* \"#utility.yul\":27183:27257   */\n      swap2\n      pop\n        /* \"#utility.yul\":27266:27359   */\n      tag_651\n        /* \"#utility.yul\":27355:27358   */\n      dup3\n        /* \"#utility.yul\":27266:27359   */\n      tag_381\n      jump\t// in\n    tag_651:\n        /* \"#utility.yul\":27384:27386   */\n      0x20\n        /* \"#utility.yul\":27379:27382   */\n      dup3\n        /* \"#utility.yul\":27375:27387   */\n      add\n        /* \"#utility.yul\":27368:27387   */\n      swap1\n      pop\n        /* \"#utility.yul\":27027:27393   */\n      swap2\n      swap1\n      pop\n      jump\t// out\n        /* \"#utility.yul\":27399:27818   */\n    tag_279:\n        /* \"#utility.yul\":27565:27569   */\n      0x00\n        /* \"#utility.yul\":27603:27605   */\n      0x20\n        /* \"#utility.yul\":27592:27601   */\n      dup3\n        /* \"#utility.yul\":27588:27606   */\n      add\n        /* \"#utility.yul\":27580:27606   */\n      swap1\n      pop\n        /* \"#utility.yul\":27652:27661   */\n      dup2\n        /* \"#utility.yul\":27646:27650   */\n      dup2\n        /* \"#utility.yul\":27642:27662   */\n      sub\n        /* \"#utility.yul\":27638:27639   */\n      0x00\n        /* \"#utility.yul\":27627:27636   */\n      dup4\n        /* \"#utility.yul\":27623:27640   */\n      add\n        /* \"#utility.yul\":27616:27663   */\n      mstore\n        /* \"#utility.yul\":27680:27811   */\n      tag_653\n        /* \"#utility.yul\":27806:27810   */\n      dup2\n        /* \"#utility.yul\":27680:27811   */\n      tag_382\n      jump\t// in\n    tag_653:\n        /* \"#utility.yul\":27672:27811   */\n      swap1\n      pop\n        /* \"#utility.yul\":27399:27818   */\n      swap2\n      swap1\n      pop\n      jump\t// out\n        /* \"#utility.yul\":27824:27990   */\n    tag_383:\n        /* \"#utility.yul\":27964:27982   */\n      0x5061757361626c653a2070617573656400000000000000000000000000000000\n        /* \"#utility.yul\":27960:27961   */\n      0x00\n        /* \"#utility.yul\":27952:27958   */\n      dup3\n        /* \"#utility.yul\":27948:27962   */\n      add\n        /* \"#utility.yul\":27941:27983   */\n      mstore\n        /* \"#utility.yul\":27824:27990   */\n      pop\n      jump\t// out\n        /* \"#utility.yul\":27996:28362   */\n    tag_384:\n        /* \"#utility.yul\":28138:28141   */\n      0x00\n        /* \"#utility.yul\":28159:28226   */\n      tag_656\n        /* \"#utility.yul\":28223:28225   */\n      0x10\n        /* \"#utility.yul\":28218:28221   */\n      dup4\n        /* \"#utility.yul\":28159:28226   */\n      tag_338\n      jump\t// in\n    tag_656:\n        /* \"#utility.yul\":28152:28226   */\n      swap2\n      pop\n        /* \"#utility.yul\":28235:28328   */\n      tag_657\n        /* \"#utility.yul\":28324:28327   */\n      dup3\n        /* \"#utility.yul\":28235:28328   */\n      tag_383\n      jump\t// in\n    tag_657:\n        /* \"#utility.yul\":28353:28355   */\n      0x20\n        /* \"#utility.yul\":28348:28351   */\n      dup3\n        /* \"#utility.yul\":28344:28356   */\n      add\n        /* \"#utility.yul\":28337:28356   */\n      swap1\n      pop\n        /* \"#utility.yul\":27996:28362   */\n      swap2\n      swap1\n      pop\n      jump\t// out\n        /* \"#utility.yul\":28368:28787   */\n    tag_284:\n        /* \"#utility.yul\":28534:28538   */\n      0x00\n        /* \"#utility.yul\":28572:28574   */\n      0x20\n        /* \"#utility.yul\":28561:28570   */\n      dup3\n        /* \"#utility.yul\":28557:28575   */\n      add\n        /* \"#utility.yul\":28549:28575   */\n      swap1\n      pop\n        /* \"#utility.yul\":28621:28630   */\n      dup2\n        /* \"#utility.yul\":28615:28619   */\n      dup2\n        /* \"#utility.yul\":28611:28631   */\n      sub\n        /* \"#utility.yul\":28607:28608   */\n      0x00\n        /* \"#utility.yul\":28596:28605   */\n      dup4\n        /* \"#utility.yul\":28592:28609   */\n      add\n        /* \"#utility.yul\":28585:28632   */\n      mstore\n        /* \"#utility.yul\":28649:28780   */\n      tag_659\n        /* \"#utility.yul\":28775:28779   */\n      dup2\n        /* \"#utility.yul\":28649:28780   */\n      tag_384\n      jump\t// in\n    tag_659:\n        /* \"#utility.yul\":28641:28780   */\n      swap1\n      pop\n        /* \"#utility.yul\":28368:28787   */\n      swap2\n      swap1\n      pop\n      jump\t// out\n        /* \"#utility.yul\":28793:28974   */\n    tag_385:\n        /* \"#utility.yul\":28933:28966   */\n      0x5265656e7472616e637947756172643a207265656e7472616e742063616c6c00\n        /* \"#utility.yul\":28929:28930   */\n      0x00\n        /* \"#utility.yul\":28921:28927   */\n      dup3\n        /* \"#utility.yul\":28917:28931   */\n      add\n        /* \"#utility.yul\":28910:28967   */\n      mstore\n        /* \"#utility.yul\":28793:28974   */\n      pop\n      jump\t// out\n        /* \"#utility.yul\":28980:29346   */\n    tag_386:\n        /* \"#utility.yul\":29122:29125   */\n      0x00\n        /* \"#utility.yul\":29143:29210   */\n      tag_662\n        /* \"#utility.yul\":29207:29209   */\n      0x1f\n        /* \"#utility.yul\":29202:29205   */\n      dup4\n        /* \"#utility.yul\":29143:29210   */\n      tag_338\n      jump\t// in\n    tag_662:\n        /* \"#utility.yul\":29136:29210   */\n      swap2\n      pop\n        /* \"#utility.yul\":29219:29312   */\n      tag_663\n        /* \"#utility.yul\":29308:29311   */\n      dup3\n        /* \"#utility.yul\":29219:29312   */\n      tag_385\n      jump\t// in\n    tag_663:\n        /* \"#utility.yul\":29337:29339   */\n      0x20\n        /* \"#utility.yul\":29332:29335   */\n      dup3\n        /* \"#utility.yul\":29328:29340   */\n      add\n        /* \"#utility.yul\":29321:29340   */\n      swap1\n      pop\n        /* \"#utility.yul\":28980:29346   */\n      swap2\n      swap1\n      pop\n      jump\t// out\n        /* \"#utility.yul\":29352:29771   */\n    tag_288:\n        /* \"#utility.yul\":29518:29522   */\n      0x00\n        /* \"#utility.yul\":29556:29558   */\n      0x20\n        /* \"#utility.yul\":29545:29554   */\n      dup3\n        /* \"#utility.yul\":29541:29559   */\n      add\n        /* \"#utility.yul\":29533:29559   */\n      swap1\n      pop\n        /* \"#utility.yul\":29605:29614   */\n      dup2\n        /* \"#utility.yul\":29599:29603   */\n      dup2\n        /* \"#utility.yul\":29595:29615   */\n      sub\n        /* \"#utility.yul\":29591:29592   */\n      0x00\n        /* \"#utility.yul\":29580:29589   */\n      dup4\n        /* \"#utility.yul\":29576:29593   */\n      add\n        /* \"#utility.yul\":29569:29616   */\n      mstore\n        /* \"#utility.yul\":29633:29764   */\n      tag_665\n        /* \"#utility.yul\":29759:29763   */\n      dup2\n        /* \"#utility.yul\":29633:29764   */\n      tag_386\n      jump\t// in\n    tag_665:\n        /* \"#utility.yul\":29625:29764   */\n      swap1\n      pop\n        /* \"#utility.yul\":29352:29771   */\n      swap2\n      swap1\n      pop\n      jump\t// out\n        /* \"#utility.yul\":29777:29947   */\n    tag_387:\n        /* \"#utility.yul\":29917:29939   */\n      0x5061757361626c653a206e6f7420706175736564000000000000000000000000\n        /* \"#utility.yul\":29913:29914   */\n      0x00\n        /* \"#utility.yul\":29905:29911   */\n      dup3\n        /* \"#utility.yul\":29901:29915   */\n      add\n        /* \"#utility.yul\":29894:29940   */\n      mstore\n        /* \"#utility.yul\":29777:29947   */\n      pop\n      jump\t// out\n        /* \"#utility.yul\":29953:30319   */\n    tag_388:\n        /* \"#utility.yul\":30095:30098   */\n      0x00\n        /* \"#utility.yul\":30116:30183   */\n      tag_668\n        /* \"#utility.yul\":30180:30182   */\n      0x14\n        /* \"#utility.yul\":30175:30178   */\n      dup4\n        /* \"#utility.yul\":30116:30183   */\n      tag_338\n      jump\t// in\n    tag_668:\n        /* \"#utility.yul\":30109:30183   */\n      swap2\n      pop\n        /* \"#utility.yul\":30192:30285   */\n      tag_669\n        /* \"#utility.yul\":30281:30284   */\n      dup3\n        /* \"#utility.yul\":30192:30285   */\n      tag_387\n      jump\t// in\n    tag_669:\n        /* \"#utility.yul\":30310:30312   */\n      0x20\n        /* \"#utility.yul\":30305:30308   */\n      dup3\n        /* \"#utility.yul\":30301:30313   */\n      add\n        /* \"#utility.yul\":30294:30313   */\n      swap1\n      pop\n        /* \"#utility.yul\":29953:30319   */\n      swap2\n      swap1\n      pop\n      jump\t// out\n        /* \"#utility.yul\":30325:30744   */\n    tag_314:\n        /* \"#utility.yul\":30491:30495   */\n      0x00\n        /* \"#utility.yul\":30529:30531   */\n      0x20\n        /* \"#utility.yul\":30518:30527   */\n      dup3\n        /* \"#utility.yul\":30514:30532   */\n      add\n        /* \"#utility.yul\":30506:30532   */\n      swap1\n      pop\n        /* \"#utility.yul\":30578:30587   */\n      dup2\n        /* \"#utility.yul\":30572:30576   */\n      dup2\n        /* \"#utility.yul\":30568:30588   */\n      sub\n        /* \"#utility.yul\":30564:30565   */\n      0x00\n        /* \"#utility.yul\":30553:30562   */\n      dup4\n        /* \"#utility.yul\":30549:30566   */\n      add\n        /* \"#utility.yul\":30542:30589   */\n      mstore\n        /* \"#utility.yul\":30606:30737   */\n      tag_671\n        /* \"#utility.yul\":30732:30736   */\n      dup2\n        /* \"#utility.yul\":30606:30737   */\n      tag_388\n      jump\t// in\n    tag_671:\n        /* \"#utility.yul\":30598:30737   */\n      swap1\n      pop\n        /* \"#utility.yul\":30325:30744   */\n      swap2\n      swap1\n      pop\n      jump\t// out\n\n    auxdata: 0xa2646970667358221220d88a63bd5b460a8b19c64106e4da15c9ec26e8fa6a8975766c67e715cf954e3264736f6c634300081e0033\n}\n",
				"bytecode": {
					"linkReferences": {},
					"object": "60e060405234801561000f575f5ffd5b50604051612c7a380380612c7a833981810160405281019061003191906103e0565b3360015f819055505f60015f6101000a81548160ff0219169083151502179055505f73ffffffffffffffffffffffffffffffffffffffff168173ffffffffffffffffffffffffffffffffffffffff16036100c2575f6040517f1e4fbdf70000000000000000000000000000000000000000000000000000000081526004016100b9919061043f565b60405180910390fd5b6100d1816102c060201b60201c565b505f73ffffffffffffffffffffffffffffffffffffffff168373ffffffffffffffffffffffffffffffffffffffff1603610140576040517f08c379a0000000000000000000000000000000000000000000000000000000008152600401610137906104b2565b60405180910390fd5b5f73ffffffffffffffffffffffffffffffffffffffff168273ffffffffffffffffffffffffffffffffffffffff16036101ae576040517f08c379a00000000000000000000000000000000000000000000000000000000081526004016101a59061051a565b60405180910390fd5b5f73ffffffffffffffffffffffffffffffffffffffff168173ffffffffffffffffffffffffffffffffffffffff160361021c576040517f08c379a000000000000000000000000000000000000000000000000000000000815260040161021390610582565b60405180910390fd5b8273ffffffffffffffffffffffffffffffffffffffff1660808173ffffffffffffffffffffffffffffffffffffffff16815250508173ffffffffffffffffffffffffffffffffffffffff1660a08173ffffffffffffffffffffffffffffffffffffffff16815250508073ffffffffffffffffffffffffffffffffffffffff1660c08173ffffffffffffffffffffffffffffffffffffffff16815250505050506105a0565b5f60018054906101000a900473ffffffffffffffffffffffffffffffffffffffff169050816001806101000a81548173ffffffffffffffffffffffffffffffffffffffff021916908373ffffffffffffffffffffffffffffffffffffffff1602179055508173ffffffffffffffffffffffffffffffffffffffff168173ffffffffffffffffffffffffffffffffffffffff167f8be0079c531659141344cd1fd0a4f28419497f9722a3daafe3b4186f6b6457e060405160405180910390a35050565b5f5ffd5b5f73ffffffffffffffffffffffffffffffffffffffff82169050919050565b5f6103af82610386565b9050919050565b6103bf816103a5565b81146103c9575f5ffd5b50565b5f815190506103da816103b6565b92915050565b5f5f5f606084860312156103f7576103f6610382565b5b5f610404868287016103cc565b9350506020610415868287016103cc565b9250506040610426868287016103cc565b9150509250925092565b610439816103a5565b82525050565b5f6020820190506104525f830184610430565b92915050565b5f82825260208201905092915050565b7f496e76616c6964204242555344206164647265737300000000000000000000005f82015250565b5f61049c601583610458565b91506104a782610468565b602082019050919050565b5f6020820190508181035f8301526104c981610490565b9050919050565b7f496e76616c6964204242455448206164647265737300000000000000000000005f82015250565b5f610504601583610458565b915061050f826104d0565b602082019050919050565b5f6020820190508181035f830152610531816104f8565b9050919050565b7f496e76616c6964207072696365206665656420616464726573730000000000005f82015250565b5f61056c601a83610458565b915061057782610538565b602082019050919050565b5f6020820190508181035f83015261059981610560565b9050919050565b60805160a05160c05161264e61062c5f395f818161081901528181610d210152610e4a01525f81816104a5015281816107280152818161091c01528181610a5101528181610cd201528181610fc1015261117601525f81816103cc01528181610581015281816106ba015281816109b701528181610b2b0152818161109a015261137d015261264e5ff3fe608060405234801561000f575f5ffd5b5060043610610109575f3560e01c8063715018a6116100a05780638da5cb5b1161006f5780638da5cb5b14610257578063a0a8045e14610275578063e89bb22114610294578063f2fde38b146102b0578063f48f245a146102cc57610109565b8063715018a6146101f55780638456cb59146101ff5780638abd6e15146102095780638af864731461023957610109565b806342f6fb29116100dc57806342f6fb291461016d5780635c975abb1461018b5780636dff716b146101a95780636ff1c9bc146101d957610109565b80631bbbfe811461010d57806328b39bcf1461012957806329a87313146101475780633f4ba83a14610163575b5f5ffd5b6101276004803603810190610122919061178c565b6102e8565b005b6101316106b8565b60405161013e9190611844565b60405180910390f35b610161600480360381019061015c919061185d565b6106dc565b005b61016b610805565b005b610175610817565b60405161018291906118a8565b60405180910390f35b61019361083b565b6040516101a091906118db565b60405180910390f35b6101c360048036038101906101be919061185d565b610850565b6040516101d09190611903565b60405180910390f35b6101f360048036038101906101ee9190611957565b6108a3565b005b6101fd610c58565b005b610207610c6b565b005b610223600480360381019061021e919061185d565b610c7d565b6040516102309190611903565b60405180910390f35b610241610cd0565b60405161024e9190611844565b60405180910390f35b61025f610cf4565b60405161026c9190611991565b60405180910390f35b61027d610d1b565b60405161028b9291906119c5565b60405180910390f35b6102ae60048036038101906102a9919061178c565b610edd565b005b6102ca60048036038101906102c59190611957565b6112ad565b005b6102e660048036038101906102e1919061185d565b611331565b005b6102f061145a565b6102f86114a4565b5f821161033a576040517f08c379a000000000000000000000000000000000000000000000000000000000815260040161033190611a46565b60405180910390fd5b5f5f610344610d1b565b915091505f60066012836103589190611a91565b6103629190611ac5565b600a61036e9190611c28565b838661037a9190611c72565b6103849190611ce0565b9050838110156103c9576040517f08c379a00000000000000000000000000000000000000000000000000000000081526004016103c090611d5a565b60405180910390fd5b807f000000000000000000000000000000000000000000000000000000000000000073ffffffffffffffffffffffffffffffffffffffff166370a08231306040518263ffffffff1660e01b81526004016104239190611991565b602060405180830381865afa15801561043e573d5f5f3e3d5ffd5b505050506040513d601f19601f820116820180604052508101906104629190611d8c565b10156104a3576040517f08c379a000000000000000000000000000000000000000000000000000000000815260040161049a90611e01565b60405180910390fd5b7f000000000000000000000000000000000000000000000000000000000000000073ffffffffffffffffffffffffffffffffffffffff166323b872dd3330886040518463ffffffff1660e01b815260040161050093929190611e1f565b6020604051808303815f875af115801561051c573d5f5f3e3d5ffd5b505050506040513d601f19601f820116820180604052508101906105409190611e7e565b61057f576040517f08c379a000000000000000000000000000000000000000000000000000000000815260040161057690611ef3565b60405180910390fd5b7f000000000000000000000000000000000000000000000000000000000000000073ffffffffffffffffffffffffffffffffffffffff1663a9059cbb33836040518363ffffffff1660e01b81526004016105da929190611f11565b6020604051808303815f875af11580156105f6573d5f5f3e3d5ffd5b505050506040513d601f19601f8201168201806040525081019061061a9190611e7e565b610659576040517f08c379a000000000000000000000000000000000000000000000000000000000815260040161065090611f82565b60405180910390fd5b3373ffffffffffffffffffffffffffffffffffffffff167ff26d1deb3a000c2bdf214b75e8c826f55c697da9c0487e22a21caa4a9c95492e86836040516106a1929190611fa0565b60405180910390a25050506106b46114f1565b5050565b7f000000000000000000000000000000000000000000000000000000000000000081565b6106e46114fa565b5f8111610726576040517f08c379a000000000000000000000000000000000000000000000000000000000815260040161071d90612011565b60405180910390fd5b7f000000000000000000000000000000000000000000000000000000000000000073ffffffffffffffffffffffffffffffffffffffff166323b872dd3330846040518463ffffffff1660e01b815260040161078393929190611e1f565b6020604051808303815f875af115801561079f573d5f5f3e3d5ffd5b505050506040513d601f19601f820116820180604052508101906107c39190611e7e565b610802576040517f08c379a00000000000000000000000000000000000000000000000000000000081526004016107f990612079565b60405180910390fd5b50565b61080d6114fa565b610815611581565b565b7f000000000000000000000000000000000000000000000000000000000000000081565b5f60015f9054906101000a900460ff16905090565b5f5f5f61085b610d1b565b9150915081600682601261086f9190611a91565b6108799190611ac5565b600a6108859190611c28565b856108909190611c72565b61089a9190611ce0565b92505050919050565b6108ab6114fa565b5f73ffffffffffffffffffffffffffffffffffffffff168173ffffffffffffffffffffffffffffffffffffffff1603610919576040517f08c379a0000000000000000000000000000000000000000000000000000000008152600401610910906120e1565b60405180910390fd5b5f7f000000000000000000000000000000000000000000000000000000000000000073ffffffffffffffffffffffffffffffffffffffff166370a08231306040518263ffffffff1660e01b81526004016109739190611991565b602060405180830381865afa15801561098e573d5f5f3e3d5ffd5b505050506040513d601f19601f820116820180604052508101906109b29190611d8c565b90505f7f000000000000000000000000000000000000000000000000000000000000000073ffffffffffffffffffffffffffffffffffffffff166370a08231306040518263ffffffff1660e01b8152600401610a0e9190611991565b602060405180830381865afa158015610a29573d5f5f3e3d5ffd5b505050506040513d601f19601f82011682018060405250810190610a4d9190611d8c565b90507f000000000000000000000000000000000000000000000000000000000000000073ffffffffffffffffffffffffffffffffffffffff1663a9059cbb84846040518363ffffffff1660e01b8152600401610aaa929190611f11565b6020604051808303815f875af1158015610ac6573d5f5f3e3d5ffd5b505050506040513d601f19601f82011682018060405250810190610aea9190611e7e565b610b29576040517f08c379a0000000000000000000000000000000000000000000000000000000008152600401610b2090612149565b60405180910390fd5b7f000000000000000000000000000000000000000000000000000000000000000073ffffffffffffffffffffffffffffffffffffffff1663a9059cbb84836040518363ffffffff1660e01b8152600401610b84929190611f11565b6020604051808303815f875af1158015610ba0573d5f5f3e3d5ffd5b505050506040513d601f19601f82011682018060405250810190610bc49190611e7e565b610c03576040517f08c379a0000000000000000000000000000000000000000000000000000000008152600401610bfa906121b1565b60405180910390fd5b8273ffffffffffffffffffffffffffffffffffffffff167fbb757047c2b5f3974fe26b7c10f732e7bce710b0952a71082702781e62ae05958383604051610c4b929190611fa0565b60405180910390a2505050565b610c606114fa565b610c695f6115e2565b565b610c736114fa565b610c7b6116a4565b565b5f5f5f610c88610d1b565b915091506006601282610c9b9190611a91565b610ca59190611ac5565b600a610cb19190611c28565b8285610cbd9190611c72565b610cc79190611ce0565b92505050919050565b7f000000000000000000000000000000000000000000000000000000000000000081565b5f60018054906101000a900473ffffffffffffffffffffffffffffffffffffffff16905090565b5f5f5f5f7f000000000000000000000000000000000000000000000000000000000000000073ffffffffffffffffffffffffffffffffffffffff1663feaf968c6040518163ffffffff1660e01b815260040160a060405180830381865afa158015610d88573d5f5f3e3d5ffd5b505050506040513d601f19601f82011682018060405250810190610dac9190612241565b509350509250505f8213610df5576040517f08c379a0000000000000000000000000000000000000000000000000000000008152600401610dec90612302565b60405180910390fd5b610e1042610e039190612320565b811015610e45576040517f08c379a0000000000000000000000000000000000000000000000000000000008152600401610e3c9061239d565b60405180910390fd5b8193507f000000000000000000000000000000000000000000000000000000000000000073ffffffffffffffffffffffffffffffffffffffff1663313ce5676040518163ffffffff1660e01b8152600401602060405180830381865afa158015610eb1573d5f5f3e3d5ffd5b505050506040513d601f19601f82011682018060405250810190610ed591906123e5565b925050509091565b610ee561145a565b610eed6114a4565b5f8211610f2f576040517f08c379a0000000000000000000000000000000000000000000000000000000008152600401610f2690611a46565b60405180910390fd5b5f5f610f39610d1b565b915091505f826006836012610f4e9190611a91565b610f589190611ac5565b600a610f649190611c28565b86610f6f9190611c72565b610f799190611ce0565b905083811015610fbe576040517f08c379a0000000000000000000000000000000000000000000000000000000008152600401610fb590611d5a565b60405180910390fd5b807f000000000000000000000000000000000000000000000000000000000000000073ffffffffffffffffffffffffffffffffffffffff166370a08231306040518263ffffffff1660e01b81526004016110189190611991565b602060405180830381865afa158015611033573d5f5f3e3d5ffd5b505050506040513d601f19601f820116820180604052508101906110579190611d8c565b1015611098576040517f08c379a000000000000000000000000000000000000000000000000000000000815260040161108f9061245a565b60405180910390fd5b7f000000000000000000000000000000000000000000000000000000000000000073ffffffffffffffffffffffffffffffffffffffff166323b872dd3330886040518463ffffffff1660e01b81526004016110f593929190611e1f565b6020604051808303815f875af1158015611111573d5f5f3e3d5ffd5b505050506040513d601f19601f820116820180604052508101906111359190611e7e565b611174576040517f08c379a000000000000000000000000000000000000000000000000000000000815260040161116b90611f82565b60405180910390fd5b7f000000000000000000000000000000000000000000000000000000000000000073ffffffffffffffffffffffffffffffffffffffff1663a9059cbb33836040518363ffffffff1660e01b81526004016111cf929190611f11565b6020604051808303815f875af11580156111eb573d5f5f3e3d5ffd5b505050506040513d601f19601f8201168201806040525081019061120f9190611e7e565b61124e576040517f08c379a000000000000000000000000000000000000000000000000000000000815260040161124590611ef3565b60405180910390fd5b3373ffffffffffffffffffffffffffffffffffffffff167fb93052fcfbb4398d57b82aa4a6026424c21d0594a56e4d2d50a69921a613ef668683604051611296929190611fa0565b60405180910390a25050506112a96114f1565b5050565b6112b56114fa565b5f73ffffffffffffffffffffffffffffffffffffffff168173ffffffffffffffffffffffffffffffffffffffff1603611325575f6040517f1e4fbdf700000000000000000000000000000000000000000000000000000000815260040161131c9190611991565b60405180910390fd5b61132e816115e2565b50565b6113396114fa565b5f811161137b576040517f08c379a000000000000000000000000000000000000000000000000000000000815260040161137290612011565b60405180910390fd5b7f000000000000000000000000000000000000000000000000000000000000000073ffffffffffffffffffffffffffffffffffffffff166323b872dd3330846040518463ffffffff1660e01b81526004016113d893929190611e1f565b6020604051808303815f875af11580156113f4573d5f5f3e3d5ffd5b505050506040513d601f19601f820116820180604052508101906114189190611e7e565b611457576040517f08c379a000000000000000000000000000000000000000000000000000000000815260040161144e906124c2565b60405180910390fd5b50565b61146261083b565b156114a2576040517f08c379a00000000000000000000000000000000000000000000000000000000081526004016114999061252a565b60405180910390fd5b565b60025f54036114e8576040517f08c379a00000000000000000000000000000000000000000000000000000000081526004016114df90612592565b60405180910390fd5b60025f81905550565b60015f81905550565b611502611705565b73ffffffffffffffffffffffffffffffffffffffff16611520610cf4565b73ffffffffffffffffffffffffffffffffffffffff161461157f57611543611705565b6040517f118cdaa70000000000000000000000000000000000000000000000000000000081526004016115769190611991565b60405180910390fd5b565b61158961170c565b5f60015f6101000a81548160ff0219169083151502179055507f5db9ee0a495bf2e6ff9c91a7834c1ba4fdd244a5e8aa4e537bd38aeae4b073aa6115cb611705565b6040516115d89190611991565b60405180910390a1565b5f60018054906101000a900473ffffffffffffffffffffffffffffffffffffffff169050816001806101000a81548173ffffffffffffffffffffffffffffffffffffffff021916908373ffffffffffffffffffffffffffffffffffffffff1602179055508173ffffffffffffffffffffffffffffffffffffffff168173ffffffffffffffffffffffffffffffffffffffff167f8be0079c531659141344cd1fd0a4f28419497f9722a3daafe3b4186f6b6457e060405160405180910390a35050565b6116ac61145a565b6001805f6101000a81548160ff0219169083151502179055507f62e78cea01bee320cd4e420270b5ea74000d11b0c9f74754ebdbfc544b05a2586116ee611705565b6040516116fb9190611991565b60405180910390a1565b5f33905090565b61171461083b565b611753576040517f08c379a000000000000000000000000000000000000000000000000000000000815260040161174a906125fa565b60405180910390fd5b565b5f5ffd5b5f819050919050565b61176b81611759565b8114611775575f5ffd5b50565b5f8135905061178681611762565b92915050565b5f5f604083850312156117a2576117a1611755565b5b5f6117af85828601611778565b92505060206117c085828601611778565b9150509250929050565b5f73ffffffffffffffffffffffffffffffffffffffff82169050919050565b5f819050919050565b5f61180c611807611802846117ca565b6117e9565b6117ca565b9050919050565b5f61181d826117f2565b9050919050565b5f61182e82611813565b9050919050565b61183e81611824565b82525050565b5f6020820190506118575f830184611835565b92915050565b5f6020828403121561187257611871611755565b5b5f61187f84828501611778565b91505092915050565b5f61189282611813565b9050919050565b6118a281611888565b82525050565b5f6020820190506118bb5f830184611899565b92915050565b5f8115159050919050565b6118d5816118c1565b82525050565b5f6020820190506118ee5f8301846118cc565b92915050565b6118fd81611759565b82525050565b5f6020820190506119165f8301846118f4565b92915050565b5f611926826117ca565b9050919050565b6119368161191c565b8114611940575f5ffd5b50565b5f813590506119518161192d565b92915050565b5f6020828403121561196c5761196b611755565b5b5f61197984828501611943565b91505092915050565b61198b8161191c565b82525050565b5f6020820190506119a45f830184611982565b92915050565b5f60ff82169050919050565b6119bf816119aa565b82525050565b5f6040820190506119d85f8301856118f4565b6119e560208301846119b6565b9392505050565b5f82825260208201905092915050565b7f5a65726f20696e707574000000000000000000000000000000000000000000005f82015250565b5f611a30600a836119ec565b9150611a3b826119fc565b602082019050919050565b5f6020820190508181035f830152611a5d81611a24565b9050919050565b7f4e487b71000000000000000000000000000000000000000000000000000000005f52601160045260245ffd5b5f611a9b826119aa565b9150611aa6836119aa565b9250828201905060ff811115611abf57611abe611a64565b5b92915050565b5f611acf826119aa565b9150611ada836119aa565b9250828203905060ff811115611af357611af2611a64565b5b92915050565b5f8160011c9050919050565b5f5f8291508390505b6001851115611b4e57808604811115611b2a57611b29611a64565b5b6001851615611b395780820291505b8081029050611b4785611af9565b9450611b0e565b94509492505050565b5f82611b665760019050611c21565b81611b73575f9050611c21565b8160018114611b895760028114611b9357611bc2565b6001915050611c21565b60ff841115611ba557611ba4611a64565b5b8360020a915084821115611bbc57611bbb611a64565b5b50611c21565b5060208310610133831016604e8410600b8410161715611bf75782820a905083811115611bf257611bf1611a64565b5b611c21565b611c048484846001611b05565b92509050818404811115611c1b57611c1a611a64565b5b81810290505b9392505050565b5f611c3282611759565b9150611c3d836119aa565b9250611c6a7fffffffffffffffffffffffffffffffffffffffffffffffffffffffffffffffff8484611b57565b905092915050565b5f611c7c82611759565b9150611c8783611759565b9250828202611c9581611759565b91508282048414831517611cac57611cab611a64565b5b5092915050565b7f4e487b71000000000000000000000000000000000000000000000000000000005f52601260045260245ffd5b5f611cea82611759565b9150611cf583611759565b925082611d0557611d04611cb3565b5b828204905092915050565b7f536c6970706167653a20746f6f206c6974746c65206f757470757400000000005f82015250565b5f611d44601b836119ec565b9150611d4f82611d10565b602082019050919050565b5f6020820190508181035f830152611d7181611d38565b9050919050565b5f81519050611d8681611762565b92915050565b5f60208284031215611da157611da0611755565b5b5f611dae84828501611d78565b91505092915050565b7f496e73756666696369656e7420424255534420696e20636f6e747261637400005f82015250565b5f611deb601e836119ec565b9150611df682611db7565b602082019050919050565b5f6020820190508181035f830152611e1881611ddf565b9050919050565b5f606082019050611e325f830186611982565b611e3f6020830185611982565b611e4c60408301846118f4565b949350505050565b611e5d816118c1565b8114611e67575f5ffd5b50565b5f81519050611e7881611e54565b92915050565b5f60208284031215611e9357611e92611755565b5b5f611ea084828501611e6a565b91505092915050565b7f4242455448207472616e73666572206661696c000000000000000000000000005f82015250565b5f611edd6013836119ec565b9150611ee882611ea9565b602082019050919050565b5f6020820190508181035f830152611f0a81611ed1565b9050919050565b5f604082019050611f245f830185611982565b611f3160208301846118f4565b9392505050565b7f4242555344207472616e73666572206661696c000000000000000000000000005f82015250565b5f611f6c6013836119ec565b9150611f7782611f38565b602082019050919050565b5f6020820190508181035f830152611f9981611f60565b9050919050565b5f604082019050611fb35f8301856118f4565b611fc060208301846118f4565b9392505050565b7f5a65726f206465706f73697400000000000000000000000000000000000000005f82015250565b5f611ffb600c836119ec565b915061200682611fc7565b602082019050919050565b5f6020820190508181035f83015261202881611fef565b9050919050565b7f4465706f736974204242455448206661696c00000000000000000000000000005f82015250565b5f6120636012836119ec565b915061206e8261202f565b602082019050919050565b5f6020820190508181035f83015261209081612057565b9050919050565b7f5a65726f206164647265737300000000000000000000000000000000000000005f82015250565b5f6120cb600c836119ec565b91506120d682612097565b602082019050919050565b5f6020820190508181035f8301526120f8816120bf565b9050919050565b7f5769746864726177204242455448206661696c000000000000000000000000005f82015250565b5f6121336013836119ec565b915061213e826120ff565b602082019050919050565b5f6020820190508181035f83015261216081612127565b9050919050565b7f5769746864726177204242555344206661696c000000000000000000000000005f82015250565b5f61219b6013836119ec565b91506121a682612167565b602082019050919050565b5f6020820190508181035f8301526121c88161218f565b9050919050565b5f69ffffffffffffffffffff82169050919050565b6121ed816121cf565b81146121f7575f5ffd5b50565b5f81519050612208816121e4565b92915050565b5f819050919050565b6122208161220e565b811461222a575f5ffd5b50565b5f8151905061223b81612217565b92915050565b5f5f5f5f5f60a0868803121561225a57612259611755565b5b5f612267888289016121fa565b95505060206122788882890161222d565b945050604061228988828901611d78565b935050606061229a88828901611d78565b92505060806122ab888289016121fa565b9150509295509295909350565b7f496e76616c6964207072696365000000000000000000000000000000000000005f82015250565b5f6122ec600d836119ec565b91506122f7826122b8565b602082019050919050565b5f6020820190508181035f830152612319816122e0565b9050919050565b5f61232a82611759565b915061233583611759565b925082820390508181111561234d5761234c611a64565b5b92915050565b7f5374616c652070726963650000000000000000000000000000000000000000005f82015250565b5f612387600b836119ec565b915061239282612353565b602082019050919050565b5f6020820190508181035f8301526123b48161237b565b9050919050565b6123c4816119aa565b81146123ce575f5ffd5b50565b5f815190506123df816123bb565b92915050565b5f602082840312156123fa576123f9611755565b5b5f612407848285016123d1565b91505092915050565b7f496e73756666696369656e7420424245544820696e20636f6e747261637400005f82015250565b5f612444601e836119ec565b915061244f82612410565b602082019050919050565b5f6020820190508181035f83015261247181612438565b9050919050565b7f4465706f736974204242555344206661696c00000000000000000000000000005f82015250565b5f6124ac6012836119ec565b91506124b782612478565b602082019050919050565b5f6020820190508181035f8301526124d9816124a0565b9050919050565b7f5061757361626c653a20706175736564000000000000000000000000000000005f82015250565b5f6125146010836119ec565b915061251f826124e0565b602082019050919050565b5f6020820190508181035f83015261254181612508565b9050919050565b7f5265656e7472616e637947756172643a207265656e7472616e742063616c6c005f82015250565b5f61257c601f836119ec565b915061258782612548565b602082019050919050565b5f6020820190508181035f8301526125a981612570565b9050919050565b7f5061757361626c653a206e6f74207061757365640000000000000000000000005f82015250565b5f6125e46014836119ec565b91506125ef826125b0565b602082019050919050565b5f6020820190508181035f830152612611816125d8565b905091905056fea2646970667358221220d88a63bd5b460a8b19c64106e4da15c9ec26e8fa6a8975766c67e715cf954e3264736f6c634300081e0033",
					"opcodes": "PUSH1 0xE0 PUSH1 0x40 MSTORE CALLVALUE DUP1 ISZERO PUSH2 0xF JUMPI PUSH0 PUSH0 REVERT JUMPDEST POP PUSH1 0x40 MLOAD PUSH2 0x2C7A CODESIZE SUB DUP1 PUSH2 0x2C7A DUP4 CODECOPY DUP2 DUP2 ADD PUSH1 0x40 MSTORE DUP2 ADD SWAP1 PUSH2 0x31 SWAP2 SWAP1 PUSH2 0x3E0 JUMP JUMPDEST CALLER PUSH1 0x1 PUSH0 DUP2 SWAP1 SSTORE POP PUSH0 PUSH1 0x1 PUSH0 PUSH2 0x100 EXP DUP2 SLOAD DUP2 PUSH1 0xFF MUL NOT AND SWAP1 DUP4 ISZERO ISZERO MUL OR SWAP1 SSTORE POP PUSH0 PUSH20 0xFFFFFFFFFFFFFFFFFFFFFFFFFFFFFFFFFFFFFFFF AND DUP2 PUSH20 0xFFFFFFFFFFFFFFFFFFFFFFFFFFFFFFFFFFFFFFFF AND SUB PUSH2 0xC2 JUMPI PUSH0 PUSH1 0x40 MLOAD PUSH32 0x1E4FBDF700000000000000000000000000000000000000000000000000000000 DUP2 MSTORE PUSH1 0x4 ADD PUSH2 0xB9 SWAP2 SWAP1 PUSH2 0x43F JUMP JUMPDEST PUSH1 0x40 MLOAD DUP1 SWAP2 SUB SWAP1 REVERT JUMPDEST PUSH2 0xD1 DUP2 PUSH2 0x2C0 PUSH1 0x20 SHL PUSH1 0x20 SHR JUMP JUMPDEST POP PUSH0 PUSH20 0xFFFFFFFFFFFFFFFFFFFFFFFFFFFFFFFFFFFFFFFF AND DUP4 PUSH20 0xFFFFFFFFFFFFFFFFFFFFFFFFFFFFFFFFFFFFFFFF AND SUB PUSH2 0x140 JUMPI PUSH1 0x40 MLOAD PUSH32 0x8C379A000000000000000000000000000000000000000000000000000000000 DUP2 MSTORE PUSH1 0x4 ADD PUSH2 0x137 SWAP1 PUSH2 0x4B2 JUMP JUMPDEST PUSH1 0x40 MLOAD DUP1 SWAP2 SUB SWAP1 REVERT JUMPDEST PUSH0 PUSH20 0xFFFFFFFFFFFFFFFFFFFFFFFFFFFFFFFFFFFFFFFF AND DUP3 PUSH20 0xFFFFFFFFFFFFFFFFFFFFFFFFFFFFFFFFFFFFFFFF AND SUB PUSH2 0x1AE JUMPI PUSH1 0x40 MLOAD PUSH32 0x8C379A000000000000000000000000000000000000000000000000000000000 DUP2 MSTORE PUSH1 0x4 ADD PUSH2 0x1A5 SWAP1 PUSH2 0x51A JUMP JUMPDEST PUSH1 0x40 MLOAD DUP1 SWAP2 SUB SWAP1 REVERT JUMPDEST PUSH0 PUSH20 0xFFFFFFFFFFFFFFFFFFFFFFFFFFFFFFFFFFFFFFFF AND DUP2 PUSH20 0xFFFFFFFFFFFFFFFFFFFFFFFFFFFFFFFFFFFFFFFF AND SUB PUSH2 0x21C JUMPI PUSH1 0x40 MLOAD PUSH32 0x8C379A000000000000000000000000000000000000000000000000000000000 DUP2 MSTORE PUSH1 0x4 ADD PUSH2 0x213 SWAP1 PUSH2 0x582 JUMP JUMPDEST PUSH1 0x40 MLOAD DUP1 SWAP2 SUB SWAP1 REVERT JUMPDEST DUP3 PUSH20 0xFFFFFFFFFFFFFFFFFFFFFFFFFFFFFFFFFFFFFFFF AND PUSH1 0x80 DUP2 PUSH20 0xFFFFFFFFFFFFFFFFFFFFFFFFFFFFFFFFFFFFFFFF AND DUP2 MSTORE POP POP DUP2 PUSH20 0xFFFFFFFFFFFFFFFFFFFFFFFFFFFFFFFFFFFFFFFF AND PUSH1 0xA0 DUP2 PUSH20 0xFFFFFFFFFFFFFFFFFFFFFFFFFFFFFFFFFFFFFFFF AND DUP2 MSTORE POP POP DUP1 PUSH20 0xFFFFFFFFFFFFFFFFFFFFFFFFFFFFFFFFFFFFFFFF AND PUSH1 0xC0 DUP2 PUSH20 0xFFFFFFFFFFFFFFFFFFFFFFFFFFFFFFFFFFFFFFFF AND DUP2 MSTORE POP POP POP POP POP PUSH2 0x5A0 JUMP JUMPDEST PUSH0 PUSH1 0x1 DUP1 SLOAD SWAP1 PUSH2 0x100 EXP SWAP1 DIV PUSH20 0xFFFFFFFFFFFFFFFFFFFFFFFFFFFFFFFFFFFFFFFF AND SWAP1 POP DUP2 PUSH1 0x1 DUP1 PUSH2 0x100 EXP DUP2 SLOAD DUP2 PUSH20 0xFFFFFFFFFFFFFFFFFFFFFFFFFFFFFFFFFFFFFFFF MUL NOT AND SWAP1 DUP4 PUSH20 0xFFFFFFFFFFFFFFFFFFFFFFFFFFFFFFFFFFFFFFFF AND MUL OR SWAP1 SSTORE POP DUP2 PUSH20 0xFFFFFFFFFFFFFFFFFFFFFFFFFFFFFFFFFFFFFFFF AND DUP2 PUSH20 0xFFFFFFFFFFFFFFFFFFFFFFFFFFFFFFFFFFFFFFFF AND PUSH32 0x8BE0079C531659141344CD1FD0A4F28419497F9722A3DAAFE3B4186F6B6457E0 PUSH1 0x40 MLOAD PUSH1 0x40 MLOAD DUP1 SWAP2 SUB SWAP1 LOG3 POP POP JUMP JUMPDEST PUSH0 PUSH0 REVERT JUMPDEST PUSH0 PUSH20 0xFFFFFFFFFFFFFFFFFFFFFFFFFFFFFFFFFFFFFFFF DUP3 AND SWAP1 POP SWAP2 SWAP1 POP JUMP JUMPDEST PUSH0 PUSH2 0x3AF DUP3 PUSH2 0x386 JUMP JUMPDEST SWAP1 POP SWAP2 SWAP1 POP JUMP JUMPDEST PUSH2 0x3BF DUP2 PUSH2 0x3A5 JUMP JUMPDEST DUP2 EQ PUSH2 0x3C9 JUMPI PUSH0 PUSH0 REVERT JUMPDEST POP JUMP JUMPDEST PUSH0 DUP2 MLOAD SWAP1 POP PUSH2 0x3DA DUP2 PUSH2 0x3B6 JUMP JUMPDEST SWAP3 SWAP2 POP POP JUMP JUMPDEST PUSH0 PUSH0 PUSH0 PUSH1 0x60 DUP5 DUP7 SUB SLT ISZERO PUSH2 0x3F7 JUMPI PUSH2 0x3F6 PUSH2 0x382 JUMP JUMPDEST JUMPDEST PUSH0 PUSH2 0x404 DUP7 DUP3 DUP8 ADD PUSH2 0x3CC JUMP JUMPDEST SWAP4 POP POP PUSH1 0x20 PUSH2 0x415 DUP7 DUP3 DUP8 ADD PUSH2 0x3CC JUMP JUMPDEST SWAP3 POP POP PUSH1 0x40 PUSH2 0x426 DUP7 DUP3 DUP8 ADD PUSH2 0x3CC JUMP JUMPDEST SWAP2 POP POP SWAP3 POP SWAP3 POP SWAP3 JUMP JUMPDEST PUSH2 0x439 DUP2 PUSH2 0x3A5 JUMP JUMPDEST DUP3 MSTORE POP POP JUMP JUMPDEST PUSH0 PUSH1 0x20 DUP3 ADD SWAP1 POP PUSH2 0x452 PUSH0 DUP4 ADD DUP5 PUSH2 0x430 JUMP JUMPDEST SWAP3 SWAP2 POP POP JUMP JUMPDEST PUSH0 DUP3 DUP3 MSTORE PUSH1 0x20 DUP3 ADD SWAP1 POP SWAP3 SWAP2 POP POP JUMP JUMPDEST PUSH32 0x496E76616C696420424255534420616464726573730000000000000000000000 PUSH0 DUP3 ADD MSTORE POP JUMP JUMPDEST PUSH0 PUSH2 0x49C PUSH1 0x15 DUP4 PUSH2 0x458 JUMP JUMPDEST SWAP2 POP PUSH2 0x4A7 DUP3 PUSH2 0x468 JUMP JUMPDEST PUSH1 0x20 DUP3 ADD SWAP1 POP SWAP2 SWAP1 POP JUMP JUMPDEST PUSH0 PUSH1 0x20 DUP3 ADD SWAP1 POP DUP2 DUP2 SUB PUSH0 DUP4 ADD MSTORE PUSH2 0x4C9 DUP2 PUSH2 0x490 JUMP JUMPDEST SWAP1 POP SWAP2 SWAP1 POP JUMP JUMPDEST PUSH32 0x496E76616C696420424245544820616464726573730000000000000000000000 PUSH0 DUP3 ADD MSTORE POP JUMP JUMPDEST PUSH0 PUSH2 0x504 PUSH1 0x15 DUP4 PUSH2 0x458 JUMP JUMPDEST SWAP2 POP PUSH2 0x50F DUP3 PUSH2 0x4D0 JUMP JUMPDEST PUSH1 0x20 DUP3 ADD SWAP1 POP SWAP2 SWAP1 POP JUMP JUMPDEST PUSH0 PUSH1 0x20 DUP3 ADD SWAP1 POP DUP2 DUP2 SUB PUSH0 DUP4 ADD MSTORE PUSH2 0x531 DUP2 PUSH2 0x4F8 JUMP JUMPDEST SWAP1 POP SWAP2 SWAP1 POP JUMP JUMPDEST PUSH32 0x496E76616C696420707269636520666565642061646472657373000000000000 PUSH0 DUP3 ADD MSTORE POP JUMP JUMPDEST PUSH0 PUSH2 0x56C PUSH1 0x1A DUP4 PUSH2 0x458 JUMP JUMPDEST SWAP2 POP PUSH2 0x577 DUP3 PUSH2 0x538 JUMP JUMPDEST PUSH1 0x20 DUP3 ADD SWAP1 POP SWAP2 SWAP1 POP JUMP JUMPDEST PUSH0 PUSH1 0x20 DUP3 ADD SWAP1 POP DUP2 DUP2 SUB PUSH0 DUP4 ADD MSTORE PUSH2 0x599 DUP2 PUSH2 0x560 JUMP JUMPDEST SWAP1 POP SWAP2 SWAP1 POP JUMP JUMPDEST PUSH1 0x80 MLOAD PUSH1 0xA0 MLOAD PUSH1 0xC0 MLOAD PUSH2 0x264E PUSH2 0x62C PUSH0 CODECOPY PUSH0 DUP2 DUP2 PUSH2 0x819 ADD MSTORE DUP2 DUP2 PUSH2 0xD21 ADD MSTORE PUSH2 0xE4A ADD MSTORE PUSH0 DUP2 DUP2 PUSH2 0x4A5 ADD MSTORE DUP2 DUP2 PUSH2 0x728 ADD MSTORE DUP2 DUP2 PUSH2 0x91C ADD MSTORE DUP2 DUP2 PUSH2 0xA51 ADD MSTORE DUP2 DUP2 PUSH2 0xCD2 ADD MSTORE DUP2 DUP2 PUSH2 0xFC1 ADD MSTORE PUSH2 0x1176 ADD MSTORE PUSH0 DUP2 DUP2 PUSH2 0x3CC ADD MSTORE DUP2 DUP2 PUSH2 0x581 ADD MSTORE DUP2 DUP2 PUSH2 0x6BA ADD MSTORE DUP2 DUP2 PUSH2 0x9B7 ADD MSTORE DUP2 DUP2 PUSH2 0xB2B ADD MSTORE DUP2 DUP2 PUSH2 0x109A ADD MSTORE PUSH2 0x137D ADD MSTORE PUSH2 0x264E PUSH0 RETURN INVALID PUSH1 0x80 PUSH1 0x40 MSTORE CALLVALUE DUP1 ISZERO PUSH2 0xF JUMPI PUSH0 PUSH0 REVERT JUMPDEST POP PUSH1 0x4 CALLDATASIZE LT PUSH2 0x109 JUMPI PUSH0 CALLDATALOAD PUSH1 0xE0 SHR DUP1 PUSH4 0x715018A6 GT PUSH2 0xA0 JUMPI DUP1 PUSH4 0x8DA5CB5B GT PUSH2 0x6F JUMPI DUP1 PUSH4 0x8DA5CB5B EQ PUSH2 0x257 JUMPI DUP1 PUSH4 0xA0A8045E EQ PUSH2 0x275 JUMPI DUP1 PUSH4 0xE89BB221 EQ PUSH2 0x294 JUMPI DUP1 PUSH4 0xF2FDE38B EQ PUSH2 0x2B0 JUMPI DUP1 PUSH4 0xF48F245A EQ PUSH2 0x2CC JUMPI PUSH2 0x109 JUMP JUMPDEST DUP1 PUSH4 0x715018A6 EQ PUSH2 0x1F5 JUMPI DUP1 PUSH4 0x8456CB59 EQ PUSH2 0x1FF JUMPI DUP1 PUSH4 0x8ABD6E15 EQ PUSH2 0x209 JUMPI DUP1 PUSH4 0x8AF86473 EQ PUSH2 0x239 JUMPI PUSH2 0x109 JUMP JUMPDEST DUP1 PUSH4 0x42F6FB29 GT PUSH2 0xDC JUMPI DUP1 PUSH4 0x42F6FB29 EQ PUSH2 0x16D JUMPI DUP1 PUSH4 0x5C975ABB EQ PUSH2 0x18B JUMPI DUP1 PUSH4 0x6DFF716B EQ PUSH2 0x1A9 JUMPI DUP1 PUSH4 0x6FF1C9BC EQ PUSH2 0x1D9 JUMPI PUSH2 0x109 JUMP JUMPDEST DUP1 PUSH4 0x1BBBFE81 EQ PUSH2 0x10D JUMPI DUP1 PUSH4 0x28B39BCF EQ PUSH2 0x129 JUMPI DUP1 PUSH4 0x29A87313 EQ PUSH2 0x147 JUMPI DUP1 PUSH4 0x3F4BA83A EQ PUSH2 0x163 JUMPI JUMPDEST PUSH0 PUSH0 REVERT JUMPDEST PUSH2 0x127 PUSH1 0x4 DUP1 CALLDATASIZE SUB DUP2 ADD SWAP1 PUSH2 0x122 SWAP2 SWAP1 PUSH2 0x178C JUMP JUMPDEST PUSH2 0x2E8 JUMP JUMPDEST STOP JUMPDEST PUSH2 0x131 PUSH2 0x6B8 JUMP JUMPDEST PUSH1 0x40 MLOAD PUSH2 0x13E SWAP2 SWAP1 PUSH2 0x1844 JUMP JUMPDEST PUSH1 0x40 MLOAD DUP1 SWAP2 SUB SWAP1 RETURN JUMPDEST PUSH2 0x161 PUSH1 0x4 DUP1 CALLDATASIZE SUB DUP2 ADD SWAP1 PUSH2 0x15C SWAP2 SWAP1 PUSH2 0x185D JUMP JUMPDEST PUSH2 0x6DC JUMP JUMPDEST STOP JUMPDEST PUSH2 0x16B PUSH2 0x805 JUMP JUMPDEST STOP JUMPDEST PUSH2 0x175 PUSH2 0x817 JUMP JUMPDEST PUSH1 0x40 MLOAD PUSH2 0x182 SWAP2 SWAP1 PUSH2 0x18A8 JUMP JUMPDEST PUSH1 0x40 MLOAD DUP1 SWAP2 SUB SWAP1 RETURN JUMPDEST PUSH2 0x193 PUSH2 0x83B JUMP JUMPDEST PUSH1 0x40 MLOAD PUSH2 0x1A0 SWAP2 SWAP1 PUSH2 0x18DB JUMP JUMPDEST PUSH1 0x40 MLOAD DUP1 SWAP2 SUB SWAP1 RETURN JUMPDEST PUSH2 0x1C3 PUSH1 0x4 DUP1 CALLDATASIZE SUB DUP2 ADD SWAP1 PUSH2 0x1BE SWAP2 SWAP1 PUSH2 0x185D JUMP JUMPDEST PUSH2 0x850 JUMP JUMPDEST PUSH1 0x40 MLOAD PUSH2 0x1D0 SWAP2 SWAP1 PUSH2 0x1903 JUMP JUMPDEST PUSH1 0x40 MLOAD DUP1 SWAP2 SUB SWAP1 RETURN JUMPDEST PUSH2 0x1F3 PUSH1 0x4 DUP1 CALLDATASIZE SUB DUP2 ADD SWAP1 PUSH2 0x1EE SWAP2 SWAP1 PUSH2 0x1957 JUMP JUMPDEST PUSH2 0x8A3 JUMP JUMPDEST STOP JUMPDEST PUSH2 0x1FD PUSH2 0xC58 JUMP JUMPDEST STOP JUMPDEST PUSH2 0x207 PUSH2 0xC6B JUMP JUMPDEST STOP JUMPDEST PUSH2 0x223 PUSH1 0x4 DUP1 CALLDATASIZE SUB DUP2 ADD SWAP1 PUSH2 0x21E SWAP2 SWAP1 PUSH2 0x185D JUMP JUMPDEST PUSH2 0xC7D JUMP JUMPDEST PUSH1 0x40 MLOAD PUSH2 0x230 SWAP2 SWAP1 PUSH2 0x1903 JUMP JUMPDEST PUSH1 0x40 MLOAD DUP1 SWAP2 SUB SWAP1 RETURN JUMPDEST PUSH2 0x241 PUSH2 0xCD0 JUMP JUMPDEST PUSH1 0x40 MLOAD PUSH2 0x24E SWAP2 SWAP1 PUSH2 0x1844 JUMP JUMPDEST PUSH1 0x40 MLOAD DUP1 SWAP2 SUB SWAP1 RETURN JUMPDEST PUSH2 0x25F PUSH2 0xCF4 JUMP JUMPDEST PUSH1 0x40 MLOAD PUSH2 0x26C SWAP2 SWAP1 PUSH2 0x1991 JUMP JUMPDEST PUSH1 0x40 MLOAD DUP1 SWAP2 SUB SWAP1 RETURN JUMPDEST PUSH2 0x27D PUSH2 0xD1B JUMP JUMPDEST PUSH1 0x40 MLOAD PUSH2 0x28B SWAP3 SWAP2 SWAP1 PUSH2 0x19C5 JUMP JUMPDEST PUSH1 0x40 MLOAD DUP1 SWAP2 SUB SWAP1 RETURN JUMPDEST PUSH2 0x2AE PUSH1 0x4 DUP1 CALLDATASIZE SUB DUP2 ADD SWAP1 PUSH2 0x2A9 SWAP2 SWAP1 PUSH2 0x178C JUMP JUMPDEST PUSH2 0xEDD JUMP JUMPDEST STOP JUMPDEST PUSH2 0x2CA PUSH1 0x4 DUP1 CALLDATASIZE SUB DUP2 ADD SWAP1 PUSH2 0x2C5 SWAP2 SWAP1 PUSH2 0x1957 JUMP JUMPDEST PUSH2 0x12AD JUMP JUMPDEST STOP JUMPDEST PUSH2 0x2E6 PUSH1 0x4 DUP1 CALLDATASIZE SUB DUP2 ADD SWAP1 PUSH2 0x2E1 SWAP2 SWAP1 PUSH2 0x185D JUMP JUMPDEST PUSH2 0x1331 JUMP JUMPDEST STOP JUMPDEST PUSH2 0x2F0 PUSH2 0x145A JUMP JUMPDEST PUSH2 0x2F8 PUSH2 0x14A4 JUMP JUMPDEST PUSH0 DUP3 GT PUSH2 0x33A JUMPI PUSH1 0x40 MLOAD PUSH32 0x8C379A000000000000000000000000000000000000000000000000000000000 DUP2 MSTORE PUSH1 0x4 ADD PUSH2 0x331 SWAP1 PUSH2 0x1A46 JUMP JUMPDEST PUSH1 0x40 MLOAD DUP1 SWAP2 SUB SWAP1 REVERT JUMPDEST PUSH0 PUSH0 PUSH2 0x344 PUSH2 0xD1B JUMP JUMPDEST SWAP2 POP SWAP2 POP PUSH0 PUSH1 0x6 PUSH1 0x12 DUP4 PUSH2 0x358 SWAP2 SWAP1 PUSH2 0x1A91 JUMP JUMPDEST PUSH2 0x362 SWAP2 SWAP1 PUSH2 0x1AC5 JUMP JUMPDEST PUSH1 0xA PUSH2 0x36E SWAP2 SWAP1 PUSH2 0x1C28 JUMP JUMPDEST DUP4 DUP7 PUSH2 0x37A SWAP2 SWAP1 PUSH2 0x1C72 JUMP JUMPDEST PUSH2 0x384 SWAP2 SWAP1 PUSH2 0x1CE0 JUMP JUMPDEST SWAP1 POP DUP4 DUP2 LT ISZERO PUSH2 0x3C9 JUMPI PUSH1 0x40 MLOAD PUSH32 0x8C379A000000000000000000000000000000000000000000000000000000000 DUP2 MSTORE PUSH1 0x4 ADD PUSH2 0x3C0 SWAP1 PUSH2 0x1D5A JUMP JUMPDEST PUSH1 0x40 MLOAD DUP1 SWAP2 SUB SWAP1 REVERT JUMPDEST DUP1 PUSH32 0x0 PUSH20 0xFFFFFFFFFFFFFFFFFFFFFFFFFFFFFFFFFFFFFFFF AND PUSH4 0x70A08231 ADDRESS PUSH1 0x40 MLOAD DUP3 PUSH4 0xFFFFFFFF AND PUSH1 0xE0 SHL DUP2 MSTORE PUSH1 0x4 ADD PUSH2 0x423 SWAP2 SWAP1 PUSH2 0x1991 JUMP JUMPDEST PUSH1 0x20 PUSH1 0x40 MLOAD DUP1 DUP4 SUB DUP2 DUP7 GAS STATICCALL ISZERO DUP1 ISZERO PUSH2 0x43E JUMPI RETURNDATASIZE PUSH0 PUSH0 RETURNDATACOPY RETURNDATASIZE PUSH0 REVERT JUMPDEST POP POP POP POP PUSH1 0x40 MLOAD RETURNDATASIZE PUSH1 0x1F NOT PUSH1 0x1F DUP3 ADD AND DUP3 ADD DUP1 PUSH1 0x40 MSTORE POP DUP2 ADD SWAP1 PUSH2 0x462 SWAP2 SWAP1 PUSH2 0x1D8C JUMP JUMPDEST LT ISZERO PUSH2 0x4A3 JUMPI PUSH1 0x40 MLOAD PUSH32 0x8C379A000000000000000000000000000000000000000000000000000000000 DUP2 MSTORE PUSH1 0x4 ADD PUSH2 0x49A SWAP1 PUSH2 0x1E01 JUMP JUMPDEST PUSH1 0x40 MLOAD DUP1 SWAP2 SUB SWAP1 REVERT JUMPDEST PUSH32 0x0 PUSH20 0xFFFFFFFFFFFFFFFFFFFFFFFFFFFFFFFFFFFFFFFF AND PUSH4 0x23B872DD CALLER ADDRESS DUP9 PUSH1 0x40 MLOAD DUP5 PUSH4 0xFFFFFFFF AND PUSH1 0xE0 SHL DUP2 MSTORE PUSH1 0x4 ADD PUSH2 0x500 SWAP4 SWAP3 SWAP2 SWAP1 PUSH2 0x1E1F JUMP JUMPDEST PUSH1 0x20 PUSH1 0x40 MLOAD DUP1 DUP4 SUB DUP2 PUSH0 DUP8 GAS CALL ISZERO DUP1 ISZERO PUSH2 0x51C JUMPI RETURNDATASIZE PUSH0 PUSH0 RETURNDATACOPY RETURNDATASIZE PUSH0 REVERT JUMPDEST POP POP POP POP PUSH1 0x40 MLOAD RETURNDATASIZE PUSH1 0x1F NOT PUSH1 0x1F DUP3 ADD AND DUP3 ADD DUP1 PUSH1 0x40 MSTORE POP DUP2 ADD SWAP1 PUSH2 0x540 SWAP2 SWAP1 PUSH2 0x1E7E JUMP JUMPDEST PUSH2 0x57F JUMPI PUSH1 0x40 MLOAD PUSH32 0x8C379A000000000000000000000000000000000000000000000000000000000 DUP2 MSTORE PUSH1 0x4 ADD PUSH2 0x576 SWAP1 PUSH2 0x1EF3 JUMP JUMPDEST PUSH1 0x40 MLOAD DUP1 SWAP2 SUB SWAP1 REVERT JUMPDEST PUSH32 0x0 PUSH20 0xFFFFFFFFFFFFFFFFFFFFFFFFFFFFFFFFFFFFFFFF AND PUSH4 0xA9059CBB CALLER DUP4 PUSH1 0x40 MLOAD DUP4 PUSH4 0xFFFFFFFF AND PUSH1 0xE0 SHL DUP2 MSTORE PUSH1 0x4 ADD PUSH2 0x5DA SWAP3 SWAP2 SWAP1 PUSH2 0x1F11 JUMP JUMPDEST PUSH1 0x20 PUSH1 0x40 MLOAD DUP1 DUP4 SUB DUP2 PUSH0 DUP8 GAS CALL ISZERO DUP1 ISZERO PUSH2 0x5F6 JUMPI RETURNDATASIZE PUSH0 PUSH0 RETURNDATACOPY RETURNDATASIZE PUSH0 REVERT JUMPDEST POP POP POP POP PUSH1 0x40 MLOAD RETURNDATASIZE PUSH1 0x1F NOT PUSH1 0x1F DUP3 ADD AND DUP3 ADD DUP1 PUSH1 0x40 MSTORE POP DUP2 ADD SWAP1 PUSH2 0x61A SWAP2 SWAP1 PUSH2 0x1E7E JUMP JUMPDEST PUSH2 0x659 JUMPI PUSH1 0x40 MLOAD PUSH32 0x8C379A000000000000000000000000000000000000000000000000000000000 DUP2 MSTORE PUSH1 0x4 ADD PUSH2 0x650 SWAP1 PUSH2 0x1F82 JUMP JUMPDEST PUSH1 0x40 MLOAD DUP1 SWAP2 SUB SWAP1 REVERT JUMPDEST CALLER PUSH20 0xFFFFFFFFFFFFFFFFFFFFFFFFFFFFFFFFFFFFFFFF AND PUSH32 0xF26D1DEB3A000C2BDF214B75E8C826F55C697DA9C0487E22A21CAA4A9C95492E DUP7 DUP4 PUSH1 0x40 MLOAD PUSH2 0x6A1 SWAP3 SWAP2 SWAP1 PUSH2 0x1FA0 JUMP JUMPDEST PUSH1 0x40 MLOAD DUP1 SWAP2 SUB SWAP1 LOG2 POP POP POP PUSH2 0x6B4 PUSH2 0x14F1 JUMP JUMPDEST POP POP JUMP JUMPDEST PUSH32 0x0 DUP2 JUMP JUMPDEST PUSH2 0x6E4 PUSH2 0x14FA JUMP JUMPDEST PUSH0 DUP2 GT PUSH2 0x726 JUMPI PUSH1 0x40 MLOAD PUSH32 0x8C379A000000000000000000000000000000000000000000000000000000000 DUP2 MSTORE PUSH1 0x4 ADD PUSH2 0x71D SWAP1 PUSH2 0x2011 JUMP JUMPDEST PUSH1 0x40 MLOAD DUP1 SWAP2 SUB SWAP1 REVERT JUMPDEST PUSH32 0x0 PUSH20 0xFFFFFFFFFFFFFFFFFFFFFFFFFFFFFFFFFFFFFFFF AND PUSH4 0x23B872DD CALLER ADDRESS DUP5 PUSH1 0x40 MLOAD DUP5 PUSH4 0xFFFFFFFF AND PUSH1 0xE0 SHL DUP2 MSTORE PUSH1 0x4 ADD PUSH2 0x783 SWAP4 SWAP3 SWAP2 SWAP1 PUSH2 0x1E1F JUMP JUMPDEST PUSH1 0x20 PUSH1 0x40 MLOAD DUP1 DUP4 SUB DUP2 PUSH0 DUP8 GAS CALL ISZERO DUP1 ISZERO PUSH2 0x79F JUMPI RETURNDATASIZE PUSH0 PUSH0 RETURNDATACOPY RETURNDATASIZE PUSH0 REVERT JUMPDEST POP POP POP POP PUSH1 0x40 MLOAD RETURNDATASIZE PUSH1 0x1F NOT PUSH1 0x1F DUP3 ADD AND DUP3 ADD DUP1 PUSH1 0x40 MSTORE POP DUP2 ADD SWAP1 PUSH2 0x7C3 SWAP2 SWAP1 PUSH2 0x1E7E JUMP JUMPDEST PUSH2 0x802 JUMPI PUSH1 0x40 MLOAD PUSH32 0x8C379A000000000000000000000000000000000000000000000000000000000 DUP2 MSTORE PUSH1 0x4 ADD PUSH2 0x7F9 SWAP1 PUSH2 0x2079 JUMP JUMPDEST PUSH1 0x40 MLOAD DUP1 SWAP2 SUB SWAP1 REVERT JUMPDEST POP JUMP JUMPDEST PUSH2 0x80D PUSH2 0x14FA JUMP JUMPDEST PUSH2 0x815 PUSH2 0x1581 JUMP JUMPDEST JUMP JUMPDEST PUSH32 0x0 DUP2 JUMP JUMPDEST PUSH0 PUSH1 0x1 PUSH0 SWAP1 SLOAD SWAP1 PUSH2 0x100 EXP SWAP1 DIV PUSH1 0xFF AND SWAP1 POP SWAP1 JUMP JUMPDEST PUSH0 PUSH0 PUSH0 PUSH2 0x85B PUSH2 0xD1B JUMP JUMPDEST SWAP2 POP SWAP2 POP DUP2 PUSH1 0x6 DUP3 PUSH1 0x12 PUSH2 0x86F SWAP2 SWAP1 PUSH2 0x1A91 JUMP JUMPDEST PUSH2 0x879 SWAP2 SWAP1 PUSH2 0x1AC5 JUMP JUMPDEST PUSH1 0xA PUSH2 0x885 SWAP2 SWAP1 PUSH2 0x1C28 JUMP JUMPDEST DUP6 PUSH2 0x890 SWAP2 SWAP1 PUSH2 0x1C72 JUMP JUMPDEST PUSH2 0x89A SWAP2 SWAP1 PUSH2 0x1CE0 JUMP JUMPDEST SWAP3 POP POP POP SWAP2 SWAP1 POP JUMP JUMPDEST PUSH2 0x8AB PUSH2 0x14FA JUMP JUMPDEST PUSH0 PUSH20 0xFFFFFFFFFFFFFFFFFFFFFFFFFFFFFFFFFFFFFFFF AND DUP2 PUSH20 0xFFFFFFFFFFFFFFFFFFFFFFFFFFFFFFFFFFFFFFFF AND SUB PUSH2 0x919 JUMPI PUSH1 0x40 MLOAD PUSH32 0x8C379A000000000000000000000000000000000000000000000000000000000 DUP2 MSTORE PUSH1 0x4 ADD PUSH2 0x910 SWAP1 PUSH2 0x20E1 JUMP JUMPDEST PUSH1 0x40 MLOAD DUP1 SWAP2 SUB SWAP1 REVERT JUMPDEST PUSH0 PUSH32 0x0 PUSH20 0xFFFFFFFFFFFFFFFFFFFFFFFFFFFFFFFFFFFFFFFF AND PUSH4 0x70A08231 ADDRESS PUSH1 0x40 MLOAD DUP3 PUSH4 0xFFFFFFFF AND PUSH1 0xE0 SHL DUP2 MSTORE PUSH1 0x4 ADD PUSH2 0x973 SWAP2 SWAP1 PUSH2 0x1991 JUMP JUMPDEST PUSH1 0x20 PUSH1 0x40 MLOAD DUP1 DUP4 SUB DUP2 DUP7 GAS STATICCALL ISZERO DUP1 ISZERO PUSH2 0x98E JUMPI RETURNDATASIZE PUSH0 PUSH0 RETURNDATACOPY RETURNDATASIZE PUSH0 REVERT JUMPDEST POP POP POP POP PUSH1 0x40 MLOAD RETURNDATASIZE PUSH1 0x1F NOT PUSH1 0x1F DUP3 ADD AND DUP3 ADD DUP1 PUSH1 0x40 MSTORE POP DUP2 ADD SWAP1 PUSH2 0x9B2 SWAP2 SWAP1 PUSH2 0x1D8C JUMP JUMPDEST SWAP1 POP PUSH0 PUSH32 0x0 PUSH20 0xFFFFFFFFFFFFFFFFFFFFFFFFFFFFFFFFFFFFFFFF AND PUSH4 0x70A08231 ADDRESS PUSH1 0x40 MLOAD DUP3 PUSH4 0xFFFFFFFF AND PUSH1 0xE0 SHL DUP2 MSTORE PUSH1 0x4 ADD PUSH2 0xA0E SWAP2 SWAP1 PUSH2 0x1991 JUMP JUMPDEST PUSH1 0x20 PUSH1 0x40 MLOAD DUP1 DUP4 SUB DUP2 DUP7 GAS STATICCALL ISZERO DUP1 ISZERO PUSH2 0xA29 JUMPI RETURNDATASIZE PUSH0 PUSH0 RETURNDATACOPY RETURNDATASIZE PUSH0 REVERT JUMPDEST POP POP POP POP PUSH1 0x40 MLOAD RETURNDATASIZE PUSH1 0x1F NOT PUSH1 0x1F DUP3 ADD AND DUP3 ADD DUP1 PUSH1 0x40 MSTORE POP DUP2 ADD SWAP1 PUSH2 0xA4D SWAP2 SWAP1 PUSH2 0x1D8C JUMP JUMPDEST SWAP1 POP PUSH32 0x0 PUSH20 0xFFFFFFFFFFFFFFFFFFFFFFFFFFFFFFFFFFFFFFFF AND PUSH4 0xA9059CBB DUP5 DUP5 PUSH1 0x40 MLOAD DUP4 PUSH4 0xFFFFFFFF AND PUSH1 0xE0 SHL DUP2 MSTORE PUSH1 0x4 ADD PUSH2 0xAAA SWAP3 SWAP2 SWAP1 PUSH2 0x1F11 JUMP JUMPDEST PUSH1 0x20 PUSH1 0x40 MLOAD DUP1 DUP4 SUB DUP2 PUSH0 DUP8 GAS CALL ISZERO DUP1 ISZERO PUSH2 0xAC6 JUMPI RETURNDATASIZE PUSH0 PUSH0 RETURNDATACOPY RETURNDATASIZE PUSH0 REVERT JUMPDEST POP POP POP POP PUSH1 0x40 MLOAD RETURNDATASIZE PUSH1 0x1F NOT PUSH1 0x1F DUP3 ADD AND DUP3 ADD DUP1 PUSH1 0x40 MSTORE POP DUP2 ADD SWAP1 PUSH2 0xAEA SWAP2 SWAP1 PUSH2 0x1E7E JUMP JUMPDEST PUSH2 0xB29 JUMPI PUSH1 0x40 MLOAD PUSH32 0x8C379A000000000000000000000000000000000000000000000000000000000 DUP2 MSTORE PUSH1 0x4 ADD PUSH2 0xB20 SWAP1 PUSH2 0x2149 JUMP JUMPDEST PUSH1 0x40 MLOAD DUP1 SWAP2 SUB SWAP1 REVERT JUMPDEST PUSH32 0x0 PUSH20 0xFFFFFFFFFFFFFFFFFFFFFFFFFFFFFFFFFFFFFFFF AND PUSH4 0xA9059CBB DUP5 DUP4 PUSH1 0x40 MLOAD DUP4 PUSH4 0xFFFFFFFF AND PUSH1 0xE0 SHL DUP2 MSTORE PUSH1 0x4 ADD PUSH2 0xB84 SWAP3 SWAP2 SWAP1 PUSH2 0x1F11 JUMP JUMPDEST PUSH1 0x20 PUSH1 0x40 MLOAD DUP1 DUP4 SUB DUP2 PUSH0 DUP8 GAS CALL ISZERO DUP1 ISZERO PUSH2 0xBA0 JUMPI RETURNDATASIZE PUSH0 PUSH0 RETURNDATACOPY RETURNDATASIZE PUSH0 REVERT JUMPDEST POP POP POP POP PUSH1 0x40 MLOAD RETURNDATASIZE PUSH1 0x1F NOT PUSH1 0x1F DUP3 ADD AND DUP3 ADD DUP1 PUSH1 0x40 MSTORE POP DUP2 ADD SWAP1 PUSH2 0xBC4 SWAP2 SWAP1 PUSH2 0x1E7E JUMP JUMPDEST PUSH2 0xC03 JUMPI PUSH1 0x40 MLOAD PUSH32 0x8C379A000000000000000000000000000000000000000000000000000000000 DUP2 MSTORE PUSH1 0x4 ADD PUSH2 0xBFA SWAP1 PUSH2 0x21B1 JUMP JUMPDEST PUSH1 0x40 MLOAD DUP1 SWAP2 SUB SWAP1 REVERT JUMPDEST DUP3 PUSH20 0xFFFFFFFFFFFFFFFFFFFFFFFFFFFFFFFFFFFFFFFF AND PUSH32 0xBB757047C2B5F3974FE26B7C10F732E7BCE710B0952A71082702781E62AE0595 DUP4 DUP4 PUSH1 0x40 MLOAD PUSH2 0xC4B SWAP3 SWAP2 SWAP1 PUSH2 0x1FA0 JUMP JUMPDEST PUSH1 0x40 MLOAD DUP1 SWAP2 SUB SWAP1 LOG2 POP POP POP JUMP JUMPDEST PUSH2 0xC60 PUSH2 0x14FA JUMP JUMPDEST PUSH2 0xC69 PUSH0 PUSH2 0x15E2 JUMP JUMPDEST JUMP JUMPDEST PUSH2 0xC73 PUSH2 0x14FA JUMP JUMPDEST PUSH2 0xC7B PUSH2 0x16A4 JUMP JUMPDEST JUMP JUMPDEST PUSH0 PUSH0 PUSH0 PUSH2 0xC88 PUSH2 0xD1B JUMP JUMPDEST SWAP2 POP SWAP2 POP PUSH1 0x6 PUSH1 0x12 DUP3 PUSH2 0xC9B SWAP2 SWAP1 PUSH2 0x1A91 JUMP JUMPDEST PUSH2 0xCA5 SWAP2 SWAP1 PUSH2 0x1AC5 JUMP JUMPDEST PUSH1 0xA PUSH2 0xCB1 SWAP2 SWAP1 PUSH2 0x1C28 JUMP JUMPDEST DUP3 DUP6 PUSH2 0xCBD SWAP2 SWAP1 PUSH2 0x1C72 JUMP JUMPDEST PUSH2 0xCC7 SWAP2 SWAP1 PUSH2 0x1CE0 JUMP JUMPDEST SWAP3 POP POP POP SWAP2 SWAP1 POP JUMP JUMPDEST PUSH32 0x0 DUP2 JUMP JUMPDEST PUSH0 PUSH1 0x1 DUP1 SLOAD SWAP1 PUSH2 0x100 EXP SWAP1 DIV PUSH20 0xFFFFFFFFFFFFFFFFFFFFFFFFFFFFFFFFFFFFFFFF AND SWAP1 POP SWAP1 JUMP JUMPDEST PUSH0 PUSH0 PUSH0 PUSH0 PUSH32 0x0 PUSH20 0xFFFFFFFFFFFFFFFFFFFFFFFFFFFFFFFFFFFFFFFF AND PUSH4 0xFEAF968C PUSH1 0x40 MLOAD DUP2 PUSH4 0xFFFFFFFF AND PUSH1 0xE0 SHL DUP2 MSTORE PUSH1 0x4 ADD PUSH1 0xA0 PUSH1 0x40 MLOAD DUP1 DUP4 SUB DUP2 DUP7 GAS STATICCALL ISZERO DUP1 ISZERO PUSH2 0xD88 JUMPI RETURNDATASIZE PUSH0 PUSH0 RETURNDATACOPY RETURNDATASIZE PUSH0 REVERT JUMPDEST POP POP POP POP PUSH1 0x40 MLOAD RETURNDATASIZE PUSH1 0x1F NOT PUSH1 0x1F DUP3 ADD AND DUP3 ADD DUP1 PUSH1 0x40 MSTORE POP DUP2 ADD SWAP1 PUSH2 0xDAC SWAP2 SWAP1 PUSH2 0x2241 JUMP JUMPDEST POP SWAP4 POP POP SWAP3 POP POP PUSH0 DUP3 SGT PUSH2 0xDF5 JUMPI PUSH1 0x40 MLOAD PUSH32 0x8C379A000000000000000000000000000000000000000000000000000000000 DUP2 MSTORE PUSH1 0x4 ADD PUSH2 0xDEC SWAP1 PUSH2 0x2302 JUMP JUMPDEST PUSH1 0x40 MLOAD DUP1 SWAP2 SUB SWAP1 REVERT JUMPDEST PUSH2 0xE10 TIMESTAMP PUSH2 0xE03 SWAP2 SWAP1 PUSH2 0x2320 JUMP JUMPDEST DUP2 LT ISZERO PUSH2 0xE45 JUMPI PUSH1 0x40 MLOAD PUSH32 0x8C379A000000000000000000000000000000000000000000000000000000000 DUP2 MSTORE PUSH1 0x4 ADD PUSH2 0xE3C SWAP1 PUSH2 0x239D JUMP JUMPDEST PUSH1 0x40 MLOAD DUP1 SWAP2 SUB SWAP1 REVERT JUMPDEST DUP2 SWAP4 POP PUSH32 0x0 PUSH20 0xFFFFFFFFFFFFFFFFFFFFFFFFFFFFFFFFFFFFFFFF AND PUSH4 0x313CE567 PUSH1 0x40 MLOAD DUP2 PUSH4 0xFFFFFFFF AND PUSH1 0xE0 SHL DUP2 MSTORE PUSH1 0x4 ADD PUSH1 0x20 PUSH1 0x40 MLOAD DUP1 DUP4 SUB DUP2 DUP7 GAS STATICCALL ISZERO DUP1 ISZERO PUSH2 0xEB1 JUMPI RETURNDATASIZE PUSH0 PUSH0 RETURNDATACOPY RETURNDATASIZE PUSH0 REVERT JUMPDEST POP POP POP POP PUSH1 0x40 MLOAD RETURNDATASIZE PUSH1 0x1F NOT PUSH1 0x1F DUP3 ADD AND DUP3 ADD DUP1 PUSH1 0x40 MSTORE POP DUP2 ADD SWAP1 PUSH2 0xED5 SWAP2 SWAP1 PUSH2 0x23E5 JUMP JUMPDEST SWAP3 POP POP POP SWAP1 SWAP2 JUMP JUMPDEST PUSH2 0xEE5 PUSH2 0x145A JUMP JUMPDEST PUSH2 0xEED PUSH2 0x14A4 JUMP JUMPDEST PUSH0 DUP3 GT PUSH2 0xF2F JUMPI PUSH1 0x40 MLOAD PUSH32 0x8C379A000000000000000000000000000000000000000000000000000000000 DUP2 MSTORE PUSH1 0x4 ADD PUSH2 0xF26 SWAP1 PUSH2 0x1A46 JUMP JUMPDEST PUSH1 0x40 MLOAD DUP1 SWAP2 SUB SWAP1 REVERT JUMPDEST PUSH0 PUSH0 PUSH2 0xF39 PUSH2 0xD1B JUMP JUMPDEST SWAP2 POP SWAP2 POP PUSH0 DUP3 PUSH1 0x6 DUP4 PUSH1 0x12 PUSH2 0xF4E SWAP2 SWAP1 PUSH2 0x1A91 JUMP JUMPDEST PUSH2 0xF58 SWAP2 SWAP1 PUSH2 0x1AC5 JUMP JUMPDEST PUSH1 0xA PUSH2 0xF64 SWAP2 SWAP1 PUSH2 0x1C28 JUMP JUMPDEST DUP7 PUSH2 0xF6F SWAP2 SWAP1 PUSH2 0x1C72 JUMP JUMPDEST PUSH2 0xF79 SWAP2 SWAP1 PUSH2 0x1CE0 JUMP JUMPDEST SWAP1 POP DUP4 DUP2 LT ISZERO PUSH2 0xFBE JUMPI PUSH1 0x40 MLOAD PUSH32 0x8C379A000000000000000000000000000000000000000000000000000000000 DUP2 MSTORE PUSH1 0x4 ADD PUSH2 0xFB5 SWAP1 PUSH2 0x1D5A JUMP JUMPDEST PUSH1 0x40 MLOAD DUP1 SWAP2 SUB SWAP1 REVERT JUMPDEST DUP1 PUSH32 0x0 PUSH20 0xFFFFFFFFFFFFFFFFFFFFFFFFFFFFFFFFFFFFFFFF AND PUSH4 0x70A08231 ADDRESS PUSH1 0x40 MLOAD DUP3 PUSH4 0xFFFFFFFF AND PUSH1 0xE0 SHL DUP2 MSTORE PUSH1 0x4 ADD PUSH2 0x1018 SWAP2 SWAP1 PUSH2 0x1991 JUMP JUMPDEST PUSH1 0x20 PUSH1 0x40 MLOAD DUP1 DUP4 SUB DUP2 DUP7 GAS STATICCALL ISZERO DUP1 ISZERO PUSH2 0x1033 JUMPI RETURNDATASIZE PUSH0 PUSH0 RETURNDATACOPY RETURNDATASIZE PUSH0 REVERT JUMPDEST POP POP POP POP PUSH1 0x40 MLOAD RETURNDATASIZE PUSH1 0x1F NOT PUSH1 0x1F DUP3 ADD AND DUP3 ADD DUP1 PUSH1 0x40 MSTORE POP DUP2 ADD SWAP1 PUSH2 0x1057 SWAP2 SWAP1 PUSH2 0x1D8C JUMP JUMPDEST LT ISZERO PUSH2 0x1098 JUMPI PUSH1 0x40 MLOAD PUSH32 0x8C379A000000000000000000000000000000000000000000000000000000000 DUP2 MSTORE PUSH1 0x4 ADD PUSH2 0x108F SWAP1 PUSH2 0x245A JUMP JUMPDEST PUSH1 0x40 MLOAD DUP1 SWAP2 SUB SWAP1 REVERT JUMPDEST PUSH32 0x0 PUSH20 0xFFFFFFFFFFFFFFFFFFFFFFFFFFFFFFFFFFFFFFFF AND PUSH4 0x23B872DD CALLER ADDRESS DUP9 PUSH1 0x40 MLOAD DUP5 PUSH4 0xFFFFFFFF AND PUSH1 0xE0 SHL DUP2 MSTORE PUSH1 0x4 ADD PUSH2 0x10F5 SWAP4 SWAP3 SWAP2 SWAP1 PUSH2 0x1E1F JUMP JUMPDEST PUSH1 0x20 PUSH1 0x40 MLOAD DUP1 DUP4 SUB DUP2 PUSH0 DUP8 GAS CALL ISZERO DUP1 ISZERO PUSH2 0x1111 JUMPI RETURNDATASIZE PUSH0 PUSH0 RETURNDATACOPY RETURNDATASIZE PUSH0 REVERT JUMPDEST POP POP POP POP PUSH1 0x40 MLOAD RETURNDATASIZE PUSH1 0x1F NOT PUSH1 0x1F DUP3 ADD AND DUP3 ADD DUP1 PUSH1 0x40 MSTORE POP DUP2 ADD SWAP1 PUSH2 0x1135 SWAP2 SWAP1 PUSH2 0x1E7E JUMP JUMPDEST PUSH2 0x1174 JUMPI PUSH1 0x40 MLOAD PUSH32 0x8C379A000000000000000000000000000000000000000000000000000000000 DUP2 MSTORE PUSH1 0x4 ADD PUSH2 0x116B SWAP1 PUSH2 0x1F82 JUMP JUMPDEST PUSH1 0x40 MLOAD DUP1 SWAP2 SUB SWAP1 REVERT JUMPDEST PUSH32 0x0 PUSH20 0xFFFFFFFFFFFFFFFFFFFFFFFFFFFFFFFFFFFFFFFF AND PUSH4 0xA9059CBB CALLER DUP4 PUSH1 0x40 MLOAD DUP4 PUSH4 0xFFFFFFFF AND PUSH1 0xE0 SHL DUP2 MSTORE PUSH1 0x4 ADD PUSH2 0x11CF SWAP3 SWAP2 SWAP1 PUSH2 0x1F11 JUMP JUMPDEST PUSH1 0x20 PUSH1 0x40 MLOAD DUP1 DUP4 SUB DUP2 PUSH0 DUP8 GAS CALL ISZERO DUP1 ISZERO PUSH2 0x11EB JUMPI RETURNDATASIZE PUSH0 PUSH0 RETURNDATACOPY RETURNDATASIZE PUSH0 REVERT JUMPDEST POP POP POP POP PUSH1 0x40 MLOAD RETURNDATASIZE PUSH1 0x1F NOT PUSH1 0x1F DUP3 ADD AND DUP3 ADD DUP1 PUSH1 0x40 MSTORE POP DUP2 ADD SWAP1 PUSH2 0x120F SWAP2 SWAP1 PUSH2 0x1E7E JUMP JUMPDEST PUSH2 0x124E JUMPI PUSH1 0x40 MLOAD PUSH32 0x8C379A000000000000000000000000000000000000000000000000000000000 DUP2 MSTORE PUSH1 0x4 ADD PUSH2 0x1245 SWAP1 PUSH2 0x1EF3 JUMP JUMPDEST PUSH1 0x40 MLOAD DUP1 SWAP2 SUB SWAP1 REVERT JUMPDEST CALLER PUSH20 0xFFFFFFFFFFFFFFFFFFFFFFFFFFFFFFFFFFFFFFFF AND PUSH32 0xB93052FCFBB4398D57B82AA4A6026424C21D0594A56E4D2D50A69921A613EF66 DUP7 DUP4 PUSH1 0x40 MLOAD PUSH2 0x1296 SWAP3 SWAP2 SWAP1 PUSH2 0x1FA0 JUMP JUMPDEST PUSH1 0x40 MLOAD DUP1 SWAP2 SUB SWAP1 LOG2 POP POP POP PUSH2 0x12A9 PUSH2 0x14F1 JUMP JUMPDEST POP POP JUMP JUMPDEST PUSH2 0x12B5 PUSH2 0x14FA JUMP JUMPDEST PUSH0 PUSH20 0xFFFFFFFFFFFFFFFFFFFFFFFFFFFFFFFFFFFFFFFF AND DUP2 PUSH20 0xFFFFFFFFFFFFFFFFFFFFFFFFFFFFFFFFFFFFFFFF AND SUB PUSH2 0x1325 JUMPI PUSH0 PUSH1 0x40 MLOAD PUSH32 0x1E4FBDF700000000000000000000000000000000000000000000000000000000 DUP2 MSTORE PUSH1 0x4 ADD PUSH2 0x131C SWAP2 SWAP1 PUSH2 0x1991 JUMP JUMPDEST PUSH1 0x40 MLOAD DUP1 SWAP2 SUB SWAP1 REVERT JUMPDEST PUSH2 0x132E DUP2 PUSH2 0x15E2 JUMP JUMPDEST POP JUMP JUMPDEST PUSH2 0x1339 PUSH2 0x14FA JUMP JUMPDEST PUSH0 DUP2 GT PUSH2 0x137B JUMPI PUSH1 0x40 MLOAD PUSH32 0x8C379A000000000000000000000000000000000000000000000000000000000 DUP2 MSTORE PUSH1 0x4 ADD PUSH2 0x1372 SWAP1 PUSH2 0x2011 JUMP JUMPDEST PUSH1 0x40 MLOAD DUP1 SWAP2 SUB SWAP1 REVERT JUMPDEST PUSH32 0x0 PUSH20 0xFFFFFFFFFFFFFFFFFFFFFFFFFFFFFFFFFFFFFFFF AND PUSH4 0x23B872DD CALLER ADDRESS DUP5 PUSH1 0x40 MLOAD DUP5 PUSH4 0xFFFFFFFF AND PUSH1 0xE0 SHL DUP2 MSTORE PUSH1 0x4 ADD PUSH2 0x13D8 SWAP4 SWAP3 SWAP2 SWAP1 PUSH2 0x1E1F JUMP JUMPDEST PUSH1 0x20 PUSH1 0x40 MLOAD DUP1 DUP4 SUB DUP2 PUSH0 DUP8 GAS CALL ISZERO DUP1 ISZERO PUSH2 0x13F4 JUMPI RETURNDATASIZE PUSH0 PUSH0 RETURNDATACOPY RETURNDATASIZE PUSH0 REVERT JUMPDEST POP POP POP POP PUSH1 0x40 MLOAD RETURNDATASIZE PUSH1 0x1F NOT PUSH1 0x1F DUP3 ADD AND DUP3 ADD DUP1 PUSH1 0x40 MSTORE POP DUP2 ADD SWAP1 PUSH2 0x1418 SWAP2 SWAP1 PUSH2 0x1E7E JUMP JUMPDEST PUSH2 0x1457 JUMPI PUSH1 0x40 MLOAD PUSH32 0x8C379A000000000000000000000000000000000000000000000000000000000 DUP2 MSTORE PUSH1 0x4 ADD PUSH2 0x144E SWAP1 PUSH2 0x24C2 JUMP JUMPDEST PUSH1 0x40 MLOAD DUP1 SWAP2 SUB SWAP1 REVERT JUMPDEST POP JUMP JUMPDEST PUSH2 0x1462 PUSH2 0x83B JUMP JUMPDEST ISZERO PUSH2 0x14A2 JUMPI PUSH1 0x40 MLOAD PUSH32 0x8C379A000000000000000000000000000000000000000000000000000000000 DUP2 MSTORE PUSH1 0x4 ADD PUSH2 0x1499 SWAP1 PUSH2 0x252A JUMP JUMPDEST PUSH1 0x40 MLOAD DUP1 SWAP2 SUB SWAP1 REVERT JUMPDEST JUMP JUMPDEST PUSH1 0x2 PUSH0 SLOAD SUB PUSH2 0x14E8 JUMPI PUSH1 0x40 MLOAD PUSH32 0x8C379A000000000000000000000000000000000000000000000000000000000 DUP2 MSTORE PUSH1 0x4 ADD PUSH2 0x14DF SWAP1 PUSH2 0x2592 JUMP JUMPDEST PUSH1 0x40 MLOAD DUP1 SWAP2 SUB SWAP1 REVERT JUMPDEST PUSH1 0x2 PUSH0 DUP2 SWAP1 SSTORE POP JUMP JUMPDEST PUSH1 0x1 PUSH0 DUP2 SWAP1 SSTORE POP JUMP JUMPDEST PUSH2 0x1502 PUSH2 0x1705 JUMP JUMPDEST PUSH20 0xFFFFFFFFFFFFFFFFFFFFFFFFFFFFFFFFFFFFFFFF AND PUSH2 0x1520 PUSH2 0xCF4 JUMP JUMPDEST PUSH20 0xFFFFFFFFFFFFFFFFFFFFFFFFFFFFFFFFFFFFFFFF AND EQ PUSH2 0x157F JUMPI PUSH2 0x1543 PUSH2 0x1705 JUMP JUMPDEST PUSH1 0x40 MLOAD PUSH32 0x118CDAA700000000000000000000000000000000000000000000000000000000 DUP2 MSTORE PUSH1 0x4 ADD PUSH2 0x1576 SWAP2 SWAP1 PUSH2 0x1991 JUMP JUMPDEST PUSH1 0x40 MLOAD DUP1 SWAP2 SUB SWAP1 REVERT JUMPDEST JUMP JUMPDEST PUSH2 0x1589 PUSH2 0x170C JUMP JUMPDEST PUSH0 PUSH1 0x1 PUSH0 PUSH2 0x100 EXP DUP2 SLOAD DUP2 PUSH1 0xFF MUL NOT AND SWAP1 DUP4 ISZERO ISZERO MUL OR SWAP1 SSTORE POP PUSH32 0x5DB9EE0A495BF2E6FF9C91A7834C1BA4FDD244A5E8AA4E537BD38AEAE4B073AA PUSH2 0x15CB PUSH2 0x1705 JUMP JUMPDEST PUSH1 0x40 MLOAD PUSH2 0x15D8 SWAP2 SWAP1 PUSH2 0x1991 JUMP JUMPDEST PUSH1 0x40 MLOAD DUP1 SWAP2 SUB SWAP1 LOG1 JUMP JUMPDEST PUSH0 PUSH1 0x1 DUP1 SLOAD SWAP1 PUSH2 0x100 EXP SWAP1 DIV PUSH20 0xFFFFFFFFFFFFFFFFFFFFFFFFFFFFFFFFFFFFFFFF AND SWAP1 POP DUP2 PUSH1 0x1 DUP1 PUSH2 0x100 EXP DUP2 SLOAD DUP2 PUSH20 0xFFFFFFFFFFFFFFFFFFFFFFFFFFFFFFFFFFFFFFFF MUL NOT AND SWAP1 DUP4 PUSH20 0xFFFFFFFFFFFFFFFFFFFFFFFFFFFFFFFFFFFFFFFF AND MUL OR SWAP1 SSTORE POP DUP2 PUSH20 0xFFFFFFFFFFFFFFFFFFFFFFFFFFFFFFFFFFFFFFFF AND DUP2 PUSH20 0xFFFFFFFFFFFFFFFFFFFFFFFFFFFFFFFFFFFFFFFF AND PUSH32 0x8BE0079C531659141344CD1FD0A4F28419497F9722A3DAAFE3B4186F6B6457E0 PUSH1 0x40 MLOAD PUSH1 0x40 MLOAD DUP1 SWAP2 SUB SWAP1 LOG3 POP POP JUMP JUMPDEST PUSH2 0x16AC PUSH2 0x145A JUMP JUMPDEST PUSH1 0x1 DUP1 PUSH0 PUSH2 0x100 EXP DUP2 SLOAD DUP2 PUSH1 0xFF MUL NOT AND SWAP1 DUP4 ISZERO ISZERO MUL OR SWAP1 SSTORE POP PUSH32 0x62E78CEA01BEE320CD4E420270B5EA74000D11B0C9F74754EBDBFC544B05A258 PUSH2 0x16EE PUSH2 0x1705 JUMP JUMPDEST PUSH1 0x40 MLOAD PUSH2 0x16FB SWAP2 SWAP1 PUSH2 0x1991 JUMP JUMPDEST PUSH1 0x40 MLOAD DUP1 SWAP2 SUB SWAP1 LOG1 JUMP JUMPDEST PUSH0 CALLER SWAP1 POP SWAP1 JUMP JUMPDEST PUSH2 0x1714 PUSH2 0x83B JUMP JUMPDEST PUSH2 0x1753 JUMPI PUSH1 0x40 MLOAD PUSH32 0x8C379A000000000000000000000000000000000000000000000000000000000 DUP2 MSTORE PUSH1 0x4 ADD PUSH2 0x174A SWAP1 PUSH2 0x25FA JUMP JUMPDEST PUSH1 0x40 MLOAD DUP1 SWAP2 SUB SWAP1 REVERT JUMPDEST JUMP JUMPDEST PUSH0 PUSH0 REVERT JUMPDEST PUSH0 DUP2 SWAP1 POP SWAP2 SWAP1 POP JUMP JUMPDEST PUSH2 0x176B DUP2 PUSH2 0x1759 JUMP JUMPDEST DUP2 EQ PUSH2 0x1775 JUMPI PUSH0 PUSH0 REVERT JUMPDEST POP JUMP JUMPDEST PUSH0 DUP2 CALLDATALOAD SWAP1 POP PUSH2 0x1786 DUP2 PUSH2 0x1762 JUMP JUMPDEST SWAP3 SWAP2 POP POP JUMP JUMPDEST PUSH0 PUSH0 PUSH1 0x40 DUP4 DUP6 SUB SLT ISZERO PUSH2 0x17A2 JUMPI PUSH2 0x17A1 PUSH2 0x1755 JUMP JUMPDEST JUMPDEST PUSH0 PUSH2 0x17AF DUP6 DUP3 DUP7 ADD PUSH2 0x1778 JUMP JUMPDEST SWAP3 POP POP PUSH1 0x20 PUSH2 0x17C0 DUP6 DUP3 DUP7 ADD PUSH2 0x1778 JUMP JUMPDEST SWAP2 POP POP SWAP3 POP SWAP3 SWAP1 POP JUMP JUMPDEST PUSH0 PUSH20 0xFFFFFFFFFFFFFFFFFFFFFFFFFFFFFFFFFFFFFFFF DUP3 AND SWAP1 POP SWAP2 SWAP1 POP JUMP JUMPDEST PUSH0 DUP2 SWAP1 POP SWAP2 SWAP1 POP JUMP JUMPDEST PUSH0 PUSH2 0x180C PUSH2 0x1807 PUSH2 0x1802 DUP5 PUSH2 0x17CA JUMP JUMPDEST PUSH2 0x17E9 JUMP JUMPDEST PUSH2 0x17CA JUMP JUMPDEST SWAP1 POP SWAP2 SWAP1 POP JUMP JUMPDEST PUSH0 PUSH2 0x181D DUP3 PUSH2 0x17F2 JUMP JUMPDEST SWAP1 POP SWAP2 SWAP1 POP JUMP JUMPDEST PUSH0 PUSH2 0x182E DUP3 PUSH2 0x1813 JUMP JUMPDEST SWAP1 POP SWAP2 SWAP1 POP JUMP JUMPDEST PUSH2 0x183E DUP2 PUSH2 0x1824 JUMP JUMPDEST DUP3 MSTORE POP POP JUMP JUMPDEST PUSH0 PUSH1 0x20 DUP3 ADD SWAP1 POP PUSH2 0x1857 PUSH0 DUP4 ADD DUP5 PUSH2 0x1835 JUMP JUMPDEST SWAP3 SWAP2 POP POP JUMP JUMPDEST PUSH0 PUSH1 0x20 DUP3 DUP5 SUB SLT ISZERO PUSH2 0x1872 JUMPI PUSH2 0x1871 PUSH2 0x1755 JUMP JUMPDEST JUMPDEST PUSH0 PUSH2 0x187F DUP5 DUP3 DUP6 ADD PUSH2 0x1778 JUMP JUMPDEST SWAP2 POP POP SWAP3 SWAP2 POP POP JUMP JUMPDEST PUSH0 PUSH2 0x1892 DUP3 PUSH2 0x1813 JUMP JUMPDEST SWAP1 POP SWAP2 SWAP1 POP JUMP JUMPDEST PUSH2 0x18A2 DUP2 PUSH2 0x1888 JUMP JUMPDEST DUP3 MSTORE POP POP JUMP JUMPDEST PUSH0 PUSH1 0x20 DUP3 ADD SWAP1 POP PUSH2 0x18BB PUSH0 DUP4 ADD DUP5 PUSH2 0x1899 JUMP JUMPDEST SWAP3 SWAP2 POP POP JUMP JUMPDEST PUSH0 DUP2 ISZERO ISZERO SWAP1 POP SWAP2 SWAP1 POP JUMP JUMPDEST PUSH2 0x18D5 DUP2 PUSH2 0x18C1 JUMP JUMPDEST DUP3 MSTORE POP POP JUMP JUMPDEST PUSH0 PUSH1 0x20 DUP3 ADD SWAP1 POP PUSH2 0x18EE PUSH0 DUP4 ADD DUP5 PUSH2 0x18CC JUMP JUMPDEST SWAP3 SWAP2 POP POP JUMP JUMPDEST PUSH2 0x18FD DUP2 PUSH2 0x1759 JUMP JUMPDEST DUP3 MSTORE POP POP JUMP JUMPDEST PUSH0 PUSH1 0x20 DUP3 ADD SWAP1 POP PUSH2 0x1916 PUSH0 DUP4 ADD DUP5 PUSH2 0x18F4 JUMP JUMPDEST SWAP3 SWAP2 POP POP JUMP JUMPDEST PUSH0 PUSH2 0x1926 DUP3 PUSH2 0x17CA JUMP JUMPDEST SWAP1 POP SWAP2 SWAP1 POP JUMP JUMPDEST PUSH2 0x1936 DUP2 PUSH2 0x191C JUMP JUMPDEST DUP2 EQ PUSH2 0x1940 JUMPI PUSH0 PUSH0 REVERT JUMPDEST POP JUMP JUMPDEST PUSH0 DUP2 CALLDATALOAD SWAP1 POP PUSH2 0x1951 DUP2 PUSH2 0x192D JUMP JUMPDEST SWAP3 SWAP2 POP POP JUMP JUMPDEST PUSH0 PUSH1 0x20 DUP3 DUP5 SUB SLT ISZERO PUSH2 0x196C JUMPI PUSH2 0x196B PUSH2 0x1755 JUMP JUMPDEST JUMPDEST PUSH0 PUSH2 0x1979 DUP5 DUP3 DUP6 ADD PUSH2 0x1943 JUMP JUMPDEST SWAP2 POP POP SWAP3 SWAP2 POP POP JUMP JUMPDEST PUSH2 0x198B DUP2 PUSH2 0x191C JUMP JUMPDEST DUP3 MSTORE POP POP JUMP JUMPDEST PUSH0 PUSH1 0x20 DUP3 ADD SWAP1 POP PUSH2 0x19A4 PUSH0 DUP4 ADD DUP5 PUSH2 0x1982 JUMP JUMPDEST SWAP3 SWAP2 POP POP JUMP JUMPDEST PUSH0 PUSH1 0xFF DUP3 AND SWAP1 POP SWAP2 SWAP1 POP JUMP JUMPDEST PUSH2 0x19BF DUP2 PUSH2 0x19AA JUMP JUMPDEST DUP3 MSTORE POP POP JUMP JUMPDEST PUSH0 PUSH1 0x40 DUP3 ADD SWAP1 POP PUSH2 0x19D8 PUSH0 DUP4 ADD DUP6 PUSH2 0x18F4 JUMP JUMPDEST PUSH2 0x19E5 PUSH1 0x20 DUP4 ADD DUP5 PUSH2 0x19B6 JUMP JUMPDEST SWAP4 SWAP3 POP POP POP JUMP JUMPDEST PUSH0 DUP3 DUP3 MSTORE PUSH1 0x20 DUP3 ADD SWAP1 POP SWAP3 SWAP2 POP POP JUMP JUMPDEST PUSH32 0x5A65726F20696E70757400000000000000000000000000000000000000000000 PUSH0 DUP3 ADD MSTORE POP JUMP JUMPDEST PUSH0 PUSH2 0x1A30 PUSH1 0xA DUP4 PUSH2 0x19EC JUMP JUMPDEST SWAP2 POP PUSH2 0x1A3B DUP3 PUSH2 0x19FC JUMP JUMPDEST PUSH1 0x20 DUP3 ADD SWAP1 POP SWAP2 SWAP1 POP JUMP JUMPDEST PUSH0 PUSH1 0x20 DUP3 ADD SWAP1 POP DUP2 DUP2 SUB PUSH0 DUP4 ADD MSTORE PUSH2 0x1A5D DUP2 PUSH2 0x1A24 JUMP JUMPDEST SWAP1 POP SWAP2 SWAP1 POP JUMP JUMPDEST PUSH32 0x4E487B7100000000000000000000000000000000000000000000000000000000 PUSH0 MSTORE PUSH1 0x11 PUSH1 0x4 MSTORE PUSH1 0x24 PUSH0 REVERT JUMPDEST PUSH0 PUSH2 0x1A9B DUP3 PUSH2 0x19AA JUMP JUMPDEST SWAP2 POP PUSH2 0x1AA6 DUP4 PUSH2 0x19AA JUMP JUMPDEST SWAP3 POP DUP3 DUP3 ADD SWAP1 POP PUSH1 0xFF DUP2 GT ISZERO PUSH2 0x1ABF JUMPI PUSH2 0x1ABE PUSH2 0x1A64 JUMP JUMPDEST JUMPDEST SWAP3 SWAP2 POP POP JUMP JUMPDEST PUSH0 PUSH2 0x1ACF DUP3 PUSH2 0x19AA JUMP JUMPDEST SWAP2 POP PUSH2 0x1ADA DUP4 PUSH2 0x19AA JUMP JUMPDEST SWAP3 POP DUP3 DUP3 SUB SWAP1 POP PUSH1 0xFF DUP2 GT ISZERO PUSH2 0x1AF3 JUMPI PUSH2 0x1AF2 PUSH2 0x1A64 JUMP JUMPDEST JUMPDEST SWAP3 SWAP2 POP POP JUMP JUMPDEST PUSH0 DUP2 PUSH1 0x1 SHR SWAP1 POP SWAP2 SWAP1 POP JUMP JUMPDEST PUSH0 PUSH0 DUP3 SWAP2 POP DUP4 SWAP1 POP JUMPDEST PUSH1 0x1 DUP6 GT ISZERO PUSH2 0x1B4E JUMPI DUP1 DUP7 DIV DUP2 GT ISZERO PUSH2 0x1B2A JUMPI PUSH2 0x1B29 PUSH2 0x1A64 JUMP JUMPDEST JUMPDEST PUSH1 0x1 DUP6 AND ISZERO PUSH2 0x1B39 JUMPI DUP1 DUP3 MUL SWAP2 POP JUMPDEST DUP1 DUP2 MUL SWAP1 POP PUSH2 0x1B47 DUP6 PUSH2 0x1AF9 JUMP JUMPDEST SWAP5 POP PUSH2 0x1B0E JUMP JUMPDEST SWAP5 POP SWAP5 SWAP3 POP POP POP JUMP JUMPDEST PUSH0 DUP3 PUSH2 0x1B66 JUMPI PUSH1 0x1 SWAP1 POP PUSH2 0x1C21 JUMP JUMPDEST DUP2 PUSH2 0x1B73 JUMPI PUSH0 SWAP1 POP PUSH2 0x1C21 JUMP JUMPDEST DUP2 PUSH1 0x1 DUP2 EQ PUSH2 0x1B89 JUMPI PUSH1 0x2 DUP2 EQ PUSH2 0x1B93 JUMPI PUSH2 0x1BC2 JUMP JUMPDEST PUSH1 0x1 SWAP2 POP POP PUSH2 0x1C21 JUMP JUMPDEST PUSH1 0xFF DUP5 GT ISZERO PUSH2 0x1BA5 JUMPI PUSH2 0x1BA4 PUSH2 0x1A64 JUMP JUMPDEST JUMPDEST DUP4 PUSH1 0x2 EXP SWAP2 POP DUP5 DUP3 GT ISZERO PUSH2 0x1BBC JUMPI PUSH2 0x1BBB PUSH2 0x1A64 JUMP JUMPDEST JUMPDEST POP PUSH2 0x1C21 JUMP JUMPDEST POP PUSH1 0x20 DUP4 LT PUSH2 0x133 DUP4 LT AND PUSH1 0x4E DUP5 LT PUSH1 0xB DUP5 LT AND OR ISZERO PUSH2 0x1BF7 JUMPI DUP3 DUP3 EXP SWAP1 POP DUP4 DUP2 GT ISZERO PUSH2 0x1BF2 JUMPI PUSH2 0x1BF1 PUSH2 0x1A64 JUMP JUMPDEST JUMPDEST PUSH2 0x1C21 JUMP JUMPDEST PUSH2 0x1C04 DUP5 DUP5 DUP5 PUSH1 0x1 PUSH2 0x1B05 JUMP JUMPDEST SWAP3 POP SWAP1 POP DUP2 DUP5 DIV DUP2 GT ISZERO PUSH2 0x1C1B JUMPI PUSH2 0x1C1A PUSH2 0x1A64 JUMP JUMPDEST JUMPDEST DUP2 DUP2 MUL SWAP1 POP JUMPDEST SWAP4 SWAP3 POP POP POP JUMP JUMPDEST PUSH0 PUSH2 0x1C32 DUP3 PUSH2 0x1759 JUMP JUMPDEST SWAP2 POP PUSH2 0x1C3D DUP4 PUSH2 0x19AA JUMP JUMPDEST SWAP3 POP PUSH2 0x1C6A PUSH32 0xFFFFFFFFFFFFFFFFFFFFFFFFFFFFFFFFFFFFFFFFFFFFFFFFFFFFFFFFFFFFFFFF DUP5 DUP5 PUSH2 0x1B57 JUMP JUMPDEST SWAP1 POP SWAP3 SWAP2 POP POP JUMP JUMPDEST PUSH0 PUSH2 0x1C7C DUP3 PUSH2 0x1759 JUMP JUMPDEST SWAP2 POP PUSH2 0x1C87 DUP4 PUSH2 0x1759 JUMP JUMPDEST SWAP3 POP DUP3 DUP3 MUL PUSH2 0x1C95 DUP2 PUSH2 0x1759 JUMP JUMPDEST SWAP2 POP DUP3 DUP3 DIV DUP5 EQ DUP4 ISZERO OR PUSH2 0x1CAC JUMPI PUSH2 0x1CAB PUSH2 0x1A64 JUMP JUMPDEST JUMPDEST POP SWAP3 SWAP2 POP POP JUMP JUMPDEST PUSH32 0x4E487B7100000000000000000000000000000000000000000000000000000000 PUSH0 MSTORE PUSH1 0x12 PUSH1 0x4 MSTORE PUSH1 0x24 PUSH0 REVERT JUMPDEST PUSH0 PUSH2 0x1CEA DUP3 PUSH2 0x1759 JUMP JUMPDEST SWAP2 POP PUSH2 0x1CF5 DUP4 PUSH2 0x1759 JUMP JUMPDEST SWAP3 POP DUP3 PUSH2 0x1D05 JUMPI PUSH2 0x1D04 PUSH2 0x1CB3 JUMP JUMPDEST JUMPDEST DUP3 DUP3 DIV SWAP1 POP SWAP3 SWAP2 POP POP JUMP JUMPDEST PUSH32 0x536C6970706167653A20746F6F206C6974746C65206F75747075740000000000 PUSH0 DUP3 ADD MSTORE POP JUMP JUMPDEST PUSH0 PUSH2 0x1D44 PUSH1 0x1B DUP4 PUSH2 0x19EC JUMP JUMPDEST SWAP2 POP PUSH2 0x1D4F DUP3 PUSH2 0x1D10 JUMP JUMPDEST PUSH1 0x20 DUP3 ADD SWAP1 POP SWAP2 SWAP1 POP JUMP JUMPDEST PUSH0 PUSH1 0x20 DUP3 ADD SWAP1 POP DUP2 DUP2 SUB PUSH0 DUP4 ADD MSTORE PUSH2 0x1D71 DUP2 PUSH2 0x1D38 JUMP JUMPDEST SWAP1 POP SWAP2 SWAP1 POP JUMP JUMPDEST PUSH0 DUP2 MLOAD SWAP1 POP PUSH2 0x1D86 DUP2 PUSH2 0x1762 JUMP JUMPDEST SWAP3 SWAP2 POP POP JUMP JUMPDEST PUSH0 PUSH1 0x20 DUP3 DUP5 SUB SLT ISZERO PUSH2 0x1DA1 JUMPI PUSH2 0x1DA0 PUSH2 0x1755 JUMP JUMPDEST JUMPDEST PUSH0 PUSH2 0x1DAE DUP5 DUP3 DUP6 ADD PUSH2 0x1D78 JUMP JUMPDEST SWAP2 POP POP SWAP3 SWAP2 POP POP JUMP JUMPDEST PUSH32 0x496E73756666696369656E7420424255534420696E20636F6E74726163740000 PUSH0 DUP3 ADD MSTORE POP JUMP JUMPDEST PUSH0 PUSH2 0x1DEB PUSH1 0x1E DUP4 PUSH2 0x19EC JUMP JUMPDEST SWAP2 POP PUSH2 0x1DF6 DUP3 PUSH2 0x1DB7 JUMP JUMPDEST PUSH1 0x20 DUP3 ADD SWAP1 POP SWAP2 SWAP1 POP JUMP JUMPDEST PUSH0 PUSH1 0x20 DUP3 ADD SWAP1 POP DUP2 DUP2 SUB PUSH0 DUP4 ADD MSTORE PUSH2 0x1E18 DUP2 PUSH2 0x1DDF JUMP JUMPDEST SWAP1 POP SWAP2 SWAP1 POP JUMP JUMPDEST PUSH0 PUSH1 0x60 DUP3 ADD SWAP1 POP PUSH2 0x1E32 PUSH0 DUP4 ADD DUP7 PUSH2 0x1982 JUMP JUMPDEST PUSH2 0x1E3F PUSH1 0x20 DUP4 ADD DUP6 PUSH2 0x1982 JUMP JUMPDEST PUSH2 0x1E4C PUSH1 0x40 DUP4 ADD DUP5 PUSH2 0x18F4 JUMP JUMPDEST SWAP5 SWAP4 POP POP POP POP JUMP JUMPDEST PUSH2 0x1E5D DUP2 PUSH2 0x18C1 JUMP JUMPDEST DUP2 EQ PUSH2 0x1E67 JUMPI PUSH0 PUSH0 REVERT JUMPDEST POP JUMP JUMPDEST PUSH0 DUP2 MLOAD SWAP1 POP PUSH2 0x1E78 DUP2 PUSH2 0x1E54 JUMP JUMPDEST SWAP3 SWAP2 POP POP JUMP JUMPDEST PUSH0 PUSH1 0x20 DUP3 DUP5 SUB SLT ISZERO PUSH2 0x1E93 JUMPI PUSH2 0x1E92 PUSH2 0x1755 JUMP JUMPDEST JUMPDEST PUSH0 PUSH2 0x1EA0 DUP5 DUP3 DUP6 ADD PUSH2 0x1E6A JUMP JUMPDEST SWAP2 POP POP SWAP3 SWAP2 POP POP JUMP JUMPDEST PUSH32 0x4242455448207472616E73666572206661696C00000000000000000000000000 PUSH0 DUP3 ADD MSTORE POP JUMP JUMPDEST PUSH0 PUSH2 0x1EDD PUSH1 0x13 DUP4 PUSH2 0x19EC JUMP JUMPDEST SWAP2 POP PUSH2 0x1EE8 DUP3 PUSH2 0x1EA9 JUMP JUMPDEST PUSH1 0x20 DUP3 ADD SWAP1 POP SWAP2 SWAP1 POP JUMP JUMPDEST PUSH0 PUSH1 0x20 DUP3 ADD SWAP1 POP DUP2 DUP2 SUB PUSH0 DUP4 ADD MSTORE PUSH2 0x1F0A DUP2 PUSH2 0x1ED1 JUMP JUMPDEST SWAP1 POP SWAP2 SWAP1 POP JUMP JUMPDEST PUSH0 PUSH1 0x40 DUP3 ADD SWAP1 POP PUSH2 0x1F24 PUSH0 DUP4 ADD DUP6 PUSH2 0x1982 JUMP JUMPDEST PUSH2 0x1F31 PUSH1 0x20 DUP4 ADD DUP5 PUSH2 0x18F4 JUMP JUMPDEST SWAP4 SWAP3 POP POP POP JUMP JUMPDEST PUSH32 0x4242555344207472616E73666572206661696C00000000000000000000000000 PUSH0 DUP3 ADD MSTORE POP JUMP JUMPDEST PUSH0 PUSH2 0x1F6C PUSH1 0x13 DUP4 PUSH2 0x19EC JUMP JUMPDEST SWAP2 POP PUSH2 0x1F77 DUP3 PUSH2 0x1F38 JUMP JUMPDEST PUSH1 0x20 DUP3 ADD SWAP1 POP SWAP2 SWAP1 POP JUMP JUMPDEST PUSH0 PUSH1 0x20 DUP3 ADD SWAP1 POP DUP2 DUP2 SUB PUSH0 DUP4 ADD MSTORE PUSH2 0x1F99 DUP2 PUSH2 0x1F60 JUMP JUMPDEST SWAP1 POP SWAP2 SWAP1 POP JUMP JUMPDEST PUSH0 PUSH1 0x40 DUP3 ADD SWAP1 POP PUSH2 0x1FB3 PUSH0 DUP4 ADD DUP6 PUSH2 0x18F4 JUMP JUMPDEST PUSH2 0x1FC0 PUSH1 0x20 DUP4 ADD DUP5 PUSH2 0x18F4 JUMP JUMPDEST SWAP4 SWAP3 POP POP POP JUMP JUMPDEST PUSH32 0x5A65726F206465706F7369740000000000000000000000000000000000000000 PUSH0 DUP3 ADD MSTORE POP JUMP JUMPDEST PUSH0 PUSH2 0x1FFB PUSH1 0xC DUP4 PUSH2 0x19EC JUMP JUMPDEST SWAP2 POP PUSH2 0x2006 DUP3 PUSH2 0x1FC7 JUMP JUMPDEST PUSH1 0x20 DUP3 ADD SWAP1 POP SWAP2 SWAP1 POP JUMP JUMPDEST PUSH0 PUSH1 0x20 DUP3 ADD SWAP1 POP DUP2 DUP2 SUB PUSH0 DUP4 ADD MSTORE PUSH2 0x2028 DUP2 PUSH2 0x1FEF JUMP JUMPDEST SWAP1 POP SWAP2 SWAP1 POP JUMP JUMPDEST PUSH32 0x4465706F736974204242455448206661696C0000000000000000000000000000 PUSH0 DUP3 ADD MSTORE POP JUMP JUMPDEST PUSH0 PUSH2 0x2063 PUSH1 0x12 DUP4 PUSH2 0x19EC JUMP JUMPDEST SWAP2 POP PUSH2 0x206E DUP3 PUSH2 0x202F JUMP JUMPDEST PUSH1 0x20 DUP3 ADD SWAP1 POP SWAP2 SWAP1 POP JUMP JUMPDEST PUSH0 PUSH1 0x20 DUP3 ADD SWAP1 POP DUP2 DUP2 SUB PUSH0 DUP4 ADD MSTORE PUSH2 0x2090 DUP2 PUSH2 0x2057 JUMP JUMPDEST SWAP1 POP SWAP2 SWAP1 POP JUMP JUMPDEST PUSH32 0x5A65726F20616464726573730000000000000000000000000000000000000000 PUSH0 DUP3 ADD MSTORE POP JUMP JUMPDEST PUSH0 PUSH2 0x20CB PUSH1 0xC DUP4 PUSH2 0x19EC JUMP JUMPDEST SWAP2 POP PUSH2 0x20D6 DUP3 PUSH2 0x2097 JUMP JUMPDEST PUSH1 0x20 DUP3 ADD SWAP1 POP SWAP2 SWAP1 POP JUMP JUMPDEST PUSH0 PUSH1 0x20 DUP3 ADD SWAP1 POP DUP2 DUP2 SUB PUSH0 DUP4 ADD MSTORE PUSH2 0x20F8 DUP2 PUSH2 0x20BF JUMP JUMPDEST SWAP1 POP SWAP2 SWAP1 POP JUMP JUMPDEST PUSH32 0x5769746864726177204242455448206661696C00000000000000000000000000 PUSH0 DUP3 ADD MSTORE POP JUMP JUMPDEST PUSH0 PUSH2 0x2133 PUSH1 0x13 DUP4 PUSH2 0x19EC JUMP JUMPDEST SWAP2 POP PUSH2 0x213E DUP3 PUSH2 0x20FF JUMP JUMPDEST PUSH1 0x20 DUP3 ADD SWAP1 POP SWAP2 SWAP1 POP JUMP JUMPDEST PUSH0 PUSH1 0x20 DUP3 ADD SWAP1 POP DUP2 DUP2 SUB PUSH0 DUP4 ADD MSTORE PUSH2 0x2160 DUP2 PUSH2 0x2127 JUMP JUMPDEST SWAP1 POP SWAP2 SWAP1 POP JUMP JUMPDEST PUSH32 0x5769746864726177204242555344206661696C00000000000000000000000000 PUSH0 DUP3 ADD MSTORE POP JUMP JUMPDEST PUSH0 PUSH2 0x219B PUSH1 0x13 DUP4 PUSH2 0x19EC JUMP JUMPDEST SWAP2 POP PUSH2 0x21A6 DUP3 PUSH2 0x2167 JUMP JUMPDEST PUSH1 0x20 DUP3 ADD SWAP1 POP SWAP2 SWAP1 POP JUMP JUMPDEST PUSH0 PUSH1 0x20 DUP3 ADD SWAP1 POP DUP2 DUP2 SUB PUSH0 DUP4 ADD MSTORE PUSH2 0x21C8 DUP2 PUSH2 0x218F JUMP JUMPDEST SWAP1 POP SWAP2 SWAP1 POP JUMP JUMPDEST PUSH0 PUSH10 0xFFFFFFFFFFFFFFFFFFFF DUP3 AND SWAP1 POP SWAP2 SWAP1 POP JUMP JUMPDEST PUSH2 0x21ED DUP2 PUSH2 0x21CF JUMP JUMPDEST DUP2 EQ PUSH2 0x21F7 JUMPI PUSH0 PUSH0 REVERT JUMPDEST POP JUMP JUMPDEST PUSH0 DUP2 MLOAD SWAP1 POP PUSH2 0x2208 DUP2 PUSH2 0x21E4 JUMP JUMPDEST SWAP3 SWAP2 POP POP JUMP JUMPDEST PUSH0 DUP2 SWAP1 POP SWAP2 SWAP1 POP JUMP JUMPDEST PUSH2 0x2220 DUP2 PUSH2 0x220E JUMP JUMPDEST DUP2 EQ PUSH2 0x222A JUMPI PUSH0 PUSH0 REVERT JUMPDEST POP JUMP JUMPDEST PUSH0 DUP2 MLOAD SWAP1 POP PUSH2 0x223B DUP2 PUSH2 0x2217 JUMP JUMPDEST SWAP3 SWAP2 POP POP JUMP JUMPDEST PUSH0 PUSH0 PUSH0 PUSH0 PUSH0 PUSH1 0xA0 DUP7 DUP9 SUB SLT ISZERO PUSH2 0x225A JUMPI PUSH2 0x2259 PUSH2 0x1755 JUMP JUMPDEST JUMPDEST PUSH0 PUSH2 0x2267 DUP9 DUP3 DUP10 ADD PUSH2 0x21FA JUMP JUMPDEST SWAP6 POP POP PUSH1 0x20 PUSH2 0x2278 DUP9 DUP3 DUP10 ADD PUSH2 0x222D JUMP JUMPDEST SWAP5 POP POP PUSH1 0x40 PUSH2 0x2289 DUP9 DUP3 DUP10 ADD PUSH2 0x1D78 JUMP JUMPDEST SWAP4 POP POP PUSH1 0x60 PUSH2 0x229A DUP9 DUP3 DUP10 ADD PUSH2 0x1D78 JUMP JUMPDEST SWAP3 POP POP PUSH1 0x80 PUSH2 0x22AB DUP9 DUP3 DUP10 ADD PUSH2 0x21FA JUMP JUMPDEST SWAP2 POP POP SWAP3 SWAP6 POP SWAP3 SWAP6 SWAP1 SWAP4 POP JUMP JUMPDEST PUSH32 0x496E76616C696420707269636500000000000000000000000000000000000000 PUSH0 DUP3 ADD MSTORE POP JUMP JUMPDEST PUSH0 PUSH2 0x22EC PUSH1 0xD DUP4 PUSH2 0x19EC JUMP JUMPDEST SWAP2 POP PUSH2 0x22F7 DUP3 PUSH2 0x22B8 JUMP JUMPDEST PUSH1 0x20 DUP3 ADD SWAP1 POP SWAP2 SWAP1 POP JUMP JUMPDEST PUSH0 PUSH1 0x20 DUP3 ADD SWAP1 POP DUP2 DUP2 SUB PUSH0 DUP4 ADD MSTORE PUSH2 0x2319 DUP2 PUSH2 0x22E0 JUMP JUMPDEST SWAP1 POP SWAP2 SWAP1 POP JUMP JUMPDEST PUSH0 PUSH2 0x232A DUP3 PUSH2 0x1759 JUMP JUMPDEST SWAP2 POP PUSH2 0x2335 DUP4 PUSH2 0x1759 JUMP JUMPDEST SWAP3 POP DUP3 DUP3 SUB SWAP1 POP DUP2 DUP2 GT ISZERO PUSH2 0x234D JUMPI PUSH2 0x234C PUSH2 0x1A64 JUMP JUMPDEST JUMPDEST SWAP3 SWAP2 POP POP JUMP JUMPDEST PUSH32 0x5374616C65207072696365000000000000000000000000000000000000000000 PUSH0 DUP3 ADD MSTORE POP JUMP JUMPDEST PUSH0 PUSH2 0x2387 PUSH1 0xB DUP4 PUSH2 0x19EC JUMP JUMPDEST SWAP2 POP PUSH2 0x2392 DUP3 PUSH2 0x2353 JUMP JUMPDEST PUSH1 0x20 DUP3 ADD SWAP1 POP SWAP2 SWAP1 POP JUMP JUMPDEST PUSH0 PUSH1 0x20 DUP3 ADD SWAP1 POP DUP2 DUP2 SUB PUSH0 DUP4 ADD MSTORE PUSH2 0x23B4 DUP2 PUSH2 0x237B JUMP JUMPDEST SWAP1 POP SWAP2 SWAP1 POP JUMP JUMPDEST PUSH2 0x23C4 DUP2 PUSH2 0x19AA JUMP JUMPDEST DUP2 EQ PUSH2 0x23CE JUMPI PUSH0 PUSH0 REVERT JUMPDEST POP JUMP JUMPDEST PUSH0 DUP2 MLOAD SWAP1 POP PUSH2 0x23DF DUP2 PUSH2 0x23BB JUMP JUMPDEST SWAP3 SWAP2 POP POP JUMP JUMPDEST PUSH0 PUSH1 0x20 DUP3 DUP5 SUB SLT ISZERO PUSH2 0x23FA JUMPI PUSH2 0x23F9 PUSH2 0x1755 JUMP JUMPDEST JUMPDEST PUSH0 PUSH2 0x2407 DUP5 DUP3 DUP6 ADD PUSH2 0x23D1 JUMP JUMPDEST SWAP2 POP POP SWAP3 SWAP2 POP POP JUMP JUMPDEST PUSH32 0x496E73756666696369656E7420424245544820696E20636F6E74726163740000 PUSH0 DUP3 ADD MSTORE POP JUMP JUMPDEST PUSH0 PUSH2 0x2444 PUSH1 0x1E DUP4 PUSH2 0x19EC JUMP JUMPDEST SWAP2 POP PUSH2 0x244F DUP3 PUSH2 0x2410 JUMP JUMPDEST PUSH1 0x20 DUP3 ADD SWAP1 POP SWAP2 SWAP1 POP JUMP JUMPDEST PUSH0 PUSH1 0x20 DUP3 ADD SWAP1 POP DUP2 DUP2 SUB PUSH0 DUP4 ADD MSTORE PUSH2 0x2471 DUP2 PUSH2 0x2438 JUMP JUMPDEST SWAP1 POP SWAP2 SWAP1 POP JUMP JUMPDEST PUSH32 0x4465706F736974204242555344206661696C0000000000000000000000000000 PUSH0 DUP3 ADD MSTORE POP JUMP JUMPDEST PUSH0 PUSH2 0x24AC PUSH1 0x12 DUP4 PUSH2 0x19EC JUMP JUMPDEST SWAP2 POP PUSH2 0x24B7 DUP3 PUSH2 0x2478 JUMP JUMPDEST PUSH1 0x20 DUP3 ADD SWAP1 POP SWAP2 SWAP1 POP JUMP JUMPDEST PUSH0 PUSH1 0x20 DUP3 ADD SWAP1 POP DUP2 DUP2 SUB PUSH0 DUP4 ADD MSTORE PUSH2 0x24D9 DUP2 PUSH2 0x24A0 JUMP JUMPDEST SWAP1 POP SWAP2 SWAP1 POP JUMP JUMPDEST PUSH32 0x5061757361626C653A2070617573656400000000000000000000000000000000 PUSH0 DUP3 ADD MSTORE POP JUMP JUMPDEST PUSH0 PUSH2 0x2514 PUSH1 0x10 DUP4 PUSH2 0x19EC JUMP JUMPDEST SWAP2 POP PUSH2 0x251F DUP3 PUSH2 0x24E0 JUMP JUMPDEST PUSH1 0x20 DUP3 ADD SWAP1 POP SWAP2 SWAP1 POP JUMP JUMPDEST PUSH0 PUSH1 0x20 DUP3 ADD SWAP1 POP DUP2 DUP2 SUB PUSH0 DUP4 ADD MSTORE PUSH2 0x2541 DUP2 PUSH2 0x2508 JUMP JUMPDEST SWAP1 POP SWAP2 SWAP1 POP JUMP JUMPDEST PUSH32 0x5265656E7472616E637947756172643A207265656E7472616E742063616C6C00 PUSH0 DUP3 ADD MSTORE POP JUMP JUMPDEST PUSH0 PUSH2 0x257C PUSH1 0x1F DUP4 PUSH2 0x19EC JUMP JUMPDEST SWAP2 POP PUSH2 0x2587 DUP3 PUSH2 0x2548 JUMP JUMPDEST PUSH1 0x20 DUP3 ADD SWAP1 POP SWAP2 SWAP1 POP JUMP JUMPDEST PUSH0 PUSH1 0x20 DUP3 ADD SWAP1 POP DUP2 DUP2 SUB PUSH0 DUP4 ADD MSTORE PUSH2 0x25A9 DUP2 PUSH2 0x2570 JUMP JUMPDEST SWAP1 POP SWAP2 SWAP1 POP JUMP JUMPDEST PUSH32 0x5061757361626C653A206E6F7420706175736564000000000000000000000000 PUSH0 DUP3 ADD MSTORE POP JUMP JUMPDEST PUSH0 PUSH2 0x25E4 PUSH1 0x14 DUP4 PUSH2 0x19EC JUMP JUMPDEST SWAP2 POP PUSH2 0x25EF DUP3 PUSH2 0x25B0 JUMP JUMPDEST PUSH1 0x20 DUP3 ADD SWAP1 POP SWAP2 SWAP1 POP JUMP JUMPDEST PUSH0 PUSH1 0x20 DUP3 ADD SWAP1 POP DUP2 DUP2 SUB PUSH0 DUP4 ADD MSTORE PUSH2 0x2611 DUP2 PUSH2 0x25D8 JUMP JUMPDEST SWAP1 POP SWAP2 SWAP1 POP JUMP INVALID LOG2 PUSH5 0x6970667358 0x22 SLT KECCAK256 0xD8 DUP11 PUSH4 0xBD5B460A DUP12 NOT 0xC6 COINBASE MOD RETF 0xDA ISZERO 0xC9 EOFCREATE 0x26 0xE8 STATICCALL PUSH11 0x8975766C67E715CF954E32 PUSH5 0x736F6C6343 STOP ADDMOD 0x1E STOP CALLER "
				},
				"gasEstimates": {
					"creation": {
						"codeDepositCost": "1961200",
						"executionCost": "infinite",
						"totalCost": "infinite"
					},
					"external": {
						"bbeth()": "infinite",
						"bbusd()": "infinite",
						"depositBbeth(uint256)": "infinite",
						"depositBbusd(uint256)": "infinite",
						"emergencyWithdraw(address)": "infinite",
						"ethUsdPriceFeed()": "infinite",
						"getEstimatedBbethForBbusd(uint256)": "infinite",
						"getEstimatedBbusdForBbeth(uint256)": "infinite",
						"getEthUsdPrice()": "infinite",
						"owner()": "2585",
						"pause()": "infinite",
						"paused()": "2518",
						"renounceOwnership()": "infinite",
						"swapBbethToBbusd(uint256,uint256)": "infinite",
						"swapBbusdToBbeth(uint256,uint256)": "infinite",
						"transferOwnership(address)": "infinite",
						"unpause()": "infinite"
					}
				},
				"methodIdentifiers": {
					"bbeth()": "8af86473",
					"bbusd()": "28b39bcf",
					"depositBbeth(uint256)": "29a87313",
					"depositBbusd(uint256)": "f48f245a",
					"emergencyWithdraw(address)": "6ff1c9bc",
					"ethUsdPriceFeed()": "42f6fb29",
					"getEstimatedBbethForBbusd(uint256)": "6dff716b",
					"getEstimatedBbusdForBbeth(uint256)": "8abd6e15",
					"getEthUsdPrice()": "a0a8045e",
					"owner()": "8da5cb5b",
					"pause()": "8456cb59",
					"paused()": "5c975abb",
					"renounceOwnership()": "715018a6",
					"swapBbethToBbusd(uint256,uint256)": "1bbbfe81",
					"swapBbusdToBbeth(uint256,uint256)": "e89bb221",
					"transferOwnership(address)": "f2fde38b",
					"unpause()": "3f4ba83a"
				}
			},
			"storageLayout": {
				"storage": [
					{
						"astId": 312,
						"contract": "contracts/BlockbankSwap.sol:BlockbankSwap",
						"label": "_status",
						"offset": 0,
						"slot": "0",
						"type": "t_uint256"
					},
					{
						"astId": 211,
						"contract": "contracts/BlockbankSwap.sol:BlockbankSwap",
						"label": "_paused",
						"offset": 0,
						"slot": "1",
						"type": "t_bool"
					},
					{
						"astId": 54,
						"contract": "contracts/BlockbankSwap.sol:BlockbankSwap",
						"label": "_owner",
						"offset": 1,
						"slot": "1",
						"type": "t_address"
					}
				],
				"types": {
					"t_address": {
						"encoding": "inplace",
						"label": "address",
						"numberOfBytes": "20"
					},
					"t_bool": {
						"encoding": "inplace",
						"label": "bool",
						"numberOfBytes": "1"
					},
					"t_uint256": {
						"encoding": "inplace",
						"label": "uint256",
						"numberOfBytes": "32"
					}
				}
			},
			"userdoc": {
				"kind": "user",
				"methods": {},
				"version": 1
			}
		}
	}
}