{
	"contracts/Swap.sol": {
		"Swap": {
			"abi": [
				{
					"inputs": [],
					"stateMutability": "nonpayable",
					"type": "constructor"
				},
				{
					"inputs": [
						{
							"internalType": "uint256",
							"name": "amount",
							"type": "uint256"
						}
					],
					"name": "depositUSDC",
					"outputs": [],
					"stateMutability": "nonpayable",
					"type": "function"
				},
				{
					"inputs": [],
					"name": "owner",
					"outputs": [
						{
							"internalType": "address",
							"name": "",
							"type": "address"
						}
					],
					"stateMutability": "view",
					"type": "function"
				},
				{
					"inputs": [],
					"name": "swapEthToUsdc",
					"outputs": [],
					"stateMutability": "payable",
					"type": "function"
				},
				{
					"inputs": [
						{
							"internalType": "uint256",
							"name": "amount",
							"type": "uint256"
						}
					],
					"name": "swapUsdcToEth",
					"outputs": [],
					"stateMutability": "nonpayable",
					"type": "function"
				},
				{
					"inputs": [],
					"name": "usdcToken",
					"outputs": [
						{
							"internalType": "contract IERC20",
							"name": "",
							"type": "address"
						}
					],
					"stateMutability": "view",
					"type": "function"
				},
				{
					"stateMutability": "payable",
					"type": "receive"
				}
			],
			"devdoc": {
				"kind": "dev",
				"methods": {},
				"version": 1
			},
			"evm": {
				"assembly": "    /* \"contracts/Swap.sol\":199:2428  contract Swap {... */\n  mstore(0x40, 0x80)\n    /* \"contracts/Swap.sol\":388:737  constructor() {... */\n  callvalue\n  dup1\n  iszero\n  tag_1\n  jumpi\n  revert(0x00, 0x00)\ntag_1:\n  pop\n    /* \"contracts/Swap.sol\":421:431  msg.sender */\n  caller\n    /* \"contracts/Swap.sol\":413:418  owner */\n  0x03\n  0x00\n    /* \"contracts/Swap.sol\":413:431  owner = msg.sender */\n  0x0100\n  exp\n  dup2\n  sload\n  dup2\n  0xffffffffffffffffffffffffffffffffffffffff\n  mul\n  not\n  and\n  swap1\n  dup4\n  0xffffffffffffffffffffffffffffffffffffffff\n  and\n  mul\n  or\n  swap1\n  sstore\n  pop\n    /* \"contracts/Swap.sol\":473:515  0xfFcEf71Ea3221b3eA2c4459aE1bA4989eBfF904a */\n  0xffcef71ea3221b3ea2c4459ae1ba4989ebff904a\n    /* \"contracts/Swap.sol\":454:463  usdcToken */\n  0x02\n  0x00\n    /* \"contracts/Swap.sol\":454:516  usdcToken = IERC20(0xfFcEf71Ea3221b3eA2c4459aE1bA4989eBfF904a) */\n  0x0100\n  exp\n  dup2\n  sload\n  dup2\n  0xffffffffffffffffffffffffffffffffffffffff\n  mul\n  not\n  and\n  swap1\n  dup4\n  0xffffffffffffffffffffffffffffffffffffffff\n  and\n  mul\n  or\n  swap1\n  sstore\n  pop\n    /* \"contracts/Swap.sol\":579:621  0x694AA1769357215DE4FAC081bf1f309aDC325306 */\n  0x694aa1769357215de4fac081bf1f309adc325306\n    /* \"contracts/Swap.sol\":539:554  ethUsdPriceFeed */\n  0x00\n  0x00\n    /* \"contracts/Swap.sol\":539:622  ethUsdPriceFeed = AggregatorV3Interface(0x694AA1769357215DE4FAC081bf1f309aDC325306) */\n  0x0100\n  exp\n  dup2\n  sload\n  dup2\n  0xffffffffffffffffffffffffffffffffffffffff\n  mul\n  not\n  and\n  swap1\n  dup4\n  0xffffffffffffffffffffffffffffffffffffffff\n  and\n  mul\n  or\n  swap1\n  sstore\n  pop\n    /* \"contracts/Swap.sol\":686:728  0x51597f405303C4377E36123cBc172b13269EA163 */\n  0x51597f405303c4377e36123cbc172b13269ea163\n    /* \"contracts/Swap.sol\":645:661  usdcUsdPriceFeed */\n  0x01\n  0x00\n    /* \"contracts/Swap.sol\":645:729  usdcUsdPriceFeed = AggregatorV3Interface(0x51597f405303C4377E36123cBc172b13269EA163) */\n  0x0100\n  exp\n  dup2\n  sload\n  dup2\n  0xffffffffffffffffffffffffffffffffffffffff\n  mul\n  not\n  and\n  swap1\n  dup4\n  0xffffffffffffffffffffffffffffffffffffffff\n  and\n  mul\n  or\n  swap1\n  sstore\n  pop\n    /* \"contracts/Swap.sol\":199:2428  contract Swap {... */\n  dataSize(sub_0)\n  dup1\n  dataOffset(sub_0)\n  0x00\n  codecopy\n  0x00\n  return\nstop\n\nsub_0: assembly {\n        /* \"contracts/Swap.sol\":199:2428  contract Swap {... */\n      mstore(0x40, 0x80)\n      jumpi(tag_1, lt(calldatasize, 0x04))\n      shr(0xe0, calldataload(0x00))\n      dup1\n      0x11eac855\n      eq\n      tag_3\n      jumpi\n      dup1\n      0x8da5cb5b\n      eq\n      tag_4\n      jumpi\n      dup1\n      0x905f1269\n      eq\n      tag_5\n      jumpi\n      dup1\n      0xcc85aeaf\n      eq\n      tag_6\n      jumpi\n      dup1\n      0xf688bcfb\n      eq\n      tag_7\n      jumpi\n      jump(tag_2)\n    tag_1:\n      jumpi(tag_2, calldatasize)\n      stop\n    tag_2:\n      revert(0x00, 0x00)\n        /* \"contracts/Swap.sol\":327:350  IERC20 public usdcToken */\n    tag_3:\n      callvalue\n      dup1\n      iszero\n      tag_10\n      jumpi\n      revert(0x00, 0x00)\n    tag_10:\n      pop\n      tag_11\n      tag_12\n      jump\t// in\n    tag_11:\n      mload(0x40)\n      tag_13\n      swap2\n      swap1\n      tag_14\n      jump\t// in\n    tag_13:\n      mload(0x40)\n      dup1\n      swap2\n      sub\n      swap1\n      return\n        /* \"contracts/Swap.sol\":359:379  address public owner */\n    tag_4:\n      callvalue\n      dup1\n      iszero\n      tag_15\n      jumpi\n      revert(0x00, 0x00)\n    tag_15:\n      pop\n      tag_16\n      tag_17\n      jump\t// in\n    tag_16:\n      mload(0x40)\n      tag_18\n      swap2\n      swap1\n      tag_19\n      jump\t// in\n    tag_18:\n      mload(0x40)\n      dup1\n      swap2\n      sub\n      swap1\n      return\n        /* \"contracts/Swap.sol\":1059:1592  function swapEthToUsdc() external payable {... */\n    tag_5:\n      tag_20\n      tag_21\n      jump\t// in\n    tag_20:\n      stop\n        /* \"contracts/Swap.sol\":1606:2217  function swapUsdcToEth(uint256 amount) external {... */\n    tag_6:\n      callvalue\n      dup1\n      iszero\n      tag_22\n      jumpi\n      revert(0x00, 0x00)\n    tag_22:\n      pop\n      tag_23\n      0x04\n      dup1\n      calldatasize\n      sub\n      dup2\n      add\n      swap1\n      tag_24\n      swap2\n      swap1\n      tag_25\n      jump\t// in\n    tag_24:\n      tag_26\n      jump\t// in\n    tag_23:\n      stop\n        /* \"contracts/Swap.sol\":794:1045  function depositUSDC(uint256 amount) external {... */\n    tag_7:\n      callvalue\n      dup1\n      iszero\n      tag_27\n      jumpi\n      revert(0x00, 0x00)\n    tag_27:\n      pop\n      tag_28\n      0x04\n      dup1\n      calldatasize\n      sub\n      dup2\n      add\n      swap1\n      tag_29\n      swap2\n      swap1\n      tag_25\n      jump\t// in\n    tag_29:\n      tag_30\n      jump\t// in\n    tag_28:\n      stop\n        /* \"contracts/Swap.sol\":327:350  IERC20 public usdcToken */\n    tag_12:\n      0x02\n      0x00\n      swap1\n      sload\n      swap1\n      0x0100\n      exp\n      swap1\n      div\n      0xffffffffffffffffffffffffffffffffffffffff\n      and\n      dup2\n      jump\t// out\n        /* \"contracts/Swap.sol\":359:379  address public owner */\n    tag_17:\n      0x03\n      0x00\n      swap1\n      sload\n      swap1\n      0x0100\n      exp\n      swap1\n      div\n      0xffffffffffffffffffffffffffffffffffffffff\n      and\n      dup2\n      jump\t// out\n        /* \"contracts/Swap.sol\":1059:1592  function swapEthToUsdc() external payable {... */\n    tag_21:\n        /* \"contracts/Swap.sol\":1132:1133  0 */\n      0x00\n        /* \"contracts/Swap.sol\":1120:1129  msg.value */\n      callvalue\n        /* \"contracts/Swap.sol\":1120:1133  msg.value > 0 */\n      gt\n        /* \"contracts/Swap.sol\":1112:1150  require(msg.value > 0, \"ETH not sent\") */\n      tag_32\n      jumpi\n      mload(0x40)\n      0x08c379a000000000000000000000000000000000000000000000000000000000\n      dup2\n      mstore\n      0x04\n      add\n      tag_33\n      swap1\n      tag_34\n      jump\t// in\n    tag_33:\n      mload(0x40)\n      dup1\n      swap2\n      sub\n      swap1\n      revert\n    tag_32:\n        /* \"contracts/Swap.sol\":1163:1177  uint256 ethUsd */\n      0x00\n        /* \"contracts/Swap.sol\":1180:1200  _getLatestEthPrice() */\n      tag_35\n        /* \"contracts/Swap.sol\":1180:1198  _getLatestEthPrice */\n      tag_36\n        /* \"contracts/Swap.sol\":1180:1200  _getLatestEthPrice() */\n      jump\t// in\n    tag_35:\n        /* \"contracts/Swap.sol\":1163:1200  uint256 ethUsd = _getLatestEthPrice() */\n      swap1\n      pop\n        /* \"contracts/Swap.sol\":1211:1226  uint256 usdcUsd */\n      0x00\n        /* \"contracts/Swap.sol\":1229:1250  _getLatestUsdcPrice() */\n      tag_37\n        /* \"contracts/Swap.sol\":1229:1248  _getLatestUsdcPrice */\n      tag_38\n        /* \"contracts/Swap.sol\":1229:1250  _getLatestUsdcPrice() */\n      jump\t// in\n    tag_37:\n        /* \"contracts/Swap.sol\":1211:1250  uint256 usdcUsd = _getLatestUsdcPrice() */\n      swap1\n      pop\n        /* \"contracts/Swap.sol\":1263:1279  uint256 ethInUsd */\n      0x00\n        /* \"contracts/Swap.sol\":1305:1308  1e8 */\n      0x05f5e100\n        /* \"contracts/Swap.sol\":1295:1301  ethUsd */\n      dup4\n        /* \"contracts/Swap.sol\":1283:1292  msg.value */\n      callvalue\n        /* \"contracts/Swap.sol\":1283:1301  msg.value * ethUsd */\n      tag_39\n      swap2\n      swap1\n      tag_40\n      jump\t// in\n    tag_39:\n        /* \"contracts/Swap.sol\":1282:1308  (msg.value * ethUsd) / 1e8 */\n      tag_41\n      swap2\n      swap1\n      tag_42\n      jump\t// in\n    tag_41:\n        /* \"contracts/Swap.sol\":1263:1308  uint256 ethInUsd = (msg.value * ethUsd) / 1e8 */\n      swap1\n      pop\n        /* \"contracts/Swap.sol\":1319:1337  uint256 usdcAmount */\n      0x00\n        /* \"contracts/Swap.sol\":1359:1366  usdcUsd */\n      dup3\n        /* \"contracts/Swap.sol\":1352:1355  1e6 */\n      0x0f4240\n        /* \"contracts/Swap.sol\":1341:1349  ethInUsd */\n      dup4\n        /* \"contracts/Swap.sol\":1341:1355  ethInUsd * 1e6 */\n      tag_43\n      swap2\n      swap1\n      tag_40\n      jump\t// in\n    tag_43:\n        /* \"contracts/Swap.sol\":1340:1366  (ethInUsd * 1e6) / usdcUsd */\n      tag_44\n      swap2\n      swap1\n      tag_42\n      jump\t// in\n    tag_44:\n        /* \"contracts/Swap.sol\":1319:1366  uint256 usdcAmount = (ethInUsd * 1e6) / usdcUsd */\n      swap1\n      pop\n        /* \"contracts/Swap.sol\":1425:1435  usdcAmount */\n      dup1\n        /* \"contracts/Swap.sol\":1387:1396  usdcToken */\n      0x02\n      0x00\n      swap1\n      sload\n      swap1\n      0x0100\n      exp\n      swap1\n      div\n      0xffffffffffffffffffffffffffffffffffffffff\n      and\n        /* \"contracts/Swap.sol\":1387:1406  usdcToken.balanceOf */\n      0xffffffffffffffffffffffffffffffffffffffff\n      and\n      0x70a08231\n        /* \"contracts/Swap.sol\":1415:1419  this */\n      address\n        /* \"contracts/Swap.sol\":1387:1421  usdcToken.balanceOf(address(this)) */\n      mload(0x40)\n      dup3\n      0xffffffff\n      and\n      0xe0\n      shl\n      dup2\n      mstore\n      0x04\n      add\n      tag_45\n      swap2\n      swap1\n      tag_19\n      jump\t// in\n    tag_45:\n      0x20\n      mload(0x40)\n      dup1\n      dup4\n      sub\n      dup2\n      dup7\n      gas\n      staticcall\n      iszero\n      dup1\n      iszero\n      tag_47\n      jumpi\n      returndatacopy(0x00, 0x00, returndatasize)\n      revert(0x00, returndatasize)\n    tag_47:\n      pop\n      pop\n      pop\n      pop\n      mload(0x40)\n      returndatasize\n      not(0x1f)\n      0x1f\n      dup3\n      add\n      and\n      dup3\n      add\n      dup1\n      0x40\n      mstore\n      pop\n      dup2\n      add\n      swap1\n      tag_48\n      swap2\n      swap1\n      tag_49\n      jump\t// in\n    tag_48:\n        /* \"contracts/Swap.sol\":1387:1435  usdcToken.balanceOf(address(this)) >= usdcAmount */\n      lt\n      iszero\n        /* \"contracts/Swap.sol\":1379:1469  require(usdcToken.balanceOf(address(this)) >= usdcAmount, \"Insufficient USDC in contract\") */\n      tag_50\n      jumpi\n      mload(0x40)\n      0x08c379a000000000000000000000000000000000000000000000000000000000\n      dup2\n      mstore\n      0x04\n      add\n      tag_51\n      swap1\n      tag_52\n      jump\t// in\n    tag_51:\n      mload(0x40)\n      dup1\n      swap2\n      sub\n      swap1\n      revert\n    tag_50:\n        /* \"contracts/Swap.sol\":1482:1491  bool sent */\n      0x00\n        /* \"contracts/Swap.sol\":1494:1503  usdcToken */\n      0x02\n      0x00\n      swap1\n      sload\n      swap1\n      0x0100\n      exp\n      swap1\n      div\n      0xffffffffffffffffffffffffffffffffffffffff\n      and\n        /* \"contracts/Swap.sol\":1494:1512  usdcToken.transfer */\n      0xffffffffffffffffffffffffffffffffffffffff\n      and\n      0xa9059cbb\n        /* \"contracts/Swap.sol\":1513:1523  msg.sender */\n      caller\n        /* \"contracts/Swap.sol\":1525:1535  usdcAmount */\n      dup5\n        /* \"contracts/Swap.sol\":1494:1536  usdcToken.transfer(msg.sender, usdcAmount) */\n      mload(0x40)\n      dup4\n      0xffffffff\n      and\n      0xe0\n      shl\n      dup2\n      mstore\n      0x04\n      add\n      tag_53\n      swap3\n      swap2\n      swap1\n      tag_54\n      jump\t// in\n    tag_53:\n      0x20\n      mload(0x40)\n      dup1\n      dup4\n      sub\n      dup2\n      0x00\n      dup8\n      gas\n      call\n      iszero\n      dup1\n      iszero\n      tag_56\n      jumpi\n      returndatacopy(0x00, 0x00, returndatasize)\n      revert(0x00, returndatasize)\n    tag_56:\n      pop\n      pop\n      pop\n      pop\n      mload(0x40)\n      returndatasize\n      not(0x1f)\n      0x1f\n      dup3\n      add\n      and\n      dup3\n      add\n      dup1\n      0x40\n      mstore\n      pop\n      dup2\n      add\n      swap1\n      tag_57\n      swap2\n      swap1\n      tag_58\n      jump\t// in\n    tag_57:\n        /* \"contracts/Swap.sol\":1482:1536  bool sent = usdcToken.transfer(msg.sender, usdcAmount) */\n      swap1\n      pop\n        /* \"contracts/Swap.sol\":1555:1559  sent */\n      dup1\n        /* \"contracts/Swap.sol\":1547:1584  require(sent, \"USDC transfer failed\") */\n      tag_59\n      jumpi\n      mload(0x40)\n      0x08c379a000000000000000000000000000000000000000000000000000000000\n      dup2\n      mstore\n      0x04\n      add\n      tag_60\n      swap1\n      tag_61\n      jump\t// in\n    tag_60:\n      mload(0x40)\n      dup1\n      swap2\n      sub\n      swap1\n      revert\n    tag_59:\n        /* \"contracts/Swap.sol\":1101:1592  {... */\n      pop\n      pop\n      pop\n      pop\n      pop\n        /* \"contracts/Swap.sol\":1059:1592  function swapEthToUsdc() external payable {... */\n      jump\t// out\n        /* \"contracts/Swap.sol\":1606:2217  function swapUsdcToEth(uint256 amount) external {... */\n    tag_26:\n        /* \"contracts/Swap.sol\":1682:1683  0 */\n      0x00\n        /* \"contracts/Swap.sol\":1673:1679  amount */\n      dup2\n        /* \"contracts/Swap.sol\":1673:1683  amount > 0 */\n      gt\n        /* \"contracts/Swap.sol\":1665:1717  require(amount > 0, \"Amount must be greater than 0\") */\n      tag_63\n      jumpi\n      mload(0x40)\n      0x08c379a000000000000000000000000000000000000000000000000000000000\n      dup2\n      mstore\n      0x04\n      add\n      tag_64\n      swap1\n      tag_65\n      jump\t// in\n    tag_64:\n      mload(0x40)\n      dup1\n      swap2\n      sub\n      swap1\n      revert\n    tag_63:\n        /* \"contracts/Swap.sol\":1730:1744  uint256 ethUsd */\n      0x00\n        /* \"contracts/Swap.sol\":1747:1767  _getLatestEthPrice() */\n      tag_66\n        /* \"contracts/Swap.sol\":1747:1765  _getLatestEthPrice */\n      tag_36\n        /* \"contracts/Swap.sol\":1747:1767  _getLatestEthPrice() */\n      jump\t// in\n    tag_66:\n        /* \"contracts/Swap.sol\":1730:1767  uint256 ethUsd = _getLatestEthPrice() */\n      swap1\n      pop\n        /* \"contracts/Swap.sol\":1778:1793  uint256 usdcUsd */\n      0x00\n        /* \"contracts/Swap.sol\":1796:1817  _getLatestUsdcPrice() */\n      tag_67\n        /* \"contracts/Swap.sol\":1796:1815  _getLatestUsdcPrice */\n      tag_38\n        /* \"contracts/Swap.sol\":1796:1817  _getLatestUsdcPrice() */\n      jump\t// in\n    tag_67:\n        /* \"contracts/Swap.sol\":1778:1817  uint256 usdcUsd = _getLatestUsdcPrice() */\n      swap1\n      pop\n        /* \"contracts/Swap.sol\":1830:1847  uint256 usdcInUsd */\n      0x00\n        /* \"contracts/Swap.sol\":1871:1874  1e6 */\n      0x0f4240\n        /* \"contracts/Swap.sol\":1860:1867  usdcUsd */\n      dup3\n        /* \"contracts/Swap.sol\":1851:1857  amount */\n      dup6\n        /* \"contracts/Swap.sol\":1851:1867  amount * usdcUsd */\n      tag_68\n      swap2\n      swap1\n      tag_40\n      jump\t// in\n    tag_68:\n        /* \"contracts/Swap.sol\":1850:1874  (amount * usdcUsd) / 1e6 */\n      tag_69\n      swap2\n      swap1\n      tag_42\n      jump\t// in\n    tag_69:\n        /* \"contracts/Swap.sol\":1830:1874  uint256 usdcInUsd = (amount * usdcUsd) / 1e6 */\n      swap1\n      pop\n        /* \"contracts/Swap.sol\":1885:1902  uint256 ethAmount */\n      0x00\n        /* \"contracts/Swap.sol\":1925:1931  ethUsd */\n      dup4\n        /* \"contracts/Swap.sol\":1918:1921  1e8 */\n      0x05f5e100\n        /* \"contracts/Swap.sol\":1906:1915  usdcInUsd */\n      dup4\n        /* \"contracts/Swap.sol\":1906:1921  usdcInUsd * 1e8 */\n      tag_70\n      swap2\n      swap1\n      tag_40\n      jump\t// in\n    tag_70:\n        /* \"contracts/Swap.sol\":1905:1931  (usdcInUsd * 1e8) / ethUsd */\n      tag_71\n      swap2\n      swap1\n      tag_42\n      jump\t// in\n    tag_71:\n        /* \"contracts/Swap.sol\":1885:1931  uint256 ethAmount = (usdcInUsd * 1e8) / ethUsd */\n      swap1\n      pop\n        /* \"contracts/Swap.sol\":1977:1986  ethAmount */\n      dup1\n        /* \"contracts/Swap.sol\":1952:1973  address(this).balance */\n      selfbalance\n        /* \"contracts/Swap.sol\":1952:1986  address(this).balance >= ethAmount */\n      lt\n      iszero\n        /* \"contracts/Swap.sol\":1944:2019  require(address(this).balance >= ethAmount, \"Insufficient ETH in contract\") */\n      tag_72\n      jumpi\n      mload(0x40)\n      0x08c379a000000000000000000000000000000000000000000000000000000000\n      dup2\n      mstore\n      0x04\n      add\n      tag_73\n      swap1\n      tag_74\n      jump\t// in\n    tag_73:\n      mload(0x40)\n      dup1\n      swap2\n      sub\n      swap1\n      revert\n    tag_72:\n        /* \"contracts/Swap.sol\":2032:2045  bool received */\n      0x00\n        /* \"contracts/Swap.sol\":2048:2057  usdcToken */\n      0x02\n      0x00\n      swap1\n      sload\n      swap1\n      0x0100\n      exp\n      swap1\n      div\n      0xffffffffffffffffffffffffffffffffffffffff\n      and\n        /* \"contracts/Swap.sol\":2048:2070  usdcToken.transferFrom */\n      0xffffffffffffffffffffffffffffffffffffffff\n      and\n      0x23b872dd\n        /* \"contracts/Swap.sol\":2071:2081  msg.sender */\n      caller\n        /* \"contracts/Swap.sol\":2091:2095  this */\n      address\n        /* \"contracts/Swap.sol\":2098:2104  amount */\n      dup10\n        /* \"contracts/Swap.sol\":2048:2105  usdcToken.transferFrom(msg.sender, address(this), amount) */\n      mload(0x40)\n      dup5\n      0xffffffff\n      and\n      0xe0\n      shl\n      dup2\n      mstore\n      0x04\n      add\n      tag_75\n      swap4\n      swap3\n      swap2\n      swap1\n      tag_76\n      jump\t// in\n    tag_75:\n      0x20\n      mload(0x40)\n      dup1\n      dup4\n      sub\n      dup2\n      0x00\n      dup8\n      gas\n      call\n      iszero\n      dup1\n      iszero\n      tag_78\n      jumpi\n      returndatacopy(0x00, 0x00, returndatasize)\n      revert(0x00, returndatasize)\n    tag_78:\n      pop\n      pop\n      pop\n      pop\n      mload(0x40)\n      returndatasize\n      not(0x1f)\n      0x1f\n      dup3\n      add\n      and\n      dup3\n      add\n      dup1\n      0x40\n      mstore\n      pop\n      dup2\n      add\n      swap1\n      tag_79\n      swap2\n      swap1\n      tag_58\n      jump\t// in\n    tag_79:\n        /* \"contracts/Swap.sol\":2032:2105  bool received = usdcToken.transferFrom(msg.sender, address(this), amount) */\n      swap1\n      pop\n        /* \"contracts/Swap.sol\":2124:2132  received */\n      dup1\n        /* \"contracts/Swap.sol\":2116:2157  require(received, \"USDC transfer failed\") */\n      tag_80\n      jumpi\n      mload(0x40)\n      0x08c379a000000000000000000000000000000000000000000000000000000000\n      dup2\n      mstore\n      0x04\n      add\n      tag_81\n      swap1\n      tag_61\n      jump\t// in\n    tag_81:\n      mload(0x40)\n      dup1\n      swap2\n      sub\n      swap1\n      revert\n    tag_80:\n        /* \"contracts/Swap.sol\":2178:2188  msg.sender */\n      caller\n        /* \"contracts/Swap.sol\":2170:2198  payable(msg.sender).transfer */\n      0xffffffffffffffffffffffffffffffffffffffff\n      and\n        /* \"contracts/Swap.sol\":2170:2209  payable(msg.sender).transfer(ethAmount) */\n      0x08fc\n        /* \"contracts/Swap.sol\":2199:2208  ethAmount */\n      dup4\n        /* \"contracts/Swap.sol\":2170:2209  payable(msg.sender).transfer(ethAmount) */\n      swap1\n      dup2\n      iszero\n      mul\n      swap1\n      mload(0x40)\n      0x00\n      mload(0x40)\n      dup1\n      dup4\n      sub\n      dup2\n      dup6\n      dup9\n      dup9\n      call\n      swap4\n      pop\n      pop\n      pop\n      pop\n      iszero\n      dup1\n      iszero\n      tag_83\n      jumpi\n      returndatacopy(0x00, 0x00, returndatasize)\n      revert(0x00, returndatasize)\n    tag_83:\n      pop\n        /* \"contracts/Swap.sol\":1654:2217  {... */\n      pop\n      pop\n      pop\n      pop\n      pop\n        /* \"contracts/Swap.sol\":1606:2217  function swapUsdcToEth(uint256 amount) external {... */\n      pop\n      jump\t// out\n        /* \"contracts/Swap.sol\":794:1045  function depositUSDC(uint256 amount) external {... */\n    tag_30:\n        /* \"contracts/Swap.sol\":868:869  0 */\n      0x00\n        /* \"contracts/Swap.sol\":859:865  amount */\n      dup2\n        /* \"contracts/Swap.sol\":859:869  amount > 0 */\n      gt\n        /* \"contracts/Swap.sol\":851:903  require(amount > 0, \"Amount must be greater than 0\") */\n      tag_85\n      jumpi\n      mload(0x40)\n      0x08c379a000000000000000000000000000000000000000000000000000000000\n      dup2\n      mstore\n      0x04\n      add\n      tag_86\n      swap1\n      tag_65\n      jump\t// in\n    tag_86:\n      mload(0x40)\n      dup1\n      swap2\n      sub\n      swap1\n      revert\n    tag_85:\n        /* \"contracts/Swap.sol\":914:926  bool success */\n      0x00\n        /* \"contracts/Swap.sol\":929:938  usdcToken */\n      0x02\n      0x00\n      swap1\n      sload\n      swap1\n      0x0100\n      exp\n      swap1\n      div\n      0xffffffffffffffffffffffffffffffffffffffff\n      and\n        /* \"contracts/Swap.sol\":929:951  usdcToken.transferFrom */\n      0xffffffffffffffffffffffffffffffffffffffff\n      and\n      0x23b872dd\n        /* \"contracts/Swap.sol\":952:962  msg.sender */\n      caller\n        /* \"contracts/Swap.sol\":972:976  this */\n      address\n        /* \"contracts/Swap.sol\":979:985  amount */\n      dup6\n        /* \"contracts/Swap.sol\":929:986  usdcToken.transferFrom(msg.sender, address(this), amount) */\n      mload(0x40)\n      dup5\n      0xffffffff\n      and\n      0xe0\n      shl\n      dup2\n      mstore\n      0x04\n      add\n      tag_87\n      swap4\n      swap3\n      swap2\n      swap1\n      tag_76\n      jump\t// in\n    tag_87:\n      0x20\n      mload(0x40)\n      dup1\n      dup4\n      sub\n      dup2\n      0x00\n      dup8\n      gas\n      call\n      iszero\n      dup1\n      iszero\n      tag_89\n      jumpi\n      returndatacopy(0x00, 0x00, returndatasize)\n      revert(0x00, returndatasize)\n    tag_89:\n      pop\n      pop\n      pop\n      pop\n      mload(0x40)\n      returndatasize\n      not(0x1f)\n      0x1f\n      dup3\n      add\n      and\n      dup3\n      add\n      dup1\n      0x40\n      mstore\n      pop\n      dup2\n      add\n      swap1\n      tag_90\n      swap2\n      swap1\n      tag_58\n      jump\t// in\n    tag_90:\n        /* \"contracts/Swap.sol\":914:986  bool success = usdcToken.transferFrom(msg.sender, address(this), amount) */\n      swap1\n      pop\n        /* \"contracts/Swap.sol\":1005:1012  success */\n      dup1\n        /* \"contracts/Swap.sol\":997:1037  require(success, \"USDC transfer failed\") */\n      tag_91\n      jumpi\n      mload(0x40)\n      0x08c379a000000000000000000000000000000000000000000000000000000000\n      dup2\n      mstore\n      0x04\n      add\n      tag_92\n      swap1\n      tag_61\n      jump\t// in\n    tag_92:\n      mload(0x40)\n      dup1\n      swap2\n      sub\n      swap1\n      revert\n    tag_91:\n        /* \"contracts/Swap.sol\":840:1045  {... */\n      pop\n        /* \"contracts/Swap.sol\":794:1045  function depositUSDC(uint256 amount) external {... */\n      pop\n      jump\t// out\n        /* \"contracts/Swap.sol\":2231:2325  function _getLatestEthPrice() internal pure returns (uint256) {... */\n    tag_36:\n        /* \"contracts/Swap.sol\":2284:2291  uint256 */\n      0x00\n        /* \"contracts/Swap.sol\":2307:2317  3000 * 1e8 */\n      0x45d964b800\n        /* \"contracts/Swap.sol\":2300:2317  return 3000 * 1e8 */\n      swap1\n      pop\n        /* \"contracts/Swap.sol\":2231:2325  function _getLatestEthPrice() internal pure returns (uint256) {... */\n      swap1\n      jump\t// out\n        /* \"contracts/Swap.sol\":2333:2425  function _getLatestUsdcPrice() internal pure returns (uint256) {... */\n    tag_38:\n        /* \"contracts/Swap.sol\":2387:2394  uint256 */\n      0x00\n        /* \"contracts/Swap.sol\":2410:2417  1 * 1e8 */\n      0x05f5e100\n        /* \"contracts/Swap.sol\":2403:2417  return 1 * 1e8 */\n      swap1\n      pop\n        /* \"contracts/Swap.sol\":2333:2425  function _getLatestUsdcPrice() internal pure returns (uint256) {... */\n      swap1\n      jump\t// out\n        /* \"#utility.yul\":7:133   */\n    tag_95:\n        /* \"#utility.yul\":44:51   */\n      0x00\n        /* \"#utility.yul\":84:126   */\n      0xffffffffffffffffffffffffffffffffffffffff\n        /* \"#utility.yul\":77:82   */\n      dup3\n        /* \"#utility.yul\":73:127   */\n      and\n        /* \"#utility.yul\":62:127   */\n      swap1\n      pop\n        /* \"#utility.yul\":7:133   */\n      swap2\n      swap1\n      pop\n      jump\t// out\n        /* \"#utility.yul\":139:199   */\n    tag_96:\n        /* \"#utility.yul\":167:170   */\n      0x00\n        /* \"#utility.yul\":188:193   */\n      dup2\n        /* \"#utility.yul\":181:193   */\n      swap1\n      pop\n        /* \"#utility.yul\":139:199   */\n      swap2\n      swap1\n      pop\n      jump\t// out\n        /* \"#utility.yul\":205:347   */\n    tag_97:\n        /* \"#utility.yul\":255:264   */\n      0x00\n        /* \"#utility.yul\":288:341   */\n      tag_131\n        /* \"#utility.yul\":306:340   */\n      tag_132\n        /* \"#utility.yul\":315:339   */\n      tag_133\n        /* \"#utility.yul\":333:338   */\n      dup5\n        /* \"#utility.yul\":315:339   */\n      tag_95\n      jump\t// in\n    tag_133:\n        /* \"#utility.yul\":306:340   */\n      tag_96\n      jump\t// in\n    tag_132:\n        /* \"#utility.yul\":288:341   */\n      tag_95\n      jump\t// in\n    tag_131:\n        /* \"#utility.yul\":275:341   */\n      swap1\n      pop\n        /* \"#utility.yul\":205:347   */\n      swap2\n      swap1\n      pop\n      jump\t// out\n        /* \"#utility.yul\":353:479   */\n    tag_98:\n        /* \"#utility.yul\":403:412   */\n      0x00\n        /* \"#utility.yul\":436:473   */\n      tag_135\n        /* \"#utility.yul\":467:472   */\n      dup3\n        /* \"#utility.yul\":436:473   */\n      tag_97\n      jump\t// in\n    tag_135:\n        /* \"#utility.yul\":423:473   */\n      swap1\n      pop\n        /* \"#utility.yul\":353:479   */\n      swap2\n      swap1\n      pop\n      jump\t// out\n        /* \"#utility.yul\":485:625   */\n    tag_99:\n        /* \"#utility.yul\":549:558   */\n      0x00\n        /* \"#utility.yul\":582:619   */\n      tag_137\n        /* \"#utility.yul\":613:618   */\n      dup3\n        /* \"#utility.yul\":582:619   */\n      tag_98\n      jump\t// in\n    tag_137:\n        /* \"#utility.yul\":569:619   */\n      swap1\n      pop\n        /* \"#utility.yul\":485:625   */\n      swap2\n      swap1\n      pop\n      jump\t// out\n        /* \"#utility.yul\":631:790   */\n    tag_100:\n        /* \"#utility.yul\":732:783   */\n      tag_139\n        /* \"#utility.yul\":777:782   */\n      dup2\n        /* \"#utility.yul\":732:783   */\n      tag_99\n      jump\t// in\n    tag_139:\n        /* \"#utility.yul\":727:730   */\n      dup3\n        /* \"#utility.yul\":720:784   */\n      mstore\n        /* \"#utility.yul\":631:790   */\n      pop\n      pop\n      jump\t// out\n        /* \"#utility.yul\":796:1046   */\n    tag_14:\n        /* \"#utility.yul\":903:907   */\n      0x00\n        /* \"#utility.yul\":941:943   */\n      0x20\n        /* \"#utility.yul\":930:939   */\n      dup3\n        /* \"#utility.yul\":926:944   */\n      add\n        /* \"#utility.yul\":918:944   */\n      swap1\n      pop\n        /* \"#utility.yul\":954:1039   */\n      tag_141\n        /* \"#utility.yul\":1036:1037   */\n      0x00\n        /* \"#utility.yul\":1025:1034   */\n      dup4\n        /* \"#utility.yul\":1021:1038   */\n      add\n        /* \"#utility.yul\":1012:1018   */\n      dup5\n        /* \"#utility.yul\":954:1039   */\n      tag_100\n      jump\t// in\n    tag_141:\n        /* \"#utility.yul\":796:1046   */\n      swap3\n      swap2\n      pop\n      pop\n      jump\t// out\n        /* \"#utility.yul\":1052:1148   */\n    tag_101:\n        /* \"#utility.yul\":1089:1096   */\n      0x00\n        /* \"#utility.yul\":1118:1142   */\n      tag_143\n        /* \"#utility.yul\":1136:1141   */\n      dup3\n        /* \"#utility.yul\":1118:1142   */\n      tag_95\n      jump\t// in\n    tag_143:\n        /* \"#utility.yul\":1107:1142   */\n      swap1\n      pop\n        /* \"#utility.yul\":1052:1148   */\n      swap2\n      swap1\n      pop\n      jump\t// out\n        /* \"#utility.yul\":1154:1272   */\n    tag_102:\n        /* \"#utility.yul\":1241:1265   */\n      tag_145\n        /* \"#utility.yul\":1259:1264   */\n      dup2\n        /* \"#utility.yul\":1241:1265   */\n      tag_101\n      jump\t// in\n    tag_145:\n        /* \"#utility.yul\":1236:1239   */\n      dup3\n        /* \"#utility.yul\":1229:1266   */\n      mstore\n        /* \"#utility.yul\":1154:1272   */\n      pop\n      pop\n      jump\t// out\n        /* \"#utility.yul\":1278:1500   */\n    tag_19:\n        /* \"#utility.yul\":1371:1375   */\n      0x00\n        /* \"#utility.yul\":1409:1411   */\n      0x20\n        /* \"#utility.yul\":1398:1407   */\n      dup3\n        /* \"#utility.yul\":1394:1412   */\n      add\n        /* \"#utility.yul\":1386:1412   */\n      swap1\n      pop\n        /* \"#utility.yul\":1422:1493   */\n      tag_147\n        /* \"#utility.yul\":1490:1491   */\n      0x00\n        /* \"#utility.yul\":1479:1488   */\n      dup4\n        /* \"#utility.yul\":1475:1492   */\n      add\n        /* \"#utility.yul\":1466:1472   */\n      dup5\n        /* \"#utility.yul\":1422:1493   */\n      tag_102\n      jump\t// in\n    tag_147:\n        /* \"#utility.yul\":1278:1500   */\n      swap3\n      swap2\n      pop\n      pop\n      jump\t// out\n        /* \"#utility.yul\":1587:1704   */\n    tag_104:\n        /* \"#utility.yul\":1696:1697   */\n      0x00\n        /* \"#utility.yul\":1693:1694   */\n      0x00\n        /* \"#utility.yul\":1686:1698   */\n      revert\n        /* \"#utility.yul\":1833:1910   */\n    tag_106:\n        /* \"#utility.yul\":1870:1877   */\n      0x00\n        /* \"#utility.yul\":1899:1904   */\n      dup2\n        /* \"#utility.yul\":1888:1904   */\n      swap1\n      pop\n        /* \"#utility.yul\":1833:1910   */\n      swap2\n      swap1\n      pop\n      jump\t// out\n        /* \"#utility.yul\":1916:2038   */\n    tag_107:\n        /* \"#utility.yul\":1989:2013   */\n      tag_153\n        /* \"#utility.yul\":2007:2012   */\n      dup2\n        /* \"#utility.yul\":1989:2013   */\n      tag_106\n      jump\t// in\n    tag_153:\n        /* \"#utility.yul\":1982:1987   */\n      dup2\n        /* \"#utility.yul\":1979:2014   */\n      eq\n        /* \"#utility.yul\":1969:2032   */\n      tag_154\n      jumpi\n        /* \"#utility.yul\":2028:2029   */\n      0x00\n        /* \"#utility.yul\":2025:2026   */\n      0x00\n        /* \"#utility.yul\":2018:2030   */\n      revert\n        /* \"#utility.yul\":1969:2032   */\n    tag_154:\n        /* \"#utility.yul\":1916:2038   */\n      pop\n      jump\t// out\n        /* \"#utility.yul\":2044:2183   */\n    tag_108:\n        /* \"#utility.yul\":2090:2095   */\n      0x00\n        /* \"#utility.yul\":2128:2134   */\n      dup2\n        /* \"#utility.yul\":2115:2135   */\n      calldataload\n        /* \"#utility.yul\":2106:2135   */\n      swap1\n      pop\n        /* \"#utility.yul\":2144:2177   */\n      tag_156\n        /* \"#utility.yul\":2171:2176   */\n      dup2\n        /* \"#utility.yul\":2144:2177   */\n      tag_107\n      jump\t// in\n    tag_156:\n        /* \"#utility.yul\":2044:2183   */\n      swap3\n      swap2\n      pop\n      pop\n      jump\t// out\n        /* \"#utility.yul\":2189:2518   */\n    tag_25:\n        /* \"#utility.yul\":2248:2254   */\n      0x00\n        /* \"#utility.yul\":2297:2299   */\n      0x20\n        /* \"#utility.yul\":2285:2294   */\n      dup3\n        /* \"#utility.yul\":2276:2283   */\n      dup5\n        /* \"#utility.yul\":2272:2295   */\n      sub\n        /* \"#utility.yul\":2268:2300   */\n      slt\n        /* \"#utility.yul\":2265:2384   */\n      iszero\n      tag_158\n      jumpi\n        /* \"#utility.yul\":2303:2382   */\n      tag_159\n      tag_104\n      jump\t// in\n    tag_159:\n        /* \"#utility.yul\":2265:2384   */\n    tag_158:\n        /* \"#utility.yul\":2423:2424   */\n      0x00\n        /* \"#utility.yul\":2448:2501   */\n      tag_160\n        /* \"#utility.yul\":2493:2500   */\n      dup5\n        /* \"#utility.yul\":2484:2490   */\n      dup3\n        /* \"#utility.yul\":2473:2482   */\n      dup6\n        /* \"#utility.yul\":2469:2491   */\n      add\n        /* \"#utility.yul\":2448:2501   */\n      tag_108\n      jump\t// in\n    tag_160:\n        /* \"#utility.yul\":2438:2501   */\n      swap2\n      pop\n        /* \"#utility.yul\":2394:2511   */\n      pop\n        /* \"#utility.yul\":2189:2518   */\n      swap3\n      swap2\n      pop\n      pop\n      jump\t// out\n        /* \"#utility.yul\":2524:2693   */\n    tag_109:\n        /* \"#utility.yul\":2608:2619   */\n      0x00\n        /* \"#utility.yul\":2642:2648   */\n      dup3\n        /* \"#utility.yul\":2637:2640   */\n      dup3\n        /* \"#utility.yul\":2630:2649   */\n      mstore\n        /* \"#utility.yul\":2682:2686   */\n      0x20\n        /* \"#utility.yul\":2677:2680   */\n      dup3\n        /* \"#utility.yul\":2673:2687   */\n      add\n        /* \"#utility.yul\":2658:2687   */\n      swap1\n      pop\n        /* \"#utility.yul\":2524:2693   */\n      swap3\n      swap2\n      pop\n      pop\n      jump\t// out\n        /* \"#utility.yul\":2699:2861   */\n    tag_110:\n        /* \"#utility.yul\":2839:2853   */\n      0x455448206e6f742073656e740000000000000000000000000000000000000000\n        /* \"#utility.yul\":2835:2836   */\n      0x00\n        /* \"#utility.yul\":2827:2833   */\n      dup3\n        /* \"#utility.yul\":2823:2837   */\n      add\n        /* \"#utility.yul\":2816:2854   */\n      mstore\n        /* \"#utility.yul\":2699:2861   */\n      pop\n      jump\t// out\n        /* \"#utility.yul\":2867:3233   */\n    tag_111:\n        /* \"#utility.yul\":3009:3012   */\n      0x00\n        /* \"#utility.yul\":3030:3097   */\n      tag_164\n        /* \"#utility.yul\":3094:3096   */\n      0x0c\n        /* \"#utility.yul\":3089:3092   */\n      dup4\n        /* \"#utility.yul\":3030:3097   */\n      tag_109\n      jump\t// in\n    tag_164:\n        /* \"#utility.yul\":3023:3097   */\n      swap2\n      pop\n        /* \"#utility.yul\":3106:3199   */\n      tag_165\n        /* \"#utility.yul\":3195:3198   */\n      dup3\n        /* \"#utility.yul\":3106:3199   */\n      tag_110\n      jump\t// in\n    tag_165:\n        /* \"#utility.yul\":3224:3226   */\n      0x20\n        /* \"#utility.yul\":3219:3222   */\n      dup3\n        /* \"#utility.yul\":3215:3227   */\n      add\n        /* \"#utility.yul\":3208:3227   */\n      swap1\n      pop\n        /* \"#utility.yul\":2867:3233   */\n      swap2\n      swap1\n      pop\n      jump\t// out\n        /* \"#utility.yul\":3239:3658   */\n    tag_34:\n        /* \"#utility.yul\":3405:3409   */\n      0x00\n        /* \"#utility.yul\":3443:3445   */\n      0x20\n        /* \"#utility.yul\":3432:3441   */\n      dup3\n        /* \"#utility.yul\":3428:3446   */\n      add\n        /* \"#utility.yul\":3420:3446   */\n      swap1\n      pop\n        /* \"#utility.yul\":3492:3501   */\n      dup2\n        /* \"#utility.yul\":3486:3490   */\n      dup2\n        /* \"#utility.yul\":3482:3502   */\n      sub\n        /* \"#utility.yul\":3478:3479   */\n      0x00\n        /* \"#utility.yul\":3467:3476   */\n      dup4\n        /* \"#utility.yul\":3463:3480   */\n      add\n        /* \"#utility.yul\":3456:3503   */\n      mstore\n        /* \"#utility.yul\":3520:3651   */\n      tag_167\n        /* \"#utility.yul\":3646:3650   */\n      dup2\n        /* \"#utility.yul\":3520:3651   */\n      tag_111\n      jump\t// in\n    tag_167:\n        /* \"#utility.yul\":3512:3651   */\n      swap1\n      pop\n        /* \"#utility.yul\":3239:3658   */\n      swap2\n      swap1\n      pop\n      jump\t// out\n        /* \"#utility.yul\":3664:3844   */\n    tag_112:\n        /* \"#utility.yul\":3712:3789   */\n      0x4e487b7100000000000000000000000000000000000000000000000000000000\n        /* \"#utility.yul\":3709:3710   */\n      0x00\n        /* \"#utility.yul\":3702:3790   */\n      mstore\n        /* \"#utility.yul\":3809:3813   */\n      0x11\n        /* \"#utility.yul\":3806:3807   */\n      0x04\n        /* \"#utility.yul\":3799:3814   */\n      mstore\n        /* \"#utility.yul\":3833:3837   */\n      0x24\n        /* \"#utility.yul\":3830:3831   */\n      0x00\n        /* \"#utility.yul\":3823:3838   */\n      revert\n        /* \"#utility.yul\":3850:4260   */\n    tag_40:\n        /* \"#utility.yul\":3890:3897   */\n      0x00\n        /* \"#utility.yul\":3913:3933   */\n      tag_170\n        /* \"#utility.yul\":3931:3932   */\n      dup3\n        /* \"#utility.yul\":3913:3933   */\n      tag_106\n      jump\t// in\n    tag_170:\n        /* \"#utility.yul\":3908:3933   */\n      swap2\n      pop\n        /* \"#utility.yul\":3947:3967   */\n      tag_171\n        /* \"#utility.yul\":3965:3966   */\n      dup4\n        /* \"#utility.yul\":3947:3967   */\n      tag_106\n      jump\t// in\n    tag_171:\n        /* \"#utility.yul\":3942:3967   */\n      swap3\n      pop\n        /* \"#utility.yul\":4002:4003   */\n      dup3\n        /* \"#utility.yul\":3999:4000   */\n      dup3\n        /* \"#utility.yul\":3995:4004   */\n      mul\n        /* \"#utility.yul\":4024:4054   */\n      tag_172\n        /* \"#utility.yul\":4042:4053   */\n      dup2\n        /* \"#utility.yul\":4024:4054   */\n      tag_106\n      jump\t// in\n    tag_172:\n        /* \"#utility.yul\":4013:4054   */\n      swap2\n      pop\n        /* \"#utility.yul\":4203:4204   */\n      dup3\n        /* \"#utility.yul\":4194:4201   */\n      dup3\n        /* \"#utility.yul\":4190:4205   */\n      div\n        /* \"#utility.yul\":4187:4188   */\n      dup5\n        /* \"#utility.yul\":4184:4206   */\n      eq\n        /* \"#utility.yul\":4164:4165   */\n      dup4\n        /* \"#utility.yul\":4157:4166   */\n      iszero\n        /* \"#utility.yul\":4137:4220   */\n      or\n        /* \"#utility.yul\":4114:4253   */\n      tag_173\n      jumpi\n        /* \"#utility.yul\":4233:4251   */\n      tag_174\n      tag_112\n      jump\t// in\n    tag_174:\n        /* \"#utility.yul\":4114:4253   */\n    tag_173:\n        /* \"#utility.yul\":3898:4260   */\n      pop\n        /* \"#utility.yul\":3850:4260   */\n      swap3\n      swap2\n      pop\n      pop\n      jump\t// out\n        /* \"#utility.yul\":4266:4446   */\n    tag_113:\n        /* \"#utility.yul\":4314:4391   */\n      0x4e487b7100000000000000000000000000000000000000000000000000000000\n        /* \"#utility.yul\":4311:4312   */\n      0x00\n        /* \"#utility.yul\":4304:4392   */\n      mstore\n        /* \"#utility.yul\":4411:4415   */\n      0x12\n        /* \"#utility.yul\":4408:4409   */\n      0x04\n        /* \"#utility.yul\":4401:4416   */\n      mstore\n        /* \"#utility.yul\":4435:4439   */\n      0x24\n        /* \"#utility.yul\":4432:4433   */\n      0x00\n        /* \"#utility.yul\":4425:4440   */\n      revert\n        /* \"#utility.yul\":4452:4637   */\n    tag_42:\n        /* \"#utility.yul\":4492:4493   */\n      0x00\n        /* \"#utility.yul\":4509:4529   */\n      tag_177\n        /* \"#utility.yul\":4527:4528   */\n      dup3\n        /* \"#utility.yul\":4509:4529   */\n      tag_106\n      jump\t// in\n    tag_177:\n        /* \"#utility.yul\":4504:4529   */\n      swap2\n      pop\n        /* \"#utility.yul\":4543:4563   */\n      tag_178\n        /* \"#utility.yul\":4561:4562   */\n      dup4\n        /* \"#utility.yul\":4543:4563   */\n      tag_106\n      jump\t// in\n    tag_178:\n        /* \"#utility.yul\":4538:4563   */\n      swap3\n      pop\n        /* \"#utility.yul\":4582:4583   */\n      dup3\n        /* \"#utility.yul\":4572:4607   */\n      tag_179\n      jumpi\n        /* \"#utility.yul\":4587:4605   */\n      tag_180\n      tag_113\n      jump\t// in\n    tag_180:\n        /* \"#utility.yul\":4572:4607   */\n    tag_179:\n        /* \"#utility.yul\":4629:4630   */\n      dup3\n        /* \"#utility.yul\":4626:4627   */\n      dup3\n        /* \"#utility.yul\":4622:4631   */\n      div\n        /* \"#utility.yul\":4617:4631   */\n      swap1\n      pop\n        /* \"#utility.yul\":4452:4637   */\n      swap3\n      swap2\n      pop\n      pop\n      jump\t// out\n        /* \"#utility.yul\":4643:4786   */\n    tag_114:\n        /* \"#utility.yul\":4700:4705   */\n      0x00\n        /* \"#utility.yul\":4731:4737   */\n      dup2\n        /* \"#utility.yul\":4725:4738   */\n      mload\n        /* \"#utility.yul\":4716:4738   */\n      swap1\n      pop\n        /* \"#utility.yul\":4747:4780   */\n      tag_182\n        /* \"#utility.yul\":4774:4779   */\n      dup2\n        /* \"#utility.yul\":4747:4780   */\n      tag_107\n      jump\t// in\n    tag_182:\n        /* \"#utility.yul\":4643:4786   */\n      swap3\n      swap2\n      pop\n      pop\n      jump\t// out\n        /* \"#utility.yul\":4792:5143   */\n    tag_49:\n        /* \"#utility.yul\":4862:4868   */\n      0x00\n        /* \"#utility.yul\":4911:4913   */\n      0x20\n        /* \"#utility.yul\":4899:4908   */\n      dup3\n        /* \"#utility.yul\":4890:4897   */\n      dup5\n        /* \"#utility.yul\":4886:4909   */\n      sub\n        /* \"#utility.yul\":4882:4914   */\n      slt\n        /* \"#utility.yul\":4879:4998   */\n      iszero\n      tag_184\n      jumpi\n        /* \"#utility.yul\":4917:4996   */\n      tag_185\n      tag_104\n      jump\t// in\n    tag_185:\n        /* \"#utility.yul\":4879:4998   */\n    tag_184:\n        /* \"#utility.yul\":5037:5038   */\n      0x00\n        /* \"#utility.yul\":5062:5126   */\n      tag_186\n        /* \"#utility.yul\":5118:5125   */\n      dup5\n        /* \"#utility.yul\":5109:5115   */\n      dup3\n        /* \"#utility.yul\":5098:5107   */\n      dup6\n        /* \"#utility.yul\":5094:5116   */\n      add\n        /* \"#utility.yul\":5062:5126   */\n      tag_114\n      jump\t// in\n    tag_186:\n        /* \"#utility.yul\":5052:5126   */\n      swap2\n      pop\n        /* \"#utility.yul\":5008:5136   */\n      pop\n        /* \"#utility.yul\":4792:5143   */\n      swap3\n      swap2\n      pop\n      pop\n      jump\t// out\n        /* \"#utility.yul\":5149:5328   */\n    tag_115:\n        /* \"#utility.yul\":5289:5320   */\n      0x496e73756666696369656e74205553444320696e20636f6e7472616374000000\n        /* \"#utility.yul\":5285:5286   */\n      0x00\n        /* \"#utility.yul\":5277:5283   */\n      dup3\n        /* \"#utility.yul\":5273:5287   */\n      add\n        /* \"#utility.yul\":5266:5321   */\n      mstore\n        /* \"#utility.yul\":5149:5328   */\n      pop\n      jump\t// out\n        /* \"#utility.yul\":5334:5700   */\n    tag_116:\n        /* \"#utility.yul\":5476:5479   */\n      0x00\n        /* \"#utility.yul\":5497:5564   */\n      tag_189\n        /* \"#utility.yul\":5561:5563   */\n      0x1d\n        /* \"#utility.yul\":5556:5559   */\n      dup4\n        /* \"#utility.yul\":5497:5564   */\n      tag_109\n      jump\t// in\n    tag_189:\n        /* \"#utility.yul\":5490:5564   */\n      swap2\n      pop\n        /* \"#utility.yul\":5573:5666   */\n      tag_190\n        /* \"#utility.yul\":5662:5665   */\n      dup3\n        /* \"#utility.yul\":5573:5666   */\n      tag_115\n      jump\t// in\n    tag_190:\n        /* \"#utility.yul\":5691:5693   */\n      0x20\n        /* \"#utility.yul\":5686:5689   */\n      dup3\n        /* \"#utility.yul\":5682:5694   */\n      add\n        /* \"#utility.yul\":5675:5694   */\n      swap1\n      pop\n        /* \"#utility.yul\":5334:5700   */\n      swap2\n      swap1\n      pop\n      jump\t// out\n        /* \"#utility.yul\":5706:6125   */\n    tag_52:\n        /* \"#utility.yul\":5872:5876   */\n      0x00\n        /* \"#utility.yul\":5910:5912   */\n      0x20\n        /* \"#utility.yul\":5899:5908   */\n      dup3\n        /* \"#utility.yul\":5895:5913   */\n      add\n        /* \"#utility.yul\":5887:5913   */\n      swap1\n      pop\n        /* \"#utility.yul\":5959:5968   */\n      dup2\n        /* \"#utility.yul\":5953:5957   */\n      dup2\n        /* \"#utility.yul\":5949:5969   */\n      sub\n        /* \"#utility.yul\":5945:5946   */\n      0x00\n        /* \"#utility.yul\":5934:5943   */\n      dup4\n        /* \"#utility.yul\":5930:5947   */\n      add\n        /* \"#utility.yul\":5923:5970   */\n      mstore\n        /* \"#utility.yul\":5987:6118   */\n      tag_192\n        /* \"#utility.yul\":6113:6117   */\n      dup2\n        /* \"#utility.yul\":5987:6118   */\n      tag_116\n      jump\t// in\n    tag_192:\n        /* \"#utility.yul\":5979:6118   */\n      swap1\n      pop\n        /* \"#utility.yul\":5706:6125   */\n      swap2\n      swap1\n      pop\n      jump\t// out\n        /* \"#utility.yul\":6131:6249   */\n    tag_117:\n        /* \"#utility.yul\":6218:6242   */\n      tag_194\n        /* \"#utility.yul\":6236:6241   */\n      dup2\n        /* \"#utility.yul\":6218:6242   */\n      tag_106\n      jump\t// in\n    tag_194:\n        /* \"#utility.yul\":6213:6216   */\n      dup3\n        /* \"#utility.yul\":6206:6243   */\n      mstore\n        /* \"#utility.yul\":6131:6249   */\n      pop\n      pop\n      jump\t// out\n        /* \"#utility.yul\":6255:6587   */\n    tag_54:\n        /* \"#utility.yul\":6376:6380   */\n      0x00\n        /* \"#utility.yul\":6414:6416   */\n      0x40\n        /* \"#utility.yul\":6403:6412   */\n      dup3\n        /* \"#utility.yul\":6399:6417   */\n      add\n        /* \"#utility.yul\":6391:6417   */\n      swap1\n      pop\n        /* \"#utility.yul\":6427:6498   */\n      tag_196\n        /* \"#utility.yul\":6495:6496   */\n      0x00\n        /* \"#utility.yul\":6484:6493   */\n      dup4\n        /* \"#utility.yul\":6480:6497   */\n      add\n        /* \"#utility.yul\":6471:6477   */\n      dup6\n        /* \"#utility.yul\":6427:6498   */\n      tag_102\n      jump\t// in\n    tag_196:\n        /* \"#utility.yul\":6508:6580   */\n      tag_197\n        /* \"#utility.yul\":6576:6578   */\n      0x20\n        /* \"#utility.yul\":6565:6574   */\n      dup4\n        /* \"#utility.yul\":6561:6579   */\n      add\n        /* \"#utility.yul\":6552:6558   */\n      dup5\n        /* \"#utility.yul\":6508:6580   */\n      tag_117\n      jump\t// in\n    tag_197:\n        /* \"#utility.yul\":6255:6587   */\n      swap4\n      swap3\n      pop\n      pop\n      pop\n      jump\t// out\n        /* \"#utility.yul\":6593:6683   */\n    tag_118:\n        /* \"#utility.yul\":6627:6634   */\n      0x00\n        /* \"#utility.yul\":6670:6675   */\n      dup2\n        /* \"#utility.yul\":6663:6676   */\n      iszero\n        /* \"#utility.yul\":6656:6677   */\n      iszero\n        /* \"#utility.yul\":6645:6677   */\n      swap1\n      pop\n        /* \"#utility.yul\":6593:6683   */\n      swap2\n      swap1\n      pop\n      jump\t// out\n        /* \"#utility.yul\":6689:6805   */\n    tag_119:\n        /* \"#utility.yul\":6759:6780   */\n      tag_200\n        /* \"#utility.yul\":6774:6779   */\n      dup2\n        /* \"#utility.yul\":6759:6780   */\n      tag_118\n      jump\t// in\n    tag_200:\n        /* \"#utility.yul\":6752:6757   */\n      dup2\n        /* \"#utility.yul\":6749:6781   */\n      eq\n        /* \"#utility.yul\":6739:6799   */\n      tag_201\n      jumpi\n        /* \"#utility.yul\":6795:6796   */\n      0x00\n        /* \"#utility.yul\":6792:6793   */\n      0x00\n        /* \"#utility.yul\":6785:6797   */\n      revert\n        /* \"#utility.yul\":6739:6799   */\n    tag_201:\n        /* \"#utility.yul\":6689:6805   */\n      pop\n      jump\t// out\n        /* \"#utility.yul\":6811:6948   */\n    tag_120:\n        /* \"#utility.yul\":6865:6870   */\n      0x00\n        /* \"#utility.yul\":6896:6902   */\n      dup2\n        /* \"#utility.yul\":6890:6903   */\n      mload\n        /* \"#utility.yul\":6881:6903   */\n      swap1\n      pop\n        /* \"#utility.yul\":6912:6942   */\n      tag_203\n        /* \"#utility.yul\":6936:6941   */\n      dup2\n        /* \"#utility.yul\":6912:6942   */\n      tag_119\n      jump\t// in\n    tag_203:\n        /* \"#utility.yul\":6811:6948   */\n      swap3\n      swap2\n      pop\n      pop\n      jump\t// out\n        /* \"#utility.yul\":6954:7299   */\n    tag_58:\n        /* \"#utility.yul\":7021:7027   */\n      0x00\n        /* \"#utility.yul\":7070:7072   */\n      0x20\n        /* \"#utility.yul\":7058:7067   */\n      dup3\n        /* \"#utility.yul\":7049:7056   */\n      dup5\n        /* \"#utility.yul\":7045:7068   */\n      sub\n        /* \"#utility.yul\":7041:7073   */\n      slt\n        /* \"#utility.yul\":7038:7157   */\n      iszero\n      tag_205\n      jumpi\n        /* \"#utility.yul\":7076:7155   */\n      tag_206\n      tag_104\n      jump\t// in\n    tag_206:\n        /* \"#utility.yul\":7038:7157   */\n    tag_205:\n        /* \"#utility.yul\":7196:7197   */\n      0x00\n        /* \"#utility.yul\":7221:7282   */\n      tag_207\n        /* \"#utility.yul\":7274:7281   */\n      dup5\n        /* \"#utility.yul\":7265:7271   */\n      dup3\n        /* \"#utility.yul\":7254:7263   */\n      dup6\n        /* \"#utility.yul\":7250:7272   */\n      add\n        /* \"#utility.yul\":7221:7282   */\n      tag_120\n      jump\t// in\n    tag_207:\n        /* \"#utility.yul\":7211:7282   */\n      swap2\n      pop\n        /* \"#utility.yul\":7167:7292   */\n      pop\n        /* \"#utility.yul\":6954:7299   */\n      swap3\n      swap2\n      pop\n      pop\n      jump\t// out\n        /* \"#utility.yul\":7305:7475   */\n    tag_121:\n        /* \"#utility.yul\":7445:7467   */\n      0x55534443207472616e73666572206661696c6564000000000000000000000000\n        /* \"#utility.yul\":7441:7442   */\n      0x00\n        /* \"#utility.yul\":7433:7439   */\n      dup3\n        /* \"#utility.yul\":7429:7443   */\n      add\n        /* \"#utility.yul\":7422:7468   */\n      mstore\n        /* \"#utility.yul\":7305:7475   */\n      pop\n      jump\t// out\n        /* \"#utility.yul\":7481:7847   */\n    tag_122:\n        /* \"#utility.yul\":7623:7626   */\n      0x00\n        /* \"#utility.yul\":7644:7711   */\n      tag_210\n        /* \"#utility.yul\":7708:7710   */\n      0x14\n        /* \"#utility.yul\":7703:7706   */\n      dup4\n        /* \"#utility.yul\":7644:7711   */\n      tag_109\n      jump\t// in\n    tag_210:\n        /* \"#utility.yul\":7637:7711   */\n      swap2\n      pop\n        /* \"#utility.yul\":7720:7813   */\n      tag_211\n        /* \"#utility.yul\":7809:7812   */\n      dup3\n        /* \"#utility.yul\":7720:7813   */\n      tag_121\n      jump\t// in\n    tag_211:\n        /* \"#utility.yul\":7838:7840   */\n      0x20\n        /* \"#utility.yul\":7833:7836   */\n      dup3\n        /* \"#utility.yul\":7829:7841   */\n      add\n        /* \"#utility.yul\":7822:7841   */\n      swap1\n      pop\n        /* \"#utility.yul\":7481:7847   */\n      swap2\n      swap1\n      pop\n      jump\t// out\n        /* \"#utility.yul\":7853:8272   */\n    tag_61:\n        /* \"#utility.yul\":8019:8023   */\n      0x00\n        /* \"#utility.yul\":8057:8059   */\n      0x20\n        /* \"#utility.yul\":8046:8055   */\n      dup3\n        /* \"#utility.yul\":8042:8060   */\n      add\n        /* \"#utility.yul\":8034:8060   */\n      swap1\n      pop\n        /* \"#utility.yul\":8106:8115   */\n      dup2\n        /* \"#utility.yul\":8100:8104   */\n      dup2\n        /* \"#utility.yul\":8096:8116   */\n      sub\n        /* \"#utility.yul\":8092:8093   */\n      0x00\n        /* \"#utility.yul\":8081:8090   */\n      dup4\n        /* \"#utility.yul\":8077:8094   */\n      add\n        /* \"#utility.yul\":8070:8117   */\n      mstore\n        /* \"#utility.yul\":8134:8265   */\n      tag_213\n        /* \"#utility.yul\":8260:8264   */\n      dup2\n        /* \"#utility.yul\":8134:8265   */\n      tag_122\n      jump\t// in\n    tag_213:\n        /* \"#utility.yul\":8126:8265   */\n      swap1\n      pop\n        /* \"#utility.yul\":7853:8272   */\n      swap2\n      swap1\n      pop\n      jump\t// out\n        /* \"#utility.yul\":8278:8457   */\n    tag_123:\n        /* \"#utility.yul\":8418:8449   */\n      0x416d6f756e74206d7573742062652067726561746572207468616e2030000000\n        /* \"#utility.yul\":8414:8415   */\n      0x00\n        /* \"#utility.yul\":8406:8412   */\n      dup3\n        /* \"#utility.yul\":8402:8416   */\n      add\n        /* \"#utility.yul\":8395:8450   */\n      mstore\n        /* \"#utility.yul\":8278:8457   */\n      pop\n      jump\t// out\n        /* \"#utility.yul\":8463:8829   */\n    tag_124:\n        /* \"#utility.yul\":8605:8608   */\n      0x00\n        /* \"#utility.yul\":8626:8693   */\n      tag_216\n        /* \"#utility.yul\":8690:8692   */\n      0x1d\n        /* \"#utility.yul\":8685:8688   */\n      dup4\n        /* \"#utility.yul\":8626:8693   */\n      tag_109\n      jump\t// in\n    tag_216:\n        /* \"#utility.yul\":8619:8693   */\n      swap2\n      pop\n        /* \"#utility.yul\":8702:8795   */\n      tag_217\n        /* \"#utility.yul\":8791:8794   */\n      dup3\n        /* \"#utility.yul\":8702:8795   */\n      tag_123\n      jump\t// in\n    tag_217:\n        /* \"#utility.yul\":8820:8822   */\n      0x20\n        /* \"#utility.yul\":8815:8818   */\n      dup3\n        /* \"#utility.yul\":8811:8823   */\n      add\n        /* \"#utility.yul\":8804:8823   */\n      swap1\n      pop\n        /* \"#utility.yul\":8463:8829   */\n      swap2\n      swap1\n      pop\n      jump\t// out\n        /* \"#utility.yul\":8835:9254   */\n    tag_65:\n        /* \"#utility.yul\":9001:9005   */\n      0x00\n        /* \"#utility.yul\":9039:9041   */\n      0x20\n        /* \"#utility.yul\":9028:9037   */\n      dup3\n        /* \"#utility.yul\":9024:9042   */\n      add\n        /* \"#utility.yul\":9016:9042   */\n      swap1\n      pop\n        /* \"#utility.yul\":9088:9097   */\n      dup2\n        /* \"#utility.yul\":9082:9086   */\n      dup2\n        /* \"#utility.yul\":9078:9098   */\n      sub\n        /* \"#utility.yul\":9074:9075   */\n      0x00\n        /* \"#utility.yul\":9063:9072   */\n      dup4\n        /* \"#utility.yul\":9059:9076   */\n      add\n        /* \"#utility.yul\":9052:9099   */\n      mstore\n        /* \"#utility.yul\":9116:9247   */\n      tag_219\n        /* \"#utility.yul\":9242:9246   */\n      dup2\n        /* \"#utility.yul\":9116:9247   */\n      tag_124\n      jump\t// in\n    tag_219:\n        /* \"#utility.yul\":9108:9247   */\n      swap1\n      pop\n        /* \"#utility.yul\":8835:9254   */\n      swap2\n      swap1\n      pop\n      jump\t// out\n        /* \"#utility.yul\":9260:9438   */\n    tag_125:\n        /* \"#utility.yul\":9400:9430   */\n      0x496e73756666696369656e742045544820696e20636f6e747261637400000000\n        /* \"#utility.yul\":9396:9397   */\n      0x00\n        /* \"#utility.yul\":9388:9394   */\n      dup3\n        /* \"#utility.yul\":9384:9398   */\n      add\n        /* \"#utility.yul\":9377:9431   */\n      mstore\n        /* \"#utility.yul\":9260:9438   */\n      pop\n      jump\t// out\n        /* \"#utility.yul\":9444:9810   */\n    tag_126:\n        /* \"#utility.yul\":9586:9589   */\n      0x00\n        /* \"#utility.yul\":9607:9674   */\n      tag_222\n        /* \"#utility.yul\":9671:9673   */\n      0x1c\n        /* \"#utility.yul\":9666:9669   */\n      dup4\n        /* \"#utility.yul\":9607:9674   */\n      tag_109\n      jump\t// in\n    tag_222:\n        /* \"#utility.yul\":9600:9674   */\n      swap2\n      pop\n        /* \"#utility.yul\":9683:9776   */\n      tag_223\n        /* \"#utility.yul\":9772:9775   */\n      dup3\n        /* \"#utility.yul\":9683:9776   */\n      tag_125\n      jump\t// in\n    tag_223:\n        /* \"#utility.yul\":9801:9803   */\n      0x20\n        /* \"#utility.yul\":9796:9799   */\n      dup3\n        /* \"#utility.yul\":9792:9804   */\n      add\n        /* \"#utility.yul\":9785:9804   */\n      swap1\n      pop\n        /* \"#utility.yul\":9444:9810   */\n      swap2\n      swap1\n      pop\n      jump\t// out\n        /* \"#utility.yul\":9816:10235   */\n    tag_74:\n        /* \"#utility.yul\":9982:9986   */\n      0x00\n        /* \"#utility.yul\":10020:10022   */\n      0x20\n        /* \"#utility.yul\":10009:10018   */\n      dup3\n        /* \"#utility.yul\":10005:10023   */\n      add\n        /* \"#utility.yul\":9997:10023   */\n      swap1\n      pop\n        /* \"#utility.yul\":10069:10078   */\n      dup2\n        /* \"#utility.yul\":10063:10067   */\n      dup2\n        /* \"#utility.yul\":10059:10079   */\n      sub\n        /* \"#utility.yul\":10055:10056   */\n      0x00\n        /* \"#utility.yul\":10044:10053   */\n      dup4\n        /* \"#utility.yul\":10040:10057   */\n      add\n        /* \"#utility.yul\":10033:10080   */\n      mstore\n        /* \"#utility.yul\":10097:10228   */\n      tag_225\n        /* \"#utility.yul\":10223:10227   */\n      dup2\n        /* \"#utility.yul\":10097:10228   */\n      tag_126\n      jump\t// in\n    tag_225:\n        /* \"#utility.yul\":10089:10228   */\n      swap1\n      pop\n        /* \"#utility.yul\":9816:10235   */\n      swap2\n      swap1\n      pop\n      jump\t// out\n        /* \"#utility.yul\":10241:10683   */\n    tag_76:\n        /* \"#utility.yul\":10390:10394   */\n      0x00\n        /* \"#utility.yul\":10428:10430   */\n      0x60\n        /* \"#utility.yul\":10417:10426   */\n      dup3\n        /* \"#utility.yul\":10413:10431   */\n      add\n        /* \"#utility.yul\":10405:10431   */\n      swap1\n      pop\n        /* \"#utility.yul\":10441:10512   */\n      tag_227\n        /* \"#utility.yul\":10509:10510   */\n      0x00\n        /* \"#utility.yul\":10498:10507   */\n      dup4\n        /* \"#utility.yul\":10494:10511   */\n      add\n        /* \"#utility.yul\":10485:10491   */\n      dup7\n        /* \"#utility.yul\":10441:10512   */\n      tag_102\n      jump\t// in\n    tag_227:\n        /* \"#utility.yul\":10522:10594   */\n      tag_228\n        /* \"#utility.yul\":10590:10592   */\n      0x20\n        /* \"#utility.yul\":10579:10588   */\n      dup4\n        /* \"#utility.yul\":10575:10593   */\n      add\n        /* \"#utility.yul\":10566:10572   */\n      dup6\n        /* \"#utility.yul\":10522:10594   */\n      tag_102\n      jump\t// in\n    tag_228:\n        /* \"#utility.yul\":10604:10676   */\n      tag_229\n        /* \"#utility.yul\":10672:10674   */\n      0x40\n        /* \"#utility.yul\":10661:10670   */\n      dup4\n        /* \"#utility.yul\":10657:10675   */\n      add\n        /* \"#utility.yul\":10648:10654   */\n      dup5\n        /* \"#utility.yul\":10604:10676   */\n      tag_117\n      jump\t// in\n    tag_229:\n        /* \"#utility.yul\":10241:10683   */\n      swap5\n      swap4\n      pop\n      pop\n      pop\n      pop\n      jump\t// out\n\n    auxdata: 0xa2646970667358221220d6c21edf713542183c105e6fb4e6ee9a53987d62834f74a3298ad6e3efaf163e64736f6c634300081e0033\n}\n",
				"bytecode": {
					"linkReferences": {},
					"object": "608060405234801561000f575f5ffd5b503360035f6101000a81548173ffffffffffffffffffffffffffffffffffffffff021916908373ffffffffffffffffffffffffffffffffffffffff16021790555073ffcef71ea3221b3ea2c4459ae1ba4989ebff904a60025f6101000a81548173ffffffffffffffffffffffffffffffffffffffff021916908373ffffffffffffffffffffffffffffffffffffffff16021790555073694aa1769357215de4fac081bf1f309adc3253065f5f6101000a81548173ffffffffffffffffffffffffffffffffffffffff021916908373ffffffffffffffffffffffffffffffffffffffff1602179055507351597f405303c4377e36123cbc172b13269ea16360015f6101000a81548173ffffffffffffffffffffffffffffffffffffffff021916908373ffffffffffffffffffffffffffffffffffffffff160217905550610c36806101585f395ff3fe60806040526004361061004d575f3560e01c806311eac855146100585780638da5cb5b14610082578063905f1269146100ac578063cc85aeaf146100b6578063f688bcfb146100de57610054565b3661005457005b5f5ffd5b348015610063575f5ffd5b5061006c610106565b604051610079919061075f565b60405180910390f35b34801561008d575f5ffd5b5061009661012b565b6040516100a39190610798565b60405180910390f35b6100b4610150565b005b3480156100c1575f5ffd5b506100dc60048036038101906100d791906107e8565b6103a4565b005b3480156100e9575f5ffd5b5061010460048036038101906100ff91906107e8565b6105a7565b005b60025f9054906101000a900473ffffffffffffffffffffffffffffffffffffffff1681565b60035f9054906101000a900473ffffffffffffffffffffffffffffffffffffffff1681565b5f3411610192576040517f08c379a00000000000000000000000000000000000000000000000000000000081526004016101899061086d565b60405180910390fd5b5f61019b6106ce565b90505f6101a66106da565b90505f6305f5e10083346101ba91906108b8565b6101c49190610926565b90505f82620f4240836101d791906108b8565b6101e19190610926565b90508060025f9054906101000a900473ffffffffffffffffffffffffffffffffffffffff1673ffffffffffffffffffffffffffffffffffffffff166370a08231306040518263ffffffff1660e01b815260040161023e9190610798565b602060405180830381865afa158015610259573d5f5f3e3d5ffd5b505050506040513d601f19601f8201168201806040525081019061027d919061096a565b10156102be576040517f08c379a00000000000000000000000000000000000000000000000000000000081526004016102b5906109df565b60405180910390fd5b5f60025f9054906101000a900473ffffffffffffffffffffffffffffffffffffffff1673ffffffffffffffffffffffffffffffffffffffff1663a9059cbb33846040518363ffffffff1660e01b815260040161031b929190610a0c565b6020604051808303815f875af1158015610337573d5f5f3e3d5ffd5b505050506040513d601f19601f8201168201806040525081019061035b9190610a68565b90508061039d576040517f08c379a000000000000000000000000000000000000000000000000000000000815260040161039490610add565b60405180910390fd5b5050505050565b5f81116103e6576040517f08c379a00000000000000000000000000000000000000000000000000000000081526004016103dd90610b45565b60405180910390fd5b5f6103ef6106ce565b90505f6103fa6106da565b90505f620f4240828561040d91906108b8565b6104179190610926565b90505f836305f5e1008361042b91906108b8565b6104359190610926565b90508047101561047a576040517f08c379a000000000000000000000000000000000000000000000000000000000815260040161047190610bad565b60405180910390fd5b5f60025f9054906101000a900473ffffffffffffffffffffffffffffffffffffffff1673ffffffffffffffffffffffffffffffffffffffff166323b872dd3330896040518463ffffffff1660e01b81526004016104d993929190610bcb565b6020604051808303815f875af11580156104f5573d5f5f3e3d5ffd5b505050506040513d601f19601f820116820180604052508101906105199190610a68565b90508061055b576040517f08c379a000000000000000000000000000000000000000000000000000000000815260040161055290610add565b60405180910390fd5b3373ffffffffffffffffffffffffffffffffffffffff166108fc8390811502906040515f60405180830381858888f1935050505015801561059e573d5f5f3e3d5ffd5b50505050505050565b5f81116105e9576040517f08c379a00000000000000000000000000000000000000000000000000000000081526004016105e090610b45565b60405180910390fd5b5f60025f9054906101000a900473ffffffffffffffffffffffffffffffffffffffff1673ffffffffffffffffffffffffffffffffffffffff166323b872dd3330856040518463ffffffff1660e01b815260040161064893929190610bcb565b6020604051808303815f875af1158015610664573d5f5f3e3d5ffd5b505050506040513d601f19601f820116820180604052508101906106889190610a68565b9050806106ca576040517f08c379a00000000000000000000000000000000000000000000000000000000081526004016106c190610add565b60405180910390fd5b5050565b5f6445d964b800905090565b5f6305f5e100905090565b5f73ffffffffffffffffffffffffffffffffffffffff82169050919050565b5f819050919050565b5f61072761072261071d846106e5565b610704565b6106e5565b9050919050565b5f6107388261070d565b9050919050565b5f6107498261072e565b9050919050565b6107598161073f565b82525050565b5f6020820190506107725f830184610750565b92915050565b5f610782826106e5565b9050919050565b61079281610778565b82525050565b5f6020820190506107ab5f830184610789565b92915050565b5f5ffd5b5f819050919050565b6107c7816107b5565b81146107d1575f5ffd5b50565b5f813590506107e2816107be565b92915050565b5f602082840312156107fd576107fc6107b1565b5b5f61080a848285016107d4565b91505092915050565b5f82825260208201905092915050565b7f455448206e6f742073656e7400000000000000000000000000000000000000005f82015250565b5f610857600c83610813565b915061086282610823565b602082019050919050565b5f6020820190508181035f8301526108848161084b565b9050919050565b7f4e487b71000000000000000000000000000000000000000000000000000000005f52601160045260245ffd5b5f6108c2826107b5565b91506108cd836107b5565b92508282026108db816107b5565b915082820484148315176108f2576108f161088b565b5b5092915050565b7f4e487b71000000000000000000000000000000000000000000000000000000005f52601260045260245ffd5b5f610930826107b5565b915061093b836107b5565b92508261094b5761094a6108f9565b5b828204905092915050565b5f81519050610964816107be565b92915050565b5f6020828403121561097f5761097e6107b1565b5b5f61098c84828501610956565b91505092915050565b7f496e73756666696369656e74205553444320696e20636f6e74726163740000005f82015250565b5f6109c9601d83610813565b91506109d482610995565b602082019050919050565b5f6020820190508181035f8301526109f6816109bd565b9050919050565b610a06816107b5565b82525050565b5f604082019050610a1f5f830185610789565b610a2c60208301846109fd565b9392505050565b5f8115159050919050565b610a4781610a33565b8114610a51575f5ffd5b50565b5f81519050610a6281610a3e565b92915050565b5f60208284031215610a7d57610a7c6107b1565b5b5f610a8a84828501610a54565b91505092915050565b7f55534443207472616e73666572206661696c65640000000000000000000000005f82015250565b5f610ac7601483610813565b9150610ad282610a93565b602082019050919050565b5f6020820190508181035f830152610af481610abb565b9050919050565b7f416d6f756e74206d7573742062652067726561746572207468616e20300000005f82015250565b5f610b2f601d83610813565b9150610b3a82610afb565b602082019050919050565b5f6020820190508181035f830152610b5c81610b23565b9050919050565b7f496e73756666696369656e742045544820696e20636f6e7472616374000000005f82015250565b5f610b97601c83610813565b9150610ba282610b63565b602082019050919050565b5f6020820190508181035f830152610bc481610b8b565b9050919050565b5f606082019050610bde5f830186610789565b610beb6020830185610789565b610bf860408301846109fd565b94935050505056fea2646970667358221220d6c21edf713542183c105e6fb4e6ee9a53987d62834f74a3298ad6e3efaf163e64736f6c634300081e0033",
					"opcodes": "PUSH1 0x80 PUSH1 0x40 MSTORE CALLVALUE DUP1 ISZERO PUSH2 0xF JUMPI PUSH0 PUSH0 REVERT JUMPDEST POP CALLER PUSH1 0x3 PUSH0 PUSH2 0x100 EXP DUP2 SLOAD DUP2 PUSH20 0xFFFFFFFFFFFFFFFFFFFFFFFFFFFFFFFFFFFFFFFF MUL NOT AND SWAP1 DUP4 PUSH20 0xFFFFFFFFFFFFFFFFFFFFFFFFFFFFFFFFFFFFFFFF AND MUL OR SWAP1 SSTORE POP PUSH20 0xFFCEF71EA3221B3EA2C4459AE1BA4989EBFF904A PUSH1 0x2 PUSH0 PUSH2 0x100 EXP DUP2 SLOAD DUP2 PUSH20 0xFFFFFFFFFFFFFFFFFFFFFFFFFFFFFFFFFFFFFFFF MUL NOT AND SWAP1 DUP4 PUSH20 0xFFFFFFFFFFFFFFFFFFFFFFFFFFFFFFFFFFFFFFFF AND MUL OR SWAP1 SSTORE POP PUSH20 0x694AA1769357215DE4FAC081BF1F309ADC325306 PUSH0 PUSH0 PUSH2 0x100 EXP DUP2 SLOAD DUP2 PUSH20 0xFFFFFFFFFFFFFFFFFFFFFFFFFFFFFFFFFFFFFFFF MUL NOT AND SWAP1 DUP4 PUSH20 0xFFFFFFFFFFFFFFFFFFFFFFFFFFFFFFFFFFFFFFFF AND MUL OR SWAP1 SSTORE POP PUSH20 0x51597F405303C4377E36123CBC172B13269EA163 PUSH1 0x1 PUSH0 PUSH2 0x100 EXP DUP2 SLOAD DUP2 PUSH20 0xFFFFFFFFFFFFFFFFFFFFFFFFFFFFFFFFFFFFFFFF MUL NOT AND SWAP1 DUP4 PUSH20 0xFFFFFFFFFFFFFFFFFFFFFFFFFFFFFFFFFFFFFFFF AND MUL OR SWAP1 SSTORE POP PUSH2 0xC36 DUP1 PUSH2 0x158 PUSH0 CODECOPY PUSH0 RETURN INVALID PUSH1 0x80 PUSH1 0x40 MSTORE PUSH1 0x4 CALLDATASIZE LT PUSH2 0x4D JUMPI PUSH0 CALLDATALOAD PUSH1 0xE0 SHR DUP1 PUSH4 0x11EAC855 EQ PUSH2 0x58 JUMPI DUP1 PUSH4 0x8DA5CB5B EQ PUSH2 0x82 JUMPI DUP1 PUSH4 0x905F1269 EQ PUSH2 0xAC JUMPI DUP1 PUSH4 0xCC85AEAF EQ PUSH2 0xB6 JUMPI DUP1 PUSH4 0xF688BCFB EQ PUSH2 0xDE JUMPI PUSH2 0x54 JUMP JUMPDEST CALLDATASIZE PUSH2 0x54 JUMPI STOP JUMPDEST PUSH0 PUSH0 REVERT JUMPDEST CALLVALUE DUP1 ISZERO PUSH2 0x63 JUMPI PUSH0 PUSH0 REVERT JUMPDEST POP PUSH2 0x6C PUSH2 0x106 JUMP JUMPDEST PUSH1 0x40 MLOAD PUSH2 0x79 SWAP2 SWAP1 PUSH2 0x75F JUMP JUMPDEST PUSH1 0x40 MLOAD DUP1 SWAP2 SUB SWAP1 RETURN JUMPDEST CALLVALUE DUP1 ISZERO PUSH2 0x8D JUMPI PUSH0 PUSH0 REVERT JUMPDEST POP PUSH2 0x96 PUSH2 0x12B JUMP JUMPDEST PUSH1 0x40 MLOAD PUSH2 0xA3 SWAP2 SWAP1 PUSH2 0x798 JUMP JUMPDEST PUSH1 0x40 MLOAD DUP1 SWAP2 SUB SWAP1 RETURN JUMPDEST PUSH2 0xB4 PUSH2 0x150 JUMP JUMPDEST STOP JUMPDEST CALLVALUE DUP1 ISZERO PUSH2 0xC1 JUMPI PUSH0 PUSH0 REVERT JUMPDEST POP PUSH2 0xDC PUSH1 0x4 DUP1 CALLDATASIZE SUB DUP2 ADD SWAP1 PUSH2 0xD7 SWAP2 SWAP1 PUSH2 0x7E8 JUMP JUMPDEST PUSH2 0x3A4 JUMP JUMPDEST STOP JUMPDEST CALLVALUE DUP1 ISZERO PUSH2 0xE9 JUMPI PUSH0 PUSH0 REVERT JUMPDEST POP PUSH2 0x104 PUSH1 0x4 DUP1 CALLDATASIZE SUB DUP2 ADD SWAP1 PUSH2 0xFF SWAP2 SWAP1 PUSH2 0x7E8 JUMP JUMPDEST PUSH2 0x5A7 JUMP JUMPDEST STOP JUMPDEST PUSH1 0x2 PUSH0 SWAP1 SLOAD SWAP1 PUSH2 0x100 EXP SWAP1 DIV PUSH20 0xFFFFFFFFFFFFFFFFFFFFFFFFFFFFFFFFFFFFFFFF AND DUP2 JUMP JUMPDEST PUSH1 0x3 PUSH0 SWAP1 SLOAD SWAP1 PUSH2 0x100 EXP SWAP1 DIV PUSH20 0xFFFFFFFFFFFFFFFFFFFFFFFFFFFFFFFFFFFFFFFF AND DUP2 JUMP JUMPDEST PUSH0 CALLVALUE GT PUSH2 0x192 JUMPI PUSH1 0x40 MLOAD PUSH32 0x8C379A000000000000000000000000000000000000000000000000000000000 DUP2 MSTORE PUSH1 0x4 ADD PUSH2 0x189 SWAP1 PUSH2 0x86D JUMP JUMPDEST PUSH1 0x40 MLOAD DUP1 SWAP2 SUB SWAP1 REVERT JUMPDEST PUSH0 PUSH2 0x19B PUSH2 0x6CE JUMP JUMPDEST SWAP1 POP PUSH0 PUSH2 0x1A6 PUSH2 0x6DA JUMP JUMPDEST SWAP1 POP PUSH0 PUSH4 0x5F5E100 DUP4 CALLVALUE PUSH2 0x1BA SWAP2 SWAP1 PUSH2 0x8B8 JUMP JUMPDEST PUSH2 0x1C4 SWAP2 SWAP1 PUSH2 0x926 JUMP JUMPDEST SWAP1 POP PUSH0 DUP3 PUSH3 0xF4240 DUP4 PUSH2 0x1D7 SWAP2 SWAP1 PUSH2 0x8B8 JUMP JUMPDEST PUSH2 0x1E1 SWAP2 SWAP1 PUSH2 0x926 JUMP JUMPDEST SWAP1 POP DUP1 PUSH1 0x2 PUSH0 SWAP1 SLOAD SWAP1 PUSH2 0x100 EXP SWAP1 DIV PUSH20 0xFFFFFFFFFFFFFFFFFFFFFFFFFFFFFFFFFFFFFFFF AND PUSH20 0xFFFFFFFFFFFFFFFFFFFFFFFFFFFFFFFFFFFFFFFF AND PUSH4 0x70A08231 ADDRESS PUSH1 0x40 MLOAD DUP3 PUSH4 0xFFFFFFFF AND PUSH1 0xE0 SHL DUP2 MSTORE PUSH1 0x4 ADD PUSH2 0x23E SWAP2 SWAP1 PUSH2 0x798 JUMP JUMPDEST PUSH1 0x20 PUSH1 0x40 MLOAD DUP1 DUP4 SUB DUP2 DUP7 GAS STATICCALL ISZERO DUP1 ISZERO PUSH2 0x259 JUMPI RETURNDATASIZE PUSH0 PUSH0 RETURNDATACOPY RETURNDATASIZE PUSH0 REVERT JUMPDEST POP POP POP POP PUSH1 0x40 MLOAD RETURNDATASIZE PUSH1 0x1F NOT PUSH1 0x1F DUP3 ADD AND DUP3 ADD DUP1 PUSH1 0x40 MSTORE POP DUP2 ADD SWAP1 PUSH2 0x27D SWAP2 SWAP1 PUSH2 0x96A JUMP JUMPDEST LT ISZERO PUSH2 0x2BE JUMPI PUSH1 0x40 MLOAD PUSH32 0x8C379A000000000000000000000000000000000000000000000000000000000 DUP2 MSTORE PUSH1 0x4 ADD PUSH2 0x2B5 SWAP1 PUSH2 0x9DF JUMP JUMPDEST PUSH1 0x40 MLOAD DUP1 SWAP2 SUB SWAP1 REVERT JUMPDEST PUSH0 PUSH1 0x2 PUSH0 SWAP1 SLOAD SWAP1 PUSH2 0x100 EXP SWAP1 DIV PUSH20 0xFFFFFFFFFFFFFFFFFFFFFFFFFFFFFFFFFFFFFFFF AND PUSH20 0xFFFFFFFFFFFFFFFFFFFFFFFFFFFFFFFFFFFFFFFF AND PUSH4 0xA9059CBB CALLER DUP5 PUSH1 0x40 MLOAD DUP4 PUSH4 0xFFFFFFFF AND PUSH1 0xE0 SHL DUP2 MSTORE PUSH1 0x4 ADD PUSH2 0x31B SWAP3 SWAP2 SWAP1 PUSH2 0xA0C JUMP JUMPDEST PUSH1 0x20 PUSH1 0x40 MLOAD DUP1 DUP4 SUB DUP2 PUSH0 DUP8 GAS CALL ISZERO DUP1 ISZERO PUSH2 0x337 JUMPI RETURNDATASIZE PUSH0 PUSH0 RETURNDATACOPY RETURNDATASIZE PUSH0 REVERT JUMPDEST POP POP POP POP PUSH1 0x40 MLOAD RETURNDATASIZE PUSH1 0x1F NOT PUSH1 0x1F DUP3 ADD AND DUP3 ADD DUP1 PUSH1 0x40 MSTORE POP DUP2 ADD SWAP1 PUSH2 0x35B SWAP2 SWAP1 PUSH2 0xA68 JUMP JUMPDEST SWAP1 POP DUP1 PUSH2 0x39D JUMPI PUSH1 0x40 MLOAD PUSH32 0x8C379A000000000000000000000000000000000000000000000000000000000 DUP2 MSTORE PUSH1 0x4 ADD PUSH2 0x394 SWAP1 PUSH2 0xADD JUMP JUMPDEST PUSH1 0x40 MLOAD DUP1 SWAP2 SUB SWAP1 REVERT JUMPDEST POP POP POP POP POP JUMP JUMPDEST PUSH0 DUP2 GT PUSH2 0x3E6 JUMPI PUSH1 0x40 MLOAD PUSH32 0x8C379A000000000000000000000000000000000000000000000000000000000 DUP2 MSTORE PUSH1 0x4 ADD PUSH2 0x3DD SWAP1 PUSH2 0xB45 JUMP JUMPDEST PUSH1 0x40 MLOAD DUP1 SWAP2 SUB SWAP1 REVERT JUMPDEST PUSH0 PUSH2 0x3EF PUSH2 0x6CE JUMP JUMPDEST SWAP1 POP PUSH0 PUSH2 0x3FA PUSH2 0x6DA JUMP JUMPDEST SWAP1 POP PUSH0 PUSH3 0xF4240 DUP3 DUP6 PUSH2 0x40D SWAP2 SWAP1 PUSH2 0x8B8 JUMP JUMPDEST PUSH2 0x417 SWAP2 SWAP1 PUSH2 0x926 JUMP JUMPDEST SWAP1 POP PUSH0 DUP4 PUSH4 0x5F5E100 DUP4 PUSH2 0x42B SWAP2 SWAP1 PUSH2 0x8B8 JUMP JUMPDEST PUSH2 0x435 SWAP2 SWAP1 PUSH2 0x926 JUMP JUMPDEST SWAP1 POP DUP1 SELFBALANCE LT ISZERO PUSH2 0x47A JUMPI PUSH1 0x40 MLOAD PUSH32 0x8C379A000000000000000000000000000000000000000000000000000000000 DUP2 MSTORE PUSH1 0x4 ADD PUSH2 0x471 SWAP1 PUSH2 0xBAD JUMP JUMPDEST PUSH1 0x40 MLOAD DUP1 SWAP2 SUB SWAP1 REVERT JUMPDEST PUSH0 PUSH1 0x2 PUSH0 SWAP1 SLOAD SWAP1 PUSH2 0x100 EXP SWAP1 DIV PUSH20 0xFFFFFFFFFFFFFFFFFFFFFFFFFFFFFFFFFFFFFFFF AND PUSH20 0xFFFFFFFFFFFFFFFFFFFFFFFFFFFFFFFFFFFFFFFF AND PUSH4 0x23B872DD CALLER ADDRESS DUP10 PUSH1 0x40 MLOAD DUP5 PUSH4 0xFFFFFFFF AND PUSH1 0xE0 SHL DUP2 MSTORE PUSH1 0x4 ADD PUSH2 0x4D9 SWAP4 SWAP3 SWAP2 SWAP1 PUSH2 0xBCB JUMP JUMPDEST PUSH1 0x20 PUSH1 0x40 MLOAD DUP1 DUP4 SUB DUP2 PUSH0 DUP8 GAS CALL ISZERO DUP1 ISZERO PUSH2 0x4F5 JUMPI RETURNDATASIZE PUSH0 PUSH0 RETURNDATACOPY RETURNDATASIZE PUSH0 REVERT JUMPDEST POP POP POP POP PUSH1 0x40 MLOAD RETURNDATASIZE PUSH1 0x1F NOT PUSH1 0x1F DUP3 ADD AND DUP3 ADD DUP1 PUSH1 0x40 MSTORE POP DUP2 ADD SWAP1 PUSH2 0x519 SWAP2 SWAP1 PUSH2 0xA68 JUMP JUMPDEST SWAP1 POP DUP1 PUSH2 0x55B JUMPI PUSH1 0x40 MLOAD PUSH32 0x8C379A000000000000000000000000000000000000000000000000000000000 DUP2 MSTORE PUSH1 0x4 ADD PUSH2 0x552 SWAP1 PUSH2 0xADD JUMP JUMPDEST PUSH1 0x40 MLOAD DUP1 SWAP2 SUB SWAP1 REVERT JUMPDEST CALLER PUSH20 0xFFFFFFFFFFFFFFFFFFFFFFFFFFFFFFFFFFFFFFFF AND PUSH2 0x8FC DUP4 SWAP1 DUP2 ISZERO MUL SWAP1 PUSH1 0x40 MLOAD PUSH0 PUSH1 0x40 MLOAD DUP1 DUP4 SUB DUP2 DUP6 DUP9 DUP9 CALL SWAP4 POP POP POP POP ISZERO DUP1 ISZERO PUSH2 0x59E JUMPI RETURNDATASIZE PUSH0 PUSH0 RETURNDATACOPY RETURNDATASIZE PUSH0 REVERT JUMPDEST POP POP POP POP POP POP POP JUMP JUMPDEST PUSH0 DUP2 GT PUSH2 0x5E9 JUMPI PUSH1 0x40 MLOAD PUSH32 0x8C379A000000000000000000000000000000000000000000000000000000000 DUP2 MSTORE PUSH1 0x4 ADD PUSH2 0x5E0 SWAP1 PUSH2 0xB45 JUMP JUMPDEST PUSH1 0x40 MLOAD DUP1 SWAP2 SUB SWAP1 REVERT JUMPDEST PUSH0 PUSH1 0x2 PUSH0 SWAP1 SLOAD SWAP1 PUSH2 0x100 EXP SWAP1 DIV PUSH20 0xFFFFFFFFFFFFFFFFFFFFFFFFFFFFFFFFFFFFFFFF AND PUSH20 0xFFFFFFFFFFFFFFFFFFFFFFFFFFFFFFFFFFFFFFFF AND PUSH4 0x23B872DD CALLER ADDRESS DUP6 PUSH1 0x40 MLOAD DUP5 PUSH4 0xFFFFFFFF AND PUSH1 0xE0 SHL DUP2 MSTORE PUSH1 0x4 ADD PUSH2 0x648 SWAP4 SWAP3 SWAP2 SWAP1 PUSH2 0xBCB JUMP JUMPDEST PUSH1 0x20 PUSH1 0x40 MLOAD DUP1 DUP4 SUB DUP2 PUSH0 DUP8 GAS CALL ISZERO DUP1 ISZERO PUSH2 0x664 JUMPI RETURNDATASIZE PUSH0 PUSH0 RETURNDATACOPY RETURNDATASIZE PUSH0 REVERT JUMPDEST POP POP POP POP PUSH1 0x40 MLOAD RETURNDATASIZE PUSH1 0x1F NOT PUSH1 0x1F DUP3 ADD AND DUP3 ADD DUP1 PUSH1 0x40 MSTORE POP DUP2 ADD SWAP1 PUSH2 0x688 SWAP2 SWAP1 PUSH2 0xA68 JUMP JUMPDEST SWAP1 POP DUP1 PUSH2 0x6CA JUMPI PUSH1 0x40 MLOAD PUSH32 0x8C379A000000000000000000000000000000000000000000000000000000000 DUP2 MSTORE PUSH1 0x4 ADD PUSH2 0x6C1 SWAP1 PUSH2 0xADD JUMP JUMPDEST PUSH1 0x40 MLOAD DUP1 SWAP2 SUB SWAP1 REVERT JUMPDEST POP POP JUMP JUMPDEST PUSH0 PUSH5 0x45D964B800 SWAP1 POP SWAP1 JUMP JUMPDEST PUSH0 PUSH4 0x5F5E100 SWAP1 POP SWAP1 JUMP JUMPDEST PUSH0 PUSH20 0xFFFFFFFFFFFFFFFFFFFFFFFFFFFFFFFFFFFFFFFF DUP3 AND SWAP1 POP SWAP2 SWAP1 POP JUMP JUMPDEST PUSH0 DUP2 SWAP1 POP SWAP2 SWAP1 POP JUMP JUMPDEST PUSH0 PUSH2 0x727 PUSH2 0x722 PUSH2 0x71D DUP5 PUSH2 0x6E5 JUMP JUMPDEST PUSH2 0x704 JUMP JUMPDEST PUSH2 0x6E5 JUMP JUMPDEST SWAP1 POP SWAP2 SWAP1 POP JUMP JUMPDEST PUSH0 PUSH2 0x738 DUP3 PUSH2 0x70D JUMP JUMPDEST SWAP1 POP SWAP2 SWAP1 POP JUMP JUMPDEST PUSH0 PUSH2 0x749 DUP3 PUSH2 0x72E JUMP JUMPDEST SWAP1 POP SWAP2 SWAP1 POP JUMP JUMPDEST PUSH2 0x759 DUP2 PUSH2 0x73F JUMP JUMPDEST DUP3 MSTORE POP POP JUMP JUMPDEST PUSH0 PUSH1 0x20 DUP3 ADD SWAP1 POP PUSH2 0x772 PUSH0 DUP4 ADD DUP5 PUSH2 0x750 JUMP JUMPDEST SWAP3 SWAP2 POP POP JUMP JUMPDEST PUSH0 PUSH2 0x782 DUP3 PUSH2 0x6E5 JUMP JUMPDEST SWAP1 POP SWAP2 SWAP1 POP JUMP JUMPDEST PUSH2 0x792 DUP2 PUSH2 0x778 JUMP JUMPDEST DUP3 MSTORE POP POP JUMP JUMPDEST PUSH0 PUSH1 0x20 DUP3 ADD SWAP1 POP PUSH2 0x7AB PUSH0 DUP4 ADD DUP5 PUSH2 0x789 JUMP JUMPDEST SWAP3 SWAP2 POP POP JUMP JUMPDEST PUSH0 PUSH0 REVERT JUMPDEST PUSH0 DUP2 SWAP1 POP SWAP2 SWAP1 POP JUMP JUMPDEST PUSH2 0x7C7 DUP2 PUSH2 0x7B5 JUMP JUMPDEST DUP2 EQ PUSH2 0x7D1 JUMPI PUSH0 PUSH0 REVERT JUMPDEST POP JUMP JUMPDEST PUSH0 DUP2 CALLDATALOAD SWAP1 POP PUSH2 0x7E2 DUP2 PUSH2 0x7BE JUMP JUMPDEST SWAP3 SWAP2 POP POP JUMP JUMPDEST PUSH0 PUSH1 0x20 DUP3 DUP5 SUB SLT ISZERO PUSH2 0x7FD JUMPI PUSH2 0x7FC PUSH2 0x7B1 JUMP JUMPDEST JUMPDEST PUSH0 PUSH2 0x80A DUP5 DUP3 DUP6 ADD PUSH2 0x7D4 JUMP JUMPDEST SWAP2 POP POP SWAP3 SWAP2 POP POP JUMP JUMPDEST PUSH0 DUP3 DUP3 MSTORE PUSH1 0x20 DUP3 ADD SWAP1 POP SWAP3 SWAP2 POP POP JUMP JUMPDEST PUSH32 0x455448206E6F742073656E740000000000000000000000000000000000000000 PUSH0 DUP3 ADD MSTORE POP JUMP JUMPDEST PUSH0 PUSH2 0x857 PUSH1 0xC DUP4 PUSH2 0x813 JUMP JUMPDEST SWAP2 POP PUSH2 0x862 DUP3 PUSH2 0x823 JUMP JUMPDEST PUSH1 0x20 DUP3 ADD SWAP1 POP SWAP2 SWAP1 POP JUMP JUMPDEST PUSH0 PUSH1 0x20 DUP3 ADD SWAP1 POP DUP2 DUP2 SUB PUSH0 DUP4 ADD MSTORE PUSH2 0x884 DUP2 PUSH2 0x84B JUMP JUMPDEST SWAP1 POP SWAP2 SWAP1 POP JUMP JUMPDEST PUSH32 0x4E487B7100000000000000000000000000000000000000000000000000000000 PUSH0 MSTORE PUSH1 0x11 PUSH1 0x4 MSTORE PUSH1 0x24 PUSH0 REVERT JUMPDEST PUSH0 PUSH2 0x8C2 DUP3 PUSH2 0x7B5 JUMP JUMPDEST SWAP2 POP PUSH2 0x8CD DUP4 PUSH2 0x7B5 JUMP JUMPDEST SWAP3 POP DUP3 DUP3 MUL PUSH2 0x8DB DUP2 PUSH2 0x7B5 JUMP JUMPDEST SWAP2 POP DUP3 DUP3 DIV DUP5 EQ DUP4 ISZERO OR PUSH2 0x8F2 JUMPI PUSH2 0x8F1 PUSH2 0x88B JUMP JUMPDEST JUMPDEST POP SWAP3 SWAP2 POP POP JUMP JUMPDEST PUSH32 0x4E487B7100000000000000000000000000000000000000000000000000000000 PUSH0 MSTORE PUSH1 0x12 PUSH1 0x4 MSTORE PUSH1 0x24 PUSH0 REVERT JUMPDEST PUSH0 PUSH2 0x930 DUP3 PUSH2 0x7B5 JUMP JUMPDEST SWAP2 POP PUSH2 0x93B DUP4 PUSH2 0x7B5 JUMP JUMPDEST SWAP3 POP DUP3 PUSH2 0x94B JUMPI PUSH2 0x94A PUSH2 0x8F9 JUMP JUMPDEST JUMPDEST DUP3 DUP3 DIV SWAP1 POP SWAP3 SWAP2 POP POP JUMP JUMPDEST PUSH0 DUP2 MLOAD SWAP1 POP PUSH2 0x964 DUP2 PUSH2 0x7BE JUMP JUMPDEST SWAP3 SWAP2 POP POP JUMP JUMPDEST PUSH0 PUSH1 0x20 DUP3 DUP5 SUB SLT ISZERO PUSH2 0x97F JUMPI PUSH2 0x97E PUSH2 0x7B1 JUMP JUMPDEST JUMPDEST PUSH0 PUSH2 0x98C DUP5 DUP3 DUP6 ADD PUSH2 0x956 JUMP JUMPDEST SWAP2 POP POP SWAP3 SWAP2 POP POP JUMP JUMPDEST PUSH32 0x496E73756666696369656E74205553444320696E20636F6E7472616374000000 PUSH0 DUP3 ADD MSTORE POP JUMP JUMPDEST PUSH0 PUSH2 0x9C9 PUSH1 0x1D DUP4 PUSH2 0x813 JUMP JUMPDEST SWAP2 POP PUSH2 0x9D4 DUP3 PUSH2 0x995 JUMP JUMPDEST PUSH1 0x20 DUP3 ADD SWAP1 POP SWAP2 SWAP1 POP JUMP JUMPDEST PUSH0 PUSH1 0x20 DUP3 ADD SWAP1 POP DUP2 DUP2 SUB PUSH0 DUP4 ADD MSTORE PUSH2 0x9F6 DUP2 PUSH2 0x9BD JUMP JUMPDEST SWAP1 POP SWAP2 SWAP1 POP JUMP JUMPDEST PUSH2 0xA06 DUP2 PUSH2 0x7B5 JUMP JUMPDEST DUP3 MSTORE POP POP JUMP JUMPDEST PUSH0 PUSH1 0x40 DUP3 ADD SWAP1 POP PUSH2 0xA1F PUSH0 DUP4 ADD DUP6 PUSH2 0x789 JUMP JUMPDEST PUSH2 0xA2C PUSH1 0x20 DUP4 ADD DUP5 PUSH2 0x9FD JUMP JUMPDEST SWAP4 SWAP3 POP POP POP JUMP JUMPDEST PUSH0 DUP2 ISZERO ISZERO SWAP1 POP SWAP2 SWAP1 POP JUMP JUMPDEST PUSH2 0xA47 DUP2 PUSH2 0xA33 JUMP JUMPDEST DUP2 EQ PUSH2 0xA51 JUMPI PUSH0 PUSH0 REVERT JUMPDEST POP JUMP JUMPDEST PUSH0 DUP2 MLOAD SWAP1 POP PUSH2 0xA62 DUP2 PUSH2 0xA3E JUMP JUMPDEST SWAP3 SWAP2 POP POP JUMP JUMPDEST PUSH0 PUSH1 0x20 DUP3 DUP5 SUB SLT ISZERO PUSH2 0xA7D JUMPI PUSH2 0xA7C PUSH2 0x7B1 JUMP JUMPDEST JUMPDEST PUSH0 PUSH2 0xA8A DUP5 DUP3 DUP6 ADD PUSH2 0xA54 JUMP JUMPDEST SWAP2 POP POP SWAP3 SWAP2 POP POP JUMP JUMPDEST PUSH32 0x55534443207472616E73666572206661696C6564000000000000000000000000 PUSH0 DUP3 ADD MSTORE POP JUMP JUMPDEST PUSH0 PUSH2 0xAC7 PUSH1 0x14 DUP4 PUSH2 0x813 JUMP JUMPDEST SWAP2 POP PUSH2 0xAD2 DUP3 PUSH2 0xA93 JUMP JUMPDEST PUSH1 0x20 DUP3 ADD SWAP1 POP SWAP2 SWAP1 POP JUMP JUMPDEST PUSH0 PUSH1 0x20 DUP3 ADD SWAP1 POP DUP2 DUP2 SUB PUSH0 DUP4 ADD MSTORE PUSH2 0xAF4 DUP2 PUSH2 0xABB JUMP JUMPDEST SWAP1 POP SWAP2 SWAP1 POP JUMP JUMPDEST PUSH32 0x416D6F756E74206D7573742062652067726561746572207468616E2030000000 PUSH0 DUP3 ADD MSTORE POP JUMP JUMPDEST PUSH0 PUSH2 0xB2F PUSH1 0x1D DUP4 PUSH2 0x813 JUMP JUMPDEST SWAP2 POP PUSH2 0xB3A DUP3 PUSH2 0xAFB JUMP JUMPDEST PUSH1 0x20 DUP3 ADD SWAP1 POP SWAP2 SWAP1 POP JUMP JUMPDEST PUSH0 PUSH1 0x20 DUP3 ADD SWAP1 POP DUP2 DUP2 SUB PUSH0 DUP4 ADD MSTORE PUSH2 0xB5C DUP2 PUSH2 0xB23 JUMP JUMPDEST SWAP1 POP SWAP2 SWAP1 POP JUMP JUMPDEST PUSH32 0x496E73756666696369656E742045544820696E20636F6E747261637400000000 PUSH0 DUP3 ADD MSTORE POP JUMP JUMPDEST PUSH0 PUSH2 0xB97 PUSH1 0x1C DUP4 PUSH2 0x813 JUMP JUMPDEST SWAP2 POP PUSH2 0xBA2 DUP3 PUSH2 0xB63 JUMP JUMPDEST PUSH1 0x20 DUP3 ADD SWAP1 POP SWAP2 SWAP1 POP JUMP JUMPDEST PUSH0 PUSH1 0x20 DUP3 ADD SWAP1 POP DUP2 DUP2 SUB PUSH0 DUP4 ADD MSTORE PUSH2 0xBC4 DUP2 PUSH2 0xB8B JUMP JUMPDEST SWAP1 POP SWAP2 SWAP1 POP JUMP JUMPDEST PUSH0 PUSH1 0x60 DUP3 ADD SWAP1 POP PUSH2 0xBDE PUSH0 DUP4 ADD DUP7 PUSH2 0x789 JUMP JUMPDEST PUSH2 0xBEB PUSH1 0x20 DUP4 ADD DUP6 PUSH2 0x789 JUMP JUMPDEST PUSH2 0xBF8 PUSH1 0x40 DUP4 ADD DUP5 PUSH2 0x9FD JUMP JUMPDEST SWAP5 SWAP4 POP POP POP POP JUMP INVALID LOG2 PUSH5 0x6970667358 0x22 SLT KECCAK256 0xD6 0xC2 0x1E 0xDF PUSH18 0x3542183C105E6FB4E6EE9A53987D62834F74 LOG3 0x29 DUP11 0xD6 CALLF 0xEFAF AND RETURNDATACOPY PUSH5 0x736F6C6343 STOP ADDMOD 0x1E STOP CALLER "
				},
				"gasEstimates": {
					"creation": {
						"codeDepositCost": "625200",
						"executionCost": "97717",
						"totalCost": "722917"
					},
					"external": {
						"depositUSDC(uint256)": "infinite",
						"owner()": "2508",
						"swapEthToUsdc()": "infinite",
						"swapUsdcToEth(uint256)": "infinite",
						"usdcToken()": "infinite"
					},
					"internal": {
						"_getLatestEthPrice()": "22",
						"_getLatestUsdcPrice()": "22"
					}
				},
				"methodIdentifiers": {
					"depositUSDC(uint256)": "f688bcfb",
					"owner()": "8da5cb5b",
					"swapEthToUsdc()": "905f1269",
					"swapUsdcToEth(uint256)": "cc85aeaf",
					"usdcToken()": "11eac855"
				}
			},
			"storageLayout": {
				"storage": [
					{
						"astId": 130,
						"contract": "contracts/Swap.sol:Swap",
						"label": "ethUsdPriceFeed",
						"offset": 0,
						"slot": "0",
						"type": "t_contract(AggregatorV3Interface)45"
					},
					{
						"astId": 133,
						"contract": "contracts/Swap.sol:Swap",
						"label": "usdcUsdPriceFeed",
						"offset": 0,
						"slot": "1",
						"type": "t_contract(AggregatorV3Interface)45"
					},
					{
						"astId": 136,
						"contract": "contracts/Swap.sol:Swap",
						"label": "usdcToken",
						"offset": 0,
						"slot": "2",
						"type": "t_contract(IERC20)123"
					},
					{
						"astId": 138,
						"contract": "contracts/Swap.sol:Swap",
						"label": "owner",
						"offset": 0,
						"slot": "3",
						"type": "t_address"
					}
				],
				"types": {
					"t_address": {
						"encoding": "inplace",
						"label": "address",
						"numberOfBytes": "20"
					},
					"t_contract(AggregatorV3Interface)45": {
						"encoding": "inplace",
						"label": "contract AggregatorV3Interface",
						"numberOfBytes": "20"
					},
					"t_contract(IERC20)123": {
						"encoding": "inplace",
						"label": "contract IERC20",
						"numberOfBytes": "20"
					}
				}
			},
			"userdoc": {
				"kind": "user",
				"methods": {},
				"version": 1
			}
		}
	}
}